:100000000C949F010C94E61E0C94BB1E0C94901E45
:100010000C94651E0C943A1E0C940F1E0C94E41D57
:100020000C94B91D0C94D0010C94D0010C94D00107
:100030000C94D0010C94111F0C94D0010C94D0019D
:100040000C94D0010C940E200C94D0010C94D0018F
:100050000C94D0010C94D0010C94D0010C946F1D21
:100060000C94D0010C94D81F0C94AE1F0C94D001AA
:100070000C94D0010C94D0010C94D0010C94D001BC
:100080000C94D0010C94D0010C94D0010C94D001AC
:100090000C94D0010C94D0010C94D0010C944B1C06
:1000A0000C94D0010C94D0010C94D0010C94D0018C
:1000B0000C94D0010C94D0010C94D0010C94D0017C
:1000C0000C94D0010C94D0010C94D0010C94D0016C
:1000D0000C94D0010C94D0010C94D0010C94D0015C
:1000E0000C94D0010C943B0A0C9452110C94D20144
:1000F0000C941E020C94900A0C94450A0C940B026A
:100100000C949A0A0C94C4020C94DF020C94D90843
:100110000C94F0070C94FB010C94210A0C94C00B76
:100120000C94860A0C9452020C94680A0C94E00217
:100130000C94B4020C94D3010C947C0A0C948C089B
:100140000C9454080C94D2020C940D0A0C94E40202
:100150000C94080A0C94D6020C9423080C94BE024A
:100160000C94A5020C94170A0C94DA020C94F30771
:100170000C942B0A0C94C8020C94EB070C944F0AB5
:100180000C94BA020C9420080C94A9020C94330A23
:100190000C94590A0C94720A0C949F020C94F7095F
:1001A0000C940B270C94CC020C9432080C94EF079F
:1001B0000C94F2070C9446080C94F1070C94FC0183
:1001C0000C94B1020C94B6200C94AD020C94250250
:1001D000000020002300260029002C002F00320000
:1001E00000010000030106010901CDCCCC3D0AD776
:1001F000233C17B7D13877CC2B329595E6241FB125
:100200004F0A0000803FCDCCCC3D6F12833A95BFA2
:10021000D6337D1D9026B3CE010C00002041000096
:10022000C84200401C4620BCBE4CCA1B0E5AAEC57C
:100230009D740200002100240027002A002D0030B8
:1002400000330001010000040107010A010000223F
:1002500000250028002B002E003100340002010090
:1002600000050108010B010505050507050808083B
:1002700008020202020A0A08080404040401010137
:10028000010101010103030303030303030407073F
:10029000070C0C0C0C0C0C0C0C02020202060606DD
:1002A00006060606060B0B0B0B0B0B0B0B010210C5
:1002B0002020080810204010204080020102010880
:1002C0000402010102040810204080804020100830
:1002D0000402018004020180402010080402010889
:1002E00004020101020408102040800102040810E9
:1002F00020408000000A0B02090C0D0E08070304C1
:1003000001000000000000000000000000000000EC
:1003100000000000000000000000000000000012CB
:1003200011100000000000000000000000000000AC
:1003300000000000000000000000B6200B27112480
:100340001FBECFEFD1E2DEBFCDBF00E00CBF13E098
:10035000A0E0B2E0EEECF5E500E00BBF02C00790D4
:100360000D92A436B107D9F725E0A4E6B3E001C0A9
:100370001D92A13EB207E1F711E0CEE9D1E000E025
:1003800006C021970109802FFE010E948528CD39E2
:10039000D10780E00807A9F70E9427220C94D52AEC
:1003A0000C940000089508952091BE03260F332772
:1003B000331F21323105ECF420912D04FC0190E033
:1003C00080E0243069F082E00895A091BE0321917D
:1003D000AC0142565C4FA40FB52FB11D2C93019672
:1003E000861798F38091BE03680F6093BE0380E088
:1003F000089581E008950895E091E6038091E50372
:10040000E81730F4F0E0E951FC4F808190E0089566
:100410008FEF9FEF08959091E6038091E5032FEF12
:100420003FEF981748F4E92FF0E0E951FC4F2081A5
:1004300030E09F5F9093E603C90108958091E50342
:100440009091E603891B990B0895CF92DF92EF926A
:10045000FF920F931F93CF93DF937C01CB018A010F
:1004600020913304222389F0EB016B01C40ED51EC9
:10047000CC15DD0569F06991D701ED91FC910190F2
:10048000F081E02DC7011995F3CF642F0E94D401AC
:10049000C801DF91CF911F910F91FF90EF90DF90F6
:1004A000CF900895CF93DF931F92CDB7DEB76983C6
:1004B000209133042223F9F020915604203258F081
:1004C00021E030E0FC013383228390E080E00F9054
:1004D000DF91CF91089580913404E82FF0E0EB5C38
:1004E000FB4F998190838F5F8093340480935604EF
:1004F00081E090E0ECCF61E0CE0101960E94D40152
:10050000F7CF8150823108F05AC0E82FF0E08827F9
:10051000E357FD4F8F4F0C948528AD02B1029F0227
:10052000A502A902DF02B402BA02BE02C402C802D6
:10053000CC02D202D602DF02DA02E002E4028091AB
:1005400080008F77809380000895809180008F7D58
:10055000F9CF80918000877FF5CF84B58F7784BDF8
:10056000089584B58F7DFBCF8091B0008F77809305
:10057000B00008958091B0008F7DF9CF80919000F8
:100580008F77809390000895809190008F7DF9CFB0
:1005900080919000877FF5CF8091A0008F77809326
:1005A000A00008958091A0008F7DF9CF8091A000D8
:1005B000877FF5CF809120018F7780932001089568
:1005C000809120018F7DF9CF80912001877FF5CF29
:1005D0001F93CF93DF93282F30E0F901ED50FD4FAB
:1005E0008491F901E355FD4FD491F901E959FD4F8B
:1005F000C491CC23A9F0162F81110E948102EC2F07
:10060000F0E0EE0FFF1FE35BFD4FA591B4918FB7B4
:10061000F894EC91111108C0D095DE23DC938FBFC4
:10062000DF91CF911F910895DE2BF8CFFC018081DF
:100630009181892B39F0A281B3819C9111968C9183
:100640009CBD8DBD83858F3F19F060E00C94E8025E
:100650000895FC0183858F3F19F061E00C94E80256
:10066000089510922D0481E080932C0410920704C9
:1006700061E084E10E94E80261E085E10E94E80215
:10068000E9EBF0E080818E7F808380818D7F8083A5
:1006900088E48093B80085E48093BC000895CF93EC
:1006A000DF9391E090939D038823B9F0C091B80047
:1006B000D091BA008091BC008A7B8093BC0060E03E
:1006C00084E10E94E80260E085E10E94E8020E9465
:1006D0003103D093BA00C093B800DF91CF91089551
:1006E000CF93DF9390E0FC01E355FD4F24918959AE
:1006F0009D4FFC0184918823C9F090E0880F991FD9
:10070000FC01ED5CFD4FA591B491FC01E35BFD4F55
:10071000C591D49161110DC09FB7F8948C9120952B
:1007200082238C938881282328839FBFDF91CF91D8
:100730000895623051F49FB7F8943C91822F8095D0
:1007400083238C93E8812E2BEFCF8FB7F894EC9115
:100750002E2B2C938FBFEACF8230910538F0880F73
:10076000991F880F991F05970197F1F70895AF9288
:10077000BF92CF92DF92EF92FF920F931F93CF938E
:10078000DF93EC0188819981892B89F06EBD0DB4CE
:1007900007FEFDCFBEB48B2DDF91CF911F910F913E
:1007A000FF90EF90DF90CF90BF90AF900895888535
:1007B000998511E0892B09F010E8AA24A394862FCB
:1007C000812309F0A12C062F2C813D814E815F8170
:1007D00060E271EA87E090E00E944028F22EB02E9D
:1007E000E12CC22ED12CFF2019F0C6010E94AC03CF
:1007F0008A85877F09F042C08D858F3F89F0902FD1
:10080000912381E009F480E08A1551F0EF85F889A1
:100810008F89992369F19081892B8083AA24A394DD
:10082000E989FA898081998D892B8083FF2019F0CD
:10083000C6010E94AC038E858F3F39F0EB89FC899D
:100840008081988D892309F0E12AE989FA899081CC
:10085000898D8095892380838E858F3F09F0BE2CFA
:1008600088859985892BB9F5110F1111BCCF93CFCC
:100870009081809589238083A12CD2CFE989FA8940
:100880008081998D892B8083FF2019F0C6010E94F9
:10089000AC038D858F3F49F0EF85F8898F89902FC4
:1008A0009123A9F09081892B8083E989FA8990812D
:1008B000898D8095892380838E858F3F69F2EB89AE
:1008C000FC898081988D892339F2E12AC5CF9081F6
:1008D00080958923E9CF1695C8CF8F929F92AF92CA
:1008E000BF92CF92DF92EF92FF920F931F93CF931D
:1008F000DF937C014B016A01B22EA32E0E941603E6
:10090000E401C80CD91CCC15DD0569F4CB2DDA2D1A
:100910000C0F1D1FC017D10759F06FEFC7010E94C0
:10092000B7038993F7CF6991C7010E94B703EBCF53
:10093000C7010E94290381E0DF91CF911F910F91A0
:10094000FF90EF90DF90CF90BF90AF909F908F90EF
:1009500008958F929F92AF92BF92CF92DF92EF92C3
:10096000FF920F931F93CF93DF937C01B62EA72E98
:100970006A0149010E941603E401080D191DC01700
:10098000D10761F4CB2DDA2DCC0EDD1ECC15DD05A3
:1009900051F06991C7010E94B703F8CF6991C7016F
:1009A0000E94B703ECCFC7010E94290381E0DF91C9
:1009B000CF911F910F91FF90EF90DF90CF90BF905C
:1009C000AF909F908F9008953FB7F89480919903CE
:1009D00090919A03A0919B03B0919C0326B5A89B8C
:1009E00005C02F3F19F00196A11DB11D3FBFBA2FC1
:1009F000A92F982F8827BC01CD01620F711D811D81
:100A0000911D42E0660F771F881F991F4A95D1F705
:100A100008958F929F92AF92BF92CF92DF92EF9202
:100A2000FF920F931F93CF93DF93D0915604D1324F
:100A300008F0D7C0182FC09155040E94E4046B0140
:100A40007C0180912D0481116BC082E080932D0484
:100A500010932C048FEF80932B0410922A04D093D0
:100A60002904A5E3B4E0E9E0F4E080E0D81391C004
:100A70001092080480910804CC0FC82BC09308047E
:100A800080910704813009F088C0109207040E9409
:100A9000E4046B017C01809108048093BB00809189
:100AA0002F0490913004A0913104B0913204892B2D
:100AB0008A2B8B2BA1F00E94E40400912F0410914B
:100AC000300420913104309132046C197D098E0973
:100AD0009F09061717072807390708F442C08091B5
:100AE000BC0083FDD8CF85EC8093BC000E94E40459
:100AF0006B017C0180912D04823009F450C08091FB
:100B00002B048F3F09F46FC080912B04803209F4CD
:100B10006CC080912B04803309F469C084E026C046
:100B200080912F0490913004A0913104B09132044F
:100B3000892B8A2B8B2B09F484CF0E94E4048090AC
:100B40002F0490903004A0903104B09032046C19BE
:100B50007D098E099F0986169706A806B90608F032
:100B600070CF80912E040E944F0385E010923404D0
:100B70001092560410923304DF91CF911F910F9180
:100B8000FF90EF90DF90CF90BF90AF909F908F90AD
:100B900008959D9191938F5F69CF85EEA5CF809148
:100BA0002F0490913004A0913104B0913204892B2C
:100BB0008A2B8B2B09F49ECF0E94E40400912F0412
:100BC0001091300420913104309132046C197D0968
:100BD0008E099F09061717072807390708F08ACFDB
:100BE000C0CF81E0C3CF80E0C1CF82E0BFCF83E040
:100BF000BDCFCF93DF93EC018B818823A1F0888157
:100C000091E0909333048093550410923404109231
:100C1000560481E00E94090591E0811190E0892F3E
:100C2000DF91CF9108951092E6031092E5031092A0
:100C30003404109256040E94310382ED91E09093A7
:100C4000E2038093E10383ED91E09093E4038093CA
:100C5000E30381E08B83CE010E94F905982F811177
:100C6000CECFDDCFCF93DF93EA0191E090933304B1
:100C700080935504109234041092560487E594E052
:100C80000E945202688187E594E00E94520281E04E
:100C90000E94090591E0811190E0892FDF91CF91A9
:100CA00008951F93CF93DF93EA01122FDC01119671
:100CB0008D919C91DC01ED91FC910280F381E02DFE
:100CC0001995C817D90729F4812F0E94090591E0C9
:100CD000811190E0892FDF91CF911F910895CF92DC
:100CE000DF92EF92FF920F931F93CF93DF931F92A8
:100CF0001F92CDB7DEB7FC014787508B618B728B9B
:100D00008285882371F14487452F562F672F7727D7
:100D1000882349F143877F018BE0E80EF11C96811F
:100D2000878199838A83C080D180C114D10409F45A
:100D300043C0018510E098012E5F3F4FD601149605
:100D40008D919C918217930780F480E00F900F9013
:100D5000DF91CF911F910F91FF90EF90DF90CF9097
:100D600008954387D1CF4487D6CFF6018181928100
:100D7000208131E0309333042093550410923404E1
:100D8000109256040115110541F421E042E050E0B3
:100D9000B701C6010E945106D9CFDC01ED91FC914B
:100DA0000280F381E02DA801BE016F5F7F4F19958E
:100DB0000817190751F6E9CFA281B381109729F2DC
:100DC00024813581018510E02330310579F48E7F4F
:100DD00089839A830F5F1F4F9E012F5F3F4F42E031
:100DE00050E0B701CD010E94A904B0CF2115310513
:100DF00019F49F779983F0CF2230310511F4906870
:100E0000F9CF2130310541F79F779064F3CF8F926E
:100E10009F92AF92BF92CF92DF92EF92FF920F9389
:100E20001F93CF93DF93D82FC62F142F613208F072
:100E30009CC00E94E4046B017C0180912D0481110F
:100E40006FC081E080932D0410932C049FEF90934A
:100E50002B0410922A049C0F909329048093080479
:100E600080910804DD0FD82BD093080480910704EB
:100E7000813009F07CC0109207040E94E4046B01E9
:100E80007C01809108048093BB0080912F04909195
:100E90003004A0913104B0913204892B8A2B8B2B22
:100EA000A1F00E94E40400912F04109130042091DD
:100EB0003104309132046C197D098E099F0906179F
:100EC00017072807390708F44CC08091BC0083FD40
:100ED000D8CF85EC8093BC000E94E4046B017C01B8
:100EE00080912D04813009F444C080912A048C172C
:100EF00010F4C0912A04E9E0F4E0A7EEB3E080E04A
:100F00008C1359C08C2FDF91CF911F910F91FF90BF
:100F1000EF90DF90CF90BF90AF909F908F9008950B
:100F200080912F0490913004A0913104B09132044B
:100F3000892B8A2B8B2B09F480CF0E94E4048090AC
:100F40002F0490903004A0903104B09032046C19BA
:100F50007D098E099F0986169706A806B90608F02E
:100F60006CCF80912E040E944F03C0E0CBCF85EE62
:100F7000B1CF80912F0490913004A0913104B091B1
:100F80003204892B8A2B8B2B09F4AACF0E94E4040C
:100F900000912F04109130042091310430913204DB
:100FA0006C197D098E099F0906171707280739074D
:100FB00008F096CFD6CF91919D938F5FA1CF2FB799
:100FC000F8946091950370919603809197039091A6
:100FD00098032FBF089581E08093920308950895A8
:100FE000089508950895AF92BF92CF92DF92EF9245
:100FF000FF920F931F93CF93DF936C017B018B01C3
:10100000040F151FEB015E01AE18BF08C017D10712
:1010100059F06991D601ED91FC910190F081E02D9C
:10102000C6011995892B79F7C501DF91CF911F91E1
:101030000F91FF90EF90DF90CF90BF90AF90089509
:1010400090E080E00895FC01538D448D252F30E021
:10105000842F90E0821B930B541710F0CF960895C5
:1010600001970895FC01918D828D981761F0A28DF2
:10107000AE0FBF2FB11D5D968C91928D9F5F9F73B8
:10108000928F90E008958FEF9FEF0895FC01918D6E
:10109000828D981731F0828DE80FF11D858D90E0DB
:1010A00008958FEF9FEF0895FC01918D228D892F78
:1010B00090E0805C9F4F821B91098F739927089560
:1010C00083E694E00E94540821E0892B09F420E093
:1010D000822F0895FC01A48DA80FB92FB11DA35A2A
:1010E000BF4F2C91848D90E001968F739927848F48
:1010F000A689B7892C93A089B1898C91837080646B
:101100008C93938D848D981306C00288F389E02D0B
:1011100080818F7D80830895EF92FF920F931F93BC
:10112000CF93DF93EC0181E0888F9B8D8C8D98139A
:101130001AC0E889F989808185FF15C09FB7F894A6
:10114000EE89FF896083E889F989808183708064F2
:1011500080839FBF81E090E0DF91CF911F910F913D
:10116000FF90EF900895F62E0B8D10E00F5F1F4F4C
:101170000F731127E02E8C8D8E110CC00FB607FC5B
:10118000FACFE889F989808185FFF5CFCE010E94E9
:101190006A08F1CFEB8DEC0FFD2FF11DE35AFF4FE5
:1011A000F0829FB7F8940B8FEA89FB898081806277
:1011B000CFCFCF93DF93EC01888D8823B9F0AA8934
:1011C000BB89E889F9898C9185FD03C0808186FD02
:1011D0000DC00FB607FCF7CF8C9185FFF2CF808151
:1011E00085FFEDCFCE010E946A08E9CFDF91CF9154
:1011F000089581E08093930308950E9460088823F6
:1012000019F081E08093930380E090E0892B49F00E
:1012100080E090E0892B29F00E94000081110E945B
:10122000000080E090E0892B49F080E090E0892B7D
:1012300029F00E94000081110E94000080E090E0EF
:10124000892B49F080E090E0892B29F00E94000072
:1012500081110C94000008950F931F93CF93DF9397
:10126000EC010E94DF070E811F8128853985061752
:10127000170728073907B8F58A858823A1F18B85D8
:101280009C85AD85BE85892B8A2B8B2B61F1E881EE
:10129000F98119958B859C85AD85BE851816190633
:1012A0001A061B0684F48F859889A989BA89019743
:1012B000A109B1098F87988BA98BBA8B892B8A2BAF
:1012C0008B2B09F41A860E94DF070A811B812C816F
:1012D0003D81DC01CB01800F911FA21FB31F8E83C4
:1012E0009F83A887B987DF91CF911F910F910895B0
:1012F0008F929F92AF92BF92CF92DF92EF92FF9226
:101300000F931F93CF93DF93EC016A017B0120E0E1
:1013100030E04FE753E4CB01B6010E9477274B0141
:101320005C0120E030E0A9010E94A22918168CF58A
:10133000C501B4010E946C298B01B98020E030E026
:10134000A901C701B6010E94A22960E018160CF09D
:1013500061E08B2D0E94E8020F3F110509F0ECF4CB
:101360001127C88161E08C2F0E94700301151105BF
:10137000B9F460E08C2FDF91CF911F910F91FF9016
:10138000EF90DF90CF90BF90AF909F908F900C9494
:10139000E802C501B4019058CDCF0FEF10E0E1CFC6
:1013A0000F3F110511F461E0E5CFEC2FF0E0ED50B7
:1013B000FD4FE491E150E23108F0BCC0F0E0882735
:1013C000EB51F64F8F4F0C948528F709080A0D0A48
:1013D000170A210A9A0A2B0A330A3B0A450A4F0ABE
:1013E000590A680A720A9A0A7C0A860A900A84B51F
:1013F000806884BD07BDDF91CF911F910F91FF9051
:10140000EF90DF90CF90BF90AF909F908F90089516
:1014100084B5806284BD08BDEECF80918000806875
:10142000809380001093890000938800E4CF80911E
:10143000800080628093800010938B0000938A006C
:10144000DACF8091800088608093800010938D00B7
:1014500000938C00D0CF8091B00080688093B00062
:101460000093B300C8CF8091B00080628093B00039
:101470000093B400C0CF809190008068809390006A
:101480001093990000939800B6CF809190008062ED
:101490008093900010939B0000939A00ACCF8091B2
:1014A000900088608093900010939D0000939C00B2
:1014B000A2CF8091A00080688093A0008091A000BE
:1014C0008F7B8093A0001093A9000093A80093CF76
:1014D0008091A00080628093A0001093AB000093E5
:1014E000AA0089CF8091A00088608093A00010930B
:1014F000AD000093AC007FCF809120018068809385
:101500002001109329010093280175CF80912001BB
:1015100080628093200110932B0100932A016BCFEE
:101520008091200188608093200110932D01009309
:101530002C0161CF003811050CF035CF1ACF8EBDCC
:1015400000000DB407FEFDCF8EB508950895FA0191
:10155000309741F0248120782C602483608371834C
:10156000828393830895CF93DF93EC0188819981DF
:10157000DC01ED91FC910190F081E02D19952A811B
:101580003B81820F931F9B838A83DF91CF910895C4
:10159000CF93DF93EC0188819981DC01ED91FC917F
:1015A0000280F381E02D19952A813B81820F931FE0
:1015B0009B838A83DF91CF9108958F929F92AF9200
:1015C000BF92CF92DF92EF92FF920F931F93CF9330
:1015D000DF93CDB7DEB766970FB6F894DEBF0FBEC8
:1015E000CDBF6C018E01095E1F4F78018AE0882E05
:1015F000912CA12CB12CCB01BA01A50194010E9420
:101600004028942F852F605DF80162938F01A90116
:10161000692F782F411551056105710561F7A70103
:101620004E1B5F0BBF01C6010E94C80A66960FB62B
:10163000F894DEBF0FBECDBFDF91CF911F910F9108
:10164000FF90EF90DF90CF90BF90AF909F908F90E2
:10165000089580339CF08A3324F08F3524F08B3743
:1016600024F481E0089581344CF08B35D4F393ED6C
:10167000980F81E09230B0F380E008958B32B9F793
:10168000F0CFCF92DF92EF92FF920F931F93CF9301
:10169000DF93EC018C85811130C009851A850E9489
:1016A000DF07D80118966D937D938D939C931B97BC
:1016B000D801ED91FC910284F385E02DC8011995C4
:1016C00097FF25C00E94DF07F801C084D184E2841F
:1016D000F3846C197D098E099F09C480D580E6804A
:1016E000F7806C157D058E059F0510F38FEF9FEF3A
:1016F00097FD80E08B8781E08C878B85DF91CF9190
:101700001F910F91FF90EF90DF90CF900895992750
:10171000EFCF1F93CF93DF93EC01162F0E94410B65
:10172000811306C01C8681E0DF91CF911F9108953F
:1017300080E0FACFCF93DF93EC01CE010E94410B02
:101740008B303CF489304CF4882349F081E0888761
:1017500010C08D3011F08032C9F71C86EECF88851D
:1017600081110AC081E090E0C15BDF4F99838883DB
:1017700080E0DF91CF91089582E090E0F5CF089569
:10178000CF93DF932091850330E0F901ED50FD4FB9
:101790008491F901E355FD4FD491F901E959FD4FC9
:1017A000C491CC2321F181110E948102EC2FF0E041
:1017B000EE0FFF1FE053FE4FA591B491EC91ED2386
:1017C000B1F08091860390918703A0918803B09136
:1017D00089030196A11DB11D809386039093870311
:1017E000A0938803B0938903DF91CF9108958091EE
:1017F000860390918703A0918803B0918903019794
:10180000A109B109E9CFFC0124813581A9014F5F0C
:101810005F4F868197814817590748F482819381E9
:1018200055834483FC01E20FF31F60830895019008
:10183000F081E02D81E0808708959F92AF92BF9262
:10184000CF92DF92EF92FF920F931F93CF93DF938C
:1018500000D01F921F92CDB7DEB78C010E94410BC2
:10186000D82ED8011C961C92F12CE12C60EFC62ECC
:10187000C8010E94410BF8011486D81609F4BDC0B6
:10188000811119C0F801E15BFF4F82E090E0918384
:10189000808380E00F900F900F900F900F90DF915A
:1018A000CF911F910F91FF90EF90DF90CF90BF905D
:1018B000AF909F9008958C3509F09DC0C8010E949B
:1018C000410B8823F9F2EFE4F2E0853709F087C095
:1018D000D8011C961C9254E0952EB12CA12CC80165
:1018E0000E94410B882371F281344CF48053803183
:1018F00048F0F801E15BFF4F83E090E0C8CF8F7DB7
:101900008753F5CF44E0AA0CBB1C4A95E1F7A82AFF
:10191000F80114869A949110E2CFC501985D811563
:10192000944020F4750123E0F222A2CFC5019C5D12
:1019300081159440A8F4B3E0BB22B701762F662747
:10194000770F770F6A297B2990E080E00196603855
:1019500071058105910540F4C8010E94030C88CFF0
:10196000B50190E080E0F3CF1982262F2F73206815
:101970002A8326E096958795779567952A95D1F7DE
:101980006032710580F4606C6B835E01E4E0AE0E42
:10199000B11CD5016E915D01662309F469CFC801C0
:1019A0000E94030CF6CF262F2F7320682B8386E02E
:1019B000769567958A95E1F76031710538F4606E28
:1019C0006C835E01F5E0AF0EB11CE3CF60686C8301
:1019D000CD825E0126E0A20EB11CDBCF3296908153
:1019E000992309F486CF8913F9CF8181882309F4DB
:1019F00080CFF8011486682FAFCF0190F081E02DE1
:101A00008085882331F0F801E15BFF4F84E090E0AE
:101A10003ECF81E03FCF4F925F926F927F928F9245
:101A20009F92AF92BF92CF92DF92EF92FF920F936D
:101A30001F93CF93DF93EC018B0188818B32C9F127
:101A40008D32C1F52196FF24F394888190ED980F93
:101A50009A3018F08E3209F04DC160E070E0CB0191
:101A6000FE012191A0ED8A2E820E39E0381520F179
:101A70006A3949E97407840749E1940738F5AAE00F
:101A8000B0E09B01AC010E943528912CB12CA12C17
:101A90002401350140945094609470944616570682
:101AA0006806790698F0680D791D8A1D9B1DEF0167
:101AB000D7CF2196F12CC9CF211108C0FF20F1F119
:101AC00061307105810550E89507A0F0E12CEAE04E
:101AD0008E2E912CA12CB12C61157105F0E88F0789
:101AE0009105C0F1A50194010E944028CA01B901E5
:101AF000E394F2CFF801248120782A6024839B01AB
:101B0000AC0188279927DC01821B930BA40BB50B32
:101B100080839183A283B3838F2DDF91CF911F9117
:101B20000F91FF90EF90DF90CF90BF90AF909F907C
:101B30008F907F906F905F904F900895F80124816F
:101B40002078286024836083718382839383FF24B9
:101B5000F394E2CFFE01299130ED320F3A3010F4C8
:101B6000E394F8CF2E32F1F4EF012196FE01219695
:101B7000208150EDD52ED20E29E02D1598F06C3C29
:101B80003CEC73073CE08307910580F7AAE0B0E0E6
:101B90009B01AC010E9435286D0D711D811D911DA9
:101BA000EA94E4CF20812F7DD0E0C0E0253409F015
:101BB0005DC021812D32D9F53296CC24C394DF014A
:101BC000D0E0C0E02E2D0E2C000C330B4AE0B42EDA
:101BD000FD01DD9040ED4D0D4A3008F042C0BC9E45
:101BE000A001BD9E500D1124CD2DDD0CDD0BE09725
:101BF000C40FD51FAE01420F531F4732510544F3A6
:101C0000F8018481CC20D1F040E050E060E070E841
:101C1000F11003C040E050E0BA0180788C60F80118
:101C200084834083518362837383FC2C75CF2B3272
:101C300019F03196C12CC3CF3296FCCF40E050E072
:101C400060E87FEFF11004C040E050E060E87FE71B
:101C500080788C60F801848340835183628373832E
:101C600076CFCC2019F0D195C195D10920812111D1
:101C700041C0CE0DD11DE7FCDA950E9416271C1637
:101C80001D0604F5E12CC0FF0CC024E0E29EF0012B
:101C90001124E65EFD4F25913591459154910E94A6
:101CA0007727D595C795E394209769F7F110905859
:101CB000F801248120782C602483608371838283DF
:101CC000938345CFD195C195D109E12C209771F32C
:101CD000C0FF0CC044E0E49EF0011124E651FE4F29
:101CE00025913591459154910E947727D595C795B7
:101CF000E394ECCFF12C10CFCF93DF9300D01F9261
:101D00001F92CDB7DEB7009741F0FC0184818F7739
:101D1000863091F030F4843020F560E070E0CB0143
:101D200011C08A30B9F08C3049F18830B1F7608148
:101D300071818281938104C0608170E090E080E0D5
:101D40000E9416270F900F900F900F900F90DF9129
:101D5000CF91089560817181828193810E941827BB
:101D6000F1CF808191811D82BE016F5F7F4F0E9404
:101D70000B0DCE0101960E947C0EE4CF6081718133
:101D800082819381DFCFCF93DF93DC01EB01EC8184
:101D9000FD818A819B810896E817F90740F481E06C
:101DA0008887F0E0E0E0CF01DF91CF910895389788
:101DB000FD83EC833097B9F31296CD91DC911397A4
:101DC000209791F0CF018C1B9D0B23E09595879573
:101DD0002A95E1F78D831396FC93EE931297158263
:101DE000148217821682DFCF1196FC93EE93F3CF05
:101DF000009739F0FC0194819F7781E019F080E031
:101E0000089581E00895FC01248126FF12C080819D
:101E10009181009781F06150710968F0FC01258182
:101E2000222339F0F8E02F0290011124820F931F32
:101E3000F2CF90E080E00895EF92FF920F931F930E
:101E4000CF93DF937C01DC0112962D913C91139787
:101E5000ED91FC91AB01420F531FEF01C60FD71F4D
:101E6000C217D307A0F4888181110BC0E901CF010B
:101E70004C175D0751F00991DC011D91CD0101174F
:101E8000B9F381918111FDCFE8CF309751F4620F02
:101E9000731FCB010196F70193838283DB011C92B0
:101EA000F901CF01DF91CF911F910F91FF90EF903A
:101EB0000895FC012581222339F0F8E02F029001DA
:101EC0001124820F931F089590E080E008952F92CF
:101ED0003F924F925F926F927F928F929F92AF92BA
:101EE000BF92CF92DF92EF92FF920F931F93CF9307
:101EF000DF9300D01F921F92CDB7DEB7B82E962E7B
:101F00004D8319010E94DF076B017C018D801982CE
:101F10001C82282D30E03B832A832801712C612C00
:101F200081E080933304B0925504109234041092EF
:101F30005604692D87E594E00E94520281E00E94D8
:101F4000090591E0909333041092340410925604E2
:101F500041E0682D8B2D0E940707A82E1092E60302
:101F60008093E5038091E603A816E1F001151105C1
:101F700071F487E594E00E940B02F1012C81E20FDD
:101F8000F11D27FDFA9580832F5F2C83EBCF0E94F4
:101F9000DF076C197D098E099F0964157505860593
:101FA000970538F381E00E94090589813D81830FFF
:101FB000831A91E09983831708F4B2CF01151105B4
:101FC000C1F00E94DF076C197D098E099F0930E07E
:101FD00020E0601771078207930758F02C81822F49
:101FE000220F990B2A813B818217930714F43FEF4C
:101FF0003C838C810F900F900F900F900F90DF918A
:10200000CF911F910F91FF90EF90DF90CF90BF90F5
:10201000AF909F908F907F906F905F904F903F9088
:102020002F900895BF92CF92DF92EF92FF920F937D
:102030001F93CF93DF931F921F92CDB7DEB7F82E79
:10204000E62EC42EB22ED02E08EE13E09E012E5F97
:102050003F4F41E00E94670F882399F18C2D8B1927
:10206000990BAC014F5F5F4F81E090E002C0880F99
:10207000991FBA94E2F70197042E01C0880F0A94C1
:10208000EAF70D2D01C0000F4A95EAF7982F9095B9
:102090002A8192238023892B8A838983AE014F5F13
:1020A0005F4F6E2D8F2D0E9432060F900F90DF91A3
:1020B000CF911F910F91FF90EF90DF90CF90BF9045
:1020C000089580E0F2CF2F923F924F925F926F92ED
:1020D0007F928F929F92AF92BF92CF92DF92EF92B8
:1020E000FF920F931F93CF93DF931F921F92CDB751
:1020F000DEB77C013B014C018BE0880E911CD701BF
:1021000016969C91169717968C91179799838A83A8
:10211000CD90DC901197C114D10409F487C01996B1
:102120004C9150E0F6018481958184179507A8F0C1
:10213000808191E09093330480935504109234048D
:102140001092560420E0BE016F5F7F4FC6010E94CF
:102150005106B12CA12C811116C080E00F900F9078
:10216000DF91CF911F910F91FF90EF90DF90CF9073
:10217000BF90AF909F908F907F906F905F904F90A7
:102180003F902F900895D60114968D919C9102E076
:1021900010E00A191B098017910708F48C0141E02F
:1021A00082E090E0801B910BA816B90608F440E08D
:1021B000602FF60180810E9407071092E60380934A
:1021C000E5038017110649F624014A0C5B1C120135
:1021D000C101841995098017910778F4D6011196E9
:1021E0008D919C91DC01ED91FC910284F385E02DB1
:1021F0001995F10181931F01EBCFA00EB11EF2E002
:10220000AF16B10408F4BFCFF7018285811140C039
:10221000848590E0982F8827D30111969C938E9304
:102220002385822B8D939C9381E098CF1296ED911C
:10223000FC911397309709F490CF14962D913C910F
:10224000159719964C9150E02330310589F481603F
:1022500089839A834F5F5F4F02E010E09401BE01D3
:102260006F5F7F4FCF010E946D048111CDCF76CF7C
:102270002115310519F490689983EECF223031058C
:1022800011F49F77F9CF2130310531F7906CF4CFFD
:10229000838590E0982F8827D30111969C938E9385
:1022A0002485BFCF40E050E0BA0189EC95E00E9460
:1022B000780940E050E060E070E88BEC95E00E9427
:1022C00078091092470510928A030895FC01019045
:1022D0000020E9F73197AF01481B590BBC0183E699
:1022E00094E00C94F307FB0101900020E9F731978B
:1022F000AF01461B570B0C94C80A1F93CF93DF9373
:10230000EFE4F2E01281112379F032962181621319
:10231000F9CFEC016CE50E94B30A612FCE01DF9189
:10232000CF911F910C94B30A6111F9CF60E672E06E
:10233000DF91CF911F910C9473112F923F924F9286
:102340005F926F927F928F929F92AF92BF92CF9245
:10235000DF92EF92FF920F931F93CF93DF93CDB74E
:10236000DEB76C970FB6F894DEBF0FBECDBF8C0101
:102370001B01DC0114968C9114978F77863009F439
:1023800092C268F58230A0F11296ED90FC901397FE
:10239000CC901196DC90843008F056C2A701B601AB
:1023A000C1010E94C80AF101828193816C960FB627
:1023B000F894DEBF0FBECDBFDF91CF911F910F917B
:1023C000FF90EF90DF90CF90BF90AF909F908F9055
:1023D0007F906F905F904F903F902F9008958C303A
:1023E00069F160F4883009F459C28A3009F43FC2B7
:1023F00067E672E0C1010E947311E5C1803209F401
:10240000ECC18034A9F76BE5C1010E94B30AF80161
:10241000008111810115110509F4DAC1B101C8016A
:102420000E949D11C8010E94590F8C01892B09F44B
:10243000CFC16CE2C1010E94B30AECCFF801C080A9
:10244000D180E280F380A7019601C701B6010E9406
:1024500011278111CDCF20E030E0A901C701B601DD
:102460000E941127882379F0A7019601C701B601C0
:102470000E948E289B01AC01C701B6010E94112762
:10248000882309F4B5CF20E030E0A901C701B601E7
:102490000E94112787FF08C06DE2C1010E94B30AA4
:1024A000F7FAF094F7F8F09420E836E948E15BE4B5
:1024B000C701B6010E94A22987FD81C074E1A72E41
:1024C000B12C00E210E0188E1F8AF501E65EFD4F88
:1024D0002591359145915491C701B6010E94A229D9
:1024E00087FD13C0F501E651FE4F259135914591C9
:1024F0005491C701B6010E9477276B017C012F8997
:10250000388D200F311F388F2F8B1595079534E0AC
:10251000A31AB1088CEFA8168FEFB806B1F65524B0
:102520005A9420E030E0A901C701B6010E94A22917
:1025300018160CF04BC02CEA35EC47E257E3C70104
:10254000B6010E94112718160CF440C0A52DB4E066
:10255000AB02C0011124B12CA12CFC01EE5FFD4F98
:102560003F019C01265E3D4F49013FEF531671F13B
:10257000F301EA0DFB1D2591359145915491C70159
:10258000B6010E94112787FF13C0F401EA0DFB1D5D
:102590002591359145915491C701B6010E94772745
:1025A0006B017C018F89988D801B910B988F8F8B8D
:1025B000159507955A9494E0A91AB108D6CF00E270
:1025C00010E055E0552E188E1F8AABCFC701B6011B
:1025D0000E9473294B015C012B013C0106E080E461
:1025E00092E4AFE0B0E0898F9A8FAB8FBC8F102F51
:1025F00001509AE04916510461047104C8F0698DD4
:102600007A8D8B8D9C8D2AE030E040E050E00E9476
:102610004028298F3A8F4B8F5C8FC301B2012AE08B
:1026200030E040E050E00E94402829013A01DFCF2D
:10263000C501B4010E9416279B01AC01C701B60178
:102640000E948D286B017C01698D7A8D8B8D9C8D0C
:102650000E9416279B01AC01C701B6010E94772793
:102660002B013C010E9473296B017C010E941627FB
:102670009B01AC01C301B2010E948D289B01AC01FA
:102680000E948E280E947329C60ED71EE81EF91ECE
:10269000898D9A8DAB8DBC8DC816D906EA06FB06CE
:1026A000D8F09FEF891A990AA90AB90AAF89B88D9B
:1026B000AB2B39F1BAE08B169104A104B10408F1F7
:1026C000EF89F88D3196F88FEF8BC12CD12C7601E4
:1026D000812C912C540183942AE0422E512C612CA0
:1026E000712CC701B601A30192010E944028672BFB
:1026F000682B692B51F4111644F469017A011150C9
:10270000F0CFC12CD12C7601E7CFB501A401C101D6
:102710000E94DD0A112371F14E01F1E18F0E911C2F
:10272000012F54019AE0492E512C612C712C01503B
:1027300068F0C701B601A30192010E944028605DC4
:10274000D4016E934D0169017A01F1CF812F90E0A0
:10275000BC0160957095F501E81BF90B31978EE28D
:10276000808344275527461B570B6A0D7B1DC101EB
:102770000E94C80AEF89F88DEF2B29F165E6C101A7
:102780000E94B30A0F89188D17FF07C06DE2C101BF
:102790000E94B30A119501951109FE0177969F01D8
:1027A0008AE0E82EF12CC801B7010E947128805DF3
:1027B00082938B01672BB9F7A9014E1B5F0BBF01F9
:1027C000C1010E94C80AD10112968D919C91EECD53
:1027D0006DE5C1010E94B30AF6CF6BE7C1010E940B
:1027E000B30AF801008111810115110559F1D801D1
:1027F0001696CC9016971796DC9062E2C1010E9463
:10280000B30A7601F70161917F01662321F0C101CE
:102810000E947D11F7CF62E2C1010E94B30A6AE310
:10282000C1010E94B30AB101C8010E949D11C801F3
:102830000E94590F8C01892B29F06CE2C1010E9482
:10284000B30AD2CF6DE7C5CF62E2C1010E94B30ADD
:102850008601E00EF11EE016F10639F0F8016191F3
:102860008F01C1010E947D11F6CF62E2B2CFCD90FF
:10287000DD90ED90FC90B701A601F7FE0BC06DE274
:10288000C1010E94B30A44275527BA014C195D09BA
:102890006E097F09C1010E94DD0A85CD4D915D91D0
:1028A0006D917C91F7CF8C916CE672E0811102C042
:1028B00061E772E0C1010E94731175CD85ED8093CF
:1028C000BC0080912F0490913004A0913104B0910C
:1028D00032040796A11DB11D23E0B695A7959795E3
:1028E00087952A95D1F72091BC0024FD03C0109252
:1028F0002D04089540912F045091300460913104CB
:1029000070913204452B462B472B69F30097A105A4
:10291000B10541F025E32A95F1F700000197A109DF
:10292000B109E1CF80912E040C944F030F931F93B4
:10293000CF93DF93D0E0C0E06115710591F08B017A
:10294000FC01C081D181209761F06E817F81C80137
:102950000E94CC2A892B29F0CE010E94590FEC014C
:10296000F2CFCE01DF91CF911F910F9108959F92E9
:10297000AF92BF92CF92DF92EF92FF920F931F938D
:10298000CF93DF93EC018B01E42E0E949A0BD82E9B
:1029900081110EC0F12C8F2DDF91CF911F910F91DE
:1029A000FF90EF90DF90CF90BF90AF909F900895F1
:1029B000CE010E94410B873209F42CC114F58232FA
:1029C00009F428C1CE010E94410BE82E5E01FFE010
:1029D000AF0EB11CF12C9A2CCB2C8E2D0E94290B02
:1029E000882309F443C18FE3F81609F43FC11C861C
:1029F000F394F501E1925F01CE010E94410BE82EB4
:102A0000ECCF8B3509F44AC08B37E1F6F8018481AD
:102A10008078806284831182108213821282EE2079
:102A200009F447C01C86CE010E949A0B882309F442
:102A3000B1CF6DE7CE010E94890BF82E81114FC0F6
:102A4000CC24C394EA94E881F981828193819B83A9
:102A50008A838481958122813381821B930B9F839A
:102A60008E831D821C82892B09F4C086CE010E94B0
:102A7000410B873209F460C0823209F45DC0CE0197
:102A80000E94410BD82E0E94290B8111AEC0C15B60
:102A9000DF4F83E090E0998388837DCFF8018481C4
:102AA0008078806484831182108213821282E11004
:102AB00007C0C15BDF4F85E090E0998388836ACFD0
:102AC0001C86CE010E949A0B882309F463CF6DE522
:102AD000CE010E94890BF82EEA94882311F0FD2C78
:102AE0005ACF6D857E85C8010E94C30E009729F4D8
:102AF000C15BDF4F84E090E0CECF4E2DBC01CE0114
:102B00000E94B714882309F445CFCE010E949A0B86
:102B1000882309F43FCF6DE5CE010E94890B811116
:102B2000DECF6CE2CE010E94890B8111DACFC15B4E
:102B3000DF4F83E090E0C1CFCE010E941D0C8823BF
:102B400009F429CFCE010E949A0B882309F423CFE0
:102B50006AE3CE010E94890B882309F498CFEA81A9
:102B6000FB818C819D81E80FF91F1082AC80BD80B4
:102B70006A817B81C8010E949614BC01892BA9F44B
:102B8000B501888199810E941C0F5C016D857E854D
:102B9000C8010E94C30EFC01892B09F4A9CF8481CE
:102BA00080688483B782A682BF014E2DCE010E9429
:102BB000B714882309F4EFCECE010E949A0B882324
:102BC00009F4E9CE6DE7CE010E94890B811120C086
:102BD0006CE2CE010E94890B882309F458CFCE0104
:102BE0000E949A0B81112FCFD6CE1C866D2DCE015F
:102BF0000E94030CCE010E94410BD82E0E94290B8B
:102C00008111F3CFE881F9818085811171CF9ACF4D
:102C1000F82EC1CEE881F981828193819B838A83DA
:102C20008481958122813381821B930B9F838E83C4
:102C30001D821C82892B11F481E08087CE010E94C5
:102C40001D0CF82E882309F4A5CECC80DD80B601BA
:102C5000888199810E941C0FF801248120782560C9
:102C6000248391838083D382C28295CEFE01EF0DAF
:102C7000F11D17868F85843781F4F801848180786F
:102C80008660848381E08083F4E0FF1609F427CF17
:102C9000C15BDF4F82E090E010CF863641F4F8014F
:102CA00084818078866084831082F5E0EECF8E3652
:102CB00021F484E0F812ECCF12CFB801892D9C2DBD
:102CC0000E940B0D882309F432CF09CFEF92FF92B7
:102CD0000F931F93CF93DF93EC018C81982F9F77F5
:102CE00039F4807880628C83198218821B821A8260
:102CF0008C8185FF1DC061157105D1F07A018B01B2
:102D0000CE010E949614009761F4B701CE010E9493
:102D1000C30E009731F0FC0124812F7724831783A1
:102D20000683DF91CF911F910F91FF90EF9008954F
:102D300090E080E0F6CF8F929F92AF92BF92CF92B9
:102D4000DF92EF92FF920F931F93CF93DF93CDB754
:102D5000DEB7CA52D2400FB6F894DEBF0FBECDBF69
:102D6000CE010F969A8389839C838B8383E092E0C4
:102D70008C0F9D1F9E838D8398878F8319861E8657
:102D80000E94DF076B017C01AE014F5F5F4F67E779
:102D900072E0CE010A960E946616FC01892B41F072
:102DA0009481907898609483C082D182E282F38289
:102DB00080917B00877F80937B0085E480937C00FB
:102DC00080917A00806480937A0080917A0086FDF9
:102DD000FCCF0091780010917900AE014F5F5F4FFA
:102DE0006CE772E0CE010A960E946616FC01892B00
:102DF00069F0948190789A609483A801052E000C64
:102E0000660B770B4083518362837383C090860384
:102E1000D0908703E0908803F0908903AE014F5F64
:102E20005F4F63E872E0CE010A960E946616FC01CD
:102E3000892B41F0948190789A609483C082D182EA
:102E4000E282F382C0907505D0907605E090770518
:102E5000F0907805AE014F5F5F4F6AE872E0CE01F7
:102E60000A960E946616AC01C701B6010E94A70A25
:102E7000AE014F5F5F4F6FE872E0CE010A960E948D
:102E80006616AC0160E070E0CB010E94A70A809159
:102E9000B9059091BA05CE5EDD4F188219821A826B
:102EA0001B82C251D240CD5FDD4F99838883C350CE
:102EB000D240CB5FDD4F19821882C550D24011E05D
:102EC000C45FDD4F1883CC50D24082E090E0C75FF2
:102ED000DD4F99838883C950D240C35FDD4F18838B
:102EE000CD50D24002E0C55FDD4F0883CB50D240C9
:102EF000BE016A5E7D4FCE018D5F9D4F0E946310C3
:102F00008093BB05CA5EDD4F68817981C651D2408E
:102F100083E0769567958A95E1F77B01EE0CFF1CBF
:102F2000EE0CFF1C8091B9059091BA05CE5EDD4F85
:102F3000188219821A821B82C251D240CD5FDD4FA6
:102F400099838883C350D240CB5FDD4F19821882AA
:102F5000C550D240C45FDD4F1883CC50D24081E0D1
:102F600090E0C75FDD4F99838883C950D240C35F2B
:102F7000DD4F1883CD50D240C55FDD4F0883CB5065
:102F8000D240BE016A5E7D4FCE018D5F9D4F0E9493
:102F900063108093BB05CA5EDD4F68817981C6519D
:102FA000D240072E000C880B990B0E9418272AE0AC
:102FB00037ED43E25CE30E94772720E030E04AE708
:102FC00054E40E94FA284B015C01B701FF0C880B06
:102FD000990B0E9418272FE632E143E85AE30E943A
:102FE00077279B01AC01C501B4010E948E286B01BB
:102FF0007C01AE014F5F5F4F6CE972E0CE010A9633
:103000000E946616AC01C701B6010E94A70A809112
:10301000B9059091BA05CB5DDD4F188219821A82ED
:103020001B82C552D240CA5EDD4F99838883C65148
:10303000D240C85EDD4F19821882C851D240C15EAD
:10304000DD4F1883CF51D24085E090E0C45EDD4F64
:1030500099838883CC51D240C05EDD4F1883C05223
:10306000D240C25EDD4F0883CE51D2404091BD05B3
:103070005091BE056091BF057091C005CE018A5E7A
:103080009D4F0E946F068091B9059091BA05CE5E62
:10309000DD4F188219821A821B82C251D240CD5F45
:1030A000DD4F99838883C350D240CB5FDD4F1982B7
:1030B0001882C550D240C45FDD4F1883CC50D24037
:1030C00084E090E0C75FDD4F99838883C950D24088
:1030D000C35FDD4F1883CD50D240C55FDD4F0883FD
:1030E000CB50D240BE01675D7D4FCE018D5F9D4FBD
:1030F0000E9463108093BB05C75DDD4F68817981B5
:10310000C952D240072E000C880B990B0E94182739
:103110006B017C016091C1057091C2058091C3056E
:103120009091C4050E9416279B01AC01C701B6010E
:103130000E94FA2820E030E04AE754E40E94FA288E
:103140006B017C01AE014F5F5F4F64EA72E0CE011C
:103150000A960E946616AC01C701B6010E94A70A32
:10316000AE014F5F5F4F6CEA72E0CE010A960E949B
:103170006616AC0160918B0370918C0380918D0376
:1031800090918E030E94A70AAE014F5F5F4F65EBDF
:1031900072E0CE010A960E946616FC01892B79F036
:1031A00020918F033091900394819078986094835C
:1031B000C901B0E0A0E080839183A283B383AE0114
:1031C0004F5F5F4F6FEB72E0CE010A960E9466166A
:1031D000FC0180918A03309759F09481907898602F
:1031E000948390E0B0E0A0E080839183A283B383D6
:1031F00008EE13E020EA35E042E06BE380919F05A2
:103200000E94670F6091A0057091A105762767273E
:103210007627072E000C880B990B0E94182720E0B8
:1032200030E040E858E30E9477276B017C01AE0153
:103230004F5F5F4F67EC72E0CE010A960E94661600
:10324000AC01C701B6010E94A70A20EA35E042E0BE
:103250006DE380919F050E94670F6091A0057091BA
:10326000A105762767277627072E000C880B990B78
:103270000E94182720E030E040E858E30E947727BA
:103280006B017C01AE014F5F5F4F6EEC72E0CE01CF
:103290000A960E946616AC01C701B6010E94A70AF1
:1032A00020EA35E042E06FE380919F050E94670FBE
:1032B0006091A0057091A105762767277627072ED4
:1032C000000C880B990B0E94182720E030E040E8A2
:1032D00058E30E9477276B017C01AE014F5F5F4F7F
:1032E00065ED72E0CE010A960E946616AC01C70138
:1032F000B6010E94A70A20EA35E042E063E480912B
:103300009F050E94670F6091A0057091A105762727
:1033100067277627072E000C880B990B0E94182729
:1033200020E030E04AE753E40E94772720E030E0D5
:1033300040E058E30E9477276B017C01AE014F5FAC
:103340005F4F6CED72E0CE010A960E946616AC01EA
:10335000C701B6010E94A70A20EA35E042E065E411
:1033600080919F050E94670F6091A0057091A10553
:10337000762767277627072E000C880B990B0E946B
:10338000182720E030E04AE753E40E94772720E046
:1033900030E040E058E30E9477276B017C01AE01EA
:1033A0004F5F5F4F62EE72E0CE010A960E94661692
:1033B000AC01C701B6010E94A70A20EA35E042E04D
:1033C00067E480919F050E94670F6091A00570914E
:1033D000A105762767277627072E000C880B990B07
:1033E0000E94182720E030E04AE753E40E94772744
:1033F00020E030E040E058E30E9477276B017C0139
:10340000AE014F5F5F4F68EE72E0CE010A960E94F8
:103410006616AC01C701B6010E94A70A10917A0591
:10342000AE014F5F5F4F6EEE72E0CE010A960E94D2
:103430006616FC01892B29F094819078966094831C
:10344000108360918305709184058091850590912A
:1034500086050E9416276B017C01AE014F5F5F4F0E
:1034600065EF72E0CE010A960E946616AC01C701B4
:10347000B6010E94A70A83E694E0CD5FDD4F9983F1
:103480008883C350D240CB5FDD4F19821882C5506C
:10349000D240BE016D5F7D4FCE010A960E949D1104
:1034A00080E093E00E94661110929203C65DDD4FAA
:1034B0000FB6F894DEBF0FBECDBFDF91CF911F9145
:1034C0000F91FF90EF90DF90CF90BF90AF909F90C3
:1034D0008F900895FC01248125FD0C94961490E0B2
:1034E00080E008958F929F92AF92BF92CF92DF9229
:1034F000EF92FF920F931F93CF93DF93CDB7DEB779
:10350000C356D2400FB6F894DEBF0FBECDBFCE017A
:103510000F969A8389839C838B8383E092E08C0F40
:103520009D1F9E838D8398878F8319861E86825068
:103530009240C45ADD4F99838883CC55D24028E00D
:10354000FE01E45AFD4FDE01AC5ABD4F01900D92D1
:103550002A95E1F728E0FE01EC5AFD4FDE01AD5F50
:10356000BD4F01900D922A95E1F7C55FDD4F18829E
:10357000CB50D24023E634E0C45FDD4F398328834B
:10358000CC50D240C15FDD4F1882CF50D240C05FD7
:10359000DD4F99838883C051D240CE5ADD4F1982C6
:1035A0001882C255D2404AE0BE01665F7F4F8E5FEF
:1035B0009D4F0E94B714CE5ADD4F08811981C25524
:1035C000D24001151105A9F5C25FDD4F8881CE50AB
:1035D000D240882371F18E8583FF2BC01092930314
:1035E00003E010E083E093E00E946611000F111FDA
:1035F000F801E15EFD4F80819181009711F00E94FA
:10360000661180E093E00E946611CD59DD4F0FB640
:10361000F894DEBF0FBECDBFDF91CF911F910F9108
:10362000FF90EF90DF90CF90BF90AF909F908F90E2
:1036300008951092930301151105A1F66CEA72E04A
:10364000CE010A960E946A1A0E94F80E811110C0DB
:103650006CEA72E0CE010A960E946A1A0E947C0E01
:1036600060938B0370938C0380938D0390938E03F0
:1036700065EB72E0CE010A960E946A1A0E94F80E6B
:1036800081110EC065EB72E0CE010A960E946A1AA3
:103690000E947C0E0E9473297093900360938F03A5
:1036A0006AE173E0CE010A960E946A1A0E94F80E3F
:1036B000182F81112AC06AE173E0CE010A960E9498
:1036C0006A1AFC01892BF9F094819F77983009F4EC
:1036D000D6C030F49923B9F09630A1F011E013C0B0
:1036E0009A3009F4CCC09C30C9F711E020E030E0FA
:1036F000A90160817181828193810E9411278111CA
:1037000002C0C7C010811093910360E273E0CE0144
:103710000A960E946A1A0E94F80E811176CF1092C2
:10372000790560E273E0CE010A960E946A1A00975A
:1037300021F062E070E00E94030F0E947C0E6B019A
:103740007C0160E273E0CE010A960E946A1A00973B
:1037500021F061E070E00E94030F0E947C0E4B019B
:103760005C0160E273E0CE010A960E946A1A00973B
:1037700021F070E060E00E94030F0E947C0E6093D5
:103780006305709364058093650590936605809248
:10379000670590926805A0926905B0926A05C0928B
:1037A0006B05D0926C05E0926D05F0926E0560E2BB
:1037B00073E0CE010A960E946A1A009721F063E036
:1037C00070E00E94030F0E947C0E60938F0570933F
:1037D0009005809391059093920560E273E0CE018D
:1037E0000A960E946A1A009721F064E070E00E9435
:1037F000030F0E947C0E609375057093760580938D
:1038000077059093780580916F0590917005892BCD
:1038100009F4FBCE8091710590917205892B09F412
:10382000F4CE81E0809379050E94DF0700917F0547
:10383000109180052091810530918205DC01CB013A
:10384000800F911FA21FB31F809387059093880557
:10385000A0938905B0938A0510927A051092970576
:10386000109298051092990510929A0510929B0556
:1038700010929C0510929D0510929E05C6CE11E0F7
:1038800080819181A281B381892B8A2B8B2B09F0B6
:103890003ACF10E038CF1F920F920FB60F9211243B
:1038A0000BB60F922F933F934F935F936F937F933A
:1038B0008F939F93AF93BF93EF93FF938091B90042
:1038C000887F803609F44DC008F040C0883209F482
:1038D000A9C028F5803109F49DC0C8F4882309F4F3
:1038E000FBC0883009F496C0FF91EF91BF91AF9172
:1038F0009F918F917F916F915F914F913F912F9108
:103900000F900BBE0F900FBE0F901F90189588312F
:1039100009F488C0803241F780932B0414C08034AE
:1039200009F49DC040F48033B9F38833E9F68093FD
:103930002B0485ECB0C0803509F485C0883509F4C6
:1039400096C0883489F60E945E14CECF883909F477
:103950008CC038F5883729F050F4883611F080375C
:1039600019F683E080932D041092E00357C0883845
:1039700009F47BC0803919F0803809F0B5CF809107
:10398000E003803208F071C0E091E00381E08E0F27
:103990008093E0038091BB00F0E0E054FC4F808313
:1039A0003DC0803B39F0E0F4803A09F479C0883AB0
:1039B00009F09ACF84E080932D041092BF031092F7
:1039C000BE03E091E103F091E20319958091BE03FB
:1039D00081110FC081E08093BE0310929E0309C045
:1039E000803C09F4A6CF883C09F4A3CF883B09F0BA
:1039F0007BCFE091BF0381E08E0F8093BF03F0E0A7
:103A0000E256FC4F80818093BB009091BF03809170
:103A1000BE0329C0809108048093BB0085EC80938D
:103A2000BC0062CF90912A0480912904981758F520
:103A3000E0912A0481E08E0F80932A04F0E0E75F92
:103A4000FB4F8081E9CFE0912A0481E08E0F8093C3
:103A50002A048091BB00F0E0E75FFB4F80839091E8
:103A60002A04809129049817C8F285E8D8CFE091FC
:103A70002A0481E08E0F80932A048091BB00F0E03D
:103A8000E75FFB4F808380912C0481115CCF81E044
:103A90008093070484EA8093BC0010922D0424CF05
:103AA00085EC8093BC0010922D048091E00380325D
:103AB00030F4E091E003F0E0E054FC4F10826091BC
:103AC000E00370E0E091E303F091E40380EC93E025
:103AD00019951092E00308CF10922B0434CF1F9257
:103AE0000F920FB60F9211242F933F938F939F93B2
:103AF000AF93BF938091950390919603A091970304
:103B0000B09198033091940323E0230F2D3758F59B
:103B10000196A11DB11D209394038093950390936A
:103B20009603A0939703B093980380919903909183
:103B30009A03A0919B03B0919C030196A11DB11D16
:103B40008093990390939A03A0939B03B0939C0353
:103B5000BF91AF919F918F913F912F910F900FBE89
:103B60000F901F90189526E8230F0296A11DB11DF6
:103B7000D2CF1F920F920FB60F9211240BB60F9255
:103B80002F933F934F935F936F937F938F939F9365
:103B9000AF93BF93EF93FF93E0910F02F091100268
:103BA0001995FF91EF91BF91AF919F918F917F9167
:103BB0006F915F914F913F912F910F900BBE0F909E
:103BC0000FBE0F901F9018951F920F920FB60F9275
:103BD00011240BB60F922F933F934F935F936F93E4
:103BE0007F938F939F93AF93BF93EF93FF93E09156
:103BF0000D02F0910E021995FF91EF91BF91AF91D7
:103C00009F918F917F916F915F914F913F912F91F4
:103C10000F900BBE0F900FBE0F901F9018951F9224
:103C20000F920FB60F9211240BB60F922F933F9362
:103C30004F935F936F937F938F939F93AF93BF93B4
:103C4000EF93FF93E0910302F09104021995FF9125
:103C5000EF91BF91AF919F918F917F916F915F9104
:103C60004F913F912F910F900BBE0F900FBE0F9071
:103C70001F9018951F920F920FB60F9211240BB63A
:103C80000F922F933F934F935F936F937F938F93F5
:103C90009F93AF93BF93EF93FF93E0910102F09155
:103CA00002021995FF91EF91BF91AF919F918F9172
:103CB0007F916F915F914F913F912F910F900BBE2C
:103CC0000F900FBE0F901F9018951F920F920FB676
:103CD0000F9211240BB60F922F933F934F935F9344
:103CE0006F937F938F939F93AF93BF93EF93FF93C4
:103CF000E0910B02F0910C021995FF91EF91BF91A9
:103D0000AF919F918F917F916F915F914F913F9173
:103D10002F910F900BBE0F900FBE0F901F90189514
:103D20001F920F920FB60F9211240BB60F922F9382
:103D30003F934F935F936F937F938F939F93AF9333
:103D4000BF93EF93FF93E0910902F0910A02199556
:103D5000FF91EF91BF91AF919F918F917F916F9163
:103D60005F914F913F912F910F900BBE0F900FBE1F
:103D70000F901F9018951F920F920FB60F9211245B
:103D80000BB60F922F933F934F935F936F937F9355
:103D90008F939F93AF93BF93EF93FF93E0910702AD
:103DA000F09108021995FF91EF91BF91AF919F910A
:103DB0008F917F916F915F914F913F912F910F90D4
:103DC0000BBE0F900FBE0F901F9018951F920F9271
:103DD0000FB60F9211240BB60F922F933F934F9370
:103DE0005F936F937F938F939F93AF93BF93EF9363
:103DF000FF93E0910502F09106021995FF91EF9172
:103E0000BF91AF919F918F917F916F915F914F91F2
:103E10003F912F910F900BBE0F900FBE0F901F90F0
:103E200018951F920F920FB60F9211240BB60F9296
:103E30002F933F934F935F936F937F938F939F93B2
:103E4000AF93BF93EF93FF9380917F039091800393
:103E5000A0918103B0918203892B8A2B8B2BD1F106
:103E600090917E03809100008927809300008091CB
:103E70007F0390918003A0918103B0918203181673
:103E800019061A061B069CF480917F03909180030B
:103E9000A0918103B09182030197A109B109809398
:103EA0007F0390938003A0938103B0938203FF91DB
:103EB000EF91BF91AF919F918F917F916F915F91A2
:103EC0004F913F912F910F900BBE0F900FBE0F900F
:103ED0001F90189580910002E2E3F2E0E4919FEFD9
:103EE00090930002E230E9F040F4EE2389F0E130F3
:103EF00091F060E00E94E802DACFE43049F110F17D
:103F0000E530B9F7909173009D7F90937300F1CFE6
:103F100010926E00EECF90916F009D7F90936F0096
:103F2000E8CF909170009D7F9093700091E0909306
:103F3000B0009091B100987F94609093B10010927E
:103F4000B300D7CF909171009D7F90937100D1CF36
:103F5000909172009D7F90937200CBCF1F920F9231
:103F60000FB60F9211240BB60F922F933F934F93DE
:103F70005F936F937F938F939F93AF93BF93EF93D1
:103F8000FF9383E694E00E946A08FF91EF91BF914E
:103F9000AF919F918F917F916F915F914F913F91E1
:103FA0002F910F900BBE0F900FBE0F901F90189582
:103FB0001F920F920FB60F9211240BB60F922F93F0
:103FC0008F939F93EF93FF93E0917304F0917404A8
:103FD0008081E0917904F0917A0482FD1DC0908186
:103FE00080917C048F5F8F7320917D04821741F054
:103FF000E0917C04F0E0ED59FB4F958F80937C04B9
:10400000FF91EF919F918F912F910F900BBE0F9089
:104010000FBE0F901F9018958081F2CF1F920F92C4
:104020000FB60F9211240BB60F922F933F934F931D
:104030005F936F937F938F939F93AF93BF93CF9330
:10404000DF93EF93FF9380917D03C0913C05D0E017
:1040500087FF23C0109285001092840080917D0319
:104060008F5F80937D0380917D03082E000C990B58
:104070008C179D0724F480917D038C3074F180911E
:1040800084009091850084349C4908F465C0809137
:10409000840090918500049661C080917D03082E74
:1040A000000C990B8C179D07CCF630917D0325E011
:1040B0003203F0011124E050FB4F808186FFCECF08
:1040C00030917D033203F0011124E050FB4F8081D9
:1040D00060E08F730E94E802C1CF809184009091CC
:1040E000850030917D0325E03203F0011124E0507A
:1040F000FB4F41815281840F951F909389008093DB
:10410000880030917D033203F0011124E050FB4F11
:10411000808186FF0CC030917D033203F0011124B1
:10412000E050FB4F808161E08F730E94E802FF91B5
:10413000EF91DF91CF91BF91AF919F918F917F913F
:104140006F915F914F913F912F910F900BBE0F9008
:104150000FBE0F901F90189580E49CE99093890002
:10416000809388008FEF80937D03E1CF10925A04F3
:104170001092590488EE93E0A0E0B0E080935B04D5
:1041800090935C04A0935D04B0935E042FE232E050
:1041900030935804209357041092660410926504DB
:1041A0008093670490936804A0936904B0936A04B1
:1041B00081E492E0909364048093630485EC90E042
:1041C0009093700480936F0484EC90E09093720459
:1041D0008093710480EC90E0909374048093730456
:1041E00081EC90E0909376048093750482EC90E0EB
:1041F000909378048093770486EC90E090937A040F
:104200008093790410927C0410927D0410927E04B5
:1042100010927F048CE08093AF0584E28093B00518
:1042200085E08093B10596E09093B2059EE190936E
:10423000B3059FE19093B40592E29093B50593E2A4
:104240009093B60594E49093B70595E49093B805E0
:104250001092BA051092B90590E49093BC051092A3
:10426000C1051092C2051092C3051092C4051092A8
:10427000C5051092C6051092C7051092C80598E0B2
:10428000E7E1F2E0A1EDB5E001900D929A95E1F73A
:1042900040E050E060EA70E44093D9055093DA05BD
:1042A0006093DB057093DC05E0913C05EC3008F091
:1042B000CAC091E09E0F90933C05E093AE058E9F9F
:1042C000F0011124E050FB4F88EB9BE09283818347
:1042D00088E680939F051092630510926405109202
:1042E0006505109266051092670510926805109298
:1042F000690510926A0510926B0510926C05109278
:104300006D0510926E051092700510926F05109257
:104310007205109271051092740510927305109237
:104320007505109276051092770510927805109217
:10433000790510927A0510928705109288051092DF
:10434000890510928A0510928B0510928C051092A7
:104350008D0510928E0580E090E0A0EAB0E4809395
:104360008F0590939005A0939105B093920580E0FE
:1043700090E0A8ECB2E48093930590939405A09309
:104380009505B09396051092970510929805109296
:10439000990510929A0510929B0510929C05109217
:1043A0009D0510929E051092520510925305109291
:1043B000540510925505109256051092570510920B
:1043C0005805109259058FEF9FEFDC0180935B0534
:1043D00090935C05A0935D05B0935E0580935F05A7
:1043E00090936005A0936105B093620510925A0501
:1043F000109251051092500510923F051092400501
:104400001092410510924205109243051092440506
:1044100010924505109246058093480590934905F2
:10442000A0934A05B0934B0580934C0590934D059E
:10443000A0934E05B0934F051092470510923E058C
:1044400010923D0508958FEF8093AE0541CFCF9335
:10445000DF93CDB7DEB7A6970FB6F894DEBF0FBED9
:10446000CDBF789484B5826084BD84B5816084BDFD
:1044700085B5826085BD85B5816085BD80916E0002
:10448000816080936E001092810080918100826033
:104490008093810080918100816080938100809170
:1044A00080008160809380008091B100846080935F
:1044B000B1008091B00081608093B0008091910044
:1044C000826080939100809191008160809391003F
:1044D000809190008160809390008091A100826023
:1044E0008093A1008091A10081608093A1008091C0
:1044F000A00081608093A000809121018260809360
:10450000210180912101816080932101809120010E
:1045100081608093200180917A00846080937A008A
:1045200080917A00826080937A0080917A00816025
:1045300080937A0080917A00806880937A0010924C
:10454000C100E0917304F091740482E08083E091F3
:104550006F04F09170041082E0917104F091720484
:1045600080E1808310927B04E0917704F0917804DD
:1045700086E08083E0917504F0917604808180610B
:104580008083E0917504F091760480818860808357
:10459000E0917504F0917604808180688083E091D9
:1045A0007504F091760480818F7D808361E0809135
:1045B000B0050E94700360E08091B0050E94E8029F
:1045C00060E08091AF050E9470038091B9059091E1
:1045D000BA05892BA9F486E090E00E94A729FC0186
:1045E0008091BC05808387E594E092838183138268
:1045F00080E290E095838483F093BA05E093B90557
:10460000E090B905F090BA051092E6031092E50328
:1046100010923404109256040E94310382ED91E00E
:104620009093E2038093E10383ED91E09093E403A0
:104630008093E30311E0D70113961C93C7010E94F6
:10464000F905882309F45BC080E090E1A0E0B0E0C8
:104650008093BD059093BE05A093BF05B093C005A0
:104660008AE090E0A0E0B0E08093C1059093C2059D
:10467000A093C305B093C40580E090E0A0E0B0E44F
:104680008093C5059093C605A093C705B093C80550
:104690008091B9059091BA051BA21CA21DA21EA271
:1046A0009D8B8C8B1F8A1E8A1D8F85E090E09B8FCF
:1046B0008A8F1E8F02E00C8F40E050E160E070E0D6
:1046C000CE0144960E946F068091B9059091BA057B
:1046D000188A198A1A8A1B8A9A8389831C821B82E8
:1046E0001A8718861F821B8709874FE959E360E004
:1046F00070E0CE0101960E946F068093BB0531EBFE
:10470000E32E35E0F32E0FEA15E04CE9642E42E08B
:10471000742E52EE852E52E0952E6BECC62E67E07D
:10472000D62E7BE8A72EBB24B394F7019281D70144
:104730008D917D01F801828F938F61E00E9470035B
:1047400061E0D8015B968C910E947003F70195811E
:104750008381D8015E968C935E975F969C9361E00F
:104760000E94700360E0F801878D0E94700361E091
:10477000D8015E968C910E94E8025FB6F894809111
:104780008303811125C0F3018491F4019491E82FF2
:10479000F0E0EE0FFF1FED5CFD4FA591B4918C9101
:1047A000982321F461E085E30E94E80261E085E35B
:1047B0000E9470038CB580618CBD8CB580648CBD0B
:1047C00061E084E30E94700361E083E30E94700370
:1047D000809183038F5F809383035FBEC60101973F
:1047E000F1F760E0D8015E968C910E94E80288E8BB
:1047F0000E949F0A83E00E949F0A61E0F801868D73
:104800000E94E802C6010197F1F760E0D8015E96C8
:104810008C910E94E80288E90E949F0A80E00E9431
:104820009F0A80E00E949F0A80E00E949F0A80E029
:104830000E949F0A61E0F801868D0E94E802C5018E
:104840000197F1F760E0D8015E968C910E94E80232
:1048500080EE0E949F0A61E0F801868D0E94E802C6
:104860000E5F1F4FF5E0033B1F0709F05ECF01E02D
:1048700023E042E06BE680919F050E94121000E069
:1048800022E044E06BE180919F050E94121022E03B
:1048900044E06CE180919F050E941210F0909F050A
:1048A00008EE13E09E012C5E3F4F41E06BE68F2D3A
:1048B0000E94670F8C898F7B8C8B8983AE014F5F41
:1048C0005F4F6BE68F2D0E94320682E08093840357
:1048D00083E08093850362E082E00E94700362E0DF
:1048E000809185030E94700390918403923009F0B7
:1048F0008EC180EC9BE09093020280930102809134
:104900006A008C7F826080936A00EC9A84E690E073
:10491000A0E0B0E08093520590935305A093540516
:10492000B09355058BEE97E0909351058093500519
:1049300081E080935A050E94DF0700915205109193
:1049400053052091540530915505DC01CB01800FB2
:10495000911FA21FB31F8093560590935705A093F4
:104960005805B093590580915B0590915C05A09125
:104970005D05B0915E0580935F0590936005A093FF
:104980006105B093620582E591E190933E058093C5
:104990003D0580E090E0A0E8BEE38093630590933E
:1049A0006405A0936505B09366058DEC9CECACECBA
:1049B000BDE38093670590936805A0936905B09364
:1049C0006A0510926B0510926C0510926D0510929D
:1049D0006E058FEE97E09093700580936F0580EFE2
:1049E00097E0909372058093710581EF97E0909323
:1049F0007405809373058FE692E1A3E8BAE3809390
:104A00008F0590939005A0939105B093920588EC43
:104A100090E0A0E0B0E080937F0590938005A093A4
:104A20008105B09382058DEC9CECACE4BEE38093F1
:104A30007B0590937C05A0937D05B0937E0511E0E6
:104A40008091930381110E94721A809192038111C7
:104A50000E949B1680919103882309F463C0809182
:104A60008F0390919003B0E0A0E080933F05909376
:104A70004005A0934105B093420580913D0590917A
:104A80003E05892B51F1109347050E94DF07C09026
:104A90003F05D0904005E0904105F0904205DC01D3
:104AA000CB018C0D9D1DAE1DBF1D809343059093C2
:104AB0004405A0934505B093460580914805909123
:104AC0004905A0914A05B0914B0580934C05909300
:104AD0004D05A0934E05B0934F0581E090E0A0E016
:104AE000B0E08093480590934905A0934A05B093A0
:104AF0004B05C0908B03D0908C03E0908D03F09019
:104B00008E03B701A60189EC95E00E947809B701F0
:104B1000A60170588BEC95E00E94780910929103E1
:104B200010938A0380E595E00E942C098DE395E0BF
:104B30000E942C090E94DF07C0908705D09088054D
:104B4000E0908905F0908A056C157D058E059F051E
:104B500008F45AC080917905882309F455C00E9451
:104B6000DF07C0907F05D0908005E0908105F09030
:104B70008205DC01CB018C0D9D1DAE1DBF1D8093F8
:104B8000870590938805A0938905B0938A05C09006
:104B90007505D0907605E0907705F0907805E09166
:104BA0006F05F091700519959B01AC01C701B60125
:104BB0000E948D286B017C019F7720918F05309199
:104BC000900540919105509192050E94112787FF11
:104BD00065C010937A0510927905E0917305F09104
:104BE0007405309709F01995809187059091880593
:104BF000A0918905B0918A0580938B0590938C05CF
:104C0000A0938D05B0938E050E94FD0819CF9330B7
:104C100071F480EC9BE090930402809303028091F6
:104C20006A00837F886080936A00ED9A6FCE8EEE73
:104C3000890F843008F06ACE87E1891BE82FF0E005
:104C4000EE0FFF1FEF5FFD4F20EC3BE03183208331
:104C50008430A1F08530D1F0833041F0809169003B
:104C60008C7F826080936900E89A50CE80916900C1
:104C7000837F886080936900E99A48CE80916900BB
:104C80008F7C806280936900EA9A40CE80916900AF
:104C90008F73806880936900EB9A38CE20907105FD
:104CA000309072050E94DF0780908B0590908C05F4
:104CB000A0908D05B0908E05681979098A099B0925
:104CC0006093830570938405809385059093860592
:104CD00020919705309198054091990550919A053A
:104CE000C701B6010E948E286093970570939805BE
:104CF0008093990590939A058090930590909405E0
:104D0000A0909505B0909605A50194010E94A22956
:104D1000181644F48092970590929805A0929905F0
:104D2000B0929A05B7FAB094B7F8B094A50194017F
:104D300060919705709198058091990590919A05D9
:104D40000E94112787FF08C08092970590929805CE
:104D5000A0929905B0929A0580907B0590907C0571
:104D6000A0907D05B0907E05209197053091980523
:104D70004091990550919A05609167057091680579
:104D80008091690590916A050E947727A501940199
:104D90000E9477272B013C01209163053091640527
:104DA0004091650550916605C701B6010E947727BD
:104DB0009B01AC01C301B2010E948E282B013C0172
:104DC00020919B0530919C0540919D0550919E0539
:104DD000C701B6010E948D2820916B0530916C05AA
:104DE00040916D0550916E050E947727A5019401B1
:104DF0000E94FA289B01AC01C301B2010E948E28D7
:104E0000C0929B05D0929C05E0929D05F0929E0574
:104E1000F1011995E9CE8091B9059091BA050C94EC
:104E2000432A0E94532708F481E00895E89409C0BA
:104E300097FB3EF490958095709561957F4F8F4FCD
:104E40009F4F9923A9F0F92F96E9BB279395F695E3
:104E5000879577956795B795F111F8CFFAF4BB0F61
:104E600011F460FF1BC06F5F7F4F8F4F9F4F16C0C5
:104E7000882311F096E911C0772321F09EE8872F4F
:104E8000762F05C0662371F096E8862F70E060E00B
:104E90002AF09A95660F771F881FDAF7880F969584
:104EA000879597F90895990F0008550FAA0BE0E828
:104EB000FEEF16161706E807F907C0F012161306DC
:104EC000E407F50798F0621B730B840B950B39F41C
:104ED0000A2661F0232B242B252B21F408950A2682
:104EE00009F4A140A6958FEF811D811D08950E94B0
:104EF0008A270C94FB270E94ED2738F00E94F427A4
:104F000020F0952311F00C94E4270C94EA27112447
:104F10000C942F280E940C2870F3959FC1F3950FD5
:104F200050E0551F629FF001729FBB27F00DB11D2D
:104F3000639FAA27F00DB11DAA1F649F6627B00DBD
:104F4000A11D661F829F2227B00DA11D621F739FA6
:104F5000B00DA11D621F839FA00D611D221F749FB4
:104F60003327A00D611D231F849F600D211D822FFB
:104F7000762F6A2F11249F5750409AF0F1F0882322
:104F80004AF0EE0FFF1FBB1F661F771F881F91504F
:104F90005040A9F79E3F510580F00C94E4270C94F3
:104FA0002F285F3FE4F3983ED4F386957795679575
:104FB000B795F795E7959F5FC1F7FE2B880F911D79
:104FC0009695879597F9089597F99F6780E870E01F
:104FD00060E008959FEF80EC089500240A9416166F
:104FE000170618060906089500240A9412161306D7
:104FF000140605060895092E0394000C11F4882365
:1050000052F0BB0F40F4BF2B11F460FF04C06F5F80
:105010007F4F8F4F9F4F089557FD9058440F551F56
:1050200059F05F3F71F04795880F97FB991F61F02A
:105030009F3F79F087950895121613061406551FA1
:10504000F2CF4695F1DF08C0161617061806991F0D
:10505000F1CF86957105610508940895E894BB2702
:1050600066277727CB0197F908950E946228A59FAC
:10507000900DB49F900DA49F800D911D1124089553
:10508000A1E21A2EAA1BBB1BFD010DC0AA1FBB1F4C
:10509000EE1FFF1FA217B307E407F50720F0A21BBE
:1050A000B30BE40BF50B661F771F881F991F1A942B
:1050B00069F760957095809590959B01AC01BD0155
:1050C000CF010895A29FB001B39FC001A39F700DAF
:1050D000811D1124911DB29F700D811D1124911D00
:1050E0000895AA1BBB1B51E107C0AA1FBB1FA6172F
:1050F000B70710F0A61BB70B881F991F5A95A9F781
:1051000080959095BC01CD010895EE0FFF1F881F7B
:105110008BBF0790F691E02D19945058BB27AA2712
:105120000E94A5280C94FB270E94ED2738F00E94CE
:10513000F42720F039F49F3F19F426F40C94EA2761
:105140000EF4E095E7FB0C94E427E92F0E940C286D
:1051500058F3BA17620773078407950720F079F4AC
:10516000A6F50C942E280EF4E0950B2EBA2FA02D48
:105170000B01B90190010C01CA01A0011124FF2704
:10518000591B99F0593F50F4503E68F11A16F040FF
:10519000A22F232F342F4427585FF3CF46953795FE
:1051A0002795A795F0405395C9F77EF41F16BA0BC3
:1051B000620B730B840BBAF09150A1F0FF0FBB1F71
:1051C000661F771F881FC2F70EC0BA0F621F731FBA
:1051D000841F48F4879577956795B795F7959E3F17
:1051E00008F0B0CF9395880F08F09927EE0F9795A8
:1051F000879508950E940E290C94FB270E94F4279E
:1052000058F00E94ED2740F029F45F3F29F00C94FC
:10521000E42751110C942F280C94EA270E940C28A3
:1052200068F39923B1F3552391F3951B550BBB27D5
:10523000AA2762177307840738F09F5F5F4F220F1A
:10524000331F441FAA1FA9F335D00E2E3AF0E0E811
:1052500032D091505040E695001CCAF72BD0FE2F5B
:1052600029D0660F771F881FBB1F261737074807EF
:10527000AB07B0E809F0BB0B802DBF01FF279358A7
:105280005F4F3AF09E3F510578F00C94E4270C9460
:105290002F285F3FE4F3983ED4F386957795679582
:1052A000B795F7959F5FC9F7880F911D96958795DC
:1052B00097F90895E1E0660F771F881FBB1F6217FB
:1052C00073078407BA0720F0621B730B840BBA0BB9
:1052D000EE1F88F7E09508950E9473296894B11134
:1052E0000C942F2808950E94142888F09F5798F056
:1052F000B92F9927B751B0F0E1F0660F771F881FDB
:10530000991F1AF0BA95C9F714C0B13091F00E94F4
:105310002E28B1E008950C942E28672F782F882727
:10532000B85F39F0B93FCCF3869577956795B3951B
:10533000D9F73EF490958095709561957F4F8F4F8A
:105340009F4F08950E94532708F48FEF08950F93FD
:105350001F93CF93DF938230910510F482E090E0A9
:10536000E091DF05F091E00530E020E0B0E0A0E062
:10537000309799F42115310509F44AC0281B390BDF
:1053800024303105D8F58A819B816115710589F139
:10539000FB0193838283FE0111C040815181028110
:1053A000138148175907E0F04817590799F41097E7
:1053B00061F012960C93129713961C933296CF01BC
:1053C000DF91CF911F910F9108950093DF05109306
:1053D000E005F4CF2115310551F04217530738F09D
:1053E000A901DB019A01BD01DF01F801C1CFEF0185
:1053F000F9CF9093E0058093DF05CDCFFE01E20F5A
:10540000F31F819391932250310939832883D7CF99
:105410002091DD053091DE05232B41F4209113020C
:10542000309114023093DE052093DD0520911102A6
:10543000309112022115310541F42DB73EB740914C
:10544000150250911602241B350BE091DD05F091F9
:10545000DE05E217F307A0F42E1B3F0B28173907D0
:1054600078F0AC014E5F5F4F2417350748F04E0FC0
:105470005F1F5093DE054093DD05819391939FCF8D
:10548000F0E0E0E09CCFCF93DF930097E9F0FC01E0
:10549000329713821282A091DF05B091E005ED01F1
:1054A00030E020E01097A1F420813181820F931F1A
:1054B0002091DD053091DE052817390709F061C01C
:1054C000F093DE05E093DD05DF91CF910895EA01C9
:1054D000CE17DF07E8F54A815B819E014115510532
:1054E000B1F7E901FB83EA8349915991C40FD51FB4
:1054F000EC17FD0761F4808191810296840F951F5E
:10550000E90199838883828193819B838A83F0E078
:10551000E0E012968D919C9113970097B9F52D912B
:105520003C911197CD010296820F931F2091DD05CA
:105530003091DE052817390739F6309751F510926A
:10554000E0051092DF05B093DE05A093DD05BCCF2A
:10555000D383C28340815181840F951FC817D90717
:1055600061F44E5F5F4F88819981480F591F5183C5
:1055700040838A819B81938382832115310509F0C1
:10558000B0CFF093E005E093DF059ECFFD01DC0195
:10559000C0CF13821282D7CFFB01DC018D91019025
:1055A00080190110D9F3990B089511E0CEE9D1E0EB
:1055B00000E006C0802FFE010E9485282196011D73
:0E55C000CF39D10780E00807A9F7F894FFCF94
:1055CE00FFF207F207F207F207F207F207F207F20D
:1055DE00070000E105800030003100320033002862
:1055EE00032B033603460353035C030000000052F3
:1055FE000225022008FB011E020B02FC0100000026
:10560E00008C08F3072308D9085408320846082FDF
:10561E002F22225C5C6208660C6E0A720D74090001
:10562E005C7530303030006E756C6C007472756560
:10563E000066616C73650074696D6500706F7456F9
:10564E00657800656E6356657800676F616C006DF6
:10565E006561737572656D656E747300766F6C74CB
:10566E006167650063757272656E740070756C7338
:10567E006550574D0070756C736554696D650069A2
:10568E006E50756C736500616363656C5800616381
:10569E0063656C5900616363656C5A006779726F5C
:1056AE0058006779726F59006779726F5A00697383
:1056BE00476F616C0061637475616C54696D650050
:1056CE000D0A00646573657269616C697A652829D3
:1056DE00206661696C65643A200070756C736500B4
:1056EE00736574476F616C004F6B00456D70747914
:1056FE00496E70757400496E636F6D706C6574657C
:10570E00496E70757400496E76616C6964496E708D
:10571E007574004E6F4D656D6F727900546F6F44E6
:04572E00656570003D
:00000001FF
