:100000000C94C0010C94F1010C94F1010C94F101D9
:100010000C94F1010C94F1010C94F1010C94F10198
:100020000C94F1010C94F1010C94F1010C94F10188
:100030000C94F1010C94DF1D0C94F1010C94F1016E
:100040000C94F1010C94DC1E0C94F1010C94F10160
:100050000C94F1010C94F1010C94F1010C94951D98
:100060000C94F1010C94A61E0C947C1E0C94F101CE
:100070000C94F1010C94F1010C94F1010C94F10138
:100080000C94F1010C94F1010C94F1010C94F10128
:100090000C94F1010C94F1010C94F1010C94711C7D
:1000A0000C94F1010C94F1010C94F1010C94F10108
:1000B0000C94F1010C94F1010C94F1010C94F101F8
:1000C0000C94F1010C94F1010C94F1010C94F101E8
:1000D0000C94F1010C94F1010C94F1010C94F101D8
:1000E0000C94F101036EDB363D9A9999993DABAAC8
:1000F000AA2A3E000000803F072C7AA5BA6CC59062
:10010000DA3B9365FC8BBC53F810FD3C5692834D53
:10011000BD879D3AB63DCBC9BF5BBE73DA0FC93F01
:1001200005A84CCDB2D44EB93836A9020C50B991BD
:100130008688083CA6AAAA2ABE000000803F0C942C
:1001400030030C9455020C94F20E0C94C50E0C94D2
:1001500022030C94ED020C941F0F0C9459150C946F
:10016000E2070C940A020C942C030C945C020C948D
:10017000100F0C94B30E0C94AB0E0C949D0F0C94BA
:10018000880E0C9489020C94F60F0C9442020C9485
:10019000FC0E0C94CF0E0C9476070C94D90E0C9494
:1001A000750E0C9432020C94480F0C94AA070C9410
:1001B00026030C943E0F0C9414030C9418030C9417
:1001C0001A0F0C94B70F0C941E030C949C070C94FC
:1001D000E80E0C9434030C940E030C94FF020C9460
:1001E0003A030C9479070C940B030C94E7140C94C9
:1001F0003E030C942F080C9407030C948D0E0C9462
:1002000033020C94E8020C94BE1F0C9409020C9467
:10021000620F0C94970E0C94A10E0C94060F0C9484
:1002200088070C94BB0E0C9403030C944907000040
:10023000803FCDCCCC3D6F12833A95BFD6337D1D28
:100240009026B3CE010C0200002100240027002AD2
:10025000002D003000330001010000040107010AF5
:100260000100002200250028002B002E0031003460
:100270000002010000050108010B01050505050745
:100280000508080808020202020A0A080804040411
:10029000040101010101010101030303030303033D
:1002A00003040707070C0C0C0C0C0C0C0C020202CC
:1002B0000206060606060606060B0B0B0B0B0B0BBF
:1002C0000B0102102020080810204010204080025E
:1002D000010201080402010102040810204080808C
:1002E0004020100804020180040201804020100810
:1002F00004020108040201010204081020408001E8
:100300000204081020408000000A0B02090C0D0EA8
:1003100008070304010000000000000000000000C6
:1003200000000000000000000000000000000000CD
:10033000000000121110000000000000000000008A
:10034000000000000000000000000000000000208D
:10035000410000C84200401C4620BCBE4CCA1B0ED7
:100360005AAEC59D74CDCCCC3D0AD7233C17B7D12E
:100370003877CC2B329595E6241FB14F0A00BE1F6B
:1003800011241FBECFEFD1E2DEBFCDBF00E00CBF16
:1003900015E0A0E0B2E0EAE0FFE500E00BBF02C03C
:1003A00007900D92A838B107D9F727E0A8E8B5E083
:1003B00001C01D92AA3DB207E1F711E0C0ECD1E007
:1003C00000E006C021970109802FFE010E94112C38
:1003D000CF3BD10780E00807A9F70E94E8200C94E2
:1003E000832F0C94000080917B00877F80937B009B
:1003F00085E480937C0080917A00806480937A0009
:1004000080917A0086FDFCCF8091780090917900F0
:1004100008950895089520913D06260F3327331F30
:1004200021323105ECF42091AC06FC0190E080E033
:10043000243069F082E00895A0913D062191AC013D
:10044000435E594FA40FB52FB11D2C93019686170B
:1004500098F380913D06680F60933D0680E0089513
:1004600081E008950895E091850680918406E8175B
:1004700030F4F0E0E05AF94F808190E008958FEF7A
:100480009FEF089590918506809184062FEF3FEFAE
:10049000981748F4E92FF0E0E05AF94F208130E056
:1004A0009F5F90938506C90108958091840690917D
:1004B0008506891B990B0895CF92DF92EF92FF92E8
:1004C0000F931F93CF93DF937C01CB018A0120917F
:1004D000B206222389F0EB016B01C40ED51ECC15A8
:1004E000DD0569F06991D701ED91FC910190F081F2
:1004F000E02DC7011995F3CF642F0E940B02C801AC
:10050000DF91CF911F910F91FF90EF90DF90CF90EF
:100510000895CF93DF931F92CDB7DEB76983209103
:10052000B2062223F9F02091D506203258F021E0BE
:1005300030E0FC013383228390E080E00F90DF9174
:10054000CF9108958091B306E82FF0E0EC54F94F75
:10055000998190838F5F8093B3068093D50681E065
:1005600090E0ECCF61E0CE0101960E940B02F7CF44
:10057000282F30E0F901E95FFC4F9491F901EF5326
:10058000FD4F449125583D4FF9012491222309F450
:1005900035C0992311F191509231F8F4E92FF0E030
:1005A0008827EA52FD4F8F4F0C94112C07030B0341
:1005B000E802FF020303ED020E03140318031E03F7
:1005C000220326032C033003ED0234033A033E03D7
:1005D000809180008F7780938000E22FF0E0EE0F13
:1005E000FF1FEF59FD4FA591B4918FB7F894EC918F
:1005F000611148C040954E234C938FBF0895809160
:1006000080008F7DE8CF80918000877FE4CF84B524
:100610008F7784BDE2CF84B58F7DFBCF8091B00012
:100620008F778093B000D9CF8091B0008F7DF9CFC4
:10063000809190008F7780939000CFCF8091900031
:100640008F7DF9CF80919000877FF5CF8091A000BA
:100650008F778093A000C1CF8091A0008F7DF9CFCC
:100660008091A000877FF5CF809120018F778093C4
:100670002001B3CF809120018F7DF9CF809120019F
:10068000877FF5CF4E2BB8CFFC0183858F3F19F0C4
:1006900061E00C94B8020895FC0180819181892B5E
:1006A00039F0A281B3819C9111968C919CBD8DBD36
:1006B00083858F3F19F060E00C94B8020895109282
:1006C000AC0681E08093AB061092860661E084E17F
:1006D0000E94B80261E085E10E94B802E9EBF0E017
:1006E00080818E7F808380818D7F808388E480936A
:1006F000B80085E48093BC000895CF93DF9391E028
:1007000090931C068823B9F0C091B800D091BA002C
:100710008091BC008A7B8093BC0060E084E10E94F1
:10072000B80260E085E10E94B8020E945F03D093A6
:10073000BA00C093B800DF91CF910895CF93DF93B3
:1007400090E0FC01EF53FD4F249185589D4FFC0133
:1007500084918823D1F090E0880F991FFC01E95B18
:10076000FD4FA591B491FC01EF59FD4FC591D49176
:1007700061110EC09FB7F8948C91E22FE0958E2303
:100780008C932881E223E8839FBFDF91CF91089566
:100790008FB7F894EC91E22BEC938FBFF6CF8230B9
:1007A000910538F0880F991F880F991F05970197B9
:1007B000F1F70895AF92BF92CF92DF92EF92FF923E
:1007C0000F931F93CF93DF93EC0188819981892B3D
:1007D00089F06EBD0DB407FEFDCFBEB48B2DDF9149
:1007E000CF911F910F91FF90EF90DF90CF90BF902E
:1007F000AF9008958885998511E0892B09F010E85C
:10080000AA24A394862F812309F0A12C062F2C81E2
:100810003D814E815F8160E271EA87E090E00E9455
:10082000C02BF22EB02EE12CC22ED12CFF2019F0BD
:10083000C6010E94CF038A85877F09F042C08D855B
:100840008F3F89F0902F912381E009F480E08A1591
:1008500051F0EF85F8898F89992369F19081892B6F
:100860008083AA24A394E989FA898081998D892BB0
:100870008083FF2019F0C6010E94CF038E858F3F31
:1008800039F0EB89FC898081988D892309F0E12A70
:10089000E989FA899081898D8095892380838E8565
:1008A0008F3F09F0BE2C88859985892BB9F5110FEA
:1008B0001111BCCF93CF9081809589238083A12C87
:1008C000D2CFE989FA898081998D892B8083FF2095
:1008D00019F0C6010E94CF038D858F3F49F0EF8547
:1008E000F8898F89902F9123A9F09081892B80839B
:1008F000E989FA899081898D8095892380838E8505
:100900008F3F69F2EB89FC898081988D892339F2C8
:10091000E12AC5CF908180958923E9CF1695C8CF6C
:100920008F929F92AF92BF92CF92DF92EF92FF92FF
:100930000F931F93CF93DF937C014B016A01B22E7B
:10094000A32E0E944C03E401C80CD91CCC15DD0574
:1009500069F4CB2DDA2D0C0F1D1FC017D10759F0EC
:100960006FEFC7010E94DA038993F7CF6991C7013E
:100970000E94DA03EBCFC7010E94440381E0DF91BC
:10098000CF911F910F91FF90EF90DF90CF90BF908C
:10099000AF909F908F9008958F929F92AF92BF9249
:1009A000CF92DF92EF92FF920F931F93CF93DF933B
:1009B0007C01B62EA72E6A0149010E944C03E40176
:1009C000080D191DC017D10761F4CB2DDA2DCC0EFF
:1009D000DD1ECC15DD0551F06991C7010E94DA03D7
:1009E000F8CF6991C7010E94DA03ECCFC7010E94DA
:1009F000440381E0DF91CF911F910F91FF90EF9021
:100A0000DF90CF90BF90AF909F908F9008953FB7A9
:100A1000F8948091180690911906A0911A06B09149
:100A20001B0626B5A89B05C02F3F19F00196A11DF6
:100A3000B11D3FBFBA2FA92F982F8827BC01CD0128
:100A4000620F711D811D911D42E0660F771F881F87
:100A5000991F4A95D1F708958F929F92AF92BF92B6
:100A6000CF92DF92EF92FF920F931F93CF93DF937A
:100A7000D091D506D13208F0D7C0182FC091D40636
:100A80000E9407056B017C018091AC0681116BC04F
:100A900082E08093AC061093AB068FEF8093AA069A
:100AA0001092A906D093A806A4EBB6E0E8E8F6E019
:100AB00080E0D81391C01092870680918706CC0FF2
:100AC000C82BC093870680918606813009F088C0C4
:100AD000109286060E9407056B017C0180918706B3
:100AE0008093BB008091AE069091AF06A091B006B6
:100AF000B091B106892B8A2B8B2BA1F00E940705A0
:100B00000091AE061091AF062091B0063091B1066B
:100B10006C197D098E099F090617170728073907E1
:100B200008F442C08091BC0083FDD8CF85EC80934F
:100B3000BC000E9407056B017C018091AC068230ED
:100B400009F450C08091AA068F3F09F46FC08091CC
:100B5000AA06803209F46CC08091AA06803309F499
:100B600069C084E026C08091AE069091AF06A09146
:100B7000B006B091B106892B8A2B8B2B09F484CF58
:100B80000E9407058090AE069090AF06A090B00638
:100B9000B090B1066C197D098E099F0986169706DB
:100BA000A806B90608F070CF8091AD060E947D03BB
:100BB00085E01092B3061092D5061092B206DF912E
:100BC000CF911F910F91FF90EF90DF90CF90BF904A
:100BD000AF909F908F9008959D9191938F5F69CF73
:100BE00085EEA5CF8091AE069091AF06A091B0069C
:100BF000B091B106892B8A2B8B2B09F49ECF0E94D2
:100C000007050091AE061091AF062091B006309115
:100C1000B1066C197D098E099F0906171707280769
:100C2000390708F08ACFC0CF81E0C3CF80E0C1CFC1
:100C300082E0BFCF83E0BDCF1F93CF93DF93EA0164
:100C4000122FDC0111968D919C91DC01ED91FC91AC
:100C50000280F381E02D1995C817D90729F4812F57
:100C60000E942C0591E0811190E0892FDF91CF91B6
:100C70001F910895CF92DF92EF92FF920F931F93EF
:100C8000CF93DF931F921F92CDB7DEB7FC0147874A
:100C9000508B618B728B8285882371F14487452F3D
:100CA000562F672F7727882349F143877F018BE0F1
:100CB000E80EF11C9681878199838A83C080D18058
:100CC000C114D10409F443C0018510E098012E5FDE
:100CD0003F4FD60114968D919C918217930780F413
:100CE00080E00F900F90DF91CF911F910F91FF90B7
:100CF000EF90DF90CF9008954387D1CF4487D6CF30
:100D0000F60181819281208131E03093B2062093F7
:100D1000D4061092B3061092D5060115110541F4C0
:100D200021E042E050E0B701C6010E941C06D9CF85
:100D3000DC01ED91FC910280F381E02DA801BE0160
:100D40006F5F7F4F19950817190751F6E9CFA281F8
:100D5000B381109729F224813581018510E0233079
:100D6000310579F48E7F89839A830F5F1F4F9E012F
:100D70002F5F3F4F42E050E0B701CD010E94CC040D
:100D8000B0CF2115310519F49F779983F0CF223028
:100D9000310511F49068F9CF2130310541F79F7783
:100DA0009064F3CFCF93DF93EC018B818823A1F084
:100DB000888191E09093B2068093D4061092B30696
:100DC0001092D50681E00E942C0591E0811190E0FF
:100DD000892FDF91CF910895109285061092840695
:100DE0001092B3061092D5060E945F0389E092E04C
:100DF00090938106809380068AE092E09093830628
:100E00008093820681E08B83CE010E94D206982FC8
:100E10008111CECFDDCF8F929F92AF92BF92CF92B2
:100E2000DF92EF92FF924B015C010E9407056B017C
:100E30007C010E9407056C197D098E099F09683E97
:100E4000734081059105A8F321E0821A9108A10859
:100E5000B10888EEC80E83E0D81EE11CF11C811495
:100E60009104A104B10429F7FF90EF90DF90CF9097
:100E7000BF90AF909F908F9008952FB7F894609196
:100E800014067091150680911606909117062FBFD3
:100E90000895AF92BF92CF92DF92EF92FF920F939D
:100EA0001F93CF93DF936C017B018B01040F151F00
:100EB000EB015E01AE18BF08C017D10759F0699168
:100EC000D601ED91FC910190F081E02DC6011995BC
:100ED000892B79F7C501DF91CF911F910F91FF9079
:100EE000EF90DF90CF90BF90AF90089590E080E0BA
:100EF0000895FC01538D448D252F30E0842F90E020
:100F0000821B930B541710F0CF9608950197089504
:100F1000FC01918D828D981761F0A28DAE0FBF2FCD
:100F2000B11D5D968C91928D9F5F9F73928F90E023
:100F300008958FEF9FEF0895FC01918D828D981792
:100F400031F0828DE80FF11D858D90E008958FEFCF
:100F50009FEF0895FC01918D228D892F90E0805C98
:100F60009F4F821B91098F739927089582EE96E017
:100F70000E94AA0721E0892B09F420E0822F08951E
:100F8000FC01A48DA80FB92FB11DA35ABF4F2C91FE
:100F9000848D90E001968F739927848FA689B789F5
:100FA0002C93A089B1898C91837080648C93938DEC
:100FB000848D981306C00288F389E02D80818F7D8F
:100FC00080830895EF92FF920F931F93CF93DF9347
:100FD000EC0181E0888F9B8D8C8D98131AC0E88975
:100FE000F989808185FF15C09FB7F894EE89FF8944
:100FF0006083E889F98980818370806480839FBFE2
:1010000081E090E0DF91CF911F910F91FF90EF90E1
:101010000895F62E0B8D10E00F5F1F4F0F731127F1
:10102000E02E8C8D8E110CC00FB607FCFACFE8892C
:10103000F989808185FFF5CFCE010E94C007F1CFED
:10104000EB8DEC0FFD2FF11DE35AFF4FF0829FB7A0
:10105000F8940B8FEA89FB8980818062CFCFCF9390
:10106000DF93EC01888D8823B9F0AA89BB89E889D0
:10107000F9898C9185FD03C0808186FD0DC00FB676
:1010800007FCF7CF8C9185FFF2CF808185FFEDCFF4
:10109000CE010E94C007E9CFDF91CF91089580E093
:1010A00090E0892B29F00E94B60781110E94000070
:1010B00080E090E0892B49F080E090E0892B29F0D6
:1010C0000E94000081110E94000080E090E0892BC6
:1010D00049F080E090E0892B29F00E940000811106
:1010E0000E94000080E090E0892B49F080E090E0D1
:1010F000892B29F00E94000081110C9400000895B2
:101100004F925F926F927F928F929F92AF92BF9217
:10111000CF92DF92EF92FF920F931F93CF93DF93C3
:10112000EC010E943D070CA11DA12EA13FA160175B
:10113000710782079307D8F18E898823C1F10E9435
:101140003D070C8D1D8D2E8D3F8DDC01CB01800F59
:10115000911FA21FB31F8CA39DA3AEA3BFA3CA88D8
:10116000DB88EC88FD88EC85FD8519959B01AC0139
:10117000C701B6010E94192C6B017C019F772CA539
:101180003DA54EA55FA50E946A2A87FF21C081E088
:101190008F8B1E8AE889F989309709F019958CA1FF
:1011A0009DA1AEA1BFA188A799A7AAA7BBA7DF91C0
:1011B000CF911F910F91FF90EF90DF90CF90BF9054
:1011C000AF909F908F907F906F905F904F90089519
:1011D0000E851F850E943D0788A499A4AAA4BBA4DC
:1011E000681979098A099B0968A379A38AA39BA333
:1011F0002CA93DA94EA95FA9C701B6010E941A2CCE
:101200006CAB7DAB8EAB9FAB88A899A8AAA8BBA8F6
:10121000A50194010E94E82D181624F48CAA9DAA19
:10122000AEAABFAAB7FAB094B7F8B094A5019401DA
:101230006CA97DA98EA99FA90E946A2A87FF04C074
:101240008CAA9DAAAEAABFAA888C998CAA8CBB8CAA
:101250002CA93DA94EA95FA96C817D818E819F81BA
:101260000E94D02AA50194010E94D02A2B013C01A2
:10127000288139814A815B81C701B6010E94D02A49
:101280009B01AC01C301B2010E941A2C2B013C014D
:1012900028AD39AD4AAD5BADC701B6010E94192C2E
:1012A000288539854A855B850E94D02AA50194014D
:1012B0000E94A62C9B01AC01C301B2010E941A2C12
:1012C000C8AED9AEEAAEFBAEF801199568CF0F9360
:1012D0001F93CF93DF93EC018C859D85892BF9F0CB
:1012E0008E859F85892BD9F081E08E8B0E943D07EA
:1012F0000C8D1D8D2E8D3F8DDC01CB01800F911F3C
:10130000A21FB31F8CA39DA3AEA3BFA31F8A1CAAB9
:101310001DAA1EAA1FAA18AE19AE1AAE1BAEDF91E7
:10132000CF911F910F910895CF92DF92EF92FF928C
:10133000CF93DF93DC01EC91EC3008F04EC0CE2F60
:10134000D0E0B5E0EB9FF0011124E158F84F838124
:1013500058E8C52ED12CC81AD10887FDD394CC0CDF
:10136000DD1CCC0CDD1C683C71050CF03DC00D2C67
:10137000000CEE08FF08848128E532E0281B3109C3
:1013800087FD3395220F331F220F331F032E000CCE
:10139000440B550B2C193D094E095F09DB010E94D6
:1013A000B82B24EB30E040E050E00E948E2BC20EC0
:1013B000D31EE41EF51E8FB7F89495E09C9FF001B4
:1013C0009D9FF00D1124E158F84F96E0C91AD108FD
:1013D000CC0CDD1CD282C1828FBFDF91CF91FF90F8
:1013E000EF90DF90CF9008956C157D0524F38481F4
:1013F00028E5C22E22E0D22EC81AD10887FDD39448
:10140000CC0CDD1CCC0CDD1C6C157D05A4F66B0131
:10141000D2CFFC0162817381808191810C94940907
:10142000FC0164817581808191810C9494098EBD49
:1014300000000DB407FEFDCF8EB50895CF93DF9366
:10144000EC0160E088810E94B80288E90E94170AD6
:1014500080E00E94170A80E00E94170A80E00E9444
:10146000170A80E00E94170A61E088810E94B80292
:101470008BE891E00197F1F760E088810E94B80263
:1014800080EE0E94170A61E08881DF91CF910C9471
:10149000B802AF92BF92CF92DF92EF92FF920F937A
:1014A0001F93CF93DF93CDB7DEB760970FB6F89455
:1014B000DEBF0FBECDBF6C0160E0FC0180810E94E9
:1014C000B80280E60E94170A9E012F5F3F4F790104
:1014D0005E0131E1A30EB11C870180E00E94170A72
:1014E00090E0B0E0A0E0F80181939193A193B193D3
:1014F0008F01EA15FB0589F761E0F60180810E9402
:10150000B80280E090E0DC01F701419151916191D6
:1015100071917F01BA2FA92F982F8827840F951FCB
:10152000A61FB71FE017F10779F79C01AD016627E9
:101530007727CB01621B730B840B950B60960FB65C
:10154000F894DEBF0FBECDBFDF91CF911F910F91F9
:10155000FF90EF90DF90CF90BF90AF9008950895E7
:10156000CF93DF93EC0188819981DC01ED91FC91AF
:101570000190F081E02D19952A813B81820F931F04
:101580009B838A83DF91CF910895CF93DF93EC0102
:1015900088819981DC01ED91FC910280F381E02D3D
:1015A00019952A813B81820F931F9B838A83DF9148
:1015B000CF9108958F929F92AF92BF92CF92DF9278
:1015C000EF92FF920F931F93CF93DF93CDB7DEB7C8
:1015D00066970FB6F894DEBF0FBECDBF6C018E01CB
:1015E000095E1F4F78018AE0882E912CA12CB12C26
:1015F000CB01BA01A50194010E94C02B942F852F25
:10160000605DF80162938F01A901692F782F411560
:1016100051056105710561F7A7014E1B5F0BBF0105
:10162000C6010E94C50A66960FB6F894DEBF0FBECB
:10163000CDBFDF91CF911F910F91FF90EF90DF9081
:10164000CF90BF90AF909F908F90089580339CF083
:101650008A3324F08F3524F08B3724F481E0089509
:1016600081344CF08B35D4F393ED980F81E09230B8
:10167000B0F380E008958B32B9F7F0CFCF92DF92CC
:10168000EF92FF920F931F93CF93DF93EC018C8522
:10169000811130C009851A850E943D07D80118962E
:1016A0006D937D938D939C931B97D801ED91FC9145
:1016B0000284F385E02DC801199597FF25C00E948B
:1016C0003D07F801C084D184E284F3846C197D095C
:1016D0008E099F09C480D580E680F7806C157D0552
:1016E0008E059F0510F38FEF9FEF97FD80E08B87AE
:1016F00081E08C878B85DF91CF911F910F91FF90B7
:10170000EF90DF90CF9008959927EFCF1F93CF935D
:10171000DF93EC01162F0E943E0B811306C01C863E
:1017200081E0DF91CF911F91089580E0FACFCF93B0
:10173000DF93EC01CE010E943E0B8B303CF48930EC
:101740004CF4882349F081E0888710C08D3011F077
:101750008032C9F71C86EECF888581110AC081E0EE
:1017600090E0C15BDF4F9983888380E0DF91CF9168
:10177000089582E090E0F5CF0895FC012481358141
:10178000A9014F5F5F4F868197814817590748F439
:101790008281938155834483FC01E20FF31F6083B0
:1017A00008950190F081E02D81E0808708959F9257
:1017B000AF92BF92CF92DF92EF92FF920F931F935F
:1017C000CF93DF9300D01F921F92CDB7DEB78C016D
:1017D0000E943E0BD82ED8011C961C92F12CE12CB5
:1017E00060EFC62EC8010E943E0BF8011486D81681
:1017F00009F4BDC0811119C0F801E15BFF4F82E01F
:1018000090E09183808380E00F900F900F900F9075
:101810000F90DF91CF911F910F91FF90EF90DF908C
:10182000CF90BF90AF909F9008958C3509F09DC0E8
:10183000C8010E943E0B8823F9F2E6E3F2E0853707
:1018400009F087C0D8011C961C9254E0952EB12C4B
:10185000A12CC8010E943E0B882371F281344CF404
:101860008053803148F0F801E15BFF4F83E090E066
:10187000C8CF8F7D8753F5CF44E0AA0CBB1C4A9597
:10188000E1F7A82AF80114869A949110E2CFC501D5
:10189000985D8115944020F4750123E0F222A2CFD7
:1018A000C5019C5D81159440A8F4B3E0BB22B7014B
:1018B000762F6627770F770F6A297B2990E080E0E3
:1018C0000196603871058105910540F4C8010E94B8
:1018D000BD0B88CFB50190E080E0F3CF1982262FB1
:1018E0002F7320682A8326E09695879577956795CC
:1018F0002A95D1F76032710580F4606C6B835E01CC
:10190000E4E0AE0EB11CD5016E915D01662309F4D1
:1019100069CFC8010E94BD0BF6CF262F2F73206818
:101920002B8386E0769567958A95E1F7603171059E
:1019300038F4606E6C835E01F5E0AF0EB11CE3CF4E
:1019400060686C83CD825E0126E0A20EB11CDBCF05
:1019500032969081992309F486CF8913F9CF81813A
:10196000882309F480CFF8011486682FAFCF019047
:10197000F081E02D8085882331F0F801E15BFF4F95
:1019800084E090E03ECF81E03FCFCF93DF93DC0156
:10199000EB01EC81FD818A819B810896E817F907AC
:1019A00040F481E08887F0E0E0E0CF01DF91CF9163
:1019B00008953897FD83EC833097B9F31296CD9153
:1019C000DC911397209791F0CF018C1B9D0B23E0A6
:1019D000959587952A95E1F78D831396FC93EE9361
:1019E00012971582148217821682DFCF1196FC930C
:1019F000EE93F3CFEF92FF920F931F93CF93DF936A
:101A00007C01DC0112962D913C911397ED91FC9194
:101A1000AB01420F531FEF01C60FD71FC217D307E9
:101A2000A0F4888181110BC0E901CF014C175D073B
:101A300051F00991DC011D91CD010117B9F381919C
:101A40008111FDCFE8CF309751F4620F731FCB01A6
:101A50000196F70193838283DB011C92F901CF0188
:101A6000DF91CF911F910F91FF90EF900895FC01AE
:101A70002581222339F0F8E02F0290011124820FF2
:101A8000931F089590E080E00895FC0101900020EC
:101A9000E9F73197AF01481B590BBC0182EE96E084
:101AA0000C9449078F929F92AF92BF920F931F930E
:101AB000CF93DF93CDB7DEB7A1970FB6F894DEBF13
:101AC0000FBECDBF19A2423008F44AE08E010F5D6F
:101AD0001F4F842E912CB12CA12CA50194010E94A2
:101AE000C02BE62FB901CA01EA30F4F4E05DD80159
:101AF000EE938D01232B242B252B79F790E080E0AA
:101B0000109719F0CD010E94450DA1960FB6F894DB
:101B1000DEBF0FBECDBFDF91CF911F910F91BF9060
:101B2000AF909F908F900895E95CE1CFCF93DF93C2
:101B30000E94450DEC0187E492E00E94450D8C0F58
:101B40009D1FDF91CF9108954F925F926F927F9288
:101B5000AF92BF92CF92DF92EF92FF920F931F93BB
:101B6000CF93DF935C016A017B0120E030E040E825
:101B70005FE3CB01B6010E94E82D181604F120E0C6
:101B800030E040E85FEBC701B6010E946A2A87FD9A
:101B90001DC0F5010281023000F18AE492E0DF917C
:101BA000CF911F910F91FF90EF90DF90CF90BF905A
:101BB000AF907F906F905F904F900C94960DC12CDA
:101BC000D12C30E8E32E3FE3F32EE3CFC12CD12C10
:101BD00020E8E22E2FEBF22EDCCF013021F4F7FAD1
:101BE000F094F7F8F09410E020E030E04FE753E491
:101BF000C701B6010E94D02A2B013C0120E030E051
:101C0000A9010E94E82D18160CF041C0C301B201D1
:101C10000E94182DEB01F501A080B180F801EE0FB4
:101C2000FF1FEA0DFB1D738C20E030E0A901C70106
:101C3000B6010E94E82D60E018160CF061E0872DD7
:101C40000E94B802CF3FD10509F02CF5DD27035FD4
:101C50001F4F000F111F0A0D1B1DF801108161E0BD
:101C6000812F0E949E032097C9F460E0812FDF91AD
:101C7000CF911F910F91FF90EF90DF90CF90BF9089
:101C8000AF907F906F905F904F900C94B802C3011B
:101C9000B2019058BDCFCFEFD0E0D9CFCF3FD10523
:101CA00011F461E0E3CFE12FF0E0E95FFC4FE49154
:101CB000E150E23108F0BEC0F0E08827ED59F14F65
:101CC0008F4F0C94112C750E880E8D0E970EA10E51
:101CD0001A0FAB0EB30EBB0EC50ECF0ED90EE80E0B
:101CE000F20E1A0FFC0E060F100F84B5806884BD2B
:101CF000C7BDDF91CF911F910F91FF90EF90DF90C3
:101D0000CF90BF90AF907F906F905F904F9008956D
:101D100084B5806284BDC8BDECCF809180008068AE
:101D200080938000D0938900C0938800E2CF809197
:101D30008000806280938000D0938B00C0938A00E3
:101D4000D8CF80918000886080938000D0938D00F0
:101D5000C0938C00CECF8091B00080688093B0009B
:101D6000C093B300C6CF8091B00080628093B00072
:101D7000C093B400BECF80919000806880939000A3
:101D8000D0939900C0939800B4CF80919000806266
:101D900080939000D0939B00C0939A00AACF80912B
:101DA0009000886080939000D0939D00C0939C0029
:101DB000A0CF8091A00080688093A0008091A000B7
:101DC0008F7B8093A000D093A900C093A80091CFEF
:101DD0008091A00080628093A000D093AB00C0935C
:101DE000AA0087CF8091A00088608093A000D09344
:101DF000AD00C093AC007DCF8091200180688093BE
:101E00002001D0932901C093280173CF8091200134
:101E1000806280932001D0932B01C0932A0169CF67
:101E200080912001886080932001D0932D01C09380
:101E30002C015FCFC038D1050CF033CF16CFCF9235
:101E4000DF92EF92FF926B017C012DEC3CEC4CECAD
:101E50005DEB0E946A2AB701A601705887FF04C093
:101E60004DEC5CEC6CEC7DE38091C6079091C7076C
:101E7000FF90EF90DF90CF900C94A40D4DEC5CECB4
:101E80006CEC7DEB8091C6079091C7070C94A40D74
:101E90006093A1057093A2058093A3059093A40578
:101EA0002091A5053091A6054091A7055091A80560
:101EB0000E941A2CAB01BC018091C8079091C90700
:101EC0000C94A40D1092A1051092A2051092A305E6
:101ED0001092A40520E030E0A9016091A505709161
:101EE000A6058091A7059091A8050E941A2CAB0128
:101EF000BC018091C8079091C9070E94A40D8091F0
:101F0000D0079091D107FC01168A1092BE0520914E
:101F10000202309103022530310541F426E030E021
:101F200030930302209302020C9467092630310596
:101F300019F425E030E0F4CF08956093A50570937F
:101F4000A6058093A7059093A8052091A10530913F
:101F5000A2054091A3055091A4050E941A2CAB0143
:101F6000BC018091C8079091C9070C94A40D1092F0
:101F7000A5051092A6051092A7051092A80520E0CD
:101F800030E0A9016091A1057091A2058091A3059F
:101F90009091A4050E941A2CAB01BC018091C80746
:101FA0009091C9070E94A40D1092BD05E091CC0745
:101FB000F091CD07168A0895623040F08CE592E0EA
:101FC0000E94960D60E070E0CB01089561110BC096
:101FD0004E960E94490A90958095709561957F4F25
:101FE0008F4F9F4F089580960C94490AE091C8073F
:101FF000F091C9076281808191810E94DC0F072ED8
:10200000000C880B990B0E94712A2DEA3BEB4EE1E4
:102010005EE30E94D02A08950C94450DFB010190C7
:102020000020E9F73197AF01461B570B0C94C50A06
:102030001F93CF93DF93E6E3F2E01281112379F04F
:10204000329621816213F9CFEC016CE50E94B00A4F
:10205000612FCE01DF91CF911F910C94B00A6111D5
:10206000F9CF60E772E0DF91CF911F910C940E10D1
:102070002F923F924F925F926F927F928F929F9298
:10208000AF92BF92CF92DF92EF92FF920F931F9386
:10209000CF93DF93CDB7DEB76C970FB6F894DEBF62
:1020A0000FBECDBF8C011B01DC0114968C911497DF
:1020B0008F77863009F492C268F58230A0F11296CB
:1020C000ED90FC901397CC901196DC90843008F042
:1020D00056C2A701B601C1010E94C50AF101828161
:1020E00093816C960FB6F894DEBF0FBECDBFDF9123
:1020F000CF911F910F91FF90EF90DF90CF90BF9005
:10210000AF909F908F907F906F905F904F903F9097
:102110002F9008958C3069F160F4883009F459C229
:102120008A3009F43FC267E772E0C1010E940E10D5
:10213000E5C1803209F4ECC18034A9F76BE5C10137
:102140000E94B00AF801008111810115110509F4FE
:10215000DAC1B101C8010E943810C8010E94370DD0
:102160008C01892B09F4CFC16CE2C1010E94B00A35
:10217000ECCFF801C080D180E280F380A701960106
:10218000C701B6010E946A2A8111CDCF20E030E05C
:10219000A901C701B6010E946A2A882379F0A70124
:1021A0009601C701B6010E941A2C9B01AC01C70120
:1021B000B6010E946A2A882309F4B5CF20E030E0F6
:1021C000A901C701B6010E946A2A87FF08C06DE213
:1021D000C1010E94B00AF7FAF094F7F8F09420E8F1
:1021E00036E948E15BE4C701B6010E94E82D87FDAE
:1021F00081C074E1A72EB12C00E210E0188E1F8A76
:10220000F501E35BFC4F2591359145915491C70150
:10221000B6010E94E82D87FD13C0F501EB59FC4F74
:102220002591359145915491C701B6010E94D02A5C
:102230006B017C012F89388D200F311F388F2F8B38
:102240001595079534E0A31AB1088CEFA8168FEF07
:10225000B806B1F655245A9420E030E0A901C70130
:10226000B6010E94E82D18160CF04BC02CEA35EC94
:1022700047E257E3C701B6010E946A2A18160CF418
:1022800040C0A52DB4E0AB02C0011124B12CA12C9B
:10229000FC01E25DFD4F3F019C01235B3C4F490186
:1022A0003FEF531671F1F301EA0DFB1D25913591B6
:1022B00045915491C701B6010E946A2A87FF13C055
:1022C000F401EA0DFB1D2591359145915491C7010B
:1022D000B6010E94D02A6B017C018F89988D801BEA
:1022E000910B988F8F8B159507955A9494E0A91AA6
:1022F000B108D6CF00E210E055E0552E188E1F8AA7
:10230000ABCFC701B6010E941F2D4B015C012B0111
:102310003C0106E080E492E4AFE0B0E0898F9A8F60
:10232000AB8FBC8F102F01509AE049165104610405
:102330007104C8F0698D7A8D8B8D9C8D2AE030E018
:1023400040E050E00E94C02B298F3A8F4B8F5C8F6A
:10235000C301B2012AE030E040E050E00E94C02B0F
:1023600029013A01DFCFC501B4010E946F2A9B0108
:10237000AC01C701B6010E94192C6B017C01698D6B
:102380007A8D8B8D9C8D0E946F2A9B01AC01C701B9
:10239000B6010E94D02A2B013C010E941F2D6B0127
:1023A0007C010E946F2A9B01AC01C301B2010E9413
:1023B000192C9B01AC010E941A2C0E941F2DC60EE5
:1023C000D71EE81EF91E898D9A8DAB8DBC8DC8165F
:1023D000D906EA06FB06D8F09FEF891A990AA90ADE
:1023E000B90AAF89B88DAB2B39F1BAE08B169104DD
:1023F000A104B10408F1EF89F88D3196F88FEF8BC5
:10240000C12CD12C7601812C912C540183942AE08B
:10241000422E512C612C712CC701B601A3019201EF
:102420000E94C02B672B682B692B51F4111644F4C2
:1024300069017A011150F0CFC12CD12C7601E7CF80
:10244000B501A401C1010E94DA0A112371F14E0104
:10245000F1E18F0E911C012F54019AE0492E512C6D
:10246000612C712C015068F0C701B601A3019201E3
:102470000E94C02B605DD4016E934D0169017A0109
:10248000F1CF812F90E0BC0160957095F501E81BBC
:10249000F90B31978EE2808344275527461B570B53
:1024A0006A0D7B1DC1010E94C50AEF89F88DEF2BD3
:1024B00029F165E6C1010E94B00A0F89188D17FF46
:1024C00007C06DE2C1010E94B00A11950195110982
:1024D000FE0177969F018AE0E82EF12CC801B70132
:1024E0000E94FD2B805D82938B01672BB9F7A901B8
:1024F0004E1B5F0BBF01C1010E94C50AD10112969C
:102500008D919C91EECD6DE5C1010E94B00AF6CF90
:102510006BE7C1010E94B00AF80100811181011529
:10252000110559F1D8011696CC9016971796DC90A4
:1025300062E2C1010E94B00A7601F70161917F0158
:10254000662321F0C1010E941810F7CF62E2C10199
:102550000E94B00A6AE3C1010E94B00AB101C80139
:102560000E943810C8010E94370D8C01892B29F078
:102570006CE2C1010E94B00AD2CF6DE7C5CF62E222
:10258000C1010E94B00A8601E00EF11EE016F106BC
:1025900039F0F80161918F01C1010E941810F6CF46
:1025A00062E2B2CFCD90DD90ED90FC90B701A60134
:1025B000F7FE0BC06DE2C1010E94B00A4427552707
:1025C000BA014C195D096E097F09C1010E94DA0A3E
:1025D00085CD4D915D916D917C91F7CF8C916CE79C
:1025E00072E0811102C061E872E0C1010E940E1028
:1025F00075CD2F923F924F925F926F927F928F9202
:102600009F92AF92BF92CF92DF92EF92FF920F9381
:102610001F93CF93DF9300D000D0CDB7DEB77C01FE
:102620007C836B830B969E838D83D70116969C913A
:10263000169717968C91179799838A836D907C9043
:1026400011976114710409F44CC119964C9150E032
:10265000F3018481958184179507A8F0808191E02A
:102660009093B2068093D4061092B3061092D506CA
:1026700020E0BE016F5F7F4FC3010E941C06D12C7A
:10268000C12C81111AC080E026960FB6F894DEBFE7
:102690000FBECDBFDF91CF911F910F91FF90EF90B3
:1026A000DF90CF90BF90AF909F908F907F906F9072
:1026B0005F904F903F902F900895D30114968D9185
:1026C0009C9102E010E00C191D098017910708F495
:1026D0008C01F30150800E9407054B015C01809141
:1026E000AC06811176C0B02EF0E2F01710F440E293
:1026F000B42E81E08093AC0621E082E090E0801B64
:10270000910BC816D90608F420E02093AB069FEF82
:102710009093AA061092A9068FEF8B0D8093A806BE
:10272000A1E0A093870680918706550C582A509205
:10273000870680918606813009F093C01092860644
:102740000E9407051B012C01809187068093BB0026
:102750008091AE069091AF06A091B006B091B106FF
:10276000892B8A2B8B2BA1F00E9407052091AE06A6
:102770003091AF064091B0065091B10662197309CD
:1027800084099509261737074807590708F442C0F6
:102790008091BC0083FDD8CFB5ECB093BC000E9403
:1027A00007051B012C018091AC06813009F45DC046
:1027B0008091A9068B1510F4B090A906A8E8B6E0A0
:1027C000E0E6F6E080E08B1551F19D9191938F5FEB
:1027D000FACF8091AE069091AF06A091B006B0916D
:1027E000B106892B8A2B8B2B09F479CF0E94070520
:1027F0002091AE063091AF064091B0065091B106DF
:10280000681979098A099B09261737074807590764
:1028100008F065CF8091AD060E947D03B12C109227
:102820008506B0928406B016110609F02CCF8D8073
:102830009E808C0C9D1C5401C50188199909801734
:102840009107A8F5D30111968D919C91DC01ED9132
:10285000FC910284F385E02D1995F50181935F01C8
:10286000EBCFE5EEE093BC009ACF8091AE0690915D
:10287000AF06A091B006B091B106892B8A2B8B2BA5
:1028800009F491CF0E9407052091AE063091AF0662
:102890004091B0065091B1066219730984099509F7
:1028A000261737074807590708F07DCFB3CFC00E6A
:1028B000D11EF2E0CF16D10408F4FFCEF7018285D5
:1028C000811142C0848590E0982F8827AB81BC811C
:1028D00011969C938E932385822B8D939C9381E0FC
:1028E000D3CE1296ED91FC911397309709F4CBCE8D
:1028F00014962D913C91159719964C9150E02330E8
:10290000310591F4816089839A834F5F5F4F02E0C4
:1029100010E02D813E81BE016F5F7F4FCF010E948D
:1029200090048111CBCFB0CE2115310519F49068F8
:102930009983EDCF2230310511F49F77F9CF213003
:10294000310529F7906CF4CF838590E0982F882784
:10295000AB81BC8111969C938E932485BDCF85ED70
:102960008093BC008091AE069091AF06A091B00616
:10297000B091B1060796A11DB11D23E0B695A795AC
:10298000979587952A95D1F72091BC0024FD03C027
:102990001092AC0608954091AE065091AF0660913A
:1029A000B0067091B106452B462B472B69F3009773
:1029B000A105B10541F025E32A95F1F70000019743
:1029C000A109B109E1CF8091AD060C947D038F92EE
:1029D0009F92AF92BF92CF92DF92EF92FF92E091DF
:1029E000C607F091C7076281808191810E94DC0F48
:1029F000072E000C880B990B0E94712A2DEF3DEADF
:102A000040E85AE30E94D02A9B01AC016BED7FE0C5
:102A100089E490E40E94192C6B017C010E94A12C96
:102A200024E833E745E357E40E94D02A9B01AC0138
:102A300064E873E785E397E40E94192C0E94FB2D5C
:102A40004B015C01C701B6010E94ED2D26E636E67A
:102A500048E153E40E94D02AA50194010E94A62CCB
:102A60000E94862C0E94ED2D26E636E648E153ECC6
:102A70000E94D02A6B017C0120E030E040EA52E461
:102A80000E94E82D181654F44DEC5CEC6CEC7DE3E0
:102A90008091C6079091C7070E94A40DC701B60197
:102AA000FF90EF90DF90CF90BF90AF909F908F906E
:102AB00008954F925F926F927F928F929F92AF9202
:102AC000BF92CF92DF92EF92FF92E091C607F09112
:102AD000C7076281808191810E94DC0F072E000C64
:102AE000880B990B0E94712A2DEF3DEA40E85AE3CA
:102AF0000E94D02A9B01AC016BED7FE089E490E459
:102B00000E94192C4B015C010E94A12C20E030E8AE
:102B100044E357E40E94D02A9B01AC0160E070E8D6
:102B200084E397E40E94192C0E94FB2D6B017C0129
:102B3000C501B4010E94ED2D20E030E048E153E4EE
:102B40000E94D02AA70196010E94A62C0E94862CE2
:102B50004B015C01A701960163E373E382E891E412
:102B60000E94A62C0E94862C6B017C010E94F3011E
:102B7000BC01990F880B990B0E94712A20E030EC60
:102B80004FE754E40E94A62C20E030E844E853E4E8
:102B90000E94D02A20E030E844E053E40E94192C3F
:102BA0002B013C01A7019601C501B4010E94192C1B
:102BB00020E030E044E353E40E94D02A2BED3FE0D4
:102BC00049E450E40E94A62C9B01AC01C301B20170
:102BD0000E941A2C2091B8053091B9054091BA0590
:102BE0005091BB050E941A2CFF90EF90DF90CF9080
:102BF000BF90AF909F908F907F906F905F904F901D
:102C000008950F931F93CF93DF93D0E0C0E0611539
:102C1000710591F08B01FC01C081D181209761F099
:102C20006E817F81C8010E947A2F892B29F0CE0105
:102C30000E94370DEC01F2CFCE01DF91CF911F91B1
:102C40000F9108954F925F926F927F92BF92CF92B1
:102C5000DF92EF92FF920F931F93CF93DF93EC01DC
:102C60008B01E42E0E94970BF82E811110C0F12CDD
:102C70008F2DDF91CF911F910F91FF90EF90DF90FB
:102C8000CF90BF907F906F905F904F900895CE014E
:102C90000E943E0B873209F42BC10CF5823209F4F5
:102CA00027C1CE010E943E0BB82E6E01FFE0CF0E71
:102CB000D11CE12C36018B2D0E94260B882309F4B0
:102CC00043C12FE3E21609F43FC11C86E394F601E9
:102CD000B1926F01CE010E943E0BB82EECCF8B3526
:102CE00009F44AC08B37E9F6F80184818078806264
:102CF00084831182108213821282EE2009F447C06D
:102D00001C86CE010E94970B882309F4B0CF6DE793
:102D1000CE010E94860BD82E8111AACFCC24C39459
:102D2000EA94E881F981828193819B838A838481FB
:102D3000958122813381821B930B9F838E831D8219
:102D40001C82892B09F4C086CE010E943E0B87327B
:102D500009F45DC0823209F45AC0CE010E943E0BD4
:102D6000F82E0E94260B811159C0C15BDF4F83E012
:102D700090E09983888350C0F801848180788064D2
:102D800084831182108213821282E11007C0C15B1A
:102D9000DF4F85E090E09983888369CF1C86CE0160
:102DA0000E94970B882309F462CF6DE5CE010E9443
:102DB000860B81115DCFEA946D857E85C8010E94E6
:102DC000C50C009729F4C15BDF4F84E090E0E3CFAE
:102DD0004E2DBC01CE010E942216882309F447CF54
:102DE000CE010E94970B882309F441CF6DE5CE01F7
:102DF0000E94860B81113CCF6CE2CE010E94860BB3
:102E00008111DACFC15BDF4F83E090E0C4CFCE0108
:102E10000E94D70B811119C0FD2C2ACF1C866F2D63
:102E2000CE010E94BD0BCE010E943E0BF82E0E94E7
:102E3000260B8111F3CFE881F9818085882329F061
:102E4000C15BDF4F84E090E094CFCE010E94970BEE
:102E5000882311F36AE3CE010E94860B882309F4CC
:102E600084CFEA81FB818C819D81E80FF91F10825C
:102E70006C807D806A817B81C8010E940116BC0143
:102E8000892BA1F4B301888199810E94FA0C3C013D
:102E90006D857E85C8010E94C50CFC01892B81F2DD
:102EA00084818068848377826682BF014E2DCE0143
:102EB0000E942216882309F4AFCFCE010E94970BFF
:102EC000882309F4A9CF6DE7CE010E94860B8111FA
:102ED0000DC06CE2CE010E94860B882309F445CF19
:102EE000CE010E94970B81111CCF96CFD82E94CF84
:102EF000E881F981828193819B838A838481958192
:102F000022813381821B930B9F838E831D821C82BF
:102F1000892B11F481E08087CE010E94D70BF82E17
:102F2000882309F4A4CECC80DD80B6018881998104
:102F30000E94FA0CF8012481207825602483918373
:102F40008083D382C28294CEFE01EE0DF11D1786DE
:102F50008F85843781F4F80184818078866084834A
:102F600081E08083F4E0EF1609F482CEC15BDF4F8D
:102F700082E090E010CF863641F4F80184818078B9
:102F8000866084831082F5E0EECF8E3621F424E053
:102F9000E212ECCF6DCE8B32D9F1F3018D32D1F547
:102FA000FE017096BF2C808190ED980F9A3018F03A
:102FB0008E3209F027CF6F0160E070E0CB01F6019F
:102FC0002191A0ED4A2E420E39E0341528F16A39DC
:102FD00049E97407840749E1940740F5AAE0B0E0A5
:102FE0009B01AC010E94AD2B512C712C612CA301D3
:102FF0009201209530954095509526173707480740
:103000005907A0F0640D751D861D971D6F01D7CF60
:10301000FE017096B12CC7CF211108C0BB2071F101
:1030200061307105810550E89507A0F0E12CEAE0D8
:103030004E2E512C612C712C61157105F0E88F0713
:10304000910530F1A30192010E94C02BCA01B90180
:10305000E394F2CFF801248120782A6024839B0135
:10306000AC0188279927DC01821B930BA40BB50BBD
:1030700080839183A283B383FB2CFACDF801248152
:103080002078286024836083718382839383F0CDCA
:10309000D601F60121916F0130ED320F3A3010F474
:1030A000E394F6CF2E32F1F4FD013196DF01319633
:1030B0002C9150EDD52ED20E29E02D1598F06C3CB8
:1030C0003CEC73073CE08307910580F7AAE0B0E091
:1030D0009B01AC010E94AD2B6D0D711D811D911DD9
:1030E000EA94E4CF2C912F7D253409F08CC0119601
:1030F0002C9111972D32D9F512967F2CFD0130E0DD
:1031000020E0CE2C0E2C000CDD084AE0542EDF010E
:10311000619040ED460D4A3008F043C0529EA00138
:10312000539E500D1124262D660C330B205331096C
:10313000240F351FA601420F531F473251053CF3A0
:10314000F80184817720D1F040E050E060E070E841
:10315000B11003C040E050E0BA0180788C60F80103
:1031600084834083518362837383F72C81CD2B3218
:1031700019F01196712CC2CF1296FCCF40E050E0AE
:1031800060E87FEFB11004C040E050E060E87FE706
:1031900080788C60F80184834083518362837383D9
:1031A00067CD772019F03195219531094C91411166
:1031B00029CEE901CE0DD11DE7FCDA950E946F2AD8
:1031C0001C161D061CF5E12CC0FF0CC024E0E29E7D
:1031D000F0011124E35BFC4F259135914591549109
:1031E0000E94D02AD595C795E394209769F7B1102E
:1031F0009058F801248120782C60248360837183A7
:103200008283938335CD30E020E0D0CFD195C19536
:10321000D109E12C209759F3C0FF0CC044E0E49E93
:10322000F0011124EB59FC4F2591359145915491B2
:103230000E94D02AD595C795E394ECCFEF92FF92E8
:103240000F931F93CF93DF93EC018C81982F9F777F
:1032500039F4807880628C83198218821B821A82EA
:103260008C8185FF1DC061157105D1F07A018B013C
:10327000CE010E940116009761F4B701CE010E94B1
:10328000C50C009731F0FC0124812F77248317832C
:103290000683DF91CF911F910F91FF90EF900895DA
:1032A00090E080E0F6CF8F929F92AF92BF92CF9244
:1032B000DF92EF92FF920F931F93CF93DF93CDB7DF
:1032C000DEB7CA52D2400FB6F894DEBF0FBECDBFF4
:1032D000CE010F969A8389839C838B8383E092E04F
:1032E0008C0F9D1F9E838D8398878F8319861E86E2
:1032F0000E943D076B017C01AE014F5F5F4F67E8A5
:1033000072E0CE010A960E941E19FC01892B41F041
:103310009481907898609483C082D182E282F38213
:103320000E9459156B017C01AE014F5F5F4F6CE845
:1033300072E0CE010A960E941E19FC01892B41F011
:10334000948190789C609483C082D182E282F382DF
:10335000E090D407F090D507F70182859385CE5E83
:10336000DD4F188219821A821B82C251D240CD5F72
:10337000DD4F99838883C350D240CB5FDD4F1982E4
:103380001882C550D240DD24D394C45FDD4FD8826B
:10339000CC50D24082E090E0C75FDD4F99838883B4
:1033A000C950D240C35FDD4FD882CD50D24032E009
:1033B000C32EC55FDD4FC882CB50D240BE016A5ECE
:1033C0007D4FCE018D5F9D4F0E94F912F7018487DA
:1033D000CA5EDD4F08811981C651D240828593852E
:1033E000CE5EDD4F188219821A821B82C251D240F2
:1033F000CD5FDD4F99838883C350D240CB5FDD4FD3
:1034000019821882C550D240C45FDD4FD882CC509B
:10341000D24081E090E0C75FDD4F99838883C95037
:10342000D240C35FDD4FD882CD50D240C55FDD4F63
:10343000C882CB50D240BE016A5E7D4FCE018D5F07
:103440009D4F0E94F912F7018487CA5EDD4FC88044
:10345000D980C651D240AE014F5F5F4F65E972E03F
:10346000CE010A960E941E197C010097D1F1FC0141
:10347000848180788C608483B80193E07695679529
:103480009A95E1F7660F771F660F771F072E000CDE
:10349000880B990B0E94712A2FE632E143E85AE328
:1034A0000E94D02A4B015C01B601DD0C880B990B00
:1034B0000E94712A2AE037ED43E25CE30E94D02AA1
:1034C00020E030E04AE754E40E94A62C9B01AC01C6
:1034D000C501B4010E941A2CF701608371838283B5
:1034E00093830091D4071091D507F80182859385C5
:1034F000CB5DDD4F188219821A821B82C552D240E1
:10350000CA5EDD4F99838883C651D240C85EDD4FC5
:1035100019821882C851D240FF24F394C15EDD4F56
:10352000F882CF51D24085E090E0C45EDD4F9983B0
:103530008883CC51D240C05EDD4FF882C052D24069
:1035400082E0E82EC25EDD4FE882CE51D240468551
:10355000578560897189CE018A5E9D4F0E943A0627
:10356000F80182859385CE5EDD4F188219821A821A
:103570001B82C251D240CD5FDD4F99838883C350F7
:10358000D240CB5FDD4F19821882C550D240C45F54
:10359000DD4FF882CC50D24084E090E0C75FDD4F31
:1035A00099838883C950D240C35FDD4FF882CD50E4
:1035B000D240C55FDD4FE882CB50D240BE01675D8F
:1035C0007D4FCE018D5F9D4F0E94F912F8018487D7
:1035D000C75DDD4FE880F980C952D2408288938868
:1035E000A488B588AE014F5F5F4F6DE972E0CE01F0
:1035F0000A960E941E198C01009711F1FC0184812A
:1036000080788C608483B701FF0C880B990B0E9433
:10361000712A6B017C01C501B4010E946F2A9B01D4
:10362000AC01C701B6010E94A62C20E030E04AE7B9
:1036300054E40E94A62CF8016083718382839383F3
:10364000AE014F5F5F4F65EA72E0CE010A960E94BD
:103650001E19FC01892B81F0209102023091030296
:10366000948190789A609483C901330FAA0BBB0BA5
:1036700080839183A283B3830E94F60F6B017C0148
:10368000AE014F5F5F4F6FEA72E0CE010A960E9473
:103690001E19FC01892B41F0948190789C609483E1
:1036A000C082D182E282F3820E94E7146B017C0126
:1036B000AE014F5F5F4F69EB72E0CE010A960E9448
:1036C0001E19FC01892B41F0948190789C609483B1
:1036D000C082D182E282F38282EE96E0CD5FDD4F3E
:1036E00099838883C350D240CB5FDD4F1982188203
:1036F000C550D240BE016D5F7D4FCE010A960E943B
:10370000381087E492E00E94450DC65DDD4F0FB68C
:10371000F894DEBF0FBECDBFDF91CF911F910F9107
:10372000FF90EF90DF90CF90BF90AF909F908F90E1
:103730000895FC01248125FD0C94011690E080E0A1
:1037400008950F931F93CF93DF93CDB7DEB7C35682
:10375000D2400FB6F894DEBF0FBECDBFCE010F969C
:103760009A8389839C838B8383E092E08C0F9D1FD7
:103770009E838D8398878F8319861E868E010F5FA7
:103780001F4FC45ADD4F19830883CC55D24088E0BF
:10379000FE01E45AFD4FDE01AC5ABD4F01900D927F
:1037A0008A95E1F788E0FE01EC5AFD4FDE01AD5F3E
:1037B000BD4F01900D928A95E1F7C55FDD4F1882EC
:1037C000CB50D24082EE96E0C45FDD4F9983888370
:1037D000CC50D240C15FDD4F1882CF50D240C05F85
:1037E000DD4F19830883C051D240CE5ADD4F198274
:1037F0001882C255D2404AE0BE01665F7F4FCE01BB
:103800008D5F9D4F0E942216CE5ADD4F888199818F
:10381000C255D240892B51F4C25FDD4F8881CE5012
:10382000D240882379F08E8583FF0CC0CD59DD4FBF
:103830000FB6F894DEBF0FBECDBFDF91CF911F91C1
:103840000F91089563EC72E0CE010A960E94991BD5
:10385000009791F0FC0184818F7771F063EC72E046
:10386000CE010A960E94991B9093C1078093C007CE
:103870001093C3070093C20769EC72E0CE010A9669
:103880000E94991B61ED72E0CE010A960E94991B7D
:10389000009751F0FC0184818F7731F061ED72E087
:1038A000CE010A960E94991B62EE72E0CE010A9642
:1038B0000E94991B009709F4B9CFFC0184818F778E
:1038C00009F4B4CF62EE72E0CE010A960E94991B11
:1038D0009093BD078093BC071093BF070093BE076A
:1038E000A5CF1F920F920FB60F9211240BB60F9215
:1038F0002F933F934F935F936F937F938F939F93F8
:10390000AF93BF93EF93FF938091B900887F803688
:1039100009F44DC008F040C0883209F4A9C028F568
:10392000803109F49DC0C8F4882309F4FBC08830B5
:1039300009F496C0FF91EF91BF91AF919F918F9144
:103940007F916F915F914F913F912F910F900BBE9F
:103950000F900FBE0F901F901895883109F488C002
:10396000803241F78093AA0614C0803409F49DC0C8
:1039700040F48033B9F38833E9F68093AA0685ECE6
:10398000B0C0803509F485C0883509F496C0883404
:1039900089F60E94AF14CECF883909F48CC038F56F
:1039A000883729F050F4883611F0803719F683E013
:1039B0008093AC0610925F0657C0883809F47BC02C
:1039C000803919F0803809F0B5CF80915F068032D8
:1039D00008F071C0E0915F0681E08E0F80935F0672
:1039E0008091BB00F0E0E15CF94F80833DC0803BFB
:1039F00039F0E0F4803A09F479C0883A09F09ACFB6
:103A000084E08093AC0610923E0610923D06E09151
:103A10008006F0918106199580913D0681110FC0B5
:103A200081E080933D0610921D0609C0803C09F498
:103A3000A6CF883C09F4A3CF883B09F07BCFE09167
:103A40003E0681E08E0F80933E06F0E0E35EF94F84
:103A500080818093BB0090913E0680913D0629C0F5
:103A6000809187068093BB0085EC8093BC0062CF79
:103A70009091A9068091A806981758F5E091A9069B
:103A800081E08E0F8093A906F0E0E857F94F80811E
:103A9000E9CFE091A90681E08E0F8093A90680917D
:103AA000BB00F0E0E857F94F80839091A906809120
:103AB000A8069817C8F285E8D8CFE091A90681E05A
:103AC0008E0F8093A9068091BB00F0E0E857F94F74
:103AD00080838091AB0681115CCF81E08093860664
:103AE00084EA8093BC001092AC0624CF85EC8093CE
:103AF000BC001092AC0680915F06803230F4E091F9
:103B00005F06F0E0E15CF94F108260915F0670E0C3
:103B1000E0918206F09183068FE396E0199510926A
:103B20005F0608CF1092AA0634CF1F920F920FB6ED
:103B30000F9211242F933F938F939F93AF93BF9333
:103B40008091140690911506A0911606B091170663
:103B50003091130623E0230F2D3758F50196A11D50
:103B6000B11D209313068093140690931506A0931D
:103B70001606B09317068091180690911906A09129
:103B80001A06B0911B060196A11DB11D809318065F
:103B900090931906A0931A06B0931B06BF91AF919C
:103BA0009F918F913F912F910F900FBE0F901F907B
:103BB000189526E8230F0296A11DB11DD2CF1F92A2
:103BC0000F920FB60F9211240BB60F922F933F93C3
:103BD0004F935F936F937F938F939F93AF93BF9315
:103BE000EF93FF938091AB059091AC05A091AD054B
:103BF000B091AE05892B8A2B8B2BD1F19091AA0520
:103C0000809100008927809300008091AB059091FE
:103C1000AC05A091AD05B091AE05181619061A06AF
:103C20001B069CF48091AB059091AC05A091AD056D
:103C3000B091AE050197A109B1098093AB059093AE
:103C4000AC05A093AD05B093AE05FF91EF91BF9188
:103C5000AF919F918F917F916F915F914F913F9124
:103C60002F910F900BBE0F900FBE0F901F901895C5
:103C700080910002E6E4F2E0E4919FEF909300026D
:103C8000E230E9F040F4EE2389F0E13091F060E0B9
:103C90000E94B802DACFE43049F110F1E530B9F70B
:103CA000909173009D7F90937300F1CF10926E00FE
:103CB000EECF90916F009D7F90936F00E8CF909131
:103CC00070009D7F9093700091E09093B000909170
:103CD000B100987F94609093B1001092B300D7CF59
:103CE000909171009D7F90937100D1CF909172005F
:103CF0009D7F90937200CBCF1F920F920FB60F92C1
:103D000011240BB60F922F933F934F935F936F93B2
:103D10007F938F939F93AF93BF93EF93FF9382EE25
:103D200096E00E94C007FF91EF91BF91AF919F91E4
:103D30008F917F916F915F914F913F912F910F9054
:103D40000BBE0F900FBE0F901F9018951F920F92F1
:103D50000FB60F9211240BB60F922F938F939F9350
:103D6000EF93FF93E091F206F091F3068081E091EA
:103D7000F806F091F90682FD1DC090818091FB0646
:103D80008F5F8F732091FC06821741F0E091FB0654
:103D9000F0E0EE51F94F958F8093FB06FF91EF9184
:103DA0009F918F912F910F900BBE0F900FBE0F9090
:103DB0001F9018958081F2CF1F920F920FB60F922D
:103DC00011240BB60F922F933F934F935F936F93F2
:103DD0007F938F939F93AF93BF93CF93DF93EF9393
:103DE000FF938091A905C091BB07D0E087FF23C056
:103DF00010928500109284008091A9058F5F8093B6
:103E0000A9058091A905082E000C990B8C179D0718
:103E100024F48091A9058C3074F1809184009091F4
:103E2000850084349C4908F465C080918400909199
:103E30008500049661C08091A905082E000C990B9D
:103E40008C179D07CCF63091A90525E03203F001CF
:103E50001124E158F84F808186FFCECF3091A9051B
:103E60003203F0011124E158F84F808160E08F7334
:103E70000E94B802C1CF809184009091850030915A
:103E8000A90525E03203F0011124E158F84F4181E2
:103E90005281840F951F9093890080938800309100
:103EA000A9053203F0011124E158F84F808186FF03
:103EB0000CC03091A9053203F0011124E158F84FEC
:103EC000808161E08F730E94B802FF91EF91DF91D2
:103ED000CF91BF91AF919F918F917F916F915F91A2
:103EE0004F913F912F910F900BBE0F900FBE0F90EF
:103EF0001F90189580E49CE9909389008093880036
:103F00008FEF8093A905E1CFFC011082118212820C
:103F100013821482158216821782108611861286E9
:103F200013861586148617861686118A108A128AB9
:103F3000138A148A158A168A178A14A215A216A241
:103F400017A210A611A612A613A680E090E0A0EA80
:103F5000B0E484A795A7A6A7B7A780E090E0A8EC57
:103F6000B2E480AB91ABA2ABB3AB14AA15AA16AA6C
:103F700017AA10AE11AE12AE13AE0895EF92FF92D3
:103F80000F931F93CF93DF931092D9061092D80608
:103F900088EE93E0A0E0B0E08093DA069093DB0631
:103FA000A093DC06B093DD0626E132E03093D7061D
:103FB0002093D6061092E5061092E4068093E6065A
:103FC0009093E706A093E806B093E90688E292E0B2
:103FD0009093E3068093E20685EC90E09093EF06E1
:103FE0008093EE0684EC90E09093F1068093F006C7
:103FF00080EC90E09093F3068093F20681EC90E0E1
:104000009093F5068093F40682EC90E09093F70687
:104010008093F60686EC90E09093F9068093F8067C
:104020001092FB061092FC061092FD061092FE06FE
:104030008EE290E00E94552EEC018CE0888384E2B1
:10404000898315E01A8386E08B838EE18C838FE170
:104050008D8382E28E8383E28F8384E4888785E484
:1040600089871B861A8680E48D871A8A1B8A1C8A98
:104070001D8A1E8A1F8A188E198E88E0EAE0F2E0F7
:10408000DE01929601900D928A95E1F780E090E032
:10409000A0EAB0E48AA79BA7ACA7BDA7D093D50799
:1040A000C093D40781E090E00E94552E7C01E091FE
:1040B000BB07EC3008F088C081E08E0F8093BB070F
:1040C000D701EC931E9FF0011124E158F84F88EBC3
:1040D0009BE092838183F092D307E092D2078CE336
:1040E00090E00E94552E8C010E94841F1093D107EE
:1040F0000093D0078CE390E00E94552E8C010E9423
:10410000841F1093CF070093CE078CE390E00E94AA
:10411000552E8C010E94841F1093CD070093CC076D
:1041200086E090E00E94552EFC0188E590E09383A4
:10413000828315821482F182E082F093CB07E093B0
:10414000CA0783E090E00E94552EDC0112961C9273
:104150001297CD93DC939093C9078093C80783E0AF
:1041600090E00E94552E11E0FC011283D183C083A0
:104170009093C7078093C60788E090E00E94552E71
:10418000FC01128213821482158216821783D18356
:10419000C0839093C5078093C4071092C107109203
:1041A000C0071092C3071092C2071092BD07109269
:1041B000BC071092BF071092BE07DF91CF911F91ED
:1041C0000F91FF90EF9008958FEFF701808383CFD9
:1041D000CF93DF93CDB7DEB7A6970FB6F894DEBFC7
:1041E0000FBECDBF789484B5826084BD84B58160F4
:1041F00084BD85B5826085BD85B5816085BD8091B2
:104200006E00816080936E00109281008091810029
:104210008260809381008091810081608093810021
:10422000809180008160809380008091B1008460E3
:104230008093B1008091B00081608093B000809144
:1042400091008260809391008091910081608093C1
:104250009100809190008160809390008091A100F6
:1042600082608093A1008091A10081608093A10071
:104270008091A00081608093A000809121018260E4
:10428000809321018091210181608093210180919F
:10429000200181608093200180917A008460809366
:1042A0007A0080917A00826080937A0080917A000F
:1042B000816080937A0080917A00806880937A0090
:1042C0001092C100E091F206F091F30682E0808343
:1042D000E091EE06F091EF061082E091F006F09189
:1042E000F10680E180831092FA06E091F606F091E3
:1042F000F70686E08083E091F406F091F506808170
:1043000080618083E091F406F091F50680818860F9
:104310008083E091F406F091F506808180688083C7
:10432000E091F406F091F50680818F7D8083009105
:10433000D4071091D50761E0D80111968C910E94A5
:104340009E0360E0F80181810E94B80260E0D8011C
:104350008C910E949E03F80182859385892BB9F484
:1043600086E090E00E94552EFC01D8011D968C91AC
:104370001D97808386ED96E092838183138280E28D
:1043800090E0958384831B96FC93EE931A97F80133
:10439000C284D38410928506109284061092B306CC
:1043A0001092D5060E945F0389E092E09093810607
:1043B000809380068AE092E0909383068093820641
:1043C000FF24F394D6011396FC92C6010E94D206F4
:1043D000882309F44FC080E090E1A0E0B0E0F8014C
:1043E00086879787A08BB18B8AE090E0A0E0B0E051
:1043F000828B938BA48BB58B80E090E0A0E0B0E43F
:10440000868B978BA08FB18F828593851BA21CA270
:104410001DA21EA29D8B8C8B1F8A1E8AFD8E85E09D
:1044200090E09B8F8A8FFE8E42E0E42EEC8E4685D4
:10443000578560897189CE0144960E943A06D80159
:104440001A968D919C91188A198A1A8A1B8A9A83C6
:1044500089831C821B82FA8618861F82FB86E98666
:104460004FE959E360E070E0CE0101960E943A0600
:10447000F80184877801F2E0EF0EF11C580124E086
:10448000A20EB11C90EB492E92E0592E26EF622E1F
:1044900022E0722E3BECC32E37E0D32ED7011296CA
:1044A0009C91F70181917F01D8015A968C935A977C
:1044B0005B969C9361E00E949E0361E0F801838D0E
:1044C0000E949E034801FEE18F0E911CD7011596B4
:1044D0009C91159713968C91F801868F978F61E0C8
:1044E0000E949E0360E0D8015F968C910E949E031B
:1044F00061E0F801868D0E94B8023FB6F894809181
:10450000AF05811125C0F2018491F3019491E82F48
:10451000F0E0EE0FFF1FE95BFD4FA591B4918C9188
:10452000982321F461E085E30E94B80261E085E30D
:104530000E949E038CB580618CBD8CB580648CBD5F
:1045400061E084E30E949E0361E083E30E949E0396
:104550008091AF058F5F8093AF053FBEC601019785
:10456000F1F760E0D8015E968C910E94B80288E86D
:104570000E94170A83E00E94170A61E0F801868D05
:104580000E94B802C6010197F1F7C4010E941E0AF9
:104590000E5F1F4FA016B10609F080CFE091C6074D
:1045A000F091C7078281823008F43BC18CE592E02C
:1045B0000E94960DE091C807F091C9078281823070
:1045C00008F43AC18CE592E00E94960D0091D20762
:1045D0001091D307D8018C918C3008F049C061E06C
:1045E00088E00E949E03F801808125E0829FF0010F
:1045F0001124E158F84F9081907C9860908397EA5D
:1046000093839BE494832CE0622F0E94F12B829F82
:10461000B001112430E020E095E0AB01420F531FC0
:10462000949FF001959FF00D1124E158F84F4081BF
:1046300046FD13C02F5F3F4F2C30310571F78111BC
:104640000CC01092800082E080938100109285005F
:104650001092840086BB80936F00D801EC91B5E086
:10466000EB9FF0011124E158F84F80818064808332
:10467000E091CE07F091CF078DEC9CECACE4BEE36B
:1046800080839183A283B3838DEC9CECACE4BDE387
:1046900084839583A683B78310861186128613863A
:1046A00087EE94E1958784878FE19FE097878687DF
:1046B0008EE39FE0918B808B8CEC9CEBACE8BBE2B3
:1046C00084A795A7A6A7B7A74AE050E060E070E0EE
:1046D000448F558F668F778F8AE097EDA3E2BCE316
:1046E000808F918FA28FB38FE091D007F091D10787
:1046F0000AE017ED23EA3BE300831183228333832F
:1047000014821582168217821086118612861386ED
:1047100026EF3FE03587248728E43FE03787268768
:1047200022E63FE0318B208B00E010E020E231E414
:1047300004A715A726A737A7448F558F668F778FB5
:10474000808F918FA28FB38FE091CC07F091CD072E
:104750000FE812EC25E73CE30083118322833383C7
:10476000148215821682178210861186128613868D
:1047700029E535E1358724872DE93FE0378726870E
:1047800027EB3FE0318B208B00E010E020EE30E49F
:1047900004A715A726A737A7448F558F668F778F55
:1047A000808F918FA28FB38F8091CA079091CB0792
:1047B0000E94090A11E0412C512C70E2672E72E42C
:1047C000772EECE02E2E312C0E943D076B017C01F0
:1047D000C0920F06D0921006E0921106F0921206D7
:1047E00080910202909103028D30910509F4A5C3D6
:1047F0000CF039C18630910509F43AC50CF048C077
:104800008330910509F4EFC414F58130910509F462
:104810008EC4029709F4A6C484E795E00E940C10A8
:1048200001C390E00F96880F991F20813181820F7C
:10483000931F0E941E0ABECE90E00F96880F991F0C
:1048400020813181820F931F0E941E0ABFCE8430C7
:10485000910509F4FCC40597F9F6E091D007F091B1
:10486000D10780E090E0AAEFB3E4828B938BA48B16
:10487000B58BE091CE07F091CF07428A538A648AC4
:10488000758A8091CA079091CB070E94100ACAC20C
:104890008A30910509F4EAC12CF58730910509F4B5
:1048A000FEC4089709F0B8CF81E993E00E940C108C
:1048B0000E9459156B017C01AC019B010E943B2EAB
:1048C000882309F444C582EB93E00E94450D88E4F7
:1048D00092E00E940C1068EE73E080E090E00E948D
:1048E0000B07A0C28B30910509F456C20C9709F052
:1048F00093CF80910102882309F441C010920102F4
:10490000C092EF05D092F005E092F105F092F20529
:104910008090CE079090CF07F401428A538A648A30
:10492000758AA090CC07B090CD07D50152961D9204
:104930001D921D921C9255978091D0079091D1079E
:1049400020E030E048EC53E4DC0152962D933D9397
:104950004D935C9355970E9467091093BE05C4015F
:104960000E946709C5010E9467091093BD05C092A6
:10497000B405D092B505E092B605F092B7050E9455
:1049800059159F7720E030E040EE50E40E94E82D7A
:10499000181674F58091BD0581112AC08091CC074D
:1049A0009091CD070E9467091093BD05E091020226
:1049B000F0910302EE0FFF1FEE0FFF1FE154FA4FBD
:1049C00080910F0690911006A0911106B0911206E9
:1049D0004081518162817381841B950BA60BB70BBB
:1049E0008093B4059093B505A093B605B093B70531
:1049F0000E94F60F9F7720E030E04DEC53E40E94D8
:104A0000E82D18160CF050C28091BE05811157C2D6
:104A1000C0900F06D0901006E0901106F09012069C
:104A2000E0910202F0910302EE0FFF1FEE0FFF1F55
:104A3000E154FA4F80809180A280B3808091D007AA
:104A40009091D1070E9467091093BE05C818D90834
:104A5000EA08FB08C092B405D092B505E092B6050D
:104A6000F092B7052CC28636910509F402C50CF008
:104A7000CDC08431910509F41FC30CF0BCC08E3049
:104A8000910509F48BC20F9709F0C6CE80910102FF
:104A90008823E9F110920102C092FB05D092FC0537
:104AA000E092FD05F092FE058090CE079090CF0732
:104AB000D40152964D925D926D927C925597A09042
:104AC000CC07B090CD07F501128A138A148A158A93
:104AD0008091D0079091D107DC0152961D921D92D2
:104AE0001D921C9255970E9467091093BE05C40140
:104AF0000E946709C5010E9467091093BD05C09215
:104B0000B405D092B505E092B605F092B7050E94C3
:104B100059159F7720E030E040EE50E40E94E82DE8
:104B2000181674F58091BD0581112AC08091CC07BB
:104B30009091CD070E9467091093BD05E091020294
:104B4000F0910302EE0FFF1FEE0FFF1FE154FA4F2B
:104B500080910F0690911006A0911106B091120657
:104B60004081518162817381841B950BA60BB70B29
:104B70008093B4059093B505A093B605B093B7059F
:104B80000E94F60F9F7720E030E040E251E40E945F
:104B9000E82D18160CF044C28091BE0581114BC25D
:104BA000C0900F06D0901006E0901106F09012060B
:104BB000E0910202F0910302EE0FFF1FEE0FFF1FC4
:104BC000E154FA4F80809180A280B3808091D00719
:104BD0009091D1070E9467091093BE05C818D908A3
:104BE000EA08FB08C092B405D092B505E092B6057C
:104BF000F092B70520C28531910509F413C18536BD
:104C0000910509F009CE8EEB93E093C289369105A8
:104C100009F435C45CF48736910509F42DC488364F
:104C2000910509F0F9CD8AE594E013C38B3691051F
:104C300009F443C40CF434C48C36910509F0ECCD6E
:104C400083E295E00E940C10E091CC07F091CD0733
:104C5000128A138A148A158A8789882309F4E2C084
:104C6000168AE091D007F091D1072FC480910102FC
:104C70008823C9F110920102C092E705D092E8059D
:104C8000E092E905F092EA058090CE079090CF0778
:104C9000F401428A538A648A758AA090CC07B09046
:104CA000CD07D50152961D921D921D921C925597CB
:104CB0008091D0079091D107FC01128A138A148A3F
:104CC000158A0E9467091093BE05C4010E946709F6
:104CD000C5010E9467091093BD058091CA07909194
:104CE000CB070E94090A8091E7059091E805A09101
:104CF000E905B091EA05C81AD90AEA0AFB0AF9EEF1
:104D0000CF16F3E0DF06E104F104E8F08091BC0582
:104D1000811113C01093BC050E9459159B01AC0171
:104D200060E070E0CB010E94192C6093B80570938D
:104D3000B9058093BA059093BB058091CA079091FD
:104D4000CB070E94100A8091020290910302FC019D
:104D5000EE0FFF1FEE0FFF1FE154FA4F40910F06B9
:104D6000509110066091110670911206C080D1809A
:104D7000E280F3804C195D096E097F094D3D554075
:104D80006105710508F44EC01093010201969093DD
:104D900003028093020246C0A090D007B090D107D2
:104DA00080910102882399F18090CE079090CF07DF
:104DB00010920102C092EB05D092EC05E092ED0555
:104DC000F092EE05D40152964D925D926D927C92D6
:104DD0005597E090CC07F090CD07F701128A138A1F
:104DE000148A158A20E030E048EC53E4D50152964D
:104DF0002D933D934D935C935597C5010E94670990
:104E00001093BE05C4010E946709F701168AD501F7
:104E100057968C91882331F010930102309203024F
:104E2000209202028091CE079091CF070E948008C5
:104E30008091D0079091D1070E9480088091CC0783
:104E40009091CD070E9480088091B0059091B105A6
:104E5000A091B205B091B3058C599F4FAF4FBF4F92
:104E600040910F0650911006609111067091120644
:104E700084179507A607B707A0F40E9453190E944C
:104E8000A11B80910F0690911006A0911106B09180
:104E900012068093B0059093B105A093B205B0932C
:104EA000B3050E944F0890CC0E94F60F9F7720E038
:104EB00030E043EC53E40E946A2A87FDA5CD80913F
:104EC000020290910302FC01EE0FFF1FEE0FFF1F85
:104ED000E154FA4FC0900F06D0901006E0901106F2
:104EE000F09012064081518162817381C41AD50A03
:104EF000E60AF70A4091B4055091B5056091B605F0
:104F00007091B70548515C4F6F4F7F4F4C155D0551
:104F10006E057F0508F086CFE091D007F091D107AC
:104F20002789222309F47ECFE091CC07F091CD07A9
:104F30002789222309F476CF27CF80910102882385
:104F400051F010920102C092F305D092F405E09264
:104F5000F505F092F6058091CA079091CB070E9463
:104F6000090A8091F3059091F405A091F505B0919F
:104F7000F605C81AD90AEA0AFB0AB1E9CB16B1E06C
:104F8000DB06E104F10408F44DCF10930102EEE0DA
:104F9000F0E0F0930302E093020244CFA090D00728
:104FA000B090D10780910102882379F18090CE07DB
:104FB0009090CF0710920102C092F705D092F805A9
:104FC000E092F905F092FA05D40152964D925D9265
:104FD0006D927C925597E090CC07F090CD07F70149
:104FE000128A138A148A158AD50152961D921D922F
:104FF0001D921C925597C5010E9467091093BE052A
:10500000C4010E946709F701168AD50157968C9151
:10501000882309F407CF10930102EFE0F0E0B9CF45
:105020000E94F60F9F7720E030E040E251EC0E94B2
:105030006A2A87FDB1CDE0910202F0910302EE0FE2
:10504000FF1FEE0FFF1FE154FA4F40910F065091E2
:105050001006609111067091120680819181A281E3
:10506000B381481B590B6A0B7B0B8091B40590915F
:10507000B505A091B605B091B70588519C4FAF4FCB
:10508000BF4F84179507A607B70708F0CBCEE0916E
:10509000D007F091D1078789882309F4C3CEE09126
:1050A000CC07F091CD078789882309F4BBCE1093F4
:1050B0000102EAE0F0E06DCF0E9459159F7720E0F1
:1050C00030E040EE50E40E94E82D181664F4809120
:1050D000BD05811108C08091CC079091CD070E9439
:1050E00067091093BD050E94F60F9F7720E030E01E
:1050F00040E251E40E94E82D18166CF48091BE0540
:10510000811190CE8091D0079091D1070E946709BC
:105110001093BE0587CE0E94F60F9F7720E030E007
:1051200040E251EC0E946A2A87FDE8CF7BCE8DEEEB
:1051300092E00E940C1086E093E00E940C10E09038
:10514000CA07F090CB07C7010E94100A68EE73E00F
:1051500080E090E00E940B07C7010E94090A8DE0E1
:1051600093E0B7CB83E193E00E940C1040E050E065
:10517000BA018091C8079091C9070E94A40D64EFFD
:1051800071E080E090E00E940B074DEC5CEC6CEC71
:105190007EE38091C8079091C9070E94A40D60ED3D
:1051A00077E080E090E00E940B074DEC5CEC6CEC4B
:1051B0007EEB8091C8079091C9070E94A40D60ED15
:1051C00077E080E090E00E940B0740E050E0BA01F9
:1051D0008091C8079091C9070E94A40D64EF71E007
:1051E00080E090E07CCB81E393E00E940C10809102
:1051F000CA079091CB070E94100A40E050E060E897
:105200007FEB8091C6079091C7070E94A40D68EEBE
:1052100073E080E090E00E940B074DEC5CEC6CECDE
:105220007DE38091C6079091C7070E94A40D68EEA8
:1052300073E080E090E00E940B0740E050E0BA018C
:105240008091C6079091C7070E94A40DEBCD8DE415
:1052500093E00E940C10E091D007F091D10720E07C
:1052600030E048EC52E4228B338B448B558BDACD03
:10527000E091D007F091D107128A138A148A158A17
:10528000E091CE07F091CF07428A538A648A758AEB
:105290008091CA079091CB070E94090AC3CD80E78D
:1052A00093E00E940C10E091CE07F091CF07428A64
:1052B000538A648A758AE090CC07F090CD07D701B5
:1052C00052961D921D921D921C925597E091D00707
:1052D000F091D107128A138A148A158A0E94F30169
:1052E000BC01990F880B990B0E94712A20E030ECC9
:1052F0004FE754E40E94A62C20E030E844E853E451
:105300000E94D02A20E030E844E053E40E94192CA7
:105310009F7720E030E040EA50E40E94E82D181624
:105320004CF48091BD05811105C0C7010E94670939
:105330001093BD050E94F60F9F7720E030E040E219
:1053400051E40E94E82D18160CF06CCDD7CE460122
:105350005701E894B7F82FEF3FEF4FE75FE7C5013C
:10536000B4010E943B2E81110DC02FEF3FEF4FE79C
:105370005FE7C501B4010E946A2A18161CF486EB87
:1053800093E0A3CA2FEF3FEF4FE75FE4C701B601F9
:105390000E94E82D18161CF48AEB93E096CA2FEFB2
:1053A0003FEF4FE75FECC701B6010E946A2A87FD15
:1053B000F3CF20E030E0A901C701B6010E946A2ABC
:1053C00087FF09C06DE282EE96E00E94E207F7FADD
:1053D000F094F7F8F0942AE037ED43EA5BE3C70175
:1053E000B6010E941A2C4B015C010E941F2D6B011B
:1053F0007C010E946F2A9B01AC01C501B4010E948F
:10540000192C4B015C014AE0C701B6010E94520D04
:105410006EE282EE96E00E94E20720E030E040E299
:1054200051E4C501B4010E94D02A4B015C010E94E5
:105430001F2D6B01F12CE12C4AE0C701B6010E943F
:10544000520DC701B6010E946F2A9B01AC01C50134
:10545000B4010E94192C20E030E040E251E40E94A7
:10546000D02A0E941F2D90E080E04AE00E94520D59
:105470002ECA8CEE93E078CE8AE194E0B6CE8CE82A
:1054800094E00E940C10E091CE07F091CF0780E0ED
:1054900090E0ACE5B2E4828B938BA48BB58BC2CC4D
:1054A0008EEB94E00E940C10E091D007F091D107B0
:1054B00020E030E046E953E4D6CE83EF94E00E944A
:1054C0000C10E091CC07F091CD07128A138A148A50
:1054D000158AA8CC0E94AC2A08F481E00895E894CB
:1054E00009C097FB3EF490958095709561957F4F2C
:1054F0008F4F9F4F9923A9F0F92F96E9BB279395DA
:10550000F695879577956795B795F111F8CFFAF4E9
:10551000BB0F11F460FF1BC06F5F7F4F8F4F9F4F1A
:1055200016C0882311F096E911C0772321F09EE878
:10553000872F762F05C0662371F096E8862F70E0DE
:1055400060E02AF09A95660F771F881FDAF7880FB8
:105550009695879597F90895990F0008550FAA0B0E
:10556000E0E8FEEF16161706E807F907C0F0121676
:105570001306E407F50798F0621B730B840B950B79
:1055800039F40A2661F0232B242B252B21F40895CE
:105590000A2609F4A140A6958FEF811D811D08956B
:1055A0000E94E32A0C94542B0E94462B38F00E9450
:1055B0004D2B20F0952311F00C943D2B0C94432B94
:1055C00011240C94882B0E94652B70F3959FC1F3D6
:1055D000950F50E0551F629FF001729FBB27F00DA1
:1055E000B11D639FAA27F00DB11DAA1F649F6627F6
:1055F000B00DA11D661F829F2227B00DA11D621F45
:10560000739FB00DA11D621F839FA00D611D221FFE
:10561000749F3327A00D611D231F849F600D211DE2
:10562000822F762F6A2F11249F5750409AF0F1F065
:1056300088234AF0EE0FFF1FBB1F661F771F881FCE
:1056400091505040A9F79E3F510580F00C943D2B9E
:105650000C94882B5F3FE4F3983ED4F386957795BE
:105660006795B795F795E7959F5FC1F7FE2B880F74
:10567000911D9695879597F9089597F99F6780E80A
:1056800070E060E008959FEF80EC089500240A9494
:105690001616170618060906089500240A9412160D
:1056A0001306140605060895092E0394000C11F440
:1056B000882352F0BB0F40F4BF2B11F460FF04C0ED
:1056C0006F5F7F4F8F4F9F4F089557FD9058440F46
:1056D000551F59F05F3F71F04795880F97FB991F51
:1056E00061F09F3F79F0879508951216130614060E
:1056F000551FF2CF4695F1DF08C01616170618069B
:10570000991FF1CF86957105610508940895E89475
:10571000BB2766277727CB0197F90895052E97FBBE
:105720001EF400940E94A52B57FD07D00E94C02BA9
:1057300007FC03D04EF40C94A52B50954095309562
:1057400021953F4F4F4F5F4F0895909580957095ED
:1057500061957F4F8F4F9F4F08950E94E22BA59F29
:10576000900DB49F900DA49F800D911D112408955C
:10577000B7FF0C94AD2B0E94AD2B821B930B0895A9
:10578000A1E21A2EAA1BBB1BFD010DC0AA1FBB1F45
:10579000EE1FFF1FA217B307E407F50720F0A21BB7
:1057A000B30BE40BF50B661F771F881F991F1A9424
:1057B00069F760957095809590959B01AC01BD014E
:1057C000CF010895A29FB001B39FC001A39F700DA8
:1057D000811D1124911DB29F700D811D1124911DF9
:1057E0000895991B79E004C0991F961708F0961B3D
:1057F000881F7A95C9F780950895AA1BBB1B51E1B4
:1058000007C0AA1FBB1FA617B70710F0A61BB70B30
:10581000881F991F5A95A9F780959095BC01CD01D5
:105820000895EE0FFF1F881F8BBF0790F691E02DA4
:1058300019945058BB27AA270E94312C0C94542B42
:105840000E94462B38F00E944D2B20F039F49F3FE8
:1058500019F426F40C94432B0EF4E095E7FB0C941A
:105860003D2BE92F0E94652B58F3BA176207730787
:105870008407950720F079F4A6F50C94872B0EF495
:10588000E0950B2EBA2FA02D0B01B90190010C0150
:10589000CA01A0011124FF27591B99F0593F50F468
:1058A000503E68F11A16F040A22F232F342F4427C0
:1058B000585FF3CF469537952795A795F0405395B8
:1058C000C9F77EF41F16BA0B620B730B840BBAF088
:1058D0009150A1F0FF0FBB1F661F771F881FC2F7F3
:1058E0000EC0BA0F621F731F841F48F48795779507
:1058F0006795B795F7959E3F08F0B0CF9395880FC1
:1059000008F09927EE0F9795879508959F939F77B5
:10591000EEE389379E0728F4E4EEF0E00E94952D2F
:105920000CC00E944E2D9058A2EA2AED3FE049ECAF
:105930005FE30E94312C0E94542B0F9007FC90587B
:1059400008950E94AB2DE3950C94D42D0E94BA2C9F
:105950000C94542B0E944D2B58F00E94462B40F083
:1059600029F45F3F29F00C943D2B51110C94882BA6
:105970000C94432B0E94652B68F39923B1F35523B4
:1059800091F3951B550BBB27AA2762177307840752
:1059900038F09F5F5F4F220F331F441FAA1FA9F3E8
:1059A00035D00E2E3AF0E0E832D091505040E695D6
:1059B000001CCAF72BD0FE2F29D0660F771F881F37
:1059C000BB1F261737074807AB07B0E809F0BB0B2A
:1059D000802DBF01FF2793585F4F3AF09E3F51053E
:1059E00078F00C943D2B0C94882B5F3FE4F3983EA9
:1059F000D4F3869577956795B795F7959F5FC9F727
:105A0000880F911D9695879597F90895E1E0660FA7
:105A1000771F881FBB1F621773078407BA0720F020
:105A2000621B730B840BBA0BEE1F88F7E095089589
:105A30000E941F2D6894B1110C94882B08950E9428
:105A40006D2B88F09F5798F0B92F9927B751B0F078
:105A5000E1F0660F771F881F991F1AF0BA95C9F7F2
:105A600014C0B13091F00E94872BB1E008950C94DE
:105A7000872B672F782F8827B85F39F0B93FCCF391
:105A8000869577956795B395D9F73EF4909580956F
:105A9000709561957F4F8F4F9F4F0895DF93CF9300
:105AA0001F930F938B01EC01E8EFF0E00E946E2D45
:105AB0000E94542B9801AE018B01EC0160E070E074
:105AC00080E89FE30E94192C0E94FB2D9801AE01F3
:105AD0000F911F91CF91DF910C94E32ADF93CF9325
