:100000000C94C0010C94F1010C94F1010C94F101D9
:100010000C94F1010C94F1010C94F1010C94F10198
:100020000C94F1010C94F1010C94F1010C94F10188
:100030000C94F1010C94AB1D0C94F1010C94F101A2
:100040000C94F1010C94A81E0C94F1010C94F10194
:100050000C94F1010C94F1010C94F1010C94611DCC
:100060000C94F1010C94721E0C94481E0C94F10136
:100070000C94F1010C94F1010C94F1010C94F10138
:100080000C94F1010C94F1010C94F1010C94F10128
:100090000C94F1010C94F1010C94F1010C943D1CB1
:1000A0000C94F1010C94F1010C94F1010C94F10108
:1000B0000C94F1010C94F1010C94F1010C94F101F8
:1000C0000C94F1010C94F1010C94F1010C94F101E8
:1000D0000C94F1010C94F1010C94F1010C94F101D8
:1000E0000C94F101036EDB363D9A9999993DABAAC8
:1000F000AA2A3E000000803F072C7AA5BA6CC59062
:10010000DA3B9365FC8BBC53F810FD3C5692834D53
:10011000BD879D3AB63DCBC9BF5BBE73DA0FC93F01
:1001200005A84CCDB2D44EB93836A9020C50B991BD
:100130008688083CA6AAAA2ABE000000803F0C942C
:1001400033070C9460070C94BE0E0C94ED020C94D3
:10015000400E0C9402030C9416030C941D020C9494
:10016000F1020C94F4010C946E0E0C94910E0C940C
:1001700008030C9446020C94AF0E0C94640E0C947D
:1001800028030C941A030C94DD0E0C94010F0C94AC
:100190001C020C94F8020C9419080C949B0E0C94FD
:1001A000D2020C94A80F0C94F5020C94D7020C9474
:1001B0003F020C94140E0C942C0E0C941E030C9401
:1001C00094070C94F3010C94780E0C94E9020C94AF
:1001D00010030C9486070C9465180C94E70E0C948D
:1001E0008A1F0C9472070C94270E0C943C0F0C94ED
:1001F0000C030C94F3170C9473020C942C020C94C3
:1002000024030C945A0E0C94870E0C94CC070C9477
:10021000560F0C94FE020C9463070C94360E0C944B
:10022000A50E0C94B90E0C944A0E0C94520E0000BC
:10023000803FCDCCCC3D6F12833A95BFD6337D1D28
:100240009026B3CE010C0200002100240027002AD2
:10025000002D003000330001010000040107010AF5
:100260000100002200250028002B002E0031003460
:100270000002010000050108010B01050505050745
:100280000508080808020202020A0A080804040411
:10029000040101010101010101030303030303033D
:1002A00003040707070C0C0C0C0C0C0C0C020202CC
:1002B0000206060606060606060B0B0B0B0B0B0BBF
:1002C0000B0102102020080810204010204080025E
:1002D000010201080402010102040810204080808C
:1002E0004020100804020180040201804020100810
:1002F00004020108040201010204081020408001E8
:100300000204081020408000000A0B02090C0D0EA8
:1003100008070304010000000000000000000000C6
:1003200000000000000000000000000000000000CD
:10033000000000121110000000000000000000008A
:10034000000000000000000000000000000000208D
:10035000410000C84200401C4620BCBE4CCA1B0ED7
:100360005AAEC59D74CDCCCC3D0AD7233C17B7D12E
:100370003877CC2B329595E6241FB14F0A008A1F9F
:1003800011241FBECFEFD1E2DEBFCDBF00E00CBF16
:1003900014E0A0E0B2E0E8EAF0E600E00BBF02C043
:1003A00007900D92A43DB107D9F727E0A4EDB4E082
:1003B00001C01D92AC32B207E1F711E0C0ECD1E010
:1003C00000E006C021970109802FFE010E94DE2C6B
:1003D000CF3BD10780E00807A9F70E94BA200C9410
:1003E00052300C9400000895089520919305260F33
:1003F0003327331F21323105ECF420910206FC0132
:1004000090E080E0243069F082E00895A0919305A7
:100410002191AC014D585A4FA40FB52FB11D2C930B
:100420000196861798F380919305680F6093930562
:1004300080E0089581E008950895E091DB058091C2
:10044000DA05E81730F4F0E0EA54FA4F808190E0E2
:1004500008958FEF9FEF08959091DB058091DA0565
:100460002FEF3FEF981748F4E92FF0E0EA54FA4FE6
:10047000208130E09F5F9093DB05C9010895809152
:10048000DA059091DB05891B990B0895CF92DF92D5
:10049000EF92FF920F931F93CF93DF937C01CB01D9
:1004A0008A0120910806222389F0EB016B01C40E1A
:1004B000D51ECC15DD0569F06991D701ED91FC9150
:1004C0000190F081E02DC7011995F3CF642F0E94B0
:1004D000F501C801DF91CF911F910F91FF90EF902F
:1004E000DF90CF900895CF93DF931F92CDB7DEB703
:1004F0006983209108062223F9F020912B062032EF
:1005000058F021E030E0FC013383228390E080E06A
:100510000F90DF91CF91089580910906E82FF0E0C8
:10052000E65FF94F998190838F5F809309068093EE
:100530002B0681E090E0ECCF61E0CE0101960E94B5
:10054000F501F7CF282F30E0F901E95FFC4F9491D6
:10055000F901EF53FD4F449125583D4FF901249186
:10056000222309F435C0992311F191509231F8F406
:10057000E92FF0E08827E054FD4F8F4F0C94DE2CDC
:10058000F102F502D202E902ED02D702F802FE0200
:10059000020308030C03100316031A03D7021E03F9
:1005A00024032803809180008F7780938000E22FBE
:1005B000F0E0EE0FFF1FEF59FD4FA591B4918FB7FB
:1005C000F894EC91611148C040954E234C938FBF35
:1005D0000895809180008F7DE8CF80918000877F93
:1005E000E4CF84B58F7784BDE2CF84B58F7DFBCF18
:1005F0008091B0008F778093B000D9CF8091B00008
:100600008F7DF9CF809190008F7780939000CFCF2E
:10061000809190008F7DF9CF80919000877FF5CFFA
:100620008091A0008F778093A000C1CF8091A0001F
:100630008F7DF9CF8091A000877FF5CF8091200139
:100640008F7780932001B3CF809120018F7DF9CFE8
:1006500080912001877FF5CF4E2BB8CFFC018081A0
:100660009181892B39F0A281B3819C9111968C9153
:100670009CBD8DBD83858F3F19F060E00C94A20274
:100680000895FC0183858F3F19F061E00C94A2026C
:1006900008951092020681E0809301061092DC0515
:1006A00061E084E10E94A20261E085E10E94A20271
:1006B000E9EBF0E080818E7F808380818D7F808375
:1006C00088E48093B80085E48093BC000895CF93BC
:1006D000DF9391E0909372058823B9F0C091B80040
:1006E000D091BA008091BC008A7B8093BC0060E00E
:1006F00084E10E94A20260E085E10E94A2020E94C1
:100700004903D093BA00C093B800DF91CF91089508
:10071000CF93DF9390E0FC01EF53FD4F2491855878
:100720009D4FFC0184918823D1F090E0880F991FA0
:10073000FC01E95BFD4FA591B491FC01EF59FD4F20
:10074000C591D49161110EC09FB7F8948C91E22F9E
:10075000E0958E238C932881E223E8839FBFDF916D
:10076000CF9108958FB7F894EC91E22BEC938FBF63
:10077000F6CF8230910538F0880F991F880F991FA6
:1007800005970197F1F70895AF92BF92CF92DF924C
:10079000EF92FF920F931F93CF93DF93EC01888129
:1007A0009981892B89F06EBD0DB407FEFDCFBEB4D3
:1007B0008B2DDF91CF911F910F91FF90EF90DF90E4
:1007C000CF90BF90AF9008958885998511E0892BCF
:1007D00009F010E8AA24A394862F812309F0A12C04
:1007E000062F2C813D814E815F8160E271EA87E0B6
:1007F00090E00E948D2CF22EB02EE12CC22ED12C36
:10080000FF2019F0C6010E94B9038A85877F09F08D
:1008100042C08D858F3F89F0902F912381E009F4AC
:1008200080E08A1551F0EF85F8898F89992369F165
:100830009081892B8083AA24A394E989FA898081F5
:10084000998D892B8083FF2019F0C6010E94B9037E
:100850008E858F3F39F0EB89FC898081988D8923C3
:1008600009F0E12AE989FA899081898D80958923A7
:1008700080838E858F3F09F0BE2C88859985892BD2
:10088000B9F5110F1111BCCF93CF908180958923B9
:100890008083A12CD2CFE989FA898081998D892B17
:1008A0008083FF2019F0C6010E94B9038D858F3F18
:1008B00049F0EF85F8898F89902F9123A9F09081D5
:1008C000892B8083E989FA899081898D8095892394
:1008D00080838E858F3F69F2EB89FC898081988DBA
:1008E000892339F2E12AC5CF908180958923E9CF08
:1008F0001695C8CF8F929F92AF92BF92CF92DF9200
:10090000EF92FF920F931F93CF93DF937C014B01E4
:100910006A01B22EA32E0E942E03E401C80CD91C3A
:10092000CC15DD0569F4CB2DDA2D0C0F1D1FC0177A
:10093000D10759F06FEFC7010E94C4038993F7CF25
:100940006991C7010E94C403EBCFC7010E94410314
:1009500081E0DF91CF911F910F91FF90EF90DF9099
:10096000CF90BF90AF909F908F9008958F929F925D
:10097000AF92BF92CF92DF92EF92FF920F931F93AD
:10098000CF93DF937C01B62EA72E6A0149010E9406
:100990002E03E401080D191DC017D10761F4CB2DFA
:1009A000DA2DCC0EDD1ECC15DD0551F06991C701A5
:1009B0000E94C403F8CF6991C7010E94C403ECCF21
:1009C000C7010E94410381E0DF91CF911F910F91F8
:1009D000FF90EF90DF90CF90BF90AF909F908F905F
:1009E00008953FB7F89480916E0590916F05A0919E
:1009F0007005B091710526B5A89B05C02F3F19F071
:100A00000196A11DB11D3FBFBA2FA92F982F88278E
:100A1000BC01CD01620F711D811D911D42E0660F69
:100A2000771F881F991F4A95D1F708958F929F923B
:100A3000AF92BF92CF92DF92EF92FF920F931F93EC
:100A4000CF93DF93D0912B06D13208F0D7C0182F67
:100A5000C0912A060E94F1046B017C01809102067C
:100A600081116BC082E080930206109301068FEF24
:100A7000809300061092FF05D093FE05AAE0B6E031
:100A8000EEEDF5E080E0D81391C01092DD05809185
:100A9000DD05CC0FC82BC093DD058091DC058130CE
:100AA00009F088C01092DC050E94F1046B017C0102
:100AB0008091DD058093BB0080910406909105062E
:100AC000A0910606B0910706892B8A2B8B2BA1F0EB
:100AD0000E94F1040091040610910506209106067B
:100AE000309107066C197D098E099F0906171707B3
:100AF0002807390708F442C08091BC0083FDD8CF95
:100B000085EC8093BC000E94F1046B017C01809114
:100B10000206823009F450C0809100068F3F09F42C
:100B20006FC080910006803209F46CC0809100068D
:100B3000803309F469C084E026C080910406909156
:100B40000506A0910606B0910706892B8A2B8B2BF0
:100B500009F484CF0E94F104809004069090050669
:100B6000A0900606B09007066C197D098E099F09B2
:100B700086169706A806B90608F070CF809103067E
:100B80000E94670385E01092090610922B061092CE
:100B90000806DF91CF911F910F91FF90EF90DF90AA
:100BA000CF90BF90AF909F908F9008959D9191931B
:100BB0008F5F69CF85EEA5CF8091040690910506E1
:100BC000A0910606B0910706892B8A2B8B2B09F47E
:100BD0009ECF0E94F1040091040610910506209119
:100BE0000606309107066C197D098E099F090617C4
:100BF00017072807390708F08ACFC0CF81E0C3CF95
:100C000080E0C1CF82E0BFCF83E0BDCF1F93CF9301
:100C1000DF93EA01122FDC0111968D919C91DC018A
:100C2000ED91FC910280F381E02D1995C817D90749
:100C300029F4812F0E94160591E0811190E0892FFF
:100C4000DF91CF911F910895CF92DF92EF92FF92A3
:100C50000F931F93CF93DF931F921F92CDB7DEB7F1
:100C6000FC014787508B618B728B8285882371F1E1
:100C70004487452F562F672F7727882349F14387CD
:100C80007F018BE0E80EF11C9681878199838A832E
:100C9000C080D180C114D10409F443C0018510E0A3
:100CA00098012E5F3F4FD60114968D919C9182172B
:100CB000930780F480E00F900F90DF91CF911F9108
:100CC0000F91FF90EF90DF90CF9008954387D1CFA1
:100CD0004487D6CFF60181819281208131E0309323
:100CE000080620932A061092090610922B06011579
:100CF000110541F421E042E050E0B701C6010E9435
:100D00000606D9CFDC01ED91FC910280F381E02D44
:100D1000A801BE016F5F7F4F19950817190751F69B
:100D2000E9CFA281B381109729F224813581018511
:100D300010E02330310579F48E7F89839A830F5F29
:100D40001F4F9E012F5F3F4F42E050E0B701CD01A2
:100D50000E94B604B0CF2115310519F49F7799830D
:100D6000F0CF2230310511F49068F9CF21303105F0
:100D700041F79F779064F3CFCF93DF93EC018B81A2
:100D80008823A1F0888191E09093080680932A0639
:100D90001092090610922B0681E00E94160591E040
:100DA000811190E0892FDF91CF9108951092DB059A
:100DB0001092DA051092090610922B060E94490340
:100DC00083EF91E09093D7058093D60584EF91E06F
:100DD0009093D9058093D80581E08B83CE010E9442
:100DE000BC06982F8111CECFDDCF8F929F92AF920C
:100DF000BF92CF92DF92EF92FF924B015C010E9473
:100E0000F1046B017C010E94F1046C197D098E09CB
:100E10009F09683E734081059105A8F321E0821A7D
:100E20009108A108B10888EEC80E83E0D81EE11C25
:100E3000F11C81149104A104B10429F7FF90EF90F3
:100E4000DF90CF90BF90AF909F908F9008952FB775
:100E5000F89460916A0570916B0580916C05909192
:100E60006D052FBF0895AF92BF92CF92DF92EF92A0
:100E7000FF920F931F93CF93DF936C017B018B0144
:100E8000040F151FEB015E01AE18BF08C017D10794
:100E900059F06991D601ED91FC910190F081E02D1E
:100EA000C6011995892B79F7C501DF91CF911F9163
:100EB0000F91FF90EF90DF90CF90BF90AF9008958B
:100EC00090E080E00895FC01538D448D252F30E0A3
:100ED000842F90E0821B930B541710F0CF96089547
:100EE00001970895FC01918D828D981761F0A28D74
:100EF000AE0FBF2FB11D5D968C91928D9F5F9F733A
:100F0000928F90E008958FEF9FEF0895FC01918DEF
:100F1000828D981731F0828DE80FF11D858D90E05C
:100F200008958FEF9FEF0895FC01918D228D892FF9
:100F300090E0805C9F4F821B91098F7399270895E1
:100F400088E396E00E94940721E0892B09F420E0D1
:100F5000822F0895FC01A48DA80FB92FB11DA35AAB
:100F6000BF4F2C91848D90E001968F739927848FC9
:100F7000A689B7892C93A089B1898C9183708064EC
:100F80008C93938D848D981306C00288F389E02D8D
:100F900080818F7D80830895EF92FF920F931F933E
:100FA000CF93DF93EC0181E0888F9B8D8C8D98131C
:100FB0001AC0E889F989808185FF15C09FB7F89428
:100FC000EE89FF896083E889F98980818370806474
:100FD00080839FBF81E090E0DF91CF911F910F91BF
:100FE000FF90EF900895F62E0B8D10E00F5F1F4FCE
:100FF0000F731127E02E8C8D8E110CC00FB607FCDD
:10100000FACFE889F989808185FFF5CFCE010E946A
:10101000AA07F1CFEB8DEC0FFD2FF11DE35AFF4F27
:10102000F0829FB7F8940B8FEA89FB8980818062F8
:10103000CFCFCF93DF93EC01888D8823B9F0AA89B5
:10104000BB89E889F9898C9185FD03C0808186FD83
:101050000DC00FB607FCF7CF8C9185FFF2CF8081D2
:1010600085FFEDCFCE010E94AA07E9CFDF91CF9196
:10107000089580E090E0892B29F00E94A00781115B
:101080000E94000080E090E0892B49F080E090E031
:10109000892B29F00E94000081110E94000080E04D
:1010A00090E0892B49F080E090E0892B29F00E94A4
:1010B000000081110E94000080E090E0892B49F03F
:1010C00080E090E0892B29F00E94000081110C94AF
:1010D000000008954F925F926F927F928F929F923D
:1010E000AF92BF92CF92DF92EF92FF920F931F9336
:1010F000CF93DF93EC010E9427070CA11DA12EA125
:101100003FA16017710782079307D8F18E89882362
:10111000C1F10E9427070C8D1D8D2E8D3F8DDC01A6
:10112000CB01800F911FA21FB31F8CA39DA3AEA361
:10113000BFA3CA88DB88EC88FD88EC85FD851995FE
:101140009B01AC01C701B6010E94E62C6B017C013A
:101150009F772CA53DA54EA55FA50E94372B87FF45
:1011600021C081E08F8B1E8AE889F989309709F0C8
:1011700019958CA19DA1AEA1BFA188A799A7AAA7E7
:10118000BBA7DF91CF911F910F91FF90EF90DF9060
:10119000CF90BF90AF909F908F907F906F905F9017
:1011A0004F9008950E851F850E94270788A499A453
:1011B000AAA4BBA4681979098A099B0968A379A321
:1011C0008AA39BA32CA93DA94EA95FA9C701B6017B
:1011D0000E94E72C6CAB7DAB8EAB9FAB88A899A827
:1011E000AAA8BBA8A50194010E94B52E181624F444
:1011F0008CAA9DAAAEAABFAAB7FAB094B7F8B094C9
:10120000A50194016CA97DA98EA99FA90E94372BE5
:1012100087FF04C08CAA9DAAAEAABFAA888C998C0D
:10122000AA8CBB8C2CA93DA94EA95FA96C817D819C
:101230008E819F810E949D2BA50194010E949D2B70
:101240002B013C01288139814A815B81C701B601AC
:101250000E949D2B9B01AC01C301B2010E94E72CAF
:101260002B013C0128AD39AD4AAD5BADC701B601DC
:101270000E94E62C288539854A855B850E949D2B36
:10128000A50194010E94732D9B01AC01C301B20121
:101290000E94E72CC8AED9AEEAAEFBAEF8011995B4
:1012A00068CF0F931F93CF93DF93EC018C859D85BF
:1012B000892BF9F08E859F85892BD9F081E08E8B63
:1012C0000E9427070C8D1D8D2E8D3F8DDC01CB01DB
:1012D000800F911FA21FB31F8CA39DA3AEA3BFA31A
:1012E0001F8A1CAA1DAA1EAA1FAA18AE19AE1AAEE2
:1012F0001BAEDF91CF911F910F910895CF92DF9296
:10130000EF92FF92CF93DF93DC01EC91EC3008F089
:101310004EC0CE2FD0E0B5E0EB9FF0011124EB5290
:10132000F94F838158E8C52ED12CC81AD10887FD02
:10133000D394CC0CDD1CCC0CDD1C683C71050CF08E
:101340003DC00D2C000CEE08FF08848128E532E03A
:10135000281B310987FD3395220F331F220F331FBE
:10136000032E000C440B550B2C193D094E095F0947
:10137000DB010E94852C24EB30E040E050E00E942D
:101380005B2CC20ED31EE41EF51E8FB7F89495E0B9
:101390009C9FF0019D9FF00D1124EB52F94F96E0B8
:1013A000C91AD108CC0CDD1CD282C1828FBFDF915B
:1013B000CF91FF90EF90DF90CF9008956C157D0551
:1013C00024F3848128E5C22E22E0D22EC81AD10847
:1013D00087FDD394CC0CDD1CCC0CDD1C6C157D057D
:1013E000A4F66B01D2CFFC0162817381808191816F
:1013F0000C947E098EBD00000DB407FEFDCF8EB5A6
:101400000895CF93DF93EC0160E088810E94A202EF
:1014100088E90E94FA0980E00E94FA0980E00E94AF
:10142000FA0980E00E94FA0980E00E94FA0961E06E
:1014300088810E94A2028BE891E00197F1F760E0B9
:1014400088810E94A20280EE0E94FA0961E08881F0
:10145000DF91CF910C94A202AF92BF92CF92DF9214
:10146000EF92FF920F931F93CF93DF93CDB7DEB729
:1014700060970FB6F894DEBF0FBECDBF6C0160E081
:10148000FC0180810E94A20280E60E94FA099E016E
:101490002F5F3F4F79015E0131E1A30EB11C87013F
:1014A00080E00E94FA0990E0B0E0A0E0F8018193AA
:1014B0009193A193B1938F01EA15FB0589F761E040
:1014C000F60180810E94A20280E090E0DC01F70139
:1014D00041915191619171917F01BA2FA92F982F5C
:1014E0008827840F951FA61FB71FE017F10779F70C
:1014F0009C01AD0166277727CB01621B730B840B20
:10150000950B60960FB6F894DEBF0FBECDBFDF918E
:10151000CF911F910F91FF90EF90DF90CF90BF90F0
:10152000AF9008950895CF93DF93EC01888199815E
:10153000DC01ED91FC910190F081E02D19952A815B
:101540003B81820F931F9B838A83DF91CF91089504
:10155000CF93DF93EC0188819981DC01ED91FC91BF
:101560000280F381E02D19952A813B81820F931F20
:101570009B838A83DF91CF9108958F929F92AF9240
:10158000BF92CF92DF92EF92FF920F931F93CF9370
:10159000DF93CDB7DEB766970FB6F894DEBF0FBE08
:1015A000CDBF6C018E01095E1F4F78018AE0882E45
:1015B000912CA12CB12CCB01BA01A50194010E9460
:1015C0008D2C942F852F605DF80162938F01A90106
:1015D000692F782F411551056105710561F7A70144
:1015E0004E1B5F0BBF01C6010E94A80A66960FB68C
:1015F000F894DEBF0FBECDBFDF91CF911F910F9149
:10160000FF90EF90DF90CF90BF90AF909F908F9022
:10161000089580339CF08A3324F08F3524F08B3783
:1016200024F481E0089581344CF08B35D4F393EDAC
:10163000980F81E09230B0F380E008958B32B9F7D3
:10164000F0CFCF92DF92EF92FF920F931F93CF9341
:10165000DF93EC018C85811130C009851A850E94C9
:101660002707D80118966D937D938D939C931B97B4
:10167000D801ED91FC910284F385E02DC801199504
:1016800097FF25C00E942707F801C084D184E28417
:10169000F3846C197D098E099F09C480D580E6808A
:1016A000F7806C157D058E059F0510F38FEF9FEF7A
:1016B00097FD80E08B8781E08C878B85DF91CF91D0
:1016C0001F910F91FF90EF90DF90CF900895992791
:1016D000EFCF1F93CF93DF93EC01162F0E94210BC6
:1016E000811306C01C8681E0DF91CF911F91089580
:1016F00080E0FACFCF93DF93EC01CE010E94210B63
:101700008B303CF489304CF4882349F081E08887A1
:1017100010C08D3011F08032C9F71C86EECF88855D
:1017200081110AC081E090E0C15BDF4F998388831B
:1017300080E0DF91CF91089582E090E0F5CF0895A9
:10174000FC0124813581A9014F5F5F4F868197811C
:101750004817590748F48281938155834483FC01DB
:10176000E20FF31F608308950190F081E02D81E086
:10177000808708959F92AF92BF92CF92DF92EF92AF
:10178000FF920F931F93CF93DF9300D01F921F926E
:10179000CDB7DEB78C010E94210BD82ED8011C9644
:1017A0001C92F12CE12C60EFC62EC8010E94210B87
:1017B000F8011486D81609F4BDC0811119C0F801CA
:1017C000E15BFF4F82E090E09183808380E00F90A7
:1017D0000F900F900F900F90DF91CF911F910F916D
:1017E000FF90EF90DF90CF90BF90AF909F900895C3
:1017F0008C3509F09DC0C8010E94210B8823F9F2A5
:10180000E0E4F2E0853709F087C0D8011C961C920D
:1018100054E0952EB12CA12CC8010E94210B8823E5
:1018200071F281344CF48053803148F0F801E15B6F
:10183000FF4F83E090E0C8CF8F7D8753F5CF44E022
:10184000AA0CBB1C4A95E1F7A82AF80114869A94C1
:101850009110E2CFC501985D8115944020F4750187
:1018600023E0F222A2CFC5019C5D81159440A8F42B
:10187000B3E0BB22B701762F6627770F770F6A296F
:101880007B2990E080E00196603871058105910523
:1018900040F4C8010E94A00B88CFB50190E080E021
:1018A000F3CF1982262F2F7320682A8326E096957E
:1018B0008795779567952A95D1F76032710580F401
:1018C000606C6B835E01E4E0AE0EB11CD5016E91DD
:1018D0005D01662309F469CFC8010E94A00BF6CF11
:1018E000262F2F7320682B8386E0769567958A953F
:1018F000E1F76031710538F4606E6C835E01F5E0EC
:10190000AF0EB11CE3CF60686C83CD825E0126E030
:10191000A20EB11CDBCF32969081992309F486CFB9
:101920008913F9CF8181882309F480CFF8011486C7
:10193000682FAFCF0190F081E02D8085882331F0B2
:10194000F801E15BFF4F84E090E03ECF81E03FCFC4
:10195000CF93DF93DC01EB01EC81FD818A819B81D8
:101960000896E817F90740F481E08887F0E0E0E0A6
:10197000CF01DF91CF9108953897FD83EC833097A5
:10198000B9F31296CD91DC911397209791F0CF0186
:101990008C1B9D0B23E0959587952A95E1F78D8308
:1019A0001396FC93EE931297158214821782168277
:1019B000DFCF1196FC93EE93F3CFEF92FF920F934C
:1019C0001F93CF93DF937C01DC0112962D913C9104
:1019D0001397ED91FC91AB01420F531FEF01C60F1E
:1019E000D71FC217D307A0F4888181110BC0E9016A
:1019F000CF014C175D0751F00991DC011D91CD011C
:101A00000117B9F381918111FDCFE8CF309751F4DF
:101A1000620F731FCB010196F70193838283DB0171
:101A20001C92F901CF01DF91CF911F910F91FF908F
:101A3000EF900895FC012581222339F0F8E02F0270
:101A400090011124820F931F089590E080E0089583
:101A5000FC0101900020E9F73197AF01481B590BB9
:101A6000BC0188E396E00C943307CF93DF930E9488
:101A7000280DEC0181E592E00E94280D8C0F9D1F3E
:101A8000DF91CF9108954F925F926F927F92AF92C4
:101A9000BF92CF92DF92EF92FF920F931F93CF935B
:101AA000DF935C016A017B01FC0104811581D68111
:101AB000C7819A01AB01B8018D2F9C2F0E94372B53
:101AC00087FD03C08601DE2DCF2DF501C080D180BA
:101AD000E280F38098014D2F5C2FC701B6010E9470
:101AE000B52E18161CF06801ED2EFC2EF5010285AE
:101AF000023090F084E592E0DF91CF911F910F9139
:101B0000FF90EF90DF90CF90BF90AF907F906F905D
:101B10005F904F900C94350D013021F4F7FAF0945A
:101B2000F7F8F09410E020E030E04FE753E4C7010D
:101B3000B6010E949D2B2B013C0120E030E0A90161
:101B40000E94B52E18160CF041C0C301B2010E94CC
:101B5000E52DEB01F501A084B184F801EE0FFF1F24
:101B6000EA0DFB1D738C20E030E0A901C701B6012E
:101B70000E94B52E60E018160CF061E0872D0E94DF
:101B8000A202CF3FD10509F02CF5DD27035F1F4FDF
:101B9000000F111F0A0D1B1DF801108161E0812F3C
:101BA0000E9488032097C9F460E0812FDF91CF91D4
:101BB0001F910F91FF90EF90DF90CF90BF90AF906B
:101BC0007F906F905F904F900C94A202C301B2017E
:101BD0009058BDCFCFEFD0E0D9CFCF3FD10511F492
:101BE00061E0E3CFE12FF0E0E95FFC4FE491E150E9
:101BF000E23108F0BEC0F0E08827EE5FF14F8F4F72
:101C00000C94DE2C140E270E2C0E360E400EB90E40
:101C10004A0E520E5A0E640E6E0E780E870E910EFC
:101C2000B90E9B0EA50EAF0E84B5806884BDC7BDEE
:101C3000DF91CF911F910F91FF90EF90DF90CF90A8
:101C4000BF90AF907F906F905F904F90089584B554
:101C5000806284BDC8BDECCF809180008068809395
:101C60008000D0938900C0938800E2CF80918000EB
:101C7000806280938000D0938B00C0938A00D8CF7D
:101C800080918000886080938000D0938D00C09305
:101C90008C00CECF8091B00080688093B000C0935C
:101CA000B300C6CF8091B00080628093B000C09333
:101CB000B400BECF80919000806880939000D09354
:101CC0009900C0939800B4CF809190008062809377
:101CD0009000D0939B00C0939A00AACF809190006F
:101CE000886080939000D0939D00C0939C00A0CF0B
:101CF0008091A00080688093A0008091A0008F7BDD
:101D00008093A000D093A900C093A80091CF8091A8
:101D1000A00080628093A000D093AB00C093AA0083
:101D200087CF8091A00088608093A000D093AD0001
:101D3000C093AC007DCF809120018068809320010A
:101D4000D0932901C093280173CF80912001806234
:101D500080932001D0932B01C0932A0169CF8091F9
:101D60002001886080932001D0932D01C0932C0125
:101D70005FCFC038D1050CF033CF16CFCF92DF92B2
:101D8000EF92FF926B017C012DEC3CEC4CEC5DEB97
:101D90000E94372BB701A601705887FF04C04DEC95
:101DA0005CEC6CEC7DE38091180790911907FF9033
:101DB000EF90DF90CF900C94430D4DEC5CEC6CEC0D
:101DC0007DEB80911807909119070C94430D609357
:101DD000ED047093EE048093EF049093F00420914F
:101DE000F1043091F2044091F3045091F4040E9404
:101DF000E72CAB01BC0180911A0790911B070C9452
:101E0000430D1092ED041092EE041092EF04109224
:101E1000F00420E030E0A9016091F1047091F20437
:101E20008091F3049091F4040E94E72CAB01BC0173
:101E300080911A0790911B070E94430D8091220701
:101E400090912307FC01168A1092050520910C023F
:101E500030910D022530310541F426E030E0309319
:101E60000D0220930C020C9451092630310519F40F
:101E700025E030E0F4CF08956093F1047093F2040C
:101E80008093F3049093F4042091ED043091EE04D8
:101E90004091EF045091F0040E94E72CAB01BC018B
:101EA00080911A0790911B070C94430D1092F10436
:101EB0001092F2041092F3041092F40420E030E047
:101EC000A9016091ED047091EE048091EF0490916E
:101ED000F0040E94E72CAB01BC0180911A0790919D
:101EE0001B070E94430D10920405E0911E07F0911C
:101EF0001F07168A0895FC012285223020F086E60D
:101F000092E00C94350D30E0215F3F4F220F331FDC
:101F100080859185820F931F0C94010A623040F0F6
:101F200086E692E00E94350D60E070E0CB010895F6
:101F300061110BC04E960E942C0A90958095709569
:101F400061957F4F8F4F9F4F089580960C942C0A78
:101F5000E0911A07F0911B076285808591850E94A8
:101F60008E0F072E000C880B990B0E943E2B26E744
:101F70003BEA46E25EE30E949D2B08950C94280DF7
:101F8000FB0101900020E9F73197AF01461B570B89
:101F90000C94A80A1F93CF93DF93E0E4F2E0128140
:101FA000112379F0329621816213F9CFEC016CE5AF
:101FB0000E94930A612FCE01DF91CF911F910C9463
:101FC000930A6111F9CF6AE772E0DF91CF911F9117
:101FD0000C94C00F2F923F924F925F926F927F921C
:101FE0008F929F92AF92BF92CF92DF92EF92FF9229
:101FF0000F931F93CF93DF93CDB7DEB76C970FB6D8
:10200000F894DEBF0FBECDBF8C011B01DC0114961E
:102010008C9114978F77863009F492C268F58230DC
:10202000A0F11296ED90FC901397CC901196DC9055
:10203000843008F056C2A701B601C1010E94A80A67
:10204000F101828193816C960FB6F894DEBF0FBECA
:10205000CDBFDF91CF911F910F91FF90EF90DF9057
:10206000CF90BF90AF909F908F907F906F905F9038
:102070004F903F902F9008958C3069F160F4883034
:1020800009F459C28A3009F43FC261E872E0C10123
:102090000E94C00FE5C1803209F4ECC18034A9F779
:1020A0006BE5C1010E94930AF801008111810115BD
:1020B000110509F4DAC1B101C8010E94EA0FC80193
:1020C0000E941A0D8C01892B09F4CFC16CE2C10169
:1020D0000E94930AECCFF801C080D180E280F380A7
:1020E000A7019601C701B6010E94372B8111CDCF00
:1020F00020E030E0A901C701B6010E94372B8823F8
:1021000079F0A7019601C701B6010E94E72C9B0157
:10211000AC01C701B6010E94372B882309F4B5CF63
:1021200020E030E0A901C701B6010E94372B87FFEC
:1021300008C06DE2C1010E94930AF7FAF094F7F823
:10214000F09420E836E948E15BE4C701B6010E945B
:10215000B52E87FD81C074E1A72EB12C00E210E0FE
:10216000188E1F8AF501E35BFC4F2591359145914F
:102170005491C701B6010E94B52E87FD13C0F50129
:10218000EB59FC4F2591359145915491C701B6010A
:102190000E949D2B6B017C012F89388D200F311FF0
:1021A000388F2F8B1595079534E0A31AB1088CEF63
:1021B000A8168FEFB806B1F655245A9420E030E007
:1021C000A901C701B6010E94B52E18160CF04BC02C
:1021D0002CEA35EC47E257E3C701B6010E94372BE2
:1021E00018160CF440C0A52DB4E0AB02C0011124B8
:1021F000B12CA12CFC01E25DFD4F3F019C01235B52
:102200003C4F49013FEF531671F1F301EA0DFB1DFD
:102210002591359145915491C701B6010E94372B04
:1022200087FF13C0F401EA0DFB1D259135914591FF
:102230005491C701B6010E949D2B6B017C018F89CF
:10224000988D801B910B988F8F8B159507955A94BD
:1022500094E0A91AB108D6CF00E210E055E0552E5F
:10226000188E1F8AABCFC701B6010E94EC2D4B011F
:102270005C012B013C0106E080E492E4AFE0B0E0B9
:10228000898F9A8FAB8FBC8F102F01509AE049161F
:10229000510461047104C8F0698D7A8D8B8D9C8D19
:1022A0002AE030E040E050E00E948D2C298F3A8FE8
:1022B0004B8F5C8FC301B2012AE030E040E050E078
:1022C0000E948D2C29013A01DFCFC501B4010E9483
:1022D0003C2B9B01AC01C701B6010E94E62C6B01AF
:1022E0007C01698D7A8D8B8D9C8D0E943C2B9B018E
:1022F000AC01C701B6010E949D2B2B013C010E943D
:10230000EC2D6B017C010E943C2B9B01AC01C301B5
:10231000B2010E94E62C9B01AC010E94E72C0E94B6
:10232000EC2DC60ED71EE81EF91E898D9A8DAB8D39
:10233000BC8DC816D906EA06FB06D8F09FEF891AAD
:10234000990AA90AB90AAF89B88DAB2B39F1BAE05D
:102350008B169104A104B10408F1EF89F88D319630
:10236000F88FEF8BC12CD12C7601812C912C54014C
:1023700083942AE0422E512C612C712CC701B601A6
:10238000A30192010E948D2C672B682B692B51F4BD
:10239000111644F469017A011150F0CFC12CD12CEF
:1023A0007601E7CFB501A401C1010E94BD0A112346
:1023B00071F14E01F1E18F0E911C012F54019AE051
:1023C000492E512C612C712C015068F0C701B601C7
:1023D000A30192010E948D2C605DD4016E934D018A
:1023E00069017A01F1CF812F90E0BC016095709571
:1023F000F501E81BF90B31978EE2808344275527BE
:10240000461B570B6A0D7B1DC1010E94A80AEF896C
:10241000F88DEF2B29F165E6C1010E94930A0F891F
:10242000188D17FF07C06DE2C1010E94930A119534
:1024300001951109FE0177969F018AE0E82EF12CA3
:10244000C801B7010E94CA2C805D82938B01672B63
:10245000B9F7A9014E1B5F0BBF01C1010E94A80A79
:10246000D10112968D919C91EECD6DE5C1010E9436
:10247000930AF6CF6BE7C1010E94930AF80100812D
:1024800011810115110559F1D8011696CC901697B6
:102490001796DC9062E2C1010E94930A7601F7016F
:1024A00061917F01662321F0C1010E94CA0FF7CF1D
:1024B00062E2C1010E94930A6AE3C1010E94930A89
:1024C000B101C8010E94EA0FC8010E941A0D8C01D7
:1024D000892B29F06CE2C1010E94930AD2CF6DE7EB
:1024E000C5CF62E2C1010E94930A8601E00EF11E8F
:1024F000E016F10639F0F80161918F01C1010E94E7
:10250000CA0FF6CF62E2B2CFCD90DD90ED90FC9095
:10251000B701A601F7FE0BC06DE2C1010E94930A4C
:1025200044275527BA014C195D096E097F09C1017D
:102530000E94BD0A85CD4D915D916D917C91F7CF43
:102540008C9166E872E0811102C06BE872E0C10113
:102550000E94C00F75CD2F923F924F925F926F9263
:102560007F928F929F92AF92BF92CF92DF92EF9223
:10257000FF920F931F93CF93DF9300D000D0CDB77E
:10258000DEB77C017C836B830B969E838D83D701A2
:1025900016969C91169717968C91179799838A8314
:1025A0006D907C9011976114710409F44CC11996D7
:1025B0004C9150E0F3018481958184179507A8F030
:1025C000808191E09093080680932A061092090674
:1025D00010922B0620E0BE016F5F7F4FC3010E9467
:1025E0000606D12CC12C81111AC080E026960FB6A8
:1025F000F894DEBF0FBECDBFDF91CF911F910F9139
:10260000FF90EF90DF90CF90BF90AF909F908F9012
:102610007F906F905F904F903F902F900895D301DF
:1026200014968D919C9102E010E00C191D09801701
:10263000910708F48C01F30150800E94F1044B01D2
:102640005C0180910206811176C0B02EF0E2F01795
:1026500010F440E2B42E81E08093020621E082E093
:1026600090E0801B910BC816D90608F420E0209357
:1026700001069FEF909300061092FF058FEF8B0DE0
:102680008093FE05A1E0A093DD058091DD05550C4A
:10269000582A5092DD058091DC05813009F093C005
:1026A0001092DC050E94F1041B012C018091DD05D4
:1026B0008093BB008091040690910506A0910606C8
:1026C000B0910706892B8A2B8B2BA1F00E94F10475
:1026D00020910406309105064091060650910706A8
:1026E000621973098409950926173707480759079E
:1026F00008F442C08091BC0083FDD8CFB5ECB09304
:10270000BC000E94F1041B012C0180910206813063
:1027100009F45DC08091FF058B1510F4B090FF05A2
:10272000AEEDB5E0E6EBF5E080E08B1551F19D9163
:1027300091938F5FFACF8091040690910506A09146
:102740000606B0910706892B8A2B8B2B09F479CFCB
:102750000E94F1042091040630910506409106067E
:1027600050910706681979098A099B0926173707C6
:102770004807590708F065CF809103060E94670358
:10278000B12C1092DB05B092DA05B016110609F0F3
:102790002CCF8D809E808C0C9D1C5401C501881906
:1027A000990980179107A8F5D30111968D919C91F5
:1027B000DC01ED91FC910284F385E02D1995F50182
:1027C00081935F01EBCFE5EEE093BC009ACF80915F
:1027D000040690910506A0910606B0910706892B84
:1027E0008A2B8B2B09F491CF0E94F10420910406CF
:1027F000309105064091060650910706621973094B
:1028000084099509261737074807590708F07DCF2F
:10281000B3CFC00ED11EF2E0CF16D10408F4FFCE24
:10282000F7018285811142C0848590E0982F882726
:10283000AB81BC8111969C938E932385822B8D93C3
:102840009C9381E0D3CE1296ED91FC911397309733
:1028500009F4CBCE14962D913C91159719964C9175
:1028600050E02330310591F4816089839A834F5F72
:102870005F4F02E010E02D813E81BE016F5F7F4F10
:10288000CF010E947A048111CBCFB0CE2115310542
:1028900019F490689983EDCF2230310511F49F77B8
:1028A000F9CF2130310529F7906CF4CF838590E082
:1028B000982F8827AB81BC8111969C938E93248599
:1028C000BDCF85ED8093BC008091040690910506F4
:1028D000A0910606B09107060796A11DB11D23E041
:1028E000B695A795979587952A95D1F72091BC0025
:1028F00024FD03C0109202060895409104065091F1
:1029000005066091060670910706452B462B472B5E
:1029100069F30097A105B10541F025E32A95F1F788
:1029200000000197A109B109E1CF809103060C9441
:1029300067030F931F93CF93DF93D0E0C0E061153F
:10294000710591F08B01FC01C081D181209761F06C
:102950006E817F81C8010E944230892B29F0CE010F
:102960000E941A0DEC01F2CFCE01DF91CF911F91A1
:102970000F9108954F925F926F927F92BF92CF9284
:10298000DF92EF92FF920F931F93CF93DF93EC01AF
:102990008B01E42E0E947A0BF82E811110C0F12CCD
:1029A0008F2DDF91CF911F910F91FF90EF90DF90CE
:1029B000CF90BF907F906F905F904F900895CE0121
:1029C0000E94210B873209F42BC10CF5823209F4E5
:1029D00027C1CE010E94210BB82E6E01FFE0CF0E61
:1029E000D11CE12C36018B2D0E94090B882309F4A0
:1029F00043C12FE3E21609F43FC11C86E394F601BC
:102A0000B1926F01CE010E94210BB82EECCF8B3515
:102A100009F44AC08B37E9F6F80184818078806236
:102A200084831182108213821282EE2009F447C03F
:102A30001C86CE010E947A0B882309F4B0CF6DE783
:102A4000CE010E94690BD82E8111AACFCC24C39449
:102A5000EA94E881F981828193819B838A838481CE
:102A6000958122813381821B930B9F838E831D82EC
:102A70001C82892B09F4C086CE010E94210B87326B
:102A800009F45DC0823209F45AC0CE010E94210BC4
:102A9000F82E0E94090B811159C0C15BDF4F83E002
:102AA00090E09983888350C0F801848180788064A5
:102AB00084831182108213821282E11007C0C15BED
:102AC000DF4F85E090E09983888369CF1C86CE0133
:102AD0000E947A0B882309F462CF6DE5CE010E9433
:102AE000690B81115DCFEA946D857E85C8010E94D6
:102AF000A80C009729F4C15BDF4F84E090E0E3CF9E
:102B00004E2DBC01CE010E94BA14882309F447CF90
:102B1000CE010E947A0B882309F441CF6DE5CE01E6
:102B20000E94690B81113CCF6CE2CE010E94690BBF
:102B30008111DACFC15BDF4F83E090E0C4CFCE01DB
:102B40000E94BA0B811119C0FD2C2ACF1C866F2D53
:102B5000CE010E94A00BCE010E94210BF82E0E94F4
:102B6000090B8111F3CFE881F9818085882329F051
:102B7000C15BDF4F84E090E094CFCE010E947A0BDE
:102B8000882311F36AE3CE010E94690B882309F4BC
:102B900084CFEA81FB818C819D81E80FF91F10822F
:102BA0006C807D806A817B81C8010E949914BC0180
:102BB000892BA1F4B301888199810E94DD0C3C012D
:102BC0006D857E85C8010E94A80CFC01892B81F2CD
:102BD00084818068848377826682BF014E2DCE0116
:102BE0000E94BA14882309F4AFCFCE010E947A0B59
:102BF000882309F4A9CF6DE7CE010E94690B8111EA
:102C00000DC06CE2CE010E94690B882309F445CF08
:102C1000CE010E947A0B81111CCF96CFD82E94CF73
:102C2000E881F981828193819B838A838481958164
:102C300022813381821B930B9F838E831D821C8292
:102C4000892B11F481E08087CE010E94BA0BF82E07
:102C5000882309F4A4CECC80DD80B60188819981D7
:102C60000E94DD0CF8012481207825602483918363
:102C70008083D382C28294CEFE01EE0DF11D1786B1
:102C80008F85843781F4F80184818078866084831D
:102C900081E08083F4E0EF1609F482CEC15BDF4F60
:102CA00082E090E010CF863641F4F801848180788C
:102CB000866084831082F5E0EECF8E3621F424E026
:102CC000E212ECCF6DCE8B32D9F1F3018D32D1F51A
:102CD000FE017096BF2C808190ED980F9A3018F00D
:102CE0008E3209F027CF6F0160E070E0CB01F60172
:102CF0002191A0ED4A2E420E39E0341528F16A39AF
:102D000049E97407840749E1940740F5AAE0B0E077
:102D10009B01AC010E947A2C512C712C612CA301D7
:102D20009201209530954095509526173707480712
:102D30005907A0F0640D751D861D971D6F01D7CF33
:102D4000FE017096B12CC7CF211108C0BB2071F1D4
:102D500061307105810550E89507A0F0E12CEAE0AB
:102D60004E2E512C612C712C61157105F0E88F07E6
:102D7000910530F1A30192010E948D2CCA01B90185
:102D8000E394F2CFF801248120782A6024839B0108
:102D9000AC0188279927DC01821B930BA40BB50B90
:102DA00080839183A283B383FB2CFACDF801248125
:102DB0002078286024836083718382839383F0CD9D
:102DC000D601F60121916F0130ED320F3A3010F447
:102DD000E394F6CF2E32F1F4FD013196DF01319606
:102DE0002C9150EDD52ED20E29E02D1598F06C3C8B
:102DF0003CEC73073CE08307910580F7AAE0B0E064
:102E00009B01AC010E947A2C6D0D711D811D911DDD
:102E1000EA94E4CF2C912F7D253409F08CC01196D3
:102E20002C9111972D32D9F512967F2CFD0130E0AF
:102E300020E0CE2C0E2C000CDD084AE0542EDF01E1
:102E4000619040ED460D4A3008F043C0529EA0010B
:102E5000539E500D1124262D660C330B205331093F
:102E6000240F351FA601420F531F473251053CF373
:102E7000F80184817720D1F040E050E060E070E814
:102E8000B11003C040E050E0BA0180788C60F801D6
:102E900084834083518362837383F72C81CD2B32EB
:102EA00019F01196712CC2CF1296FCCF40E050E081
:102EB00060E87FEFB11004C040E050E060E87FE7D9
:102EC00080788C60F80184834083518362837383AC
:102ED00067CD772019F03195219531094C91411139
:102EE00029CEE901CE0DD11DE7FCDA950E943C2BDD
:102EF0001C161D061CF5E12CC0FF0CC024E0E29E50
:102F0000F0011124E35BFC4F2591359145915491DB
:102F10000E949D2BD595C795E394209769F7B11032
:102F20009058F801248120782C6024836083718379
:102F30008283938335CD30E020E0D0CFD195C19509
:102F4000D109E12C209759F3C0FF0CC044E0E49E66
:102F5000F0011124EB59FC4F259135914591549185
:102F60000E949D2BD595C795E394ECCFEF92FF92ED
:102F70000F931F93CF93DF93EC018C81982F9F7752
:102F800039F4807880628C83198218821B821A82BD
:102F90008C8185FF1DC061157105D1F07A018B010F
:102FA000CE010E949914009761F4B701CE010E94EE
:102FB000A80C009731F0FC0124812F77248317831C
:102FC0000683DF91CF911F910F91FF90EF900895AD
:102FD00090E080E0F6CFFC01248125FD0C9499144B
:102FE00090E080E008958F929F92AF92BF92CF922F
:102FF000DF92EF92FF92E0911807F0911907628536
:10300000808591850E948E0F072E000C880B990BEE
:103010000E943E2B2DEF3DEA40E85AE30E949D2B93
:103020009B01AC016BED7FE089E490E40E94E62C0B
:103030006B017C010E946E2D24E833E745E357E4E1
:103040000E949D2B9B01AC0164E873E785E397E444
:103050000E94E62C0E94C82E4B015C01C701B601FC
:103060000E94BA2E26E636E648E153E40E949D2BE4
:10307000A50194010E94732D0E94532D0E94BA2E27
:1030800026E636E648E153EC0E949D2B6B017C015D
:1030900020E030E040EA52E40E94B52E181654F4C5
:1030A0004DEC5CEC6CEC7DE3809118079091190776
:1030B0000E94430DC701B601FF90EF90DF90CF90C3
:1030C000BF90AF909F908F9008958F929F92AF92F4
:1030D000BF92CF92DF92EF92FF92E0911807F091AA
:1030E00019076285808591850E948E0F072E000C3E
:1030F000880B990B0E943E2B2DEF3DEA40E85AE3E6
:103100000E949D2B9B01AC016BED7FE089E490E474
:103110000E94E62C4B015C010E946E2D20E030E8FD
:1031200044E357E40E949D2B9B01AC0160E070E8F2
:1031300084E397E40E94E62C0E94C82E6B017C0178
:10314000C501B4010E94BA2E20E030E048E153E40A
:103150000E949D2BA70196010E94732D0E94532D62
:103160004B015C01A701960163E373E382E891E4FC
:103170000E94732D0E94532D9B01AC01C501B40127
:103180000E94E62C20E030E044E353E40E949D2BB3
:103190002BED3FE049E450E40E94732D6B017C016C
:1031A00080917B00877F80937B0085E480937C0007
:1031B00080917A00806480937A0080917A0086FD05
:1031C000FCCF8091780060917900762F682F072ED0
:1031D000000C880B990B0E943E2B20E030EC4FE74F
:1031E00054E40E94732D20E030E844E853E40E9448
:1031F0009D2B20E030E844E053E40E94E62CA70138
:1032000096010E94E72C2091060530910705409118
:103210000805509109050E94E72CFF90EF90DF9080
:10322000CF90BF90AF909F908F9008958F929F9274
:10323000AF92BF92CF92DF92EF92FF920F931F93C4
:10324000CF93DF93CDB7DEB7CA52D2400FB6F89412
:10325000DEBF0FBECDBFCE010F969A8389839C83BC
:103260008B8383E092E08C0F9D1F9E838D839887D4
:103270008F8319861E860E9427076B017C01AE0191
:103280004F5F5F4F61E972E0CE010A960E94B61768
:10329000FC01892B41F09481907898609483C082DE
:1032A000D182E282F3820E9465186B017C01AE013B
:1032B0004F5F5F4F66E972E0CE010A960E94B61733
:1032C000FC01892B41F0948190789C609483C082AA
:1032D000D182E282F382E0902607F0902707F7017F
:1032E00082859385CE5EDD4F188219821A821B82F9
:1032F000C251D240CD5FDD4F99838883C350D24005
:10330000CB5FDD4F19821882C550D240DD24D394A3
:10331000C45FDD4FD882CC50D24082E090E0C75FDE
:10332000DD4F99838883C950D240C35FDD4FD88277
:10333000CD50D24032E0C32EC55FDD4FC882CB50A6
:10334000D240BE016A5E7D4FCE018D5F9D4F0E94CF
:10335000AB12F7018487CA5EDD4F08811981C6511F
:10336000D24082859385CE5EDD4F188219821A8203
:103370001B82C251D240CD5FDD4F99838883C350F9
:10338000D240CB5FDD4F19821882C550D240C45F56
:10339000DD4FD882CC50D24081E090E0C75FDD4F56
:1033A00099838883C950D240C35FDD4FD882CD5006
:1033B000D240C55FDD4FC882CB50D240BE016A5EAD
:1033C0007D4FCE018D5F9D4F0E94AB12F701848728
:1033D000CA5EDD4FC880D980C651D240AE014F5F72
:1033E0005F4F6FE972E0CE010A960E94B6177C012A
:1033F0000097D1F1FC01848180788C608483B801CE
:1034000093E0769567959A95E1F7660F771F660FBB
:10341000771F072E000C880B990B0E943E2B2FE67E
:1034200032E143E85AE30E949D2B4B015C01B60157
:10343000DD0C880B990B0E943E2B2AE037ED43E20E
:103440005CE30E949D2B20E030E04AE754E40E94B8
:10345000732D9B01AC01C501B4010E94E72CF7015B
:1034600060837183828393830091260710912707DD
:10347000F80182859385CB5DDD4F188219821A820F
:103480001B82C552D240CA5EDD4F99838883C651E4
:10349000D240C85EDD4F19821882C851D240FF2445
:1034A000F394C15EDD4FF882CF51D24085E090E0C9
:1034B000C45EDD4F99838883CC51D240C05EDD4F1E
:1034C000F882C052D24082E0E82EC25EDD4FE88230
:1034D000CE51D2404685578560897189CE018A5E7A
:1034E0009D4F0E942406F80182859385CE5EDD4FB4
:1034F000188219821A821B82C251D240CD5FDD4FE1
:1035000099838883C350D240CB5FDD4F19821882E4
:10351000C550D240C45FDD4FF882CC50D24084E029
:1035200090E0C75FDD4F99838883C950D240C35F65
:10353000DD4FF882CD50D240C55FDD4FE882CB50E1
:10354000D240BE01675D7D4FCE018D5F9D4F0E94D1
:10355000AB12F8018487C75DDD4FE880F980C9525E
:10356000D24082889388A488B588AE014F5F5F4FB0
:1035700067EA72E0CE010A960E94B6178C010097A6
:1035800011F1FC01848180788C608483B701FF0C89
:10359000880B990B0E943E2B6B017C01C501B40185
:1035A0000E943C2B9B01AC01C701B6010E94732D08
:1035B00020E030E04AE754E40E94732DF801608374
:1035C000718382839383AE014F5F5F4F6FEA72E036
:1035D000CE010A960E94B617FC01892B81F020913A
:1035E0000C0230910D02948190789A609483C90105
:1035F000330FAA0BBB0B80839183A283B3830E94FA
:10360000A80F6B017C01AE014F5F5F4F69EB72E069
:10361000CE010A960E94B617FC01892B41F09481D5
:1036200090789C609483C082D182E282F3820E946F
:10363000F3176B017C01AE014F5F5F4F63EC72E0EB
:10364000CE010A960E94B617FC01892B41F09481A5
:1036500090789C609483C082D182E282F38288E376
:1036600096E0CD5FDD4F99838883C350D240CB5F16
:10367000DD4F19821882C550D240BE016D5F7D4F6B
:10368000CE010A960E94EA0F81E592E00E94280D81
:10369000C65DDD4F0FB6F894DEBF0FBECDBFDF9124
:1036A000CF911F910F91FF90EF90DF90CF90BF903F
:1036B000AF909F908F9008950F931F93CF93DF93B8
:1036C000CDB7DEB7C356D2400FB6F894DEBF0FBEFB
:1036D000CDBFCE010F969A8389839C838B8383E031
:1036E00092E08C0F9D1F9E838D8398878F83198610
:1036F0001E8688E396E00E949407181619060CF0BF
:1037000063C089819A819C838B838F8198859E83F6
:103710008D8319861E868E010F5F1F4FC45ADD4FA1
:1037200019830883CC55D24088E0FE01E45AFD4F4E
:10373000DE01AC5ABD4F01900D928A95E1F788E009
:10374000FE01EC5AFD4FDE01AD5FBD4F01900D92C1
:103750008A95E1F7C55FDD4F1882CB50D24088E3F0
:1037600096E0C45FDD4F99838883CC50D240C15F1F
:10377000DD4F1882CF50D240C05FDD4F19830883E0
:10378000C051D240CE5ADD4F19821882C255D24064
:103790004AE0BE01665F7F4FCE018D5F9D4F0E9464
:1037A000BA14CE5ADD4F88819981C255D240892BF7
:1037B00059F4C25FDD4F8881CE50D240882309F48E
:1037C00040C08E8583FF3DC0CD59DD4F0FB6F894C4
:1037D000DEBF0FBECDBFDF91CF911F910F91089536
:1037E0006081718181E092E00E944B3063ED72E074
:1037F000CE010A960E94EB176BED72E0CE010A969D
:103800000E94EB17892B31F06BED72E0CE010A9626
:103810000E94EB176CEE72E0CE010A960E94EB1745
:10382000892B91F26CEE72E0CE010A960E94EB17A2
:1038300090931307809312071093150700931407B2
:10384000C3CF6DEC72E0CE010A960E94EB17892B74
:1038500069F26DEC72E0CE010A960E94EB17FC0152
:10386000892B41F084818F77843009F4B9CF85307A
:1038700009F4B6CF70E060E0B5CF1F920F920FB69B
:103880000F9211240BB60F922F933F934F935F9398
:103890006F937F938F939F93AF93BF93EF93FF9318
:1038A0008091B900887F803609F44DC008F040C08F
:1038B000883209F4A9C028F5803109F49DC0C8F404
:1038C000882309F4FBC0883009F496C0FF91EF917A
:1038D000BF91AF919F918F917F916F915F914F9128
:1038E0003F912F910F900BBE0F900FBE0F901F9026
:1038F0001895883109F488C0803241F7809300061A
:1039000014C0803409F49DC040F48033B9F3883387
:10391000E9F68093000685ECB0C0803509F485C0D7
:10392000883509F496C0883489F60E946114CECF98
:10393000883909F48CC038F5883729F050F4883676
:1039400011F0803719F683E0809302061092B505D6
:1039500057C0883809F47BC0803919F0803809F0E5
:10396000B5CF8091B505803208F071C0E091B50502
:1039700081E08E0F8093B5058091BB00F0E0EB569F
:10398000FA4F80833DC0803B39F0E0F4803A09F47F
:1039900079C0883A09F09ACF84E0809302061092A9
:1039A000940510929305E091D605F091D7051995ED
:1039B0008091930581110FC081E08093930510924F
:1039C000730509C0803C09F4A6CF883C09F4A3CF55
:1039D000883B09F07BCFE091940581E08E0F8093C6
:1039E0009405F0E0ED58FA4F80818093BB009091F0
:1039F00094058091930529C08091DD058093BB00DB
:103A000085EC8093BC0062CF9091FF058091FE050C
:103A1000981758F5E091FF0581E08E0F8093FF0520
:103A2000F0E0E252FA4F8081E9CFE091FF0581E0BA
:103A30008E0F8093FF058091BB00F0E0E252FA4FB9
:103A400080839091FF058091FE059817C8F285E864
:103A5000D8CFE091FF0581E08E0F8093FF05809124
:103A6000BB00F0E0E252FA4F8083809101068111A1
:103A70005CCF81E08093DC0584EA8093BC001092E7
:103A8000020624CF85EC8093BC0010920206809140
:103A9000B505803230F4E091B505F0E0EB56FA4F11
:103AA00010826091B50570E0E091D805F091D905DC
:103AB00085E995E019951092B50508CF109200069A
:103AC00034CF1F920F920FB60F9211242F933F9372
:103AD0008F939F93AF93BF9380916A0590916B05ED
:103AE000A0916C05B0916D053091690523E0230F1D
:103AF0002D3758F50196A11DB11D209369058093BE
:103B00006A0590936B05A0936C05B0936D05809149
:103B10006E0590916F05A0917005B09171050196A9
:103B2000A11DB11D80936E0590936F05A093700544
:103B3000B0937105BF91AF919F918F913F912F915C
:103B40000F900FBE0F901F90189526E8230F029636
:103B5000A11DB11DD2CF1F920F920FB60F9211244B
:103B60000BB60F922F933F934F935F936F937F9377
:103B70008F939F93AF93BF93EF93FF938091F7043D
:103B80009091F804A091F904B091FA04892B8A2B42
:103B90008B2BD1F19091F6048091000089278093BE
:103BA00000008091F7049091F804A091F904B0917D
:103BB000FA04181619061A061B069CF48091F704DD
:103BC0009091F804A091F904B091FA040197A10929
:103BD000B1098093F7049093F804A093F904B0938B
:103BE000FA04FF91EF91BF91AF919F918F917F91D7
:103BF0006F915F914F913F912F910F900BBE0F905E
:103C00000FBE0F901F90189580910002E6E4F2E03D
:103C1000E4919FEF90930002E230E9F040F4EE234C
:103C200089F0E13091F060E00E94A202DACFE43046
:103C300049F110F1E530B9F7909173009D7F9093B1
:103C40007300F1CF10926E00EECF90916F009D7FC8
:103C500090936F00E8CF909170009D7F90937000DB
:103C600091E09093B0009091B100987F9460909310
:103C7000B1001092B300D7CF909171009D7F9093C7
:103C80007100D1CF909172009D7F90937200CBCF45
:103C90001F920F920FB60F9211240BB60F922F9313
:103CA0003F934F935F936F937F938F939F93AF93C4
:103CB000BF93EF93FF9388E396E00E94AA07FF91DA
:103CC000EF91BF91AF919F918F917F916F915F9194
:103CD0004F913F912F910F900BBE0F900FBE0F9001
:103CE0001F9018951F920F920FB60F9211240BB6CA
:103CF0000F922F938F939F93EF93FF93E09148063A
:103D0000F09149068081E0914E06F0914F0682FDC8
:103D10001DC09081809151068F5F8F732091520654
:103D2000821741F0E0915106F0E0E85CF94F958F81
:103D300080935106FF91EF919F918F912F910F905A
:103D40000BBE0F900FBE0F901F9018958081F2CF81
:103D50001F920F920FB60F9211240BB60F922F9352
:103D60003F934F935F936F937F938F939F93AF9303
:103D7000BF93CF93DF93EF93FF938091F504C091AE
:103D80001107D0E087FF23C01092850010928400B5
:103D90008091F5048F5F8093F5048091F504082EDF
:103DA000000C990B8C179D0724F48091F5048C303E
:103DB00074F1809184009091850084349C4908F4CA
:103DC00065C08091840090918500049661C08091C7
:103DD000F504082E000C990B8C179D07CCF630913A
:103DE000F50425E03203F0011124EB52F94F8081F4
:103DF00086FFCECF3091F5043203F0011124EB524F
:103E0000F94F808160E08F730E94A202C1CF809140
:103E10008400909185003091F50425E03203F00193
:103E20001124EB52F94F41815281840F951F9093D9
:103E30008900809388003091F5043203F001112449
:103E4000EB52F94F808186FF0CC03091F5043203AC
:103E5000F0011124EB52F94F808161E08F730E94D1
:103E6000A202FF91EF91DF91CF91BF91AF919F910E
:103E70008F917F916F915F914F913F912F910F9013
:103E80000BBE0F900FBE0F901F90189580E49CE919
:103E900090938900809388008FEF8093F504E1CFA1
:103EA000FC01108211821282138214821582168202
:103EB0001782108611861286138615861486178639
:103EC0001686118A108A128A138A148A158A168A0B
:103ED000178A14A215A216A217A210A611A612A63E
:103EE00013A680E090E0A0EAB0E484A795A7A6A777
:103EF000B7A780E090E0A8ECB2E480AB91ABA2ABB6
:103F0000B3AB14AA15AA16AA17AA10AE11AE12AE18
:103F100013AE0895EF92FF920F931F93CF93DF9309
:103F200010922F0610922E0688EE93E0A0E0B0E0EB
:103F30008093300690933106A0933206B0933306F7
:103F400020E232E030932D0620932C0610923B069F
:103F500010923A0680933C0690933D06A0933E064D
:103F6000B0933F0682E392E090933906809338063F
:103F700085EC90E0909345068093440684EC90E0B5
:103F8000909347068093460680EC90E09093490614
:103F90008093480681EC90E090934B0680934A060C
:103FA00082EC90E090934D0680934C0686EC90E076
:103FB00090934F0680934E0610925106109252062F
:103FC00010925306109254068EE290E00E941D2F2C
:103FD000EC018CE0888384E2898315E01A8386E013
:103FE0008B838EE18C838FE18D8382E28E8383E2EB
:103FF0008F8384E4888785E489871B861A8680E41A
:104000008D871A8A1B8A1C8A1D8A1E8A1F8A188E0F
:10401000198E88E0E4E1F2E0DE01929601900D92C3
:104020008A95E1F780E090E0A0EAB0E48AA79BA738
:10403000ACA7BDA7D0932707C093260781E090E0E7
:104040000E941D2F7C01E0911107EC3008F08EC01A
:1040500081E08E0F80931107D701EC931E9FF00132
:104060001124EB52F94F88EB9BE092838183F0920D
:104070002507E09224078CE390E00E941D2F8C011D
:104080000E94501F10932307009322078CE390E0B7
:104090000E941D2F8C010E94501F10932107009336
:1040A00020078CE390E00E941D2F8C010E94501F7E
:1040B00010931F0700931E0786E090E00E941D2FBB
:1040C000FC0188E590E09383828315821482F1825B
:1040D000E082F0931D07E0931C078BE090E00E94C4
:1040E0001D2FFC011082118212821382148215820C
:1040F000168217821286D187C08790931B07809300
:104100001A078BE090E00E941D2FFC0110821182A3
:1041100012821382148215821682178211E012878E
:10412000D187C087909319078093180788E090E0A3
:104130000E941D2FFC0112821382148215821682A6
:104140001783D183C083909317078093160710922B
:104150001307109212071092150710921407DF919F
:10416000CF911F910F91FF90EF9008958FEFF7017E
:1041700080837DCFCF93DF93CDB7DEB7A6970FB601
:10418000F894DEBF0FBECDBF789484B5826084BD45
:1041900084B5816084BD85B5826085BD85B581604B
:1041A00085BD80916E00816080936E0010928100C9
:1041B0008091810082608093810080918100816084
:1041C0008093810080918000816080938000809145
:1041D000B10084608093B1008091B00081608093D1
:1041E000B000809191008260809391008091910055
:1041F0008160809391008091900081608093900015
:104200008091A10082608093A1008091A1008160D3
:104210008093A1008091A00081608093A000809194
:10422000210182608093210180912101816080932E
:1042300021018091200181608093200180917A008A
:10424000846080937A0080917A00826080937A0003
:1042500080917A00816080937A0080917A008068F2
:1042600080937A001092C100E0914806F0914906CF
:1042700082E08083E0914406F09145061082E0914F
:104280004606F091470680E1808310925006E09147
:104290004C06F0914D0686E08083E0914A06F0914D
:1042A0004B06808180618083E0914A06F0914B0645
:1042B000808188608083E0914A06F0914B0680817E
:1042C00080688083E0914A06F0914B0680818F7D63
:1042D0008083009126071091270761E0D80111968D
:1042E0008C910E94880360E0F80181810E94A20203
:1042F00060E0D8018C910E948803F8018285938543
:10430000892BB9F486E090E00E941D2FFC01D801B2
:104310001D968C911D9780838CE296E09283818319
:10432000138280E290E0958384831B96FC93EE9346
:104330001A97F801C284D3841092DB051092DA0533
:104340001092090610922B060E94490383EF91E018
:104350009093D7058093D60584EF91E09093D9058B
:104360008093D805FF24F394D6011396FC92C601DE
:104370000E94BC06882309F44FC080E090E1A0E0D1
:10438000B0E0F80186879787A08BB18B8AE090E038
:10439000A0E0B0E0828B938BA48BB58B80E090E0A3
:1043A000A0E0B0E4868B978BA08FB18F8285938538
:1043B0001BA21CA21DA21EA29D8B8C8B1F8A1E8A73
:1043C000FD8E85E090E09B8F8A8FFE8E72E0E72E57
:1043D000EC8E4685578560897189CE0144960E948E
:1043E0002406D8011A968D919C91188A198A1A8AE6
:1043F0001B8A9A8389831C821B82FA8618861F82F5
:10440000FB86E9864FE959E360E070E0CE01019652
:104410000E942406F80184877801F2E0EF0EF11C77
:10442000580124E0A20EB11C40EB442E42E0542E71
:1044300056EF652E52E0752E6BECC62E67E0D62E39
:10444000D70112969C91F70181917F01D8015A966C
:104450008C935A975B969C9361E00E94880361E07D
:10446000F801838D0E9488034801FEE18F0E911CA4
:10447000D70115969C91159713968C91F801868F0C
:10448000978F61E00E94880360E0D8015F968C916D
:104490000E94880361E0F801868D0E94A2023FB667
:1044A000F8948091FB04811125C0F2018491F301FD
:1044B0009491E82FF0E0EE0FFF1FE95BFD4FA5910F
:1044C000B4918C91982321F461E085E30E94A202CB
:1044D00061E085E30E9488038CB580618CBD8CB55A
:1044E00080648CBD61E084E30E94880361E083E323
:1044F0000E9488038091FB048F5F8093FB043FBE82
:10450000C6010197F1F760E0D8015E968C910E9498
:10451000A20288E80E94FA0983E00E94FA0961E099
:10452000F801868D0E94A202C6010197F1F7C4012D
:104530000E94010A0E5F1F4F0A151B0509F080CF6C
:10454000809118079091190740E050E060E87FE300
:10455000DC0114964D935D936D937C93179740E027
:1045600050E060E87FEBFC014083518362837383FA
:10457000E0911A07F0911B0743E353E363E37FE302
:10458000448355836683778340E050E060E07FEBAF
:1045900040835183628373830E947B0F80911A074B
:1045A00090911B070E947B0F009124071091250713
:1045B000D8018C918C3008F049C061E088E00E94FD
:1045C0008803F801808125E0829FF0011124EB52DD
:1045D000F94F9081907C9860908397EA93839BE455
:1045E00094832CE0622F0E94BE2C829FB001112484
:1045F00030E020E095E0AB01420F531F949FF001A3
:10460000959FF00D1124EB52F94F408146FD13C0E8
:104610002F5F3F4F2C30310571F781110CC0109284
:10462000800082E0809381001092850010928400C7
:1046300086BB80936F00D801EC91B5E0EB9FF00151
:104640001124EB52F94F808180648083E091200730
:10465000F09121078DEC9CECACE4BEE38083918368
:10466000A283B3838DEC9CECACE4BDE3848395839F
:10467000A683B783108611861286138683EF97E18F
:10468000958784878EEB9EE0978786878DED9EE0E9
:10469000918B808B8CEC9CEBACE8BBE284A795A75C
:1046A000A6A7B7A74AE050E060E070E0448F558FBE
:1046B000668F778F8AE097EDA3E2BCE3808F918FBE
:1046C000A28FB38FE0912207F09123070FE612E14A
:1046D00023E03CE300831183228333831482158219
:1046E00016821782108611861286138628EA3FE00A
:1046F0003587248727EE3EE03787268721E03FE095
:10470000318B208B00E010E020E231E404A715A7F4
:1047100026A737A7448F558F668F778F808F918F0D
:10472000A28FB38FE0911E07F0911F070FE812ECE4
:1047300025E73CE3008311832283338314821582AF
:1047400016821782108611861286138625E638E1B6
:10475000358724872CE33FE03787268726E53FE02F
:10476000318B208B00E010E020EE30E404A715A789
:1047700026A737A7448F558F668F778F808F918FAD
:10478000A28FB38F80911C0790911D070E94F3099F
:1047900067EF72E081E092E00E944230892B91F154
:1047A0000E942707AB01BC01409365055093660545
:1047B00060936705709368058091FC049091FD04F7
:1047C000A091FE04B091FF048C599F4FAF4FBF4F93
:1047D00084179507A607B707D8F60E9416190E94F6
:1047E0005C1B8091650590916605A0916705B0916D
:1047F00068058093FC049093FD04A093FE04B0939D
:10480000FF04C6CF89E090E090930D0280930C02E4
:10481000412C512C98E6692E92E4792E25E1222E26
:10482000312C0E9427076B017C01C0926505D09254
:104830006605E0926705F092680580910C02909100
:104840000D028531910509F433C60CF015C18D3088
:10485000910509F43AC40CF0D0C08A30910509F4EE
:104860001FC344F4099709F4D0C180EC94E00E947E
:10487000BE0F11C18B30910509F47CC30C97A9F7C9
:1048800080910B02882309F443C010920B02C0925E
:104890004505D0924605E0924705F0924805A09064
:1048A0002007B0902107D50152964D925D926D92EE
:1048B0007C92559700911E0710911F07F801128AEC
:1048C000138A148A158A809122079091230720E089
:1048D00030E849E854E4DC0152962D933D934D9322
:1048E0005C9355970E9451099924939490920505E1
:1048F000C5010E945109C8010E9451099092040506
:10490000C0920005D0920105E0920205F0920305E5
:104910000E9465189F7720E030E040EE50E40E944E
:10492000B52E18167CF58091040581112BC080915D
:104930001E0790911F070E94510981E08093040592
:10494000E0910C02F0910D02EE0FFF1FEE0FFF1F22
:10495000EB5EFA4F8091650590916605A091670521
:10496000B09168054081518162817381841B950BF0
:10497000A60BB70B8093000590930105A093020549
:10498000B09303050E94A80F20E030EC4AE854E4FD
:104990000E94B52E18160CF039C3809105058111BF
:1049A0003FC3C0906505D0906605E0906705F09024
:1049B0006805E0910C02F0910D02EE0FFF1FEE0F63
:1049C000FF1FEB5EFA4F80809180A280B3808091C0
:1049D0002207909123070E94510981E080930505E9
:1049E000C818D908EA08FB08C0920005D092010552
:1049F000E0920205F092030513C38F30910509F48C
:104A0000DAC30CF494C38031910509F4E4C44497EB
:104A100009F02BCF0E9465189F7720E030E040EE30
:104A200050E40E94B52E18166CF480910405811193
:104A300009C080911E0790911F070E94510981E0D3
:104A4000809304050E94A80F9F7720E030E040E2A9
:104A500051E40E94B52E18160CF01EC58091050574
:104A6000811119C080912207909123070E9451095A
:104A700081E0809305050FC08836910509F4B5C51E
:104A80000CF09FC08536910509F445C50CF059C05E
:104A9000469709F0EACE80912007909121070E9465
:104AA0006A0880912207909123070E946A088091EA
:104AB0001E0790911F070E946A088091FC04909144
:104AC000FD04A091FE04B091FF048C599F4FAF4F9D
:104AD000BF4F4091650550916605609167057091E3
:104AE000680584179507A607B707A0F40E94161952
:104AF0000E945C1B8091650590916605A0916705F9
:104B0000B09168058093FC049093FD04A093FE048B
:104B1000B093FF0467EF72E081E092E00E944230C0
:104B2000892B61F0E0912207F0912307128A138A02
:104B3000148A158A30920D0220920C020E943908C4
:104B400070CE8636910509F40FC58736910509F0B8
:104B50008CCE86E693E00E94BE0FE0911C07F09198
:104B60001D0764817581808191810E947E0940E0EA
:104B700050E060E87FEB80911807909119070E9440
:104B8000430D68EE73E080E090E00E94F5064DEC86
:104B90005CEC6CEC7DE380911807909119070E9402
:104BA000430D68EE73E080E090E00E94F50640E07F
:104BB00050E0BA0180911807909119070E94430DA7
:104BC0006ACF8A36910509F434C50CF421C58B36B9
:104BD000910509F43FC58C36910509F046CE8FE664
:104BE00094E00E94BE0FE0911E07F0911F07128A09
:104BF000138A148A158A8789882309F44CCF168A68
:104C0000E0912207F09123072DC580910B028823A4
:104C100009F453C010920B02C0923905D0923A05A4
:104C2000E0923B05F0923C0580911807909119079E
:104C30000E947B0F8091200790912107FC01428AFE
:104C4000538A648A758A00911E0710911F07D80144
:104C500052961D921D921D921C925597E09122072B
:104C6000F0912307128A138A148A158A168A0E94E1
:104C70005109F801168A8091650590916605A09109
:104C80006705B09168058093110590931205A09374
:104C90001305B093140510920D0510920E05109295
:104CA0000F051092100510920C0510920B058091C3
:104CB0001C0790911D070E94F309E0910C02F091EE
:104CC0000D02EE0FFF1FEE0FFF1FEB5EFA4F8091FC
:104CD000650590916605A0916705B09168054081D2
:104CE000518162817381841B950BA60BB70B893EA2
:104CF000F3E09F07A105B10508F483C020910A05E0
:104D000021117FC04091110550911205609113054A
:104D1000709114054C595F4F6F4F7F4F48175907DB
:104D20006A077B0708F06DC000910B0510910C0518
:104D3000B801012E000C880B990B0E943E2B9B01A1
:104D4000AC0160910D0570910E0580910F05909159
:104D500010050E949D2B60930D0570930E058093A6
:104D60000F05909310050F5F1F4F10930C050093D4
:104D70000B050E94651820910D0530910E0540919C
:104D80000F05509110050E94E72C6B017C0160918A
:104D90000B0570910C05072E000C880B990B0E94D7
:104DA0003E2B9B01AC01C701B6010E94732D60939D
:104DB0000D0570930E0580930F0590931005E091FB
:104DC0000C02F0910D02EE0FFF1FEE0FFF1FEB5EC6
:104DD000FA4F8091650590916605A0916705B091A5
:104DE00068054081518162817381841B950BA60BFC
:104DF000B70B8093110590931205A0931305B09300
:104E00001405E0910C02F0910D02EE0FFF1FEE0F62
:104E1000FF1FEB5EFA4F8091650590916605A091AA
:104E20006705B09168054081518162817381841B5F
:104E3000950BA60BB70B813D9740A105B10508F472
:104E40002ACE80910A05811118C081E080930A055D
:104E500020910D0530910E0540910F0550911005E0
:104E600060E070E0CB010E94E62C60930605709331
:104E70000705809308059093090580911A07909182
:104E80001B070E947B0F81E080930B0280910C0234
:104E900090910D02019690930D0280930C02FBCD30
:104EA00080910B028823C9F1A0902007B0902107C0
:104EB00010920B02C0923D05D0923E05E0923F0554
:104EC000F0924005D50152964D925D926D927C9282
:104ED000559700911E0710911F07F801128A138A37
:104EE000148A158A8091220790912307DC0152963B
:104EF0001D921D921D921C9255970E94510981E0AE
:104F000080930505C5010E945109F801168A809118
:104F10001C0790911D070E94F30980903D05909019
:104F20003E05A0903F05B0904005C814D904EA049E
:104F3000FB0451F0E0911C07F0911D07648175811D
:104F4000808191810E947E09C818D908EA08FB086F
:104F5000F9ECCF16D104E104F10408F49CCD81E012
:104F600080930B02BBE0CB2ED12CD0920D02C092CD
:104F70000C0291CD009122071091230780910B0222
:104F80008823A1F1A0902007B090210710920B0276
:104F9000C0924105D0924205E0924305F09244054B
:104FA000D50152964D925D926D927C925597E0900C
:104FB0001E07F0901F07F701128A138A148A158AB8
:104FC00020E030E849E854E4D80152962D933D930F
:104FD0004D935C935597C8010E94510981E08093DD
:104FE0000505C5010E945109F701168AD801579697
:104FF0008C91882309F44FCD81E080930B02ECE083
:10500000F0E0F0930D02E0930C0245CD0E94A80F52
:1050100020E030E448E854E40E94372B87FDBDCC03
:1050200000910C0210910D02F801EE0FFF1FEE0F20
:10503000FF1FEB5EFA4F4091650550916605609148
:1050400067057091680580819181A281B3816A01B1
:105050007B01C81AD90AEA0AFB0AC701B601C09047
:105060000005D0900105E0900205F090030528EEC0
:10507000C20E23E0D21EE11CF11CC616D706E806BC
:10508000F90670F4E0912207F09123072789222383
:1050900039F0E0911E07F0911F07278921110BC0FD
:1050A0000E943C2B20E030E048EC54E40E94B52EF6
:1050B00018160CF0F0CC81E080930B020F5F1F4FAD
:1050C00010930D0200930C02E6CC80910B02882312
:1050D00051F010920B02C0924905D0924A05E0921D
:1050E0004B05F0924C0580911C0790911D070E9482
:1050F000F3098091490590914A05A0914B05B09123
:105100004C05C81AD90AEA0AFB0A31E9C31631E08C
:10511000D306E104F10408F4BECC81E080930B02D5
:105120004EE050E050930D0240930C02B4CC00913D
:1051300022071091230780910B02882381F1A09010
:105140002007B090210710920B02C0924D05D0921B
:105150004E05E0924F05F0925005D50152964D92C2
:105160005D926D927C925597E0901E07F0901F071C
:10517000F701128A138A148A158AD80152961D9251
:105180001D921D921C925597C8010E94510981E001
:1051900080930505C5010E945109F701168AD801BF
:1051A00057968C91882309F476CC81E080930B028A
:1051B000EFE0F0E026CF80910B02882309F43FC096
:1051C00010920B02C0925105D0925205E092530505
:1051D000F0925405A0902007B0902107D501529677
:1051E0004D925D926D927C92559700911E071091A1
:1051F0001F07F801128A138A148A158A80912207E0
:1052000090912307DC0152961D921D921D921C92D3
:1052100055970E9451099924939490920505C501D0
:105220000E945109C8010E94510990920405C09240
:105230000005D0920105E0920205F09203050E945C
:1052400065189F7720E030E040EE50E40E94B52ED4
:1052500018167CF58091040581112BC080911E07E2
:1052600090911F070E94510981E080930405E0910D
:105270000C02F0910D02EE0FFF1FEE0FFF1FEB5E11
:10528000FA4F8091650590916605A0916705B091F0
:1052900068054081518162817381841B950BA60B47
:1052A000B70B8093000590930105A0930205B0937E
:1052B00003050E94A80F20E030E040E251E40E9484
:1052C000B52E181684F580910505811136C0C09061
:1052D0006505D0906605E0906705F0906805E0915F
:1052E0000C02F0910D02EE0FFF1FEE0FFF1FEB5EA1
:1052F000FA4F80809180A280B380809122079091A4
:1053000023070E94510981E080930505C818D90838
:10531000EA08FB08C0920005D0920105E092020560
:10532000F09203050AC00E94A80F20E030E040E29E
:1053300051EC0E94372B87FDC6CFE0910C02F09113
:105340000D02EE0FFF1FEE0FFF1FEB5EFA4F4091B5
:1053500065055091660560916705709168058081CB
:105360009181A281B3816A017B01C81AD90AEA0A34
:10537000FB0AC701B60100910005109101052091BB
:10538000020530910305005E1C4F2F4F3F4F06175B
:1053900017072807390770F4E0912207F0912307D7
:1053A0002789222339F0E0911E07F0911F072789F2
:1053B00021110BC00E943C2B20E030E048EC54E46B
:1053C0000E94B52E18160CF066CBE0911E07F091E6
:1053D0001F07168A52CD80910B028823B9F11092D3
:1053E0000B02C0925505D0925605E0925705F092F7
:1053F0005805A0902007B0902107D50152964D92F4
:105400005D926D927C92559700911E0710911F0737
:10541000F801128A138A148A158A809122079091C2
:10542000230720E030E048EC52ECDC0152962D934B
:105430003D934D935C9355970E94510981E0809371
:105440000505C5010E945109F801168A809155058C
:1054500090915605A0915705B0915805C81AD90AE0
:10546000EA0AFB0AF1E9CF16F1E0DF06E104F104F4
:1054700008F411CBE0912207F0912307168A80915E
:105480001A0790911B070E947B0F81E080930B020B
:105490002AE0C22ED12C69CD0E94A80F9F7720E070
:1054A00030E040E251EC0E94372B87FDD7CAF3CAA7
:1054B000E0912207F09123078789882339F0168A23
:1054C00080911A0790911B070E947B0FE0912007A3
:1054D000F0912107168A00911E0710911F07C8013D
:1054E0000E945109D80152961D921D921D921C9244
:1054F000559780911C0790911D070E94F30967EF53
:1055000072E081E092E00E944230892B09F0C3CA28
:10551000E9E0F0E076CD8DEF92E00E94BE0F8BE2E5
:1055200093E00E94BE0F00911C0710911D07D80147
:1055300014966D917C9115978D919C910E947E0996
:1055400068EE73E080E090E00E94F506C8010E94DA
:10555000F30982E393E00E94BE0F68EE73E080E0FF
:1055600090E00E94F50697CA88E393E00E94BE0F80
:1055700040E050E0BA0180911A0790911B070E9409
:10558000430D64EF71E080E090E00E94F5064DEC81
:105590005CEC6CEC7EE380911A0790911B070E94F3
:1055A000430D60ED77E080E090E00E94F5064DEC61
:1055B0005CEC6CEC7EEB80911A0790911B070E94CB
:1055C000430D60ED77E080E090E00E94F50640E05A
:1055D00050E0BA0180911A0790911B070E94430D79
:1055E00064EF71E080E090E0BCCF86EA93E00E9437
:1055F000BE0FE0912207F0912307C12CD12C98EC2B
:10560000E92E92E4F92EC28AD38AE48AF58A43CA43
:1056100088ED93E00E94BE0FE0912007F0912107F2
:10562000E12CF12C0CE512E4E28AF38A048B158B51
:1056300032CA8AE094E00E94BE0FE0912207F09106
:10564000230700E010E026E933E4028B138B248B60
:10565000358B21CA8FE394E00E94BE0FE0911E07B4
:10566000F0911F07128A138A148A158A14CA0E949D
:10567000792B08F481E00895E89409C097FB3EF483
:1056800090958095709561957F4F8F4F9F4F99238F
:10569000A9F0F92F96E9BB279395F695879577950D
:1056A0006795B795F111F8CFFAF4BB0F11F460FFCD
:1056B0001BC06F5F7F4F8F4F9F4F16C0882311F025
:1056C00096E911C0772321F09EE8872F762F05C039
:1056D000662371F096E8862F70E060E02AF09A95D4
:1056E000660F771F881FDAF7880F9695879597F9C9
:1056F0000895990F0008550FAA0BE0E8FEEF161663
:105700001706E807F907C0F012161306E407F507B5
:1057100098F0621B730B840B950B39F40A2661F029
:10572000232B242B252B21F408950A2609F4A140CC
:10573000A6958FEF811D811D08950E94B02B0C94BA
:10574000212C0E94132C38F00E941A2C20F0952353
:1057500011F00C940A2C0C94102C11240C94552C40
:105760000E94322C70F3959FC1F3950F50E0551FA6
:10577000629FF001729FBB27F00DB11D639FAA27A6
:10578000F00DB11DAA1F649F6627B00DA11D661FF5
:10579000829F2227B00DA11D621F739FB00DA11D16
:1057A000621F839FA00D611D221F749F3327A00DD0
:1057B000611D231F849F600D211D822F762F6A2F6C
:1057C00011249F5750409AF0F1F088234AF0EE0FD1
:1057D000FF1FBB1F661F771F881F91505040A9F7FE
:1057E0009E3F510580F00C940A2C0C94552C5F3F81
:1057F000E4F3983ED4F3869577956795B795F7953A
:10580000E7959F5FC1F7FE2B880F911D96958795B1
:1058100097F9089597F99F6780E870E060E0089530
:105820009FEF80EC089500240A94161617061806B8
:105830000906089500240A94121613061406050694
:105840000895092E0394000C11F4882352F0BB0F25
:1058500040F4BF2B11F460FF04C06F5F7F4F8F4F88
:105860009F4F089557FD9058440F551F59F05F3FC3
:1058700071F04795880F97FB991F61F09F3F79F072
:1058800087950895121613061406551FF2CF4695F4
:10589000F1DF08C0161617061806991FF1CF869576
:1058A0007105610508940895E894BB27662777275A
:1058B000CB0197F90895052E97FB1EF400940E94E2
:1058C000722C57FD07D00E948D2C07FC03D04EF49C
:1058D0000C94722C50954095309521953F4F4F4F29
:1058E0005F4F089590958095709561957F4F8F4F8C
:1058F0009F4F08950E94AF2CA59F900DB49F900DCF
:10590000A49F800D911D11240895B7FF0C947A2C4B
:105910000E947A2C821B930B0895A1E21A2EAA1BD7
:10592000BB1BFD010DC0AA1FBB1FEE1FFF1FA2174F
:10593000B307E407F50720F0A21BB30BE40BF50B4C
:10594000661F771F881F991F1A9469F760957095D5
:10595000809590959B01AC01BD01CF010895A29F58
:10596000B001B39FC001A39F700D811D1124911D33
:10597000B29F700D811D1124911D0895991B79E02E
:1059800004C0991F961708F0961B881F7A95C9F7CF
:1059900080950895AA1BBB1B51E107C0AA1FBB1F1E
:1059A000A617B70710F0A61BB70B881F991F5A95AB
:1059B000A9F780959095BC01CD010895EE0FFF1FCA
:1059C000881F8BBF0790F691E02D19945058BB2784
:1059D000AA270E94FE2C0C94212C0E94132C38F034
:1059E0000E941A2C20F039F49F3F19F426F40C94ED
:1059F000102C0EF4E095E7FB0C940A2CE92F0E9482
:105A0000322C58F3BA17620773078407950720F002
:105A100079F4A6F50C94542C0EF4E0950B2EBA2FC5
:105A2000A02D0B01B90190010C01CA01A0011124A4
:105A3000FF27591B99F0593F50F4503E68F11A1650
:105A4000F040A22F232F342F4427585FF3CF4695E1
:105A500037952795A795F0405395C9F77EF41F1603
:105A6000BA0B620B730B840BBAF09150A1F0FF0FCD
:105A7000BB1F661F771F881FC2F70EC0BA0F621FB9
:105A8000731F841F48F4879577956795B795F795A9
:105A90009E3F08F0B0CF9395880F08F09927EE0F3E
:105AA0009795879508959F939F77EEE389379E0793
:105AB00028F4E4EEF0E00E94622E0CC00E941B2E3F
:105AC0009058A2EA2AED3FE049EC5FE30E94FE2CE9
:105AD0000E94212C0F9007FC905808950E94782E68
