:100000000C945D010C948E010C948E010C948E0165
:100010000C948E010C948E010C948E010C948E0124
:100020000C948E010C948E010C948E010C948E0114
:100030000C948E010C94D30A0C948E010C948E01B6
:100040000C948E010C94D00B0C948E010C948E01A8
:100050000C948E010C948E010C948E010C94890AE0
:100060000C948E010C949A0B0C94700B0C948E01D2
:100070000C948E010C948E010C948E010C948E01C4
:100080000C948E010C948E010C948E010C948E01B4
:100090000C948E010C948E010C948E010C946509C5
:1000A0000C948E010C948E010C948E010C948E0194
:1000B0000C948E010C948E010C948E010C948E0184
:1000C0000C948E010C948E010C948E010C948E0174
:1000D0000C948E010C948E010C948E010C948E0164
:1000E0000C948E010C9498020C94A5080C94DC08D6
:1000F0000C949F020C94E6010C9481080C94FA086D
:100100000C9444070C94B9080C9461080C94C30136
:100110000C94E6080C94FE060C9472080C94AF083C
:100120000C94D8060C947E020C94B3020C949107A4
:100130000C94B7020C94CF020C949D080C94DB062F
:100140000C94F0080C94ED010C949A010C941A0292
:100150000C949C020C940C070C9479020C949B0157
:100160000C9404090C94A9020C94BD020C94AF02E7
:100170000C94D2080C9477080C9495080C94CB023C
:100180000C94C5020C94EA060C94780C0C94D301E0
:100190000C94A5020C94C1020C94AB060C94C308F9
:1001A0000C948B080C9494020C9490020C94C4014F
:1001B0000200002100240027002A002D0030003317
:1001C0000001010000040107010A010000220025CE
:1001D0000028002B002E0031003400020100000531
:1001E0000108010B010505050507050808080802B7
:1001F0000202020A0A0808040404040101010101C0
:100200000101010303030303030303040707070CAE
:100210000C0C0C0C0C0C0C02020202060606060664
:100220000606060B0B0B0B0B0B0B0B010210202011
:10023000080810204010204080020102010804023A
:1002400001010204081020408080402010080402B0
:100250000180040201804020100804020108040209
:10026000010102040810204080010204081020400F
:100270008000000A0B02090C0D0E080703040100A0
:10028000000000000000000000000000000000006E
:10029000000000000000000000000000001211102B
:1002A000000000000000000000000000000000004E
:1002B0000000000000000000780C11241FBECFEFEA
:1002C000D1E2DEBFCDBF00E00CBF12E0A0E0B2E0A3
:1002D000E4E0F5E200E00BBF02C007900D92A43607
:1002E000B107D9F724E0A4E6B2E001C01D92A13421
:1002F000B207E1F711E0CDE5D1E000E006C02197BB
:100300000109802FFE010E943610CC35D10780E014
:100310000807A9F70E94470D0C9480120C94000066
:10032000FC0120812EBD0DB407FEFDCF2EB5FC01D2
:1003300020830895089508952091CE02260F332733
:10034000331F21323105ECF420911D03FC0190E0B4
:1003500080E0243069F082E00895A091CE022191DE
:10036000AC0142555D4FA40FB52FB11D2C930196E2
:10037000861798F38091CE02680F6093CE0280E0DA
:10038000089581E008950895E091F6028091F502C4
:10039000E81730F4F0E0E357FD4F808190E00895D6
:1003A0008FEF9FEF08959091F6028091F5022FEF65
:1003B0003FEF981748F4E92FF0E0E357FD4F208115
:1003C00030E09F5F9093F602C90108958091F50295
:1003D0009091F602891B990B0895CF92DF92EF92CC
:1003E000FF920F931F93CF93DF937C01CB018A0180
:1003F00020912303222389F0EB016B01C40ED51E4B
:10040000CC15DD0569F06991D701ED91FC91019062
:10041000F081E02DC7011995F3CF642F0E949C0154
:10042000C801DF91CF911F910F91FF90EF90DF9066
:10043000CF900895CF93DF931F92CDB7DEB7698336
:10044000209123032223F9F020914603203258F013
:1004500021E030E0FC013383228390E080E00F90C4
:10046000DF91CF91089580912403E82FF0E0EB5DB8
:10047000FC4F998190838F5F809324038093460380
:1004800081E090E0ECCF61E0CE0101960E949C01FA
:10049000F7CF282F30E0F901EF58FD4F9491F90183
:1004A000E55DFD4F44912B513E4FF90124912223EC
:1004B00009F435C0992311F191509231F8F4E92FE4
:1004C000F0E08827E959FD4F8F4F0C9436109802C1
:1004D0009C027902900294027E029F02A502A90268
:1004E000AF02B302B702BD02C1027E02C502CB0257
:1004F000CF02809180008F7780938000E22FF0E020
:10050000EE0FFF1FE553FE4FA591B4918FB7F894FE
:10051000EC91611148C040954E234C938FBF0895D4
:10052000809180008F7DE8CF80918000877FE4CF2D
:1005300084B58F7784BDE2CF84B58F7DFBCF80916A
:10054000B0008F778093B000D9CF8091B0008F7DBD
:10055000F9CF809190008F7780939000CFCF8091DA
:1005600090008F7DF9CF80919000877FF5CF8091AB
:10057000A0008F778093A000C1CF8091A0008F7DD5
:10058000F9CF8091A000877FF5CF809120018F77F0
:1005900080932001B3CF809120018F7DF9CF80918E
:1005A0002001877FF5CF4E2BB8CF10921D0381E03D
:1005B00080931C031092F70261E084E10E944902DB
:1005C00061E085E10E944902E9EBF0E080818E7FE5
:1005D000808380818D7F808388E48093B80085E468
:1005E0008093BC000895CF93DF9391E09093AD0288
:1005F0008823B9F0C091B800D091BA008091BC00B6
:100600008A7B8093BC0060E084E10E94490260E044
:1006100085E10E9449020E94D502D093BA00C0939E
:10062000B800DF91CF910895CF93DF9390E0FC0164
:10063000E55DFD4F24918B519E4FFC0184918823F1
:10064000D1F090E0880F991FFC01EF54FE4FA59167
:10065000B491FC01E553FE4FC591D49161110EC0D8
:100660009FB7F8948C91E22FE0958E238C9328818C
:10067000E223E8839FBFDF91CF9108958FB7F8946D
:10068000EC91E22BEC938FBFF6CF8230910538F0DE
:10069000880F991F880F991F05970197F1F7089503
:1006A0009F92AF92BF92CF92DF92EF92FF920F9301
:1006B0001F93CF93DF93EC016B018885998511E03F
:1006C000892B09F010E8F601A0808A2D8123992456
:1006D00093948111912C2C813D814E815F8160E248
:1006E00071EA87E090E00E940810022FB12CE22E00
:1006F000F12C002319F0C7010E9445038A85877FEA
:1007000009F04FC08D858F3F89F09A2D912381E0AC
:1007100009F480E0891551F0EF85F8898F899923D4
:10072000D1F19081892B808399249394E989FA8966
:100730008081998D892B8083002319F0C7010E9445
:1007400045038E858F3F39F0EB89FC898081988D38
:10075000892309F0B12AE989FA899081898D8095E8
:10076000892380838E858F3F11F0F601B0828885C2
:100770009985892B09F044C0110F1111BACFDF916F
:10078000CF911F910F91FF90EF90DF90CF90BF908E
:10079000AF909F9008959081809589238083912CBC
:1007A000C5CFE989FA898081998D892B80830023BF
:1007B00019F0C7010E9445038D858F3F49F0EF85F1
:1007C000F8898F899A2D9123B9F09081892B8083A4
:1007D000E989FA899081898D8095892380838E8526
:1007E0008F3F09F4BFCFEB89FC898081988D8923E5
:1007F00009F4B8CFB12AB6CF908180958923E7CF8D
:100800001695BBCF6F927F928F929F92AF92BF92BD
:10081000CF92DF92EF92FF920F931F93CF93DF93CC
:100820001F92CDB7DEB77C01962E872E5A01390173
:10083000DC018D919C911197892B39F01296ED91E5
:10084000FC91908181819CBD8DBDF70183858F3F97
:1008500019F060E00E9449026301060D171D0C1596
:100860001D05A9F4092D182DA00EB11E0A151B0592
:1008700051F1D8018D918D018983F701808191819A
:10088000892BD1F0CE0101960E949001EFCFD601C5
:100890008D916D018983F70180819181892B29F0E8
:1008A000CE0101960E949001DACFBE016F5F7F4FAB
:1008B000C7010E945003D3CFBE016F5F7F4FC701B6
:1008C0000E945003D3CFD7011B968C918F3F19F014
:1008D00061E00E94490281E00F90DF91CF911F916A
:1008E0000F91FF90EF90DF90CF90BF90AF909F90CF
:1008F0008F907F906F9008953FB7F8948091890210
:1009000090918A02A0918B02B0918C0226B5A89B8F
:1009100005C02F3F19F00196A11DB11D3FBFBA2F91
:10092000A92F982F8827BC01CD01620F711D811D51
:10093000911D42E0660F771F881F991F4A95D1F7D6
:1009400008958F929F92AF92BF92CF92DF92EF92D3
:10095000FF920F931F93CF93DF93D0914603D13231
:1009600008F0D7C0182FC09145030E947C046B018A
:100970007C0180911D0381116BC082E080931D0377
:1009800010931C038FEF80931B0310921A03D093D4
:100990001903A5E2B3E0E9EFF2E080E0D81391C0DB
:1009A0001092F8028091F802CC0FC82BC093F80285
:1009B0008091F702813009F088C01092F7020E94FE
:1009C0007C046B017C018091F8028093BB008091D4
:1009D0001F0390912003A0912103B0912203892B42
:1009E0008A2B8B2BA1F00E947C0400911F03109195
:1009F000200320912103309122036C197D098E0977
:100A00009F09061717072807390708F442C0809185
:100A1000BC0083FDD8CF85EC8093BC000E947C0491
:100A20006B017C0180911D03823009F450C08091DC
:100A30001B038F3F09F46FC080911B03803209F4C0
:100A40006CC080911B03803309F469C084E026C028
:100A500080911F0390912003A0912103B091220364
:100A6000892B8A2B8B2B09F484CF0E947C048090E5
:100A70001F0390902003A0902103B09022036C19D3
:100A80007D098E099F0986169706A806B90608F003
:100A900070CF80911E030E94F30285E01092240320
:100AA0001092460310922303DF91CF911F910F9173
:100AB000FF90EF90DF90CF90BF90AF909F908F907E
:100AC00008959D9191938F5F69CF85EEA5CF809119
:100AD0001F0390912003A0912103B0912203892B41
:100AE0008A2B8B2B09F49ECF0E947C0400911F035C
:100AF0001091200320912103309122036C197D096C
:100B00008E099F09061717072807390708F08ACFAB
:100B1000C0CF81E0C3CF80E0C1CF82E0BFCF83E010
:100B2000BDCFCF92DF92EF92FF920F931F93CF939F
:100B3000DF931F921F92CDB7DEB7FC014787508B22
:100B4000618B728B8285882321F14487452F562F34
:100B5000672F77278823F9F043877F018BE0E80E22
:100B6000F11C9681878199838A83C080D180C114CA
:100B7000D10409F454C0018510E098012E5F3F4F65
:100B8000D60114968D919C918217930730F490E0D2
:100B90002AC04387DBCF4487E0CFF6018181928171
:100BA000208131E0309323032093450310922403E6
:100BB000109246030115110511F5D60111968D917C
:100BC0009C91DC01ED91FC910280F381E02D42E0EB
:100BD00050E0B70119950297D1F681E00E94A10477
:100BE00091E08111D4CF892F0F900F90DF91CF9199
:100BF0001F910F91FF90EF90DF90CF900895DC014F
:100C0000ED91FC910280F381E02DA801BE016F5FA0
:100C10007F4F19950817190709F0B9CFCECFA281D8
:100C2000B381109709F4B3CF24813581018510E099
:100C30002330310581F48E7F89839A830F5F1F4FA4
:100C40009E012F5F3F4F42E050E0B701CD010E946F
:100C50000204982FC8CF2115310519F49F77998385
:100C6000EFCF2230310511F49068F9CF21303105F2
:100C700039F79F779064F3CFCF93DF93EC018B81AB
:100C80008823A1F0888191E090932303809345030A
:100C9000109224031092460381E00E94A10491E087
:100CA000811190E0892FDF91CF9108951092F60283
:100CB0001092F50210922403109246030E94D5026E
:100CC0008AE991E09093F2028093F1028BE991E03E
:100CD0009093F4028093F30281E08B83CE010E9413
:100CE0003C06982F8111CECFDDCF8F929F92AF928D
:100CF000BF92CF92DF92EF92FF920E947C044B0151
:100D00005C0188EEC82E83E0D82EE12CF12C0E94E5
:100D10007C04681979098A099B09683E734081053A
:100D20009105A8F321E0C21AD108E108F10888EE84
:100D3000880E83E0981EA11CB11CC114D104E104EB
:100D4000F10429F7FF90EF90DF90CF90BF90AF9024
:100D50009F908F900895AF92BF92CF92DF92EF92C3
:100D6000FF920F931F93CF93DF936C017B018B0155
:100D7000040F151FEB015E01AE18BF08C017D107A5
:100D800059F06991D601ED91FC910190F081E02D2F
:100D9000C6011995892B79F7C501DF91CF911F9174
:100DA0000F91FF90EF90DF90CF90BF90AF9008959C
:100DB00090E080E00895FC01538D448D252F30E0B4
:100DC000842F90E0821B930B541710F0CF96089558
:100DD00001970895FC01918D828D981761F0A28D85
:100DE000AE0FBF2FB11D5D968C91928D9F5F9F734B
:100DF000928F90E008958FEF9FEF0895FC01918D01
:100E0000828D981731F0828DE80FF11D858D90E06D
:100E100008958FEF9FEF0895FC01918D228D892F0A
:100E200090E0805C9F4F821B91098F7399270895F2
:100E300083E593E00E940C0721E0892B09F420E070
:100E4000822F0895FC01A48DA80FB92FB11DA35ABC
:100E5000BF4F2C91848D90E001968F739927848FDA
:100E6000A689B7892C93A089B1898C9183708064FD
:100E70008C93938D848D981306C00288F389E02D9E
:100E800080818F7D80830895EF92FF920F931F934F
:100E9000CF93DF93EC0181E0888F9B8D8C8D98132D
:100EA0001AC0E889F989808185FF15C09FB7F89439
:100EB000EE89FF896083E889F98980818370806485
:100EC00080839FBF81E090E0DF91CF911F910F91D0
:100ED000FF90EF900895F62E0B8D10E00F5F1F4FDF
:100EE0000F731127E02E8C8D8E110CC00FB607FCEE
:100EF000FACFE889F989808185FFF5CFCE010E947C
:100F00002207F1CFEB8DEC0FFD2FF11DE35AFF4FC0
:100F1000F0829FB7F8940B8FEA89FB898081806209
:100F2000CFCFCF93DF93EC01888D8823B9F0AA89C6
:100F3000BB89E889F9898C9185FD03C0808186FD94
:100F40000DC00FB607FCF7CF8C9185FFF2CF8081E3
:100F500085FFEDCFCE010E942207E9CFDF91CF912F
:100F6000089580E090E0892B29F00E9418078111F4
:100F70000E94000080E090E0892B49F080E090E042
:100F8000892B29F00E94000081110E94000080E05E
:100F900090E0892B49F080E090E0892B29F00E94B5
:100FA000000081110E94000080E090E0892B49F050
:100FB00080E090E0892B29F00E94000081110C94C0
:100FC000000008958F929F92AF92BF92CF92DF92CE
:100FD000EF92FF920F931F93CF93DF93EC016A017F
:100FE0007B0120E030E04FE753E4CB01B6010E94E3
:100FF000A2104B015C0120E030E0A9010E949D108D
:1010000018168CF5C501B4010E943E108B01B98001
:1010100020E030E0A901C701B6010E949D1060E008
:1010200018160CF061E08B2D0E9449020F3F11054C
:1010300009F0ECF41127C88161E08C2F0E941403A1
:1010400001151105B9F460E08C2FDF91CF911F914C
:101050000F91FF90EF90DF90CF90BF90AF909F9057
:101060008F900C944902C501B4019058CDCF0FEF79
:1010700010E0E1CF0F3F110511F461E0E5CFEC2F57
:10108000F0E0EF58FD4FE491E150E23108F0BCC0D0
:10109000F0E08827E15BF74F8F4F0C943610610822
:1010A0007208770881088B08040995089D08A5082F
:1010B000AF08B908C308D208DC080409E608F0083C
:1010C000FA0884B5806884BD07BDDF91CF911F9178
:1010D0000F91FF90EF90DF90CF90BF90AF909F90D7
:1010E0008F90089584B5806284BD08BDEECF809155
:1010F00080008068809380001093890000938800AE
:10110000E4CF8091800080628093800010938B00F8
:1011100000938A00DACF80918000886080938000FD
:1011200010938D0000938C00D0CF8091B000806828
:101130008093B0000093B300C8CF8091B00080626C
:101140008093B0000093B400C0CF8091900080687D
:10115000809390001093990000939800B6CF8091EF
:10116000900080628093900010939B0000939A00FF
:10117000ACCF8091900088608093900010939D0088
:1011800000939C00A2CF8091A00080688093A00073
:101190008091A0008F7B8093A0001093A900009302
:1011A000A80093CF8091A00080628093A00010934C
:1011B000AB000093AA0089CF8091A0008860809343
:1011C000A0001093AD000093AC007FCF8091200170
:1011D000806880932001109329010093280175CF26
:1011E0008091200180628093200110932B01009355
:1011F0002A016BCF80912001886080932001109399
:101200002D0100932C0161CF003811050CF035CF72
:101210001ACF8EBD00000DB407FEFDCF8EB5089528
:10122000FC0101900020E9F73197AF01481B590BF1
:10123000BC0183E593E00C94AB06CF93DF9383E38B
:1012400092E00E941009EC0185E492E00E941009EE
:101250008C0F9D1FDF91CF91089585ED8093BC0089
:1012600080911F0390912003A0912103B09122034C
:101270000796A11DB11D23E0B695A7959795879573
:101280002A95D1F72091BC0024FD03C010921D03C4
:10129000089540911F0350912003609121037091A4
:1012A0002203452B462B472B69F30097A105B10577
:1012B00041F025E32A95F1F700000197A109B10952
:1012C000E1CF80911E030C94F3021F920F920FB690
:1012D0000F9211240BB60F922F933F934F935F936E
:1012E0006F937F938F939F93AF93BF93EF93FF93EE
:1012F0008091B900887F803609F44DC008F040C065
:10130000883209F4A9C028F5803109F49DC0C8F4D9
:10131000882309F4FBC0883009F496C0FF91EF914F
:10132000BF91AF919F918F917F916F915F914F91FD
:101330003F912F910F900BBE0F900FBE0F901F90FB
:101340001895883109F488C0803241F780931B03D7
:1013500014C0803409F49DC040F48033B9F388335D
:10136000E9F680931B0385ECB0C0803509F485C095
:10137000883509F496C0883489F60E942D09CECFAD
:10138000883909F48CC038F5883729F050F488364C
:1013900011F0803719F683E080931D031092F0025C
:1013A00057C0883809F47BC0803919F0803809F0BB
:1013B000B5CF8091F002803208F071C0E091F00268
:1013C00081E08E0F8093F0028091BB00F0E0E0534B
:1013D000FD4F80833DC0803B39F0E0F4803A09F452
:1013E00079C0883A09F09ACF84E080931D03109267
:1013F000CF021092CE02E091F102F091F202199523
:101400008091CE0281110FC081E08093CE021092B4
:10141000AE0209C0803C09F4A6CF883C09F4A3CFF2
:10142000883B09F07BCFE091CF0281E08E0F809363
:10143000CF02F0E0E255FD4F80818093BB00909198
:10144000CF028091CE0229C08091F8028093BB0028
:1014500085EC8093BC0062CF90911A0380911903B0
:10146000981758F5E0911A0381E08E0F80931A03C4
:10147000F0E0E750FD4F8081E9CFE0911A0381E071
:101480008E0F80931A038091BB00F0E0E750FD4F70
:10149000808390911A03809119039817C8F285E808
:1014A000D8CFE0911A0381E08E0F80931A038091C8
:1014B000BB00F0E0E750FD4F808380911C03811159
:1014C0005CCF81E08093F70284EA8093BC001092A5
:1014D0001D0324CF85EC8093BC0010921D038091E6
:1014E000F002803230F4E091F002F0E0E053FD4F82
:1014F00010826091F00270E0E091F302F091F4024A
:1015000080ED92E019951092F00208CF10921B0323
:1015100034CF1F920F920FB60F9211242F933F9347
:101520008F939F93AF93BF93809185029091860292
:10153000A0918702B09188023091840223E0230FAA
:101540002D3758F50196A11DB11D2093840280937B
:10155000850290938602A0938702B09388028091BF
:10156000890290918A02A0918B02B0918C0201961F
:10157000A11DB11D8093890290938A02A0938B02D2
:10158000B0938C02BF91AF919F918F913F912F911A
:101590000F900FBE0F901F90189526E8230F02960C
:1015A000A11DB11DD2CF1F920F920FB60F92112421
:1015B0000BB60F922F933F934F935F936F937F934D
:1015C0008F939F93AF93BF93EF93FF9380917F028D
:1015D00090918002A0918102B0918202892B8A2B86
:1015E0008B2BD1F190917E0280910000892780930E
:1015F000000080917F0290918002A0918102B091C1
:101600008202181619061A061B069CF480917F02A6
:1016100090918002A0918102B09182020197A1096C
:10162000B10980937F0290938002A0938102B093CE
:101630008202FF91EF91BF91AF919F918F917F9126
:101640006F915F914F913F912F910F900BBE0F9033
:101650000FBE0F901F90189580910002E0EBF1E013
:10166000E4919FEF90930002E230E9F040F4EE2322
:1016700089F0E13091F060E00E944902DACFE43075
:1016800049F110F1E530B9F7909173009D7F909387
:101690007300F1CF10926E00EECF90916F009D7F9E
:1016A00090936F00E8CF909170009D7F90937000B1
:1016B00091E09093B0009091B100987F94609093E6
:1016C000B1001092B300D7CF909171009D7F90939D
:1016D0007100D1CF909172009D7F90937200CBCF1B
:1016E0001F920F920FB60F9211240BB60F922F93E9
:1016F0003F934F935F936F937F938F939F93AF939A
:10170000BF93EF93FF9383E593E00E942207FF913D
:10171000EF91BF91AF919F918F917F916F915F9169
:101720004F913F912F910F900BBE0F900FBE0F90D6
:101730001F9018951F920F920FB60F9211240BB69F
:101740000F922F938F939F93EF93FF93E0916303F7
:10175000F09164038081E0916903F0916A0382FD56
:101760001DC0908180916C038F5F8F7320916D03FA
:10177000821741F0E0916C03F0E0ED5AFC4F958F39
:1017800080936C03FF91EF919F918F912F910F9018
:101790000BBE0F900FBE0F901F9018958081F2CF57
:1017A0001F920F920FB60F9211240BB60F922F9328
:1017B0003F934F935F936F937F938F939F93AF93D9
:1017C000BF93CF93DF93EF93FF9380917D02C091FE
:1017D0002C04D0E087FF23C0109285001092840073
:1017E00080917D028F5F80937D0280917D02082E23
:1017F000000C990B8C179D0724F480917D028C308E
:1018000074F1809184009091850084349C4908F49F
:1018100065C08091840090918500049661C080919C
:101820007D02082E000C990B8C179D07CCF6309189
:101830007D0225E03203F0011124E051FC4F80814C
:1018400086FFCECF30917D023203F0011124E051AA
:10185000FC4F808160E08F730E944902C1CF80916C
:1018600084009091850030917D0225E03203F001E3
:101870001124E051FC4F41815281840F951F9093B8
:1018800089008093880030917D023203F001112499
:10189000E051FC4F808186FF0CC030917D02320305
:1018A000F0011124E051FC4F808161E08F730E94B0
:1018B0004902FF91EF91DF91CF91BF91AF919F913D
:1018C0008F917F916F915F914F913F912F910F90E9
:1018D0000BBE0F900FBE0F901F90189580E49CE9EF
:1018E00090938900809388008FEF80937D02E1CFF1
:1018F0001F93CF93DF9310924A031092490388EE0F
:1019000093E0A0E0B0E080934B0390934C03A0934E
:101910004D03B0934E0323E132E03093480320930C
:1019200047031092560310925503809357039093E8
:101930005803A0935903B0935A0385E292E0909321
:1019400054038093530385EC90E09093600380935D
:101950005F0384EC90E0909362038093610380ECDA
:1019600090E0909364038093630381EC90E0909304
:1019700066038093650382EC90E090936803809304
:10198000670386EC90E090936A038093690310925A
:101990006C0310926D0310926E0310926F038EE22F
:1019A00090E00E945B11EC018CE0888384E28983E3
:1019B00015E01A8386E08B838EE18C838FE18D8323
:1019C00082E28E8383E28F8384E4888785E489873B
:1019D0001B861A8680E48D871A8A1B8A1C8A1D8AB8
:1019E0001E8A1F8A188E198E88E0E7E0F2E0DE0179
:1019F000929601900D928A95E1F780E090E0A0EA3E
:101A0000B0E48AA79BA7ACA7BDA7D0933C04C09322
:101A10003B0481E090E00E945B11E0912C04EC30EB
:101A200090F521E02E0F20932C04DC01EC931E9FF7
:101A3000F0011124E051FC4F28EB3BE0328321837D
:101A400090933A048093390426E430E030933604CE
:101A50002093350410923804109237049093340484
:101A60008093330410923204D0933104C093300435
:101A700081E080932F04D0932E04C0932D04DF9136
:101A8000CF911F9108952FEFFC012083D9CFCF93E1
:101A9000DF93CDB7DEB7A6970FB6F894DEBF0FBEC3
:101AA000CDBF789484B5826084BD84B5816084BDE7
:101AB00085B5826085BD85B5816085BD80916E00EC
:101AC000816080936E00109281008091810082601D
:101AD000809381008091810081608093810080915A
:101AE00080008160809380008091B1008460809349
:101AF000B1008091B00081608093B000809191002E
:101B00008260809391008091910081608093910028
:101B1000809190008160809390008091A10082600C
:101B20008093A1008091A10081608093A1008091A9
:101B3000A00081608093A000809121018260809349
:101B400021018091210181608093210180912001F8
:101B500081608093200180917A00846080937A0074
:101B600080917A00826080937A0080917A0081600F
:101B700080937A0080917A00806880937A00109236
:101B8000C100E0916303F091640382E08083E091FF
:101B90005F03F09160031082E0916103F0916203B2
:101BA00080E1808310926B03E0916703F0916803FA
:101BB00086E08083E0916503F09166038081806117
:101BC0008083E0916503F091660380818860808363
:101BD000E0916503F0916603808180688083E091E5
:101BE0006503F091660380818F7D808300913B04C3
:101BF00010913C0461E0D80111968C910E9414036D
:101C000060E0F80181810E94490260E0D8018C9176
:101C10000E941403F80182859385892BB9F486E02C
:101C200090E00E945B11FC01D8011D968C911D97DC
:101C3000808387E493E092838183138280E290E043
:101C4000958384831B96FC93EE931A97F801C284C4
:101C5000D3841092F6021092F5021092240310928F
:101C600046030E94D5028AE991E09093F2028093A4
:101C7000F1028BE991E09093F4028093F302FF2448
:101C8000F394D6011396FC92C6010E943C06882369
:101C900009F44FC080E090E1A0E0B0E0F801868751
:101CA0009787A08BB18B8AE090E0A0E0B0E0828BB8
:101CB000938BA48BB58B80E090E0A0E0B0E4868BA2
:101CC000978BA08FB18F828593851BA21CA21DA22A
:101CD0001EA29D8B8C8B1F8A1E8AFD8E85E090E054
:101CE0009B8F8A8FFE8E32E0E32EEC8E46855785E1
:101CF00060897189CE0144960E949105D8011A9697
:101D00008D919C91188A198A1A8A1B8A9A838983D1
:101D10001C821B82FA8618861F82FB86E9864FE9A1
:101D200059E360E070E0CE0101960E949105F80150
:101D300084877801F2E0EF0EF11C580184E0A80ED0
:101D4000B11CBAE14B2EB2E05B2E80E6682E82E039
:101D5000782E9BECC92E97E0D92E2BE8822E992461
:101D60009394D70112969C91F70181917F01D8013C
:101D70005A968C935A975B969C9361E00E94140349
:101D800061E0F801838D0E941403D70115969C91A0
:101D9000159713968C91F801868F978F61E00E94BA
:101DA000140360E0D8015F968C910E94140361E0F7
:101DB000F801868D0E9449023FB6F8948091830213
:101DC000811125C0F2018491F3019491E82FF0E094
:101DD000EE0FFF1FEF54FE4FA591B4918C91982305
:101DE00021F461E085E30E94490261E085E30E94FD
:101DF00014038CB580618CBD8CB580648CBD61E0B2
:101E000084E30E94140361E083E30E941403809141
:101E100083028F5F809383023FBEC6010197F1F773
:101E200060E0D8015E968C910E94490288E80E9489
:101E3000090983E00E94090961E0F801868D0E948A
:101E40004902C6010197F1F760E0D8015E968C91D6
:101E50000E94490288E90E94090980E00E9409095C
:101E600080E00E94090980E00E94090980E00E9448
:101E7000090961E0F801868D0E944902C4010197B9
:101E8000F1F760E0D8015E968C910E94490280EEE5
:101E90000E94090961E0F801868D0E9449020E5FE7
:101EA0001F4FA016B10609F05CCF009139041091C4
:101EB0003A04D8018C918C3008F049C061E088E088
:101EC0000E941403F801808195E0899FF00111249C
:101ED000E051FC4F9081907C9860908397EA9383C7
:101EE0009BE494832CE0622F0E942A10829FB00111
:101EF000112430E020E095E0AB01420F531F949F86
:101F0000F001959FF00D1124E051FC4F408146FDFA
:101F100013C02F5F3F4F2C30310571F781110CC07A
:101F20001092800082E080938100109285001092D0
:101F3000840086BB80936F00D801EC91B5E0EB9FE5
:101F4000F0011124E051FC4F80818064808388E49B
:101F500092E00E94100980912F048230A8F00E9424
:101F60001D090E94750680912F04823020F10E9485
:101F70001D090E94750680912F04823098F10E94FD
:101F80001D090E94B107E3CF4AE959E969E17FE3FE
:101F9000813021F04AE959E969E17FEB90E00D9643
:101FA000880F991F20912D0430912E04820F931FCA
:101FB0000E94E207D6CF4DEC5CEC6CEC7DEB8130FF
:101FC00021F04DEC5CEC6CEC7DE390E00D96880F1D
:101FD000991F20912D0430912E04820F931F0E948F
:101FE000E207C7CF40E050E060E070E8813019F0D0
:101FF00040E050E0BA0190E00D96880F991F2091C3
:102000002D0430912E04820F931F0E94E207B9CF56
:10201000A1E21A2EAA1BBB1BFD010DC0AA1FBB1FEC
:10202000EE1FFF1FA217B307E407F50720F0A21B5E
:10203000B30BE40BF50B661F771F881F991F1A94CB
:1020400069F760957095809590959B01AC01BD01F5
:10205000CF010895991B79E004C0991F961708F0E5
:10206000961B881F7A95C9F780950895EE0FFF1F7C
:10207000881F8BBF0790F691E02D19940E944510A0
:102080006894B1110C94971008950E947C1088F008
:102090009F5798F0B92F9927B751B0F0E1F0660F2C
:1020A000771F881F991F1AF0BA95C9F714C0B1306D
:1020B00091F00E949610B1E008950C949610672F4D
:1020C000782F8827B85F39F0B93FCCF3869577959C
:1020D0006795B395D9F73EF4909580957095619585
:1020E0007F4F8F4F9F4F089557FD9058440F551FB6
:1020F00059F05F3F71F04795880F97FB991F61F08A
:102100009F3F79F087950895121613061406551F00
:10211000F2CF4695F1DF08C0161617061806991F6C
:10212000F1CF86957105610508940895E894BB2761
:1021300066277727CB0197F908950E940F1108F4BD
:102140008FEF08950E94B5100C944A110E943C1123
:1021500038F00E94431120F0952311F00C943311B4
:102160000C94391111240C9497100E94741070F380
:10217000959FC1F3950F50E0551F629FF001729F2C
:10218000BB27F00DB11D639FAA27F00DB11DAA1F3B
:10219000649F6627B00DA11D661F829F2227B00D88
:1021A000A11D621F739FB00DA11D621F839FA00D13
:1021B000611D221F749F3327A00D611D231F849F63
:1021C000600D211D822F762F6A2F11249F575040BA
:1021D0009AF0F1F088234AF0EE0FFF1FBB1F661F35
:1021E000771F881F91505040A9F79E3F510580F0FE
:1021F0000C9433110C9497105F3FE4F3983ED4F3A2
:10220000869577956795B795F795E7959F5FC1F7A1
:10221000FE2B880F911D9695879597F90895990F34
:102220000008550FAA0BE0E8FEEF16161706E807A0
:10223000F907C0F012161306E407F50798F0621BC1
:10224000730B840B950B39F40A2661F0232B242B96
:10225000252B21F408950A2609F4A140A6958FEFB5
:10226000811D811D089597F99F6780E870E060E007
:1022700008959FEF80EC089500240A94161617061F
:1022800018060906089500240A9412161306140667
:1022900005060895092E0394000C11F4882352F0CA
:1022A000BB0F40F4BF2B11F460FF04C06F5F7F4F82
:1022B0008F4F9F4F08950F931F93CF93DF938230DB
:1022C000910510F482E090E0E0913F04F091400429
:1022D00030E020E0B0E0A0E0309799F4211531051E
:1022E00009F44AC0281B390B24303105D8F58A81FE
:1022F0009B816115710589F1FB0193838283FE0146
:1023000011C0408151810281138148175907E0F0C3
:102310004817590799F4109761F012960C93129789
:1023200013961C933296CF01DF91CF911F910F919D
:10233000089500933F0410934004F4CF2115310514
:1023400051F04217530738F0A901DB019A01BD0192
:10235000DF01F801C1CFEF01F9CF909340048093E2
:102360003F04CDCFFE01E20FF31F819391932250E2
:10237000310939832883D7CF20913D0430913E0421
:10238000232B41F4209103023091040230933E0448
:1023900020933D0420910102309102022115310564
:1023A00041F42DB73EB74091050250910602241B1F
:1023B000350BE0913D04F0913E04E217F307A0F4E1
:1023C0002E1B3F0B2817390778F0AC014E5F5F4F8B
:1023D0002417350748F04E0F5F1F50933E0440937B
:1023E0003D04819391939FCFF0E0E0E09CCFCF93A9
:1023F000DF930097E9F0FC01329713821282A091DB
:102400003F04B0914004ED0130E020E01097A1F4CA
:1024100020813181820F931F20913D0430913E0431
:102420002817390709F061C0F0933E04E0933D049A
:10243000DF91CF910895EA01CE17DF07E8F54A81D1
:102440005B819E0141155105B1F7E901FB83EA83E8
:1024500049915991C40FD51FEC17FD0761F4808194
:1024600091810296840F951FE90199838883828167
:1024700093819B838A83F0E0E0E012968D919C919A
:1024800013970097B9F52D913C911197CD010296C4
:10249000820F931F20913D0430913E042817390785
:1024A00039F6309751F51092400410923F04B093E2
:1024B0003E04A0933D04BCCFD383C28340815181AD
:1024C000840F951FC817D90761F44E5F5F4F88814D
:1024D0009981480F591F518340838A819B8193833F
:1024E00082832115310509F0B0CFF0934004E093C9
:1024F0003F049ECFFD01DC01C0CF13821282D7CFF3
:04250000F894FFCF7D
:10250400FF0000410480003000310032003300003D
:102514000000001A02ED01D806C301E601D301C48C
:1025240001000000004407AB06DB0691070C07EA34
:1025340006FE06496E76616C6964206D6F746F7275
:1025440020696421000D0A000A202D2D2D2D205410
:1025540045535420454C45564154494F4E2D2D2D3D
:042564002D2D0A000F
:00000001FF
