:100000000C94AC010C94DD010C94DD010C94DD0129
:100010000C94DD010C94DD010C94DD010C94DD01E8
:100020000C94DD010C94DD010C94DD010C94DD01D8
:100030000C94DD010C9403100C94DD010C94DD0193
:100040000C94DD010C9400110C94DD010C94DD0185
:100050000C94DD010C94DD010C94DD010C94B90FBE
:100060000C94DD010C94CA100C94A0100C94DD01CA
:100070000C94DD010C94DD010C94DD010C94DD0188
:100080000C94DD010C94DD010C94DD010C94DD0178
:100090000C94DD010C94DD010C94DD010C94950EA3
:1000A0000C94DD010C94DD010C94DD010C94DD0158
:1000B0000C94DD010C94DD010C94DD010C94DD0148
:1000C0000C94DD010C94DD010C94DD010C94DD0138
:1000D0000C94DD010C94DD010C94DD010C94DD0128
:1000E0000C94DD01036EDB363D9A9999993DABAADC
:1000F000AA2A3E000000803F072C7AA5BA6CC59062
:10010000DA3B9365FC8BBC53F810FD3C5692834D53
:10011000BD879D3AB63DCBC9BF5BBE73DA0FC93F01
:1001200005A84CCDB2D44EB93836A9020C50B991BD
:100130008688083CA6AAAA2ABE000000803F0C942C
:10014000F00C0C94E2110C942F0D0C94DE020C9424
:10015000D4160C941C030C943C070C94FD020C94D4
:100160000C170C94F2070C9422030C9430030C949B
:1001700001030C9452160C942B0C0C9414030C9445
:10018000E40B0C9429020C940E030C9418030C94A9
:100190005F070C94120C0C94FE0B0C94770C0C94CF
:1001A00038020C943F0C0C94C10B0C9400020C947C
:1001B0007D160C94EC0B0C94080C0C9428020C94F7
:1001C00052020C9404030C940C070C9439070C9401
:1001D0003C170C94DA0B0C94810C0C94350C0C9499
:1001E000F5020C9434030C946D070C94580C0C9489
:1001F000B7170C94A5070C940A030C942A030C94CB
:10020000C60B0C941D170C94FF010C9453170C94FF
:10021000490C0C949B0C0C947F0D0C9426030C94AD
:10022000F10D0C94AE0B0C944B020C94D60C0C9468
:10023000D00B0C94E3020C947F020C94530C0C949E
:10024000210C0C94F9020C944B070C94F40B020053
:10025000002100240027002A002D00300033000177
:10026000010000040107010A010000220025002806
:10027000002B002E003100340002010000050108AF
:10028000010B01050505050705080808080202021B
:10029000020A0A0808040404040101010101010121
:1002A000010303030303030303040707070C0C0CF8
:1002B0000C0C0C0C0C0202020206060606060606D0
:1002C000060B0B0B0B0B0B0B0B010210202008086D
:1002D00010204010204080020102010804020101A8
:1002E0000204081020408080402010080402018091
:1002F00004020180402010080402010804020101E8
:1003000002040810204080010204081020408000F0
:10031000000A0B02090C0D0E08070304010000007F
:1003200000000000000000000000000000000000CD
:10033000000000000000000000000012111000008A
:1003400000000000000000000000000000000000AD
:10035000000000000000E21111241FBECFEFD1E227
:10036000DEBFCDBF00E00CBF13E0A0E0B2E0E2ECE6
:10037000FAE300E00BBF02C007900D92AE33B10765
:10038000D9F725E0AEE3B3E001C01D92A932B20770
:10039000E1F711E0CCEAD1E000E006C021970109C5
:1003A000802FFE010E94D218CB3AD10780E00807C7
:1003B000A9F70E94FC120C945F1D0C940000809120
:1003C0007B00877F80937B0085E480937C00809115
:1003D0007A00806480937A0080917A0086FDFCCF59
:1003E00080917800909179000895FC0120812EBDC4
:1003F0000DB407FEFDCF2EB5FC01208308950895AE
:1004000008952091B403260F3327331F213231057D
:10041000ECF420910304FC0190E080E0243069F0CA
:1004200082E00895A091B4032191AC014C565C4F39
:10043000A40FB52FB11D2C930196861798F38091C8
:10044000B403680F6093B40380E0089581E00895D9
:100450000895E091DC038091DB03E81730F4F0E0CD
:10046000ED58FC4F808190E008958FEF9FEF089545
:100470009091DC038091DB032FEF3FEF981748F456
:10048000E92FF0E0ED58FC4F208130E09F5F909322
:10049000DC03C90108958091DB039091DC03891B83
:1004A000990B0895CF92DF92EF92FF920F931F93D3
:1004B000CF93DF937C01CB018A0120910904222391
:1004C00089F0EB016B01C40ED51ECC15DD0569F07A
:1004D0006991D701ED91FC910190F081E02DC70168
:1004E0001995F3CF642F0E940102C801DF91CF91CB
:1004F0001F910F91FF90EF90DF90CF900895CF93D1
:10050000DF931F92CDB7DEB76983209109042223C0
:10051000F9F020912C04203258F021E030E0FC0169
:100520003383228390E080E00F90DF91CF91089594
:1005300080910A04E82FF0E0E55FFB4F99819083FA
:100540008F5F80930A0480932C0481E090E0ECCFCD
:1005500061E0CE0101960E940102F7CF282F30E022
:10056000F901E15FFC4F9491F901E753FD4F44918C
:100570002D573D4FF9012491222309F435C09923C9
:1005800011F191509231F8F4E92FF0E08827E4530B
:10059000FD4F8F4F0C94D218FD020103DE02F502CD
:1005A000F902E30204030A030E03140318031C03F5
:1005B00022032603E3022A033003340380918000E0
:1005C0008F7780938000E22FF0E0EE0FFF1FE75956
:1005D000FD4FA591B4918FB7F894EC91611148C08B
:1005E00040954E234C938FBF0895809180008F7D5E
:1005F000E8CF80918000877FE4CF84B58F7784BD7A
:10060000E2CF84B58F7DFBCF8091B0008F77809350
:10061000B000D9CF8091B0008F7DF9CF809190004C
:100620008F7780939000CFCF809190008F7DF9CF0E
:1006300080919000877FF5CF8091A0008F77809385
:10064000A000C1CF8091A0008F7DF9CF8091A00044
:10065000877FF5CF809120018F7780932001B3CFE2
:10066000809120018F7DF9CF80912001877FF5CF88
:100670004E2BB8CF1092030481E0809302041092B5
:10068000DD0361E084E10E94AE0261E085E10E9449
:10069000AE02E9EBF0E080818E7F808380818D7FE8
:1006A000808388E48093B80085E48093BC0008953B
:1006B000CF93DF9391E0909393038823B9F0C09197
:1006C000B800D091BA008091BC008A7B8093BC00B6
:1006D00060E084E10E94AE0260E085E10E94AE022B
:1006E0000E943A03D093BA00C093B800DF91CF9133
:1006F0000895CF93DF9390E0FC01E753FD4F2491E1
:100700008D579D4FFC0184918823D1F090E0880F94
:10071000991FFC01E15BFD4FA591B491FC01E759E4
:10072000FD4FC591D49161110EC09FB7F8948C9183
:10073000E22FE0958E238C932881E223E8839FBFEC
:10074000DF91CF9108958FB7F894EC91E22BEC9361
:100750008FBFF6CF8230910538F0880F991F880F30
:10076000991F05970197F1F708959F92AF92BF9255
:10077000CF92DF92EF92FF920F931F93CF93DF936D
:10078000EC016B018885998511E0892B09F010E84F
:10079000F601A0808A2D8123992493948111912CB4
:1007A0002C813D814E815F8160E271EA87E090E0BB
:1007B0000E949518022FB12CE22EF12C002319F083
:1007C000C7010E94AA038A85877F09F04FC08D85E3
:1007D0008F3F89F09A2D912381E009F480E08915FB
:1007E00051F0EF85F8898F899923D1F19081892B78
:1007F000808399249394E989FA898081998D892B42
:100800008083002319F0C7010E94AA038E858F3FC1
:1008100039F0EB89FC898081988D892309F0B12A10
:10082000E989FA899081898D8095892380838E85D5
:100830008F3F11F0F601B08288859985892B09F0E8
:1008400044C0110F1111BACFDF91CF911F910F91B9
:10085000FF90EF90DF90CF90BF90AF909F90089562
:100860009081809589238083912CC5CFE989FA896D
:100870008081998D892B8083002319F0C7010E9404
:10088000AA038D858F3F49F0EF85F8898F899A2DCE
:100890009123B9F09081892B8083E989FA8990812D
:1008A000898D8095892380838E858F3F09F4BFCF02
:1008B000EB89FC898081988D892309F4B8CFB12A0E
:1008C000B6CF908180958923E7CF1695BBCF6F92E5
:1008D0007F928F929F92AF92BF92CF92DF92EF92D0
:1008E000FF920F931F93CF93DF931F92CDB7DEB785
:1008F0007C01962E872E5A013901DC018D919C9145
:100900001197892B39F01296ED91FC91908181819C
:100910009CBD8DBDF70183858F3F19F060E00E947B
:10092000AE026301060D171D0C151D05A9F4092D56
:10093000182DA00EB11E0A151B0551F1D8018D917D
:100940008D018983F70180819181892BD1F0CE01BE
:1009500001960E94F501EFCFD6018D916D0189833B
:10096000F70180819181892B29F0CE0101960E94A7
:10097000F501DACFBE016F5F7F4FC7010E94B5035B
:10098000D3CFBE016F5F7F4FC7010E94B503D3CFA6
:10099000D7011B968C918F3F19F061E00E94AE0247
:1009A00081E00F90DF91CF911F910F91FF90EF9019
:1009B000DF90CF90BF90AF909F908F907F906F907F
:1009C00008953FB7F89480916F0390917003A091C0
:1009D0007103B091720326B5A89B05C02F3F19F093
:1009E0000196A11DB11D3FBFBA2FA92F982F8827AF
:1009F000BC01CD01620F711D811D911D42E0660F8A
:100A0000771F881F991F4A95D1F708958F929F925B
:100A1000AF92BF92CF92DF92EF92FF920F931F930C
:100A2000CF93DF93D0912C04D13208F0D7C0182F88
:100A3000C0912B040E94E1046B017C0180910304AE
:100A400081116BC082E080930304109302048FEF46
:100A50008093010410920004D093FF03ABE0B4E054
:100A6000EFEDF3E080E0D81391C01092DE038091A7
:100A7000DE03CC0FC82BC093DE038091DD038130F1
:100A800009F088C01092DD030E94E1046B017C0133
:100A90008091DE038093BB00809105049091060451
:100AA000A0910704B0910804892B8A2B8B2BA1F00D
:100AB0000E94E104009105041091060420910704AE
:100AC000309108046C197D098E099F0906171707D4
:100AD0002807390708F442C08091BC0083FDD8CFB5
:100AE00085EC8093BC000E94E1046B017C01809145
:100AF0000304823009F450C0809101048F3F09F44F
:100B00006FC080910104803209F46CC080910104AF
:100B1000803309F469C084E026C080910504909177
:100B20000604A0910704B0910804892B8A2B8B2B13
:100B300009F484CF0E94E10480900504909006049B
:100B4000A0900704B09008046C197D098E099F09D4
:100B500086169706A806B90608F070CF809104049F
:100B60000E94580385E010920A0410922C041092FF
:100B70000904DF91CF911F910F91FF90EF90DF90CB
:100B8000CF90BF90AF909F908F9008959D9191933B
:100B90008F5F69CF85EEA5CF809105049091060403
:100BA000A0910704B0910804892B8A2B8B2B09F4A0
:100BB0009ECF0E94E104009105041091060420914B
:100BC0000704309108046C197D098E099F090617E6
:100BD00017072807390708F08ACFC0CF81E0C3CFB5
:100BE00080E0C1CF82E0BFCF83E0BDCFCF92DF9264
:100BF000EF92FF920F931F93CF93DF931F921F9259
:100C0000CDB7DEB7FC014787508B618B728B828535
:100C1000882321F14487452F562F672F7727882374
:100C2000F9F043877F018BE0E80EF11C9681878104
:100C300099838A83C080D180C114D10409F454C03F
:100C4000018510E098012E5F3F4FD60114968D91DB
:100C50009C918217930730F490E02AC04387DBCF42
:100C60004487E0CFF60181819281208131E0309389
:100C7000090420932B0410920A0410922C040115ED
:100C8000110511F5D60111968D919C91DC01ED9124
:100C9000FC910280F381E02D42E050E0B70119950C
:100CA0000297D1F681E00E94060591E08111D4CF30
:100CB000892F0F900F90DF91CF911F910F91FF908F
:100CC000EF90DF90CF900895DC01ED91FC910280D0
:100CD000F381E02DA801BE016F5F7F4F19950817C2
:100CE000190709F0B9CFCECFA281B381109709F4CB
:100CF000B3CF24813581018510E02330310581F4A3
:100D00008E7F89839A830F5F1F4F9E012F5F3F4F16
:100D100042E050E0B701CD010E946704982FC8CF90
:100D20002115310519F49F779983EFCF22303105D2
:100D300011F49068F9CF2130310539F79F7790642D
:100D4000F3CFCF93DF93EC018B818823A1F08881CF
:100D500091E09093090480932B0410920A0410925E
:100D60002C0481E00E94060591E0811190E0892F1A
:100D7000DF91CF9108951092DC031092DB03109263
:100D80000A0410922C040E943A038FEF91E0909392
:100D9000D8038093D70380E092E09093DA038093A6
:100DA000D90381E08B83CE010E94A106982F811187
:100DB000CECFDDCF8F929F92AF92BF92CF92DF9234
:100DC000EF92FF924B015C010E94E1046B017C01F8
:100DD0000E94E1046C197D098E099F09683E7340E9
:100DE00081059105A8F321E0821A9108A108B108B4
:100DF00088EEC80E83E0D81EE11CF11C811491041A
:100E0000A104B10429F7FF90EF90DF90CF90BF903D
:100E1000AF909F908F900895AF92BF92CF92DF9244
:100E2000EF92FF920F931F93CF93DF936C017B019F
:100E30008B01040F151FEB015E01AE18BF08C01730
:100E4000D10759F06991D601ED91FC910190F081A3
:100E5000E02DC6011995892B79F7C501DF91CF9156
:100E60001F910F91FF90EF90DF90CF90BF90AF90C8
:100E7000089590E080E00895FC01538D448D252F66
:100E800030E0842F90E0821B930B541710F0CF9624
:100E9000089501970895FC01918D828D981761F056
:100EA000A28DAE0FBF2FB11D5D968C91928D9F5F6D
:100EB0009F73928F90E008958FEF9FEF0895FC014C
:100EC000918D828D981731F0828DE80FF11D858DFF
:100ED00090E008958FEF9FEF0895FC01918D228D92
:100EE000892F90E0805C9F4F821B91098F73992717
:100EF000089589E394E00E946D0721E0892B09F4AD
:100F000020E0822F0895FC01A48DA80FB92FB11DF8
:100F1000A35ABF4F2C91848D90E001968F7399272F
:100F2000848FA689B7892C93A089B1898C9183700D
:100F300080648C93938D848D981306C00288F38906
:100F4000E02D80818F7D80830895EF92FF920F9333
:100F50001F93CF93DF93EC0181E0888F9B8D8C8D65
:100F600098131AC0E889F989808185FF15C09FB759
:100F7000F894EE89FF896083E889F989808183701C
:100F8000806480839FBF81E090E0DF91CF911F91CB
:100F90000F91FF90EF900895F62E0B8D10E00F5FEC
:100FA0001F4F0F731127E02E8C8D8E110CC00FB6C2
:100FB00007FCFACFE889F989808185FFF5CFCE015A
:100FC0000E948307F1CFEB8DEC0FFD2FF11DE35A4B
:100FD000FF4FF0829FB7F8940B8FEA89FB898081DD
:100FE0008062CFCFCF93DF93EC01888D8823B9F057
:100FF000AA89BB89E889F9898C9185FD03C0808124
:1010000086FD0DC00FB607FCF7CF8C9185FFF2CFA0
:10101000808185FFEDCFCE010E948307E9CFDF916C
:10102000CF91089580E090E0892B29F00E94790704
:1010300081110E94000080E090E0892B49F080E05F
:1010400090E0892B29F00E94000081110E9400008D
:1010500080E090E0892B49F080E090E0892B29F036
:101060000E94000081110E94000080E090E0892B26
:1010700049F080E090E0892B29F00E940000811166
:101080000C94000008954F925F926F927F928F921E
:101090009F92AF92BF92CF92DF92EF92FF920F9307
:1010A0001F93CF93DF93EC012FB7F89480916B03DC
:1010B00090916C03A0916D03B0916E032FBF4CA172
:1010C0005DA16EA17FA184179507A607B70708F455
:1010D00043C08E89882309F43FC08FB7F8944091AC
:1010E0006B0350916C0360916D0370916E038FBF21
:1010F0008C8D9D8DAE8DBF8D840F951FA61FB71F44
:101100008CA39DA3AEA3BFA3CA88DB88EC88FD880F
:10111000EC85FD8519959B01AC01C701B6010E94C4
:10112000DA186B017C019F772CA53DA54EA55FA524
:101130000E94621987FF21C081E08F8B1E8AE88997
:10114000F989309709F019958CA19DA1AEA1BFA195
:1011500088A799A7AAA7BBA7DF91CF911F910F914D
:10116000FF90EF90DF90CF90BF90AF909F908F90C7
:101170007F906F905F904F9008950E851F852FB7D9
:10118000F89480916B0390916C03A0916D03B091E2
:101190006E032FBF48A559A56AA57BA5841B950B97
:1011A000A60BB70B88A399A3AAA3BBA32CA93DA9FF
:1011B0004EA95FA9C701B6010E94DB186CAB7DABDD
:1011C0008EAB9FAB88A899A8AAA8BBA8A50194013B
:1011D0000E94601B181624F48CAA9DAAAEAABFAA6E
:1011E000B7FAB094B7F8B094A50194016CA97DA9A1
:1011F0008EA99FA90E94621987FF04C08CAA9DAA8C
:10120000AEAABFAA888C998CAA8CBB8C2CA93DA9AC
:101210004EA95FA96C817D818E819F810E94651B93
:10122000A50194010E94651B2B013C012881398195
:101230004A815B81C701B6010E94651B9B01AC011D
:10124000C301B2010E94DB182B013C0128AD39AD6E
:101250004AAD5BADC701B6010E94DA182885398511
:101260004A855B850E94651BA50194010E946C194B
:101270009B01AC01C301B2010E94DB18C8AED9AE1C
:10128000EAAEFBAEF80119955FCFFC018485958528
:10129000892B31F186859785892B11F181E0868B29
:1012A0008FB7F89440916B0350916C0360916D037C
:1012B00070916E038FBF848D958DA68DB78D840F31
:1012C000951FA61FB71F84A395A3A6A3B7A3178A2C
:1012D00014AA15AA16AA17AA10AE11AE12AE13AE12
:1012E0000895CF92DF92EF92FF92CF93DF93DC01CC
:1012F000EC91EC3008F04EC0CE2FD0E0B5E0EB9F83
:10130000F0011124EA52FB4F838158E8C52ED12CFD
:10131000C81AD10887FDD394CC0CDD1CCC0CDD1C85
:10132000683C71050CF03DC00D2C000CEE08FF0868
:10133000848128E532E0281B310987FD3395220F8F
:10134000331F220F331F032E000C440B550B2C1997
:101350003D094E095F09DB010E948D1824EB30E046
:1013600040E050E00E946318C20ED31EE41EF51E3A
:101370008FB7F89495E09C9FF0019D9FF00D11248C
:10138000EA52FB4F96E0C91AD108CC0CDD1CD28280
:10139000C1828FBFDF91CF91FF90EF90DF90CF9010
:1013A00008956C157D0524F3848128E5C22E22E082
:1013B000D22EC81AD10887FDD394CC0CDD1CCC0CDE
:1013C000DD1C6C157D05A4F66B01D2CF8EBD00002F
:1013D0000DB407FEFDCF8EB50895CF93DF93EC01DA
:1013E00060E088810E94AE0288E90E94E60980E000
:1013F0000E94E60980E00E94E60980E00E94E6097A
:1014000080E00E94E60961E088810E94AE028BE8DC
:1014100091E00197F1F760E088810E94AE0280EED2
:101420000E94E60961E08881DF91CF910C94AE02C1
:10143000AF92BF92CF92DF92EF92FF920F931F93E2
:10144000CF93DF93CDB7DEB760970FB6F894DEBFCA
:101450000FBECDBF6C0160E0FC0180810E94AE0236
:1014600080E60E94E6099E012F5F3F4F79015E01F1
:1014700031E1A30EB11C870180E00E94E60990E0F3
:10148000B0E0A0E0F80181939193A193B1938F0113
:10149000EA15FB0589F761E0F60180810E94AE0242
:1014A00080E090E0DC01F7014191519161917191EF
:1014B0007F01BA2FA92F982F8827840F951FA61F69
:1014C000B71FE017F10779F79C01AD016627772771
:1014D000CB01621B730B840B950B60960FB6F894CF
:1014E000DEBF0FBECDBFDF91CF911F910F91FF9057
:1014F000EF90DF90CF90BF90AF900895FC010190E6
:101500000020E9F73197AF01481B590BBC0189E373
:1015100094E00C940C078F929F92AF92BF920F931E
:101520001F93CF93DF93CDB7DEB7A1970FB6F89493
:10153000DEBF0FBECDBF19A2423008F44AE08E01D3
:101540000F5D1F4F842E912CB12CA12CA50194016D
:101550000E949518E62FB901CA01EA30F4F4E05D63
:10156000D801EE938D01232B242B252B79F790E0C6
:1015700080E0109719F0CD010E947E0AA1960FB667
:10158000F894DEBF0FBECDBFDF91CF911F910F91B9
:10159000BF90AF909F908F900895E95CE1CFCF937B
:1015A000DF930E947E0AEC0183E392E00E947E0AB0
:1015B0008C0F9D1FDF91CF9108954F925F926F9294
:1015C0007F92AF92BF92CF92DF92EF92FF920F93F2
:1015D0001F93CF93DF935C016A017B0120E030E031
:1015E00040E85FE3CB01B6010E94601B181604F1CE
:1015F00020E030E040E85FEBC701B6010E946219CD
:1016000087FD1DC0F5010281023000F186E392E002
:10161000DF91CF911F910F91FF90EF90DF90CF90CE
:10162000BF90AF907F906F905F904F900C94CF0AD7
:10163000C12CD12C30E8E32E3FE3F32EE3CFC12CB5
:10164000D12C20E8E22E2FEBF22EDCCF013021F45A
:10165000F7FAF094F7F8F09410E020E030E04FE76C
:1016600053E4C701B6010E94651B2B013C0120E039
:1016700030E0A9010E94601B18160CF041C0C301A4
:10168000B2010E94DE19EB01F501A080B180F801E2
:10169000EE0FFF1FEA0DFB1D738C20E030E0A90167
:1016A000C701B6010E94601B60E018160CF061E0F3
:1016B000872D0E94AE02CF3FD10509F02CF5DD2722
:1016C000035F1F4F000F111F0A0D1B1DF801108132
:1016D00061E0812F0E9479032097C9F460E0812F97
:1016E000DF91CF911F910F91FF90EF90DF90CF90FE
:1016F000BF90AF907F906F905F904F900C94AE0230
:10170000C301B2019058BDCFCFEFD0E0D9CFCF3FCA
:10171000D10511F461E0E3CFE12FF0E0E15FFC4F90
:10172000E491E150E23108F0BEC0F0E08827E456D1
:10173000F44F8F4F0C94D218AE0BC10BC60BD00BCD
:10174000DA0B530CE40BEC0BF40BFE0B080C120C35
:10175000210C2B0C530C350C3F0C490C84B58068C4
:1017600084BDC7BDDF91CF911F910F91FF90EF9086
:10177000DF90CF90BF90AF907F906F905F904F9031
:10178000089584B5806284BDC8BDECCF809180008F
:10179000806880938000D0938900C0938800E2CF56
:1017A00080918000806280938000D0938B00C093F2
:1017B0008A00D8CF80918000886080938000D09389
:1017C0008D00C0938C00CECF8091B0008068809354
:1017D000B000C093B300C6CF8091B0008062809308
:1017E000B000C093B400BECF809190008068809319
:1017F0009000D0939900C0939800B4CF809190004E
:10180000806280939000D0939B00C0939A00AACFEF
:1018100080919000886080939000D0939D00C09349
:101820009C00A0CF8091A00080688093A000809150
:10183000A0008F7B8093A000D093A900C093A80044
:1018400091CF8091A00080628093A000D093AB00E4
:10185000C093AA0087CF8091A00088608093A000E9
:10186000D093AD00C093AC007DCF80912001806803
:1018700080932001D0932901C093280173CF8091D8
:101880002001806280932001D0932B01C0932A0114
:1018900069CF80912001886080932001D0932D0131
:1018A000C0932C015FCFC038D1050CF033CF16CFD9
:1018B000CF92DF92EF92FF926B017C012DEC3CEC1A
:1018C0004CEC5DEB0E946219B701A601705887FFCE
:1018D00004C04DEC5CEC6CEC7DE3809115059091BF
:1018E0001605FF90EF90DF90CF900C94DD0A4DEC41
:1018F0005CEC6CEC7DEB80911505909116050C94D9
:10190000DD0A6093570370935803809359039093B3
:101910005A0320915B0330915C0340915D03509129
:101920005E030E94DB18AB01BC018091170590910A
:1019300018050C94DD0A1092570310925803109268
:10194000590310925A0320E030E0A90160915B0333
:1019500070915C0380915D0390915E030E94DB189F
:10196000AB01BC0180911705909118050E94DD0A1A
:1019700080911F0590912005FC01168A1092660344
:1019800020916803309169032530310541F426E048
:1019900030E030936903209368030C9445092630A6
:1019A000310519F425E030E0F4CF089560935B032E
:1019B00070935C0380935D0390935E0320915703C3
:1019C000309158034091590350915A030E94DB18FB
:1019D000AB01BC0180911705909118050C94DD0AAC
:1019E00010925B0310925C0310925D0310925E03F1
:1019F00020E030E0A9016091570370915803809175
:101A0000590390915A030E94DB18AB01BC018091ED
:101A10001705909118050E94DD0A10926703E09166
:101A20001B05F0911C05168A0895623040F088E489
:101A300092E00E94CF0A60E070E0CB01089561114E
:101A40000BC04E960E94180A9095809570956195EE
:101A50007F4F8F4F9F4F089580960C94180AE09106
:101A60001705F09118056281808191810E94150D02
:101A7000072E000C880B990B0E94161A2DEA3BEBDF
:101A80004EE15EE30E94651B08950C947E0A85ED8D
:101A90008093BC008091050490910604A0910704F6
:101AA000B09108040796A11DB11D23E0B695A79536
:101AB000979587952A95D1F72091BC0024FD03C006
:101AC000109203040895409105045091060460911A
:101AD000070470910804452B462B472B69F30097A8
:101AE000A105B10541F025E32A95F1F70000019722
:101AF000A109B109E1CF809104040C9458038F929D
:101B00009F92AF92BF92CF92DF92EF92FF92E091BD
:101B10001505F09116056281808191810E94150D55
:101B2000072E000C880B990B0E94161A2DEF3DEA28
:101B300040E85AE30E94651B9B01AC016BED7FE01E
:101B400089E490E40E94DA186B017C010E94671915
:101B500024E833E745E357E40E94651B9B01AC0191
:101B600064E873E785E397E40E94DA180E94E01BBB
:101B70004B015C01C701B6010E94D21B26E636E686
:101B800048E153E40E94651BA50194010E946C1971
:101B90000E9447190E94D21B26E636E648E153EC24
:101BA0000E94651B6B017C0120E030E040EA52E4BA
:101BB0000E94601B181654F44DEC5CEC6CEC7DE359
:101BC00080911505909116050E94DD0AC701B601A6
:101BD000FF90EF90DF90CF90BF90AF909F908F904D
:101BE00008954F925F926F927F928F929F92AF92E1
:101BF000BF92CF92DF92EF92FF92E0911505F091A4
:101C000016056281808191810E94150D072E000CBE
:101C1000880B990B0E94161A2DEF3DEA40E85AE313
:101C20000E94651B9B01AC016BED7FE089E490E4B1
:101C30000E94DA184B015C010E94671920E030E82D
:101C400044E357E40E94651B9B01AC0160E070E82F
:101C500084E397E40E94DA180E94E01B6B017C0188
:101C6000C501B4010E94D21B20E030E048E153E4FA
:101C70000E94651BA70196010E946C190E944719DA
:101C80004B015C01A701960163E373E382E891E4F1
:101C90000E946C190E9447196B017C010E94DF01B0
:101CA000BC01990F880B990B0E94161A20E030ECAA
:101CB0004FE754E40E946C1920E030E844E853E414
:101CC0000E94651B20E030E844E053E40E94DA18EB
:101CD0002B013C01A7019601C501B4010E94DA184D
:101CE00020E030E044E353E40E94651B2BED3FE02D
:101CF00049E450E40E946C199B01AC01C301B2019C
:101D00000E94DB1820E030E040EA50E40E94DA183C
:101D1000FF90EF90DF90CF90BF90AF909F908F900B
:101D20007F906F905F904F9008951F920F920FB623
:101D30000F9211240BB60F922F933F934F935F9303
:101D40006F937F938F939F93AF93BF93EF93FF9383
:101D50008091B900887F803609F44DC008F040C0FA
:101D6000883209F4A9C028F5803109F49DC0C8F46F
:101D7000882309F4FBC0883009F496C0FF91EF91E5
:101D8000BF91AF919F918F917F916F915F914F9193
:101D90003F912F910F900BBE0F900FBE0F901F9091
:101DA0001895883109F488C0803241F78093010486
:101DB00014C0803409F49DC040F48033B9F38833F3
:101DC000E9F68093010485ECB0C0803509F485C044
:101DD000883509F496C0883489F60E94470DCECF25
:101DE000883909F48CC038F5883729F050F48836E2
:101DF00011F0803719F683E0809303041092D60324
:101E000057C0883809F47BC0803919F0803809F050
:101E1000B5CF8091D603803208F071C0E091D6032F
:101E200081E08E0F8093D6038091BB00F0E0EA54EE
:101E3000FC4F80833DC0803B39F0E0F4803A09F4E8
:101E400079C0883A09F09ACF84E080930304109215
:101E5000B5031092B403E091D703F091D80319951C
:101E60008091B40381110FC081E08093B40310927C
:101E7000940309C0803C09F4A6CF883C09F4A3CFA1
:101E8000883B09F07BCFE091B50381E08E0F809312
:101E9000B503F0E0EC56FC4F80818093BB0090913D
:101EA000B5038091B40329C08091DE038093BB0009
:101EB00085EC8093BC0062CF909100048091FF0379
:101EC000981758F5E091000481E08E0F809300048C
:101ED000F0E0E152FC4F8081E9CFE091000481E025
:101EE0008E0F809300048091BB00F0E0E152FC4F24
:101EF0008083909100048091FF039817C8F285E8D1
:101F0000D8CFE091000481E08E0F8093000480918F
:101F1000BB00F0E0E152FC4F80838091020481110C
:101F20005CCF81E08093DD0384EA8093BC00109253
:101F3000030424CF85EC8093BC00109203048091AD
:101F4000D603803230F4E091D603F0E0EA54FC4F3F
:101F500010826091D60370E0E091D903F091DA032A
:101F600086EB93E019951092D60308CF10920104E6
:101F700034CF1F920F920FB60F9211242F933F93DD
:101F80008F939F93AF93BF9380916B0390916C035A
:101F9000A0916D03B0916E0330916A0323E0230F8B
:101FA0002D3758F50196A11DB11D20936A0380932A
:101FB0006B0390936C03A0936D03B0936E038091B9
:101FC0006F0390917003A0917103B0917203019619
:101FD000A11DB11D80936F0390937003A0937103B3
:101FE000B0937203BF91AF919F918F913F912F91C9
:101FF0000F900FBE0F901F90189526E8230F0296A2
:10200000A11DB11DD2CF1F920F920FB60F921124B6
:102010000BB60F922F933F934F935F936F937F93E2
:102020008F939F93AF93BF93EF93FF93809161033F
:1020300090916203A0916303B0916403892B8A2B72
:102040008B2BD1F1909160038091000089278093C0
:1020500000008091610390916203A0916303B091AD
:102060006403181619061A061B069CF48091610376
:1020700090916203A0916303B09164030197A10959
:10208000B1098093610390936203A0936303B093BB
:102090006403FF91EF91BF91AF919F918F917F91D9
:1020A0006F915F914F913F912F910F900BBE0F90C9
:1020B0000FBE0F901F90189580910002EEE4F2E0A1
:1020C000E4919FEF90930002E230E9F040F4EE23B8
:1020D00089F0E13091F060E00E94AE02DACFE430A6
:1020E00049F110F1E530B9F7909173009D7F90931D
:1020F0007300F1CF10926E00EECF90916F009D7F34
:1021000090936F00E8CF909170009D7F9093700046
:1021100091E09093B0009091B100987F946090937B
:10212000B1001092B300D7CF909171009D7F909332
:102130007100D1CF909172009D7F90937200CBCFB0
:102140001F920F920FB60F9211240BB60F922F937E
:102150003F934F935F936F937F938F939F93AF932F
:10216000BF93EF93FF9389E394E00E948307FF916D
:10217000EF91BF91AF919F918F917F916F915F91FF
:102180004F913F912F910F900BBE0F900FBE0F906C
:102190001F9018951F920F920FB60F9211240BB635
:1021A0000F922F938F939F93EF93FF93E0914904A6
:1021B000F0914A048081E0914F04F091500482FD37
:1021C0001DC09081809152048F5F8F7320915304C2
:1021D000821741F0E0915204F0E0E75CFB4F958FED
:1021E00080935204FF91EF919F918F912F910F90C7
:1021F0000BBE0F900FBE0F901F9018958081F2CFED
:102200001F920F920FB60F9211240BB60F922F93BD
:102210003F934F935F936F937F938F939F93AF936E
:10222000BF93CF93DF93EF93FF9380915F03C091B0
:102230001205D0E087FF23C0109285001092840021
:1022400080915F038F5F80935F0380915F03082E0F
:10225000000C990B8C179D0724F480915F038C3040
:1022600074F1809184009091850084349C4908F435
:1022700065C08091840090918500049661C0809132
:102280005F03082E000C990B8C179D07CCF630913C
:102290005F0325E03203F0011124EA52FB4F8081F5
:1022A00086FFCECF30915F033203F0011124EA5252
:1022B000FB4F808160E08F730E94AE02C1CF80919E
:1022C00084009091850030915F0325E03203F00196
:1022D0001124EA52FB4F41815281840F951F909344
:1022E00089008093880030915F033203F00111244C
:1022F000EA52FB4F808186FF0CC030915F033203AE
:10230000F0011124EA52FB4F808161E08F730E943B
:10231000AE02FF91EF91DF91CF91BF91AF919F916D
:102320008F917F916F915F914F913F912F910F907E
:102330000BBE0F900FBE0F901F90189580E49CE984
:1023400090938900809388008FEF80935F03E1CFA3
:10235000FC0110821182128213821482158216826D
:1023600017821086118612861386158614861786A4
:102370001686118A108A128A138A148A158A168A76
:10238000178A14A215A216A217A210A611A612A6A9
:1023900013A680E090E0A0EAB0E484A795A7A6A7E2
:1023A000B7A780E090E0A8ECB2E480AB91ABA2AB21
:1023B000B3AB14AA15AA16AA17AA10AE11AE12AE84
:1023C00013AE0895EF92FF920F931F93CF93DF9375
:1023D0001092300410922F0488EE93E0A0E0B0E059
:1023E0008093310490933204A0933304B093340467
:1023F00023E132E030932E0420932D0410923C040C
:1024000010923B0480933D0490933E04A0933F04BC
:10241000B093400485E292E090933A0480933904AB
:1024200085EC90E0909346048093450484EC90E022
:10243000909348048093470480EC90E090934A0482
:102440008093490481EC90E090934C0480934B047A
:1024500082EC90E090934E0480934D0486EC90E0E3
:102460009093500480934F0410925204109253049E
:1024700010925404109255048EE290E00E943A1C8F
:10248000EC018CE0888384E2898315E01A8386E07E
:102490008B838EE18C838FE18D8382E28E8383E256
:1024A0008F8384E4888785E489871B861A8680E485
:1024B0008D871A8A1B8A1C8A1D8A1E8A1F8A188E7B
:1024C000198E88E0E7E0F2E0DE01929601900D922D
:1024D0008A95E1F780E090E0A0EAB0E48AA79BA7A4
:1024E000ACA7BDA7D0932405C093230581E090E05D
:1024F0000E943A1C7C01E0911205EC3008F078C093
:1025000081E08E0F80931205D701EC931E9FF0019E
:102510001124EA52FB4F88EB9BE092838183F09277
:102520002205E09221058CE390E00E943A1C8C0188
:102530000E94A8111093200500931F058CE390E0E2
:102540000E943A1C8C010E94A81110931E05009352
:102550001D058CE390E00E943A1C8C010E94A8119A
:1025600010931C0500931B0586E090E00E943A1C26
:10257000FC0188E590E09383828315821482F182C6
:10258000E082F0931A05E093190583E090E00E9441
:102590003A1CDC0112961C921297CD93DC93909317
:1025A00018058093170583E090E00E943A1C11E023
:1025B000FC011283D183C083909316058093150587
:1025C00088E090E00E943A1CFC011282138214827F
:1025D000158216821783D183C0839093140580934C
:1025E0001305DF91CF911F910F91FF90EF90089508
:1025F0008FEFF701808393CFCF93DF93CDB7DEB713
:10260000A6970FB6F894DEBF0FBECDBF789484B501
:10261000826084BD84B5816084BD85B5826085BDDE
:1026200085B5816085BD80916E00816080936E006C
:10263000109281008091810082608093810080915E
:10264000810081608093810080918000816080930F
:1026500080008091B10084608093B1008091B000CF
:1026600081608093B000809191008260809391009E
:1026700080919100816080939100809190008160B1
:10268000809390008091A10082608093A10080914E
:10269000A10081608093A1008091A000816080935F
:1026A000A00080912101826080932101809121010D
:1026B00081608093210180912001816080932001BD
:1026C00080917A00846080937A0080917A008260A1
:1026D00080937A0080917A00816080937A00809163
:1026E0007A00806880937A001092C100E0914904DA
:1026F000F0914A0482E08083E0914504F091460421
:102700001082E0914704F091480480E180831092A8
:102710005104E0914D04F0914E0486E08083E091F5
:102720004B04F0914C04808180618083E0914B04E4
:10273000F0914C04808188608083E0914B04F0919B
:102740004C04808180688083E0914B04F0914C04BC
:1027500080818F7D8083E0902305F090240561E0E7
:10276000D70111968C910E94790360E0F701818175
:102770000E94AE0260E0D7018C910E947903F701BC
:1027800082859385892BB9F486E090E00E943A1CFB
:10279000FC01D7011D968C911D9780838DE294E0FA
:1027A00092838183138280E290E0958384831B96D9
:1027B000FC93EE931A97F701C284D3841092DC0342
:1027C0001092DB0310920A0410922C040E943A0328
:1027D0008FEF91E09093D8038093D70380E092E04D
:1027E0009093DA038093D90311E0D60113961C93DA
:1027F000C6010E94A106882309F44EC080E090E142
:10280000A0E0B0E0F70186879787A08BB18B8AE0C4
:1028100090E0A0E0B0E0828B938BA48BB58B80E03E
:1028200090E0A0E0B0E4868B978BA08FB18F82857B
:1028300093851BA21CA21DA21EA29D8B8C8B1F8A9E
:102840001E8A1D8F85E090E09B8F8A8F1E8F02E08D
:102850000C8F4685578560897189CE0144960E9408
:10286000F605D7011A968D919C91188A198A1A8AB1
:102870001B8A9A8389831C821B821A8718861F826F
:102880001B8709874FE959E360E070E0CE010196AC
:102890000E94F605F70184876701F2E0CF0ED11C94
:1028A000570184E0A80EB11C68EB462E62E0562E5C
:1028B0007EEF672E72E0772E0BEC17E0D6011296B2
:1028C0009C91F60181916F01D7015A968C935A978A
:1028D0005B969C9361E00E94790361E0F701838D30
:1028E0000E9479034701FEE18F0E911CD6011596D7
:1028F0009C91159713968C91F701868F978F61E0C5
:102900000E94790360E0D7015F968C910E94790361
:1029100061E0F701868D0E94AE023FB6F894809187
:102920006503811125C0F2018491F3019491E82F90
:10293000F0E0EE0FFF1FE15BFD4FA591B4918C918C
:10294000982321F461E085E30E94AE0261E085E313
:102950000E9479038CB580618CBD8CB580648CBD80
:1029600061E084E30E94790361E083E30E947903DC
:10297000809165038F5F809365033FBEC801019717
:10298000F1F760E0D7015E968C910E94AE0288E874
:102990000E94E60983E00E94E60961E0F701868D66
:1029A0000E94AE02C8010197F1F7C4010E94ED092F
:1029B000F2E0EF0EF11CEA14FB0409F07FCFE09186
:1029C0001505F09116058281823008F455C188E41E
:1029D00092E00E94CF0AE0911705F09118058281DC
:1029E000823008F454C188E492E00E94CF0A00913A
:1029F000210510912205D8018C918C3008F049C036
:102A000061E088E00E947903F801808195E0899F68
:102A1000F0011124EA52FB4F9081907C98609083E2
:102A200097EA93839BE494832CE0622F0E94C6185C
:102A3000829FB001112430E020E095E0AB01420F0D
:102A4000531F949FF001959FF00D1124EA52FB4F04
:102A5000408146FD13C02F5F3F4F2C30310571F789
:102A600081110CC01092800082E08093810010924E
:102A700085001092840086BB80936F00D801EC9192
:102A8000B5E0EB9FF0011124EA52FB4F8081806496
:102A90008083E0901D05F0901E058DEC9CECACE46D
:102AA000BEE3F70180839183A283B3838DEC9CEC1A
:102AB000ACE4BDE384839583A683B7831086118637
:102AC000128613868FE79DE09587848788E59CE0D2
:102AD0009787868787E79CE0918B808B8CEC9CEBBB
:102AE000ACE8BBE284A795A7A6A7B7A74AE050E049
:102AF00060E070E0448F558F668F778F8AE097EDA6
:102B0000A3E2BCE3808F918FA28FB38FC0901F058B
:102B1000D09020050AE017ED23EA3BE3D6010D93A0
:102B20001D932D933C931397F60114821582168200
:102B3000178218961D921D921D921C921B972FE2D0
:102B40003DE01D963C932E931C9721E83CE01F9698
:102B50003C932E931E972BE93CE051963C932E9389
:102B60005097812C912C80EAA82E80E4B82E84A660
:102B700095A6A6A6B7A65C964D935D936D937C93A0
:102B80005F978AE097EDA3E2BCE3808F918FA28FDD
:102B9000B38F00911B0510911C059FE8492E92EC04
:102BA000592E95E7692E9CE3792ED8014D925D92BE
:102BB0006D927C921397F801148215821682178207
:102BC00018961D921D921D921C921B9721EF3DE0BD
:102BD0001D963C932E931C9726ED3CE01F963C934C
:102BE0002E931E9720EF3CE051963C932E935097E6
:102BF00084A695A6A6A6B7A65C964D935D936D9305
:102C00007C935F978AE097EDA3E2BCE3808F918F7E
:102C1000A28FB38FC6010E944509C7010E944509D2
:102C2000C8010E94450981E0809367038093660391
:102C300087E090E09093690380936803812C912C46
:102C400020E2A22E22E4B22E11E0E0916803F0917E
:102C500069033197E830F10508F030C28827EC5C51
:102C6000F94E8F4F0C94D21852167D16D4160C17AD
:102C70001D173C175317B71790E00F96880F991F31
:102C800020813181820F931F0E94ED09A4CE90E034
:102C90000F96880F991F20813181820F931F0E9408
:102CA000ED09A5CE8CE592E00E94450D85E792E006
:102CB0000E94450DE0901905F0901A05D701149671
:102CC0006D917C9115978D919C910E94710968EE90
:102CD00073E080E090E00E94DA06F7016281738180
:102CE000808191810E9471098CE792E00E94450DDC
:102CF00068EE73E080E090E040C082E892E00E94DD
:102D0000450D40E050E0BA018091170590911805FB
:102D10000E94DD0A64EF71E080E090E00E94DA0634
:102D20004DEC5CEC6CEC7EE38091170590911805FE
:102D30000E94DD0A60ED77E080E090E00E94DA0614
:102D40004DEC5CEC6CEC7EEB8091170590911805D6
:102D50000E94DD0A60ED77E080E090E00E94DA06F4
:102D600040E050E0BA0180911705909118050E944B
:102D7000DD0A64EF71E080E090E00E94DA06809165
:102D80001D0590911E050E94430880911F0590919A
:102D900020050E94430880911B0590911C050E940C
:102DA00043080E94120851CF80EA92E00E94450D2C
:102DB000E0911905F0911A056481758180819181F6
:102DC0000E94710940E050E060E87FEB80911505BA
:102DD000909116050E94DD0A68EE73E080E090E0B5
:102DE0000E94DA064DEC5CEC6CEC7DE380911505FD
:102DF000909116050E94DD0A68EE73E080E090E095
:102E00000E94DA0640E050E0BA01809115059091E9
:102E100016050E94DD0AB3CF8CEB92E00E94450DAF
:102E2000E0911F05F091200580E090E0A8ECB2E46D
:102E3000828B938BA48BB58BA2CFE0911F05F09171
:102E4000200580E090E0AAEFB3E4828B938BA48B03
:102E5000B58BE0911D05F0911E05828A938AA48AA4
:102E6000B58AE0911905F0911A0564817581808118
:102E700091810E94710983CFE0911F05F091200597
:102E8000128A138A148A158AE0911D05F0911E0595
:102E9000828A938AA48AB58AE0911905F0911A056D
:102EA00062817381E4CF8FED92E00E94450DE09145
:102EB0001D05F0911E05828A938AA48AB58AE09046
:102EC0001B05F0901C05D70152961D921D921D9274
:102ED0001C925597E0911F05F0912005128A138AE4
:102EE000148A158A0E94DF01BC01990F880B990B87
:102EF0000E94161A20E030EC4FE754E40E946C194F
:102F000020E030E844E853E40E94651B20E030E80C
:102F100044E053E40E94DA189F7720E030E040EA72
:102F200050E40E94601B18164CF4809167038111D5
:102F300005C0C7010E944509109367030E942F0D29
:102F40009F7720E030E040E251E40E94601B1816B9
:102F50000CF015CF80916603811111CF80911F0570
:102F6000909120050E9445091093660308CF80E0E8
:102F700093E00E94450D0E94F10D6B017C01AC01B4
:102F80009B010E94201C882339F081E293E00E947B
:102F90007E0A84E392E0AACE26013701E89477F80E
:102FA0002FEF3FEF4FE75FE7C301B2010E94201C04
:102FB00081110DC02FEF3FEF4FE75FE7C301B20173
:102FC0000E94621918161CF485E293E0E0CF2FEFFF
:102FD0003FEF4FE75FE4C701B6010E94601B181680
:102FE0001CF489E293E0D3CF2FEF3FEF4FE75FEC84
:102FF000C701B6010E94621987FDF3CF20E030E0DF
:10300000A901C701B6010E94621987FF09C06DE2DC
:1030100089E394E00E94A507F7FAF094F7F8F0949A
:103020002AE037ED43EA5BE3C701B6010E94DB18F3
:103030002B013C010E94E5196B017C010E94141ACE
:103040009B01AC01C301B2010E94DA182B013C01C3
:103050004AE0C701B6010E948B0A6EE289E394E060
:103060000E94A50720E030E040E251E4C301B20134
:103070000E94651B2B013C010E94E5196B01F12C9C
:10308000E12C4AE0C701B6010E948B0AC701B601D4
:103090000E94141A9B01AC01C301B2010E94DA180C
:1030A00020E030E040E251E40E94651B0E94E519F7
:1030B00090E080E04AE00E948B0A6BCF8DE293E0C3
:1030C0000E94450D5CCE052E97FB1EF400940E94D5
:1030D0007A1857FD07D00E94951807FC03D04EF4CC
:1030E0000C947A1850954095309521953F4F4F4F4D
:1030F0005F4F089590958095709561957F4F8F4FA4
:103100009F4F08950E94B718A59F900DB49F900DF2
:10311000A49F800D911D11240895B7FF0C9482186F
:103120000E948218821B930B0895A1E21A2EAA1BFB
:10313000BB1BFD010DC0AA1FBB1FEE1FFF1FA21767
:10314000B307E407F50720F0A21BB30BE40BF50B64
:10315000661F771F881F991F1A9469F760957095ED
:10316000809590959B01AC01BD01CF010895A29F70
:10317000B001B39FC001A39F700D811D1124911D4B
:10318000B29F700D811D1124911D0895991B79E046
:1031900004C0991F961708F0961B881F7A95C9F7E7
:1031A00080950895EE0FFF1F881F8BBF0790F69143
:1031B000E02D19945058BB27AA270E94F2180C94AE
:1031C000121B0E94D91A38F00E94E01A20F039F43C
:1031D0009F3F19F426F40C949B1A0EF4E095E7FB3C
:1031E0000C94951AE92F0E94371B58F3BA176207FF
:1031F00073078407950720F079F4A6F50C94591B02
:103200000EF4E0950B2EBA2FA02D0B01B901900101
:103210000C01CA01A0011124FF27591B99F0593F45
:1032200050F4503E68F11A16F040A22F232F342F8D
:103230004427585FF3CF469537952795A795F040DB
:103240005395C9F77EF41F16BA0B620B730B840BF0
:10325000BAF09150A1F0FF0FBB1F661F771F881FA8
:10326000C2F70EC0BA0F621F731F841F48F4879500
:1032700077956795B795F7959E3F08F0B0CF9395F2
:10328000880F08F09927EE0F9795879508959F93DB
:103290009F77EEE389379E0728F4E4EEF0E00E9482
:1032A000C51A0CC00E94511A9058A2EA2AED3FE0BC
:1032B00049EC5FE30E94F2180E94121B0F9007FC7A
:1032C000905808950E94711A08F481E008950E94B0
:1032D000E91AE3950C94231B0E9480190C94121B8D
:1032E0000E94E01A58F00E94D91A40F029F45F3F7A
:1032F00029F00C94951A51110C945A1B0C949B1A9A
:103300000E94371B68F39923B1F3552391F3951B62
:10331000550BBB27AA2762177307840738F09F5FF6
:103320005F4F220F331F441FAA1FA9F335D00E2E63
:103330003AF0E0E832D091505040E695001CCAF7D0
:103340002BD0FE2F29D0660F771F881FBB1F261793
:1033500037074807AB07B0E809F0BB0B802DBF016A
:10336000FF2793585F4F3AF09E3F510578F00C9439
:10337000951A0C945A1B5F3FE4F3983ED4F386955C
:1033800077956795B795F7959F5FC9F7880F911D5A
:103390009695879597F90895E1E0660F771F881F46
:1033A000BB1F621773078407BA0720F0621B730BF9
:1033B000840BBA0BEE1F88F7E09508950E94E5197B
:1033C0006894B1110C945A1B08950E943F1B88F019
:1033D0009F5798F0B92F9927B751B0F0E1F0660FD9
:1033E000771F881F991F1AF0BA95C9F714C0B1301A
:1033F00091F00E94591BB1E008950C94591B672F5E
:10340000782F8827B85F39F0B93FCCF38695779548
:103410006795B395D9F73EF4909580957095619531
:103420007F4F8F4F9F4F0895E89409C097FB3EF45C
:1034300090958095709561957F4F8F4F9F4F992301
:10344000A9F0F92F96E9BB279395F695879577957F
:103450006795B795F111F8CFFAF4BB0F11F460FF3F
:103460001BC06F5F7F4F8F4F9F4F16C0882311F097
:1034700096E911C0772321F09EE8872F762F05C0AB
:10348000662371F096E8862F70E060E02AF09A9546
:10349000660F771F881FDAF7880F9695879597F93B
:1034A0000895DF93CF931F930F938B01EC01E8EF07
:1034B000F0E00E949E1A0E94121B9801AE018B013F
:1034C000EC0160E070E080E89FE30E94DA180E945F
:1034D000E01B9801AE010F911F91CF91DF910C94E9
:1034E000781B990F0008550FAA0BE0E8FEEF16169F
:1034F0001706E807F907C0F012161306E407F507E8
:1035000098F0621B730B840B950B39F40A2661F05B
:10351000232B242B252B21F408950A2609F4A140FE
:10352000A6958FEF811D811D089597F99F6780E80B
:1035300070E060E008959FEF80EC0895DF93CF93F3
:103540001F930F93FF92EF92DF927B018C0168949F
:1035500006C0DA2EEF010E94781BFE01E894A591C7
:103560002591359145915591A6F3EF010E94F218EE
:10357000FE019701A801DA9469F7DF90EF90FF90C0
:103580000F911F91CF91DF9108959F938F937F9318
:103590006F93FF93EF939B01AC010E94651BEF912A
:1035A000FF910E949E1A2F913F914F915F910C9431
:1035B000651B00240A9416161706180609060895B6
:1035C00000240A94121613061406050608950C9496
:1035D0009B1A0E943F1BD8F3E894E0E0BB279F575B
:1035E000F0F02AED3FE049EC06C0EE0FBB0F661F7E
:1035F000771F881F28F0B23A62077307840728F004
:10360000B25A620B730B840BE3959A9572F780386C
:1036100030F49A95BB0F661F771F881FD2F790482A
:103620000C94271C092E0394000C11F4882352F0EB
:10363000BB0F40F4BF2B11F460FF04C06F5F7F4FDE
:103640008F4F9F4F0895EF93E0FF07C0A2EA2AED46
:103650003FE049EC5FEB0E94F2180E94121B0F90B2
:10366000039401FC9058E0E2F1E00C94C51A57FD78
:103670009058440F551F59F05F3F71F04795880FE0
:1036800097FB991F61F09F3F79F087950895121677
:1036900013061406551FF2CF4695F1DF08C0161623
:1036A00017061806991FF1CF8695710561050894D4
:1036B0000895E894BB2766277727CB0197F90895EB
:1036C0000E94711A08F48FEF08950E94781B0C94E1
:1036D000121B0E94D91A38F00E94E01A20F095239C
:1036E00011F00C94951A0C949B1A11240C945A1BEB
:1036F0000E94371B70F3959FC1F3950F50E0551F43
:10370000629FF001729FBB27F00DB11D639FAA2736
:10371000F00DB11DAA1F649F6627B00DA11D661F85
:10372000829F2227B00DA11D621F739FB00DA11DA6
:10373000621F839FA00D611D221F749F3327A00D60
:10374000611D231F849F600D211D822F762F6A2FFC
:1037500011249F5750409AF0F1F088234AF0EE0F61
:10376000FF1FBB1F661F771F881F91505040A9F78E
:103770009E3F510580F00C94951A0C945A1B5F3FA4
:10378000E4F3983ED4F3869577956795B795F795CA
:10379000E7959F5FC1F7FE2B880F911D9695879542
:1037A00097F908959F930E94E91A0F9007FCEE5F26
:1037B0000C94231B19F416F40C949B1A0C94251CDE
:1037C0000E943F1BB8F39923C9F3B6F39F57550BDB
:1037D00087FF0E94331C0024A0E640EA9001805835
:1037E0005695979528F4805C660F771F881F20F008
:1037F00026173707480730F4621B730B840B202908
:1038000031294A2BA69517940794202531254A275C
:1038100058F7660F771F881F20F0261737074807CD
:1038200030F4620B730B840B200D311D411DA095EC
:1038300081F7B901842F9158880F9695879508953F
:103840000E94711A880B990B08959F3F31F0915097
:1038500020F4879577956795B795880F911D969574
:10386000879597F9089591505040660F771F881FEC
:10387000D2F708950F931F93CF93DF938230910572
:1038800010F482E090E0E0912705F091280530E007
:1038900020E0B0E0A0E0309799F42115310509F45B
:1038A0004AC0281B390B24303105D8F58A819B8109
:1038B0006115710589F1FB0193838283FE0111C0BB
:1038C000408151810281138148175907E0F0481760
:1038D000590799F4109761F012960C93129713966A
:1038E0001C933296CF01DF91CF911F910F910895D4
:1038F0000093270510932805F4CF2115310551F0C9
:103900004217530738F0A901DB019A01BD01DF011D
:10391000F801C1CFEF01F9CF9093280580932705D7
:10392000CDCFFE01E20FF31F819391932250310915
:1039300039832883D7CF2091250530912605232B65
:1039400041F4209103023091040230932605209324
:10395000250520910102309102022115310541F423
:103960002DB73EB74091050250910602241B350B3E
:10397000E0912505F0912605E217F307A0F42E1B30
:103980003F0B2817390778F0AC014E5F5F4F2417C3
:10399000350748F04E0F5F1F5093260540932505CD
:1039A000819391939FCFF0E0E0E09CCFCF93DF93A2
:1039B0000097E9F0FC01329713821282A09127054B
:1039C000B0912805ED0130E020E01097A1F42081AE
:1039D0003181820F931F20912505309126052817EC
:1039E000390709F061C0F0932605E0932505DF91C2
:1039F000CF910895EA01CE17DF07E8F54A815B8190
:103A00009E0141155105B1F7E901FB83EA83499114
:103A10005991C40FD51FEC17FD0761F48081918186
:103A20000296840F951FE90199838883828193818F
:103A30009B838A83F0E0E0E012968D919C9113972E
:103A40000097B9F52D913C911197CD010296820F07
:103A5000931F20912505309126052817390739F63F
:103A6000309751F51092280510922705B09326053E
:103A7000A0932505BCCFD383C28340815181840F9D
:103A8000951FC817D90761F44E5F5F4F88819981F0
:103A9000480F591F518340838A819B81938382837E
:103AA0002115310509F0B0CFF0932805E0932705E3
:103AB0009ECFFD01DC01C0CF13821282D7CFF894D4
:023AC000FFCF36
:103AC200FF00002905800030003100320033000081
:103AD2000000007F025202390728024B02380229F5
:103AE2000200000000A5070C073C07F2076D074B18
:103AF200075F070D0A00496E76616C6964206D6F7D
:103B0200746F722069642100496E76616C69642069
:103B1200656E636F64657220696421000A202D2D31
:103B22002D2D20544553542050494E4345202D2DD0
:103B32002D2D2D0A00636C6F73650A006F70656E20
:103B42000A000A202D2D2D2D205445535420444582
:103B5200504C4143454D454E542D2D2D2D2D0A00DF
:103B62000A202D2D2D2D205445535420454C4556C9
:103B72004154494F4E2D2D2D2D2D0A000A202D2D59
:103B82002D2D205445535420504944202044455063
:103B92004C4143454D454E542D2D2D2D2D0A000AE5
:103BA200202D2D2D2D204A45205355495320444187
:103BB2004E53204341534520372D2D2D2D2D0A00E4
:103BC2000A202D2D2D2D204A45205355495320449E
:103BD200414E53204341534520382D2D2D2D2D0A82
:103BE200006E616E00696E66006F76660063686FD4
:0E3BF200697820696E76616C6964650A00006E
:00000001FF
