:100000000C9496010C94C7010C94C7010C94C70181
:100010000C94C7010C94C7010C94C7010C94C70140
:100020000C94C7010C94C7010C94C7010C94C70130
:100030000C94C7010C94860E0C94C7010C94C70154
:100040000C94C7010C94830F0C94C7010C94C70146
:100050000C94C7010C94C7010C94C7010C943C0E7E
:100060000C94C7010C944D0F0C94230F0C94C701F2
:100070000C94C7010C94C7010C94C7010C94C701E0
:100080000C94C7010C94C7010C94C7010C94C701D0
:100090000C94C7010C94C7010C94C7010C94180D63
:1000A0000C94C7010C94C7010C94C7010C94C701B0
:1000B0000C94C7010C94C7010C94C7010C94C701A0
:1000C0000C94C7010C94C7010C94C7010C94C70190
:1000D0000C94C7010C94C7010C94C7010C94C70180
:1000E0000C94C701036EDB363D9A9999993DABAAF2
:1000F000AA2A3E000000803F072C7AA5BA6CC59062
:10010000DA3B9365FC8BBC53F810FD3C5692834D53
:10011000BD879D3AB63DCBC9BF5BBE73DA0FC93F01
:1001200005A84CCDB2D44EB93836A9020C50B991BD
:100130008688083CA6AAAA2ABE000000803F0C942C
:10014000110C0C94EC020C94FE020C9479070C94A4
:10015000FD010C9426020C948E0B0C94D8020C9486
:10016000FC010C94D5020C94C50B0C94560B0C940A
:10017000A20B0C94CF0B0C946A0B0C9408030C94F8
:10018000CD020C94FA020C94190C0C940D070C94EB
:10019000D1020C94B10B0C94840B0C94600B0C9456
:1001A0007C0B0C94E8020C94E80B0C940C020C945D
:1001B000D3010C9410070C94D90B0C94070C0C94DD
:1001C00033070C94510B0C94C9020C9404030C9447
:1001D00041070C9453020C94B2020C94BB0B0C9488
:1001E000740B0C94DE020C94E0060C943E0B0C9401
:1001F0001F020C9465100C94C6070C94F0020C942A
:10020000980B0C94B7020C94E30B0C94F6020C942C
:10021000D4010C94580C0C94A60C0C94E2020C948F
:100220001F070200002100240027002A002D0030B3
:1002300000330001010000040107010A010000224F
:1002400000250028002B002E0031003400020100A0
:1002500000050108010B010505050507050808084B
:1002600008020202020A0A08080404040401010147
:10027000010101010103030303030303030407074F
:10028000070C0C0C0C0C0C0C0C02020202060606ED
:1002900006060606060B0B0B0B0B0B0B0B010210D5
:1002A0002020080810204010204080020102010890
:1002B0000402010102040810204080804020100840
:1002C0000402018004020180402010080402010899
:1002D00004020101020408102040800102040810F9
:1002E00020408000000A0B02090C0D0E08070304D1
:1002F00001000000000000000000000000000000FD
:1003000000000000000000000000000000000012DB
:1003100011100000000000000000000000000000BC
:1003200000000000000000000000651011241FBE46
:10033000CFEFD1E2DEBFCDBF00E00CBF12E0A0E006
:10034000B2E0E2EAF4E300E00BBF02C007900D92D6
:10035000AC3CB107D9F724E0ACECB2E001C01D928F
:10036000A93AB207E1F711E0C6E9D1E000E006C022
:1003700021970109802FFE010E94C715C539D107B9
:1003800080E00807A9F70E9469110C944F1A0C9499
:100390000000FC0120812EBD0DB407FEFDCF2EB55F
:1003A000FC01208308950895089520913803260FB5
:1003B0003327331F21323105ECF420918703FC01F0
:1003C00090E080E0243069F082E00895A091380345
:1003D0002191AC01485E5C4FA40FB52FB11D2C9349
:1003E0000196861798F380913803680F609338035D
:1003F00080E0089581E008950895E0916003809180
:100400005F03E81730F4F0E0E950FD4F808190E0A1
:1004100008958FEF9FEF08959091600380915F039F
:100420002FEF3FEF981748F4E92FF0E0E950FD4F28
:10043000208130E09F5F90936003C901089580910F
:100440005F0390916003891B990B0895CF92DF920F
:10045000EF92FF920F931F93CF93DF937C01CB0119
:100460008A0120918D03222389F0EB016B01C40ED8
:10047000D51ECC15DD0569F06991D701ED91FC9190
:100480000190F081E02DC7011995F3CF642F0E94F0
:10049000D501C801DF91CF911F910F91FF90EF908F
:1004A000DF90CF900895CF93DF931F92CDB7DEB743
:1004B000698320918D032223F9F02091B00320322B
:1004C00058F021E030E0FC013383228390E080E0AB
:1004D0000F90DF91CF91089580918E03E82FF0E087
:1004E000E157FC4F998190838F5F80938E038093B7
:1004F000B00381E090E0ECCF61E0CE0101960E9474
:10050000D501F7CF282F30E0F901ED51FD4F94913F
:10051000F901E356FD4F4491295A3D4FF9012491C9
:10052000222309F435C0992311F191509231F8F446
:10053000E92FF0E08827E056FD4F8F4F0C94C71548
:10054000D102D502B202C902CD02B702D802DE0240
:10055000E202E802EC02F002F602FA02B702FE0240
:1005600004030803809180008F7780938000E22F3E
:10057000F0E0EE0FFF1FE35CFD4FA591B4918FB744
:10058000F894EC91611148C040954E234C938FBF75
:100590000895809180008F7DE8CF80918000877FD3
:1005A000E4CF84B58F7784BDE2CF84B58F7DFBCF58
:1005B0008091B0008F778093B000D9CF8091B00048
:1005C0008F7DF9CF809190008F7780939000CFCF6F
:1005D000809190008F7DF9CF80919000877FF5CF3B
:1005E0008091A0008F778093A000C1CF8091A00060
:1005F0008F7DF9CF8091A000877FF5CF809120017A
:100600008F7780932001B3CF809120018F7DF9CF28
:1006100080912001877FF5CF4E2BB8CF10928703B2
:1006200081E0809386031092610361E084E10E947F
:10063000820261E085E10E948202E9EBF0E08081C4
:100640008E7F808380818D7F808388E48093B80053
:1006500085E48093BC000895CF93DF9391E090935D
:1006600017038823B9F0C091B800D091BA008091E7
:10067000BC008A7B8093BC0060E084E10E9482021F
:1006800060E085E10E9482020E940E03D093BA00CE
:10069000C093B800DF91CF910895CF93DF9390E09E
:1006A000FC01E356FD4F2491895A9D4FFC01849132
:1006B0008823D1F090E0880F991FFC01ED5DFD4F7C
:1006C000A591B491FC01E35CFD4FC591D4916111FA
:1006D0000EC09FB7F8948C91E22FE0958E238C93F7
:1006E0002881E223E8839FBFDF91CF9108958FB7E0
:1006F000F894EC91E22BEC938FBFF6CF823091050A
:1007000038F0880F991F880F991F05970197F1F707
:1007100008959F92AF92BF92CF92DF92EF92FF9295
:100720000F931F93CF93DF93EC016B01888599851D
:1007300011E0892B09F010E8F601A0808A2D8123B1
:10074000992493948111912C2C813D814E815F815C
:1007500060E271EA87E090E00E948A15022FB12CD6
:10076000E22EF12C002319F0C7010E947E038A8536
:10077000877F09F04FC08D858F3F89F09A2D912397
:1007800081E009F480E0891551F0EF85F8898F89BF
:100790009923D1F19081892B808399249394E989BD
:1007A000FA898081998D892B8083002319F0C701F4
:1007B0000E947E038E858F3F39F0EB89FC89808112
:1007C000988D892309F0B12AE989FA899081898D68
:1007D0008095892380838E858F3F11F0F601B0824A
:1007E00088859985892B09F044C0110F1111BACF62
:1007F000DF91CF911F910F91FF90EF90DF90CF90FD
:10080000BF90AF909F9008959081809589238083B9
:10081000912CC5CFE989FA898081998D892B8083B4
:10082000002319F0C7010E947E038D858F3F49F098
:10083000EF85F8898F899A2D9123B9F09081892BC2
:100840008083E989FA899081898D809589238083C5
:100850008E858F3F09F4BFCFEB89FC898081988D0D
:10086000892309F4B8CFB12AB6CF90818095892326
:10087000E7CF1695BBCF6F927F928F929F92AF92E8
:10088000BF92CF92DF92EF92FF920F931F93CF937D
:10089000DF931F92CDB7DEB77C01962E872E5A01CB
:1008A0003901DC018D919C911197892B39F01296B9
:1008B000ED91FC91908181819CBD8DBDF701838577
:1008C0008F3F19F060E00E9482026301060D171D40
:1008D0000C151D05A9F4092D182DA00EB11E0A1521
:1008E0001B0551F1D8018D918D018983F70180811C
:1008F0009181892BD1F0CE0101960E94C901EFCFE1
:10090000D6018D916D018983F70180819181892BB9
:1009100029F0CE0101960E94C901DACFBE016F5FB6
:100920007F4FC7010E948903D3CFBE016F5F7F4F06
:10093000C7010E948903D3CFD7011B968C918F3FAB
:1009400019F061E00E94820281E00F90DF91CF9167
:100950001F910F91FF90EF90DF90CF90BF90AF90DD
:100960009F908F907F906F9008953FB7F8948091FB
:10097000F3029091F402A091F502B091F60226B52F
:10098000A89B05C02F3F19F00196A11DB11D3FBFC7
:10099000BA2FA92F982F8827BC01CD01620F711D96
:1009A000811D911D42E0660F771F881F991F4A9590
:1009B000D1F708958F929F92AF92BF92CF92DF921C
:1009C000EF92FF920F931F93CF93DF93D091B003D9
:1009D000D13208F0D7C0182FC091AF030E94B504E0
:1009E0006B017C018091870381116BC082E0809351
:1009F0008703109386038FEF8093850310928403FF
:100A0000D0938303AFE8B3E0E3E6F3E080E0D813EC
:100A100091C01092620380916203CC0FC82BC093E7
:100A2000620380916103813009F088C010926103F4
:100A30000E94B5046B017C01809162038093BB002E
:100A40008091890390918A03A0918B03B0918C03CC
:100A5000892B8A2B8B2BA1F00E94B504009189036E
:100A600010918A0320918B0330918C036C197D09BE
:100A70008E099F09061717072807390708F442C08F
:100A80008091BC0083FDD8CF85EC8093BC000E9490
:100A9000B5046B017C0180918703823009F450C05A
:100AA000809185038F3F09F46FC080918503803268
:100AB00009F46CC080918503803309F469C084E037
:100AC00026C08091890390918A03A0918B03B091F5
:100AD0008C03892B8A2B8B2B09F484CF0E94B504BD
:100AE0008090890390908A03A0908B03B0908C0330
:100AF0006C197D098E099F0986169706A806B90606
:100B000008F070CF809188030E942C0385E010923A
:100B10008E031092B00310928D03DF91CF911F913D
:100B20000F91FF90EF90DF90CF90BF90AF909F908C
:100B30008F9008959D9191938F5F69CF85EEA5CF9A
:100B40008091890390918A03A0918B03B0918C03CB
:100B5000892B8A2B8B2B09F49ECF0E94B504009120
:100B6000890310918A0320918B0330918C036C19B7
:100B70007D098E099F09061717072807390708F00E
:100B80008ACFC0CF81E0C3CF80E0C1CF82E0BFCFAA
:100B900083E0BDCFCF92DF92EF92FF920F931F932E
:100BA000CF93DF931F921F92CDB7DEB7FC0147872B
:100BB000508B618B728B8285882321F14487452F6E
:100BC000562F672F77278823F9F043877F018BE023
:100BD000E80EF11C9681878199838A83C080D18039
:100BE000C114D10409F454C0018510E098012E5FAE
:100BF0003F4FD60114968D919C918217930730F444
:100C000090E02AC04387DBCF4487E0CFF6018181A3
:100C10009281208131E030938D032093AF031092B5
:100C20008E031092B0030115110511F5D60111962E
:100C30008D919C91DC01ED91FC910280F381E02D7E
:100C400042E050E0B70119950297D1F681E00E9489
:100C5000DA0491E08111D4CF892F0F900F90DF91AA
:100C6000CF911F910F91FF90EF90DF90CF9008955B
:100C7000DC01ED91FC910280F381E02DA801BE0121
:100C80006F5F7F4F19950817190709F0B9CFCECFBD
:100C9000A281B381109709F4B3CF248135810185F6
:100CA00010E02330310581F48E7F89839A830F5FB2
:100CB0001F4F9E012F5F3F4F42E050E0B701CD0133
:100CC0000E943B04982FC8CF2115310519F49F7756
:100CD0009983EFCF2230310511F49068F9CF21309C
:100CE000310539F79F779064F3CFCF93DF93EC0111
:100CF0008B818823A1F0888191E090938D0380936C
:100D0000AF0310928E031092B00381E00E94DA04C8
:100D100091E0811190E0892FDF91CF910895109299
:100D2000600310925F0310928E031092B0030E9432
:100D30000E0383ED91E090935C0380935B0384ED5D
:100D400091E090935E0380935D0381E08B83CE01FD
:100D50000E947506982F8111CECFDDCF8F929F9282
:100D6000AF92BF92CF92DF92EF92FF924B015C0164
:100D70000E94B5046B017C010E94B5046C197D09C9
:100D80008E099F09683E734081059105A8F321E013
:100D9000821A9108A108B10888EEC80E83E0D81E17
:100DA000E11CF11C81149104A104B10429F7FF9006
:100DB000EF90DF90CF90BF90AF909F908F9008956D
:100DC000AF92BF92CF92DF92EF92FF920F931F9359
:100DD000CF93DF936C017B018B01040F151FEB0197
:100DE0005E01AE18BF08C017D10759F06991D6014E
:100DF000ED91FC910190F081E02DC6011995892BB0
:100E000079F7C501DF91CF911F910F91FF90EF907E
:100E1000DF90CF90BF90AF90089590E080E008956C
:100E2000FC01538D448D252F30E0842F90E0821BF0
:100E3000930B541710F0CF96089501970895FC0175
:100E4000918D828D981761F0A28DAE0FBF2FB11DCD
:100E50005D968C91928D9F5F9F73928F90E0089525
:100E60008FEF9FEF0895FC01918D828D981731F0DF
:100E7000828DE80FF11D858D90E008958FEF9FEF33
:100E80000895FC01918D228D892F90E0805C9F4F09
:100E9000821B91098F73992708958DEB93E00E942F
:100EA000410721E0892B09F420E0822F0895FC01FD
:100EB000A48DA80FB92FB11DA35ABF4F2C91848DBB
:100EC00090E001968F739927848FA689B7892C9318
:100ED000A089B1898C91837080648C93938D848D6B
:100EE000981306C00288F389E02D80818F7D80836E
:100EF0000895EF92FF920F931F93CF93DF93EC012E
:100F000081E0888F9B8D8C8D98131AC0E889F989B0
:100F1000808185FF15C09FB7F894EE89FF896083B3
:100F2000E889F98980818370806480839FBF81E034
:100F300090E0DF91CF911F910F91FF90EF90089576
:100F4000F62E0B8D10E00F5F1F4F0F731127E02E51
:100F50008C8D8E110CC00FB607FCFACFE889F98989
:100F6000808185FFF5CFCE010E945707F1CFEB8D31
:100F7000EC0FFD2FF11DE35AFF4FF0829FB7F8945D
:100F80000B8FEA89FB8980818062CFCFCF93DF937B
:100F9000EC01888D8823B9F0AA89BB89E889F98991
:100FA0008C9185FD03C0808186FD0DC00FB607FCC6
:100FB000F7CF8C9185FFF2CF808185FFEDCFCE01F9
:100FC0000E945707E9CFDF91CF91089580E090E02C
:100FD000892B29F00E944D0781110E94000080E0BA
:100FE00090E0892B49F080E090E0892B29F00E9465
:100FF000000081110E94000080E090E0892B49F000
:1010000080E090E0892B29F00E94000081110E946D
:10101000000080E090E0892B49F080E090E0892B8F
:1010200029F00E94000081110C94000008954F9255
:101030005F926F927F928F929F92AF92BF92CF9268
:10104000DF92EF92FF920F931F93CF93DF93EC0108
:101050002FB7F8948091EF029091F002A091F102E5
:10106000B091F2022FBF4CA15DA16EA17FA18417A8
:101070009507A607B70708F443C08E89882309F4AB
:101080003FC08FB7F8944091EF025091F002609109
:10109000F1027091F2028FBF8C8D9D8DAE8DBF8D50
:1010A000840F951FA61FB71F8CA39DA3AEA3BFA33C
:1010B000CA88DB88EC88FD88EC85FD8519959B0145
:1010C000AC01C701B6010E94CF156B017C019F776F
:1010D0002CA53DA54EA55FA50E94571687FF21C0F0
:1010E00081E08F8B1E8AE889F989309709F019957C
:1010F0008CA19DA1AEA1BFA188A799A7AAA7BBA7B4
:10110000DF91CF911F910F91FF90EF90DF90CF90E3
:10111000BF90AF909F908F907F906F905F904F9017
:1011200008950E851F852FB7F8948091EF02909156
:10113000F002A091F102B091F2022FBF48A559A58B
:101140006AA57BA5841B950BA60BB70B88A399A357
:10115000AAA3BBA32CA93DA94EA95FA9C701B601AB
:101160000E94D0156CAB7DAB8EAB9FAB88A899A8C5
:10117000AAA8BBA8A50194010E945518181624F42A
:101180008CAA9DAAAEAABFAAB7FAB094B7F8B09439
:10119000A50194016CA97DA98EA99FA90E9457164B
:1011A00087FF04C08CAA9DAAAEAABFAA888C998C7E
:1011B000AA8CBB8C2CA93DA94EA95FA96C817D810D
:1011C0008E819F810E945A18A50194010E945A188D
:1011D0002B013C01288139814A815B81C701B6011D
:1011E0000E945A189B01AC01C301B2010E94D015A4
:1011F0002B013C0128AD39AD4AAD5BADC701B6014D
:101200000E94CF15288539854A855B850E945A182A
:10121000A50194010E9461169B01AC01C301B201BA
:101220000E94D015C8AED9AEEAAEFBAEF801199552
:101230005FCFFC0184859585892B31F18685978563
:10124000892B11F181E0868B8FB7F8944091EF02E2
:101250005091F0026091F1027091F2028FBF848D83
:10126000958DA68DB78D840F951FA61FB71F84A3DC
:1012700095A3A6A3B7A3178A14AA15AA16AA17AAF4
:1012800010AE11AE12AE13AE0895CF92DF92EF9270
:10129000FF92CF93DF93DC01EC91EC3008F04EC06D
:1012A000CE2FD0E0B5E0EB9FF0011124E65AFB4FC2
:1012B000838158E8C52ED12CC81AD10887FDD39454
:1012C000CC0CDD1CCC0CDD1C683C71050CF03DC069
:1012D0000D2C000CEE08FF08848128E532E0281B65
:1012E000310987FD3395220F331F220F331F032E41
:1012F000000C440B550B2C193D094E095F09DB010D
:101300000E94821524EB30E040E050E00E94581526
:10131000C20ED31EE41EF51E8FB7F89495E09C9F75
:10132000F0019D9FF00D1124E65AFB4F96E0C91A7B
:10133000D108CC0CDD1CD282C1828FBFDF91CF914E
:10134000FF90EF90DF90CF9008956C157D0524F30A
:10135000848128E5C22E22E0D22EC81AD10887FD4A
:10136000D394CC0CDD1CCC0CDD1C6C157D05A4F6D7
:101370006B01D2CF8EBD00000DB407FEFDCF8EB540
:101380000895CF93DF93EC0160E088810E94820290
:1013900088E90E94BA0980E00E94BA0980E00E94B0
:1013A000BA0980E00E94BA0980E00E94BA0961E0AF
:1013B00088810E9482028BE891E00197F1F760E05A
:1013C00088810E94820280EE0E94BA0961E08881D1
:1013D000DF91CF910C948202AF92BF92CF92DF92B5
:1013E000EF92FF920F931F93CF93DF93CDB7DEB7AA
:1013F00060970FB6F894DEBF0FBECDBF6C0160E002
:10140000FC0180810E94820280E60E94BA099E014E
:101410002F5F3F4F79015E0131E1A30EB11C8701BF
:1014200080E00E94BA0990E0B0E0A0E0F80181936A
:101430009193A193B1938F01EA15FB0589F761E0C0
:10144000F60180810E94820280E090E0DC01F701D9
:1014500041915191619171917F01BA2FA92F982FDC
:101460008827840F951FA61FB71FE017F10779F78C
:101470009C01AD0166277727CB01621B730B840BA0
:10148000950B60960FB6F894DEBF0FBECDBFDF910F
:10149000CF911F910F91FF90EF90DF90CF90BF9071
:1014A000AF900895FC0101900020E9F73197AF015A
:1014B000481B590BBC018DEB93E00C94E006CF93D5
:1014C000DF930E94520AEC0183E392E00E94520AE9
:1014D0008C0F9D1FDF91CF9108954F925F926F9275
:1014E0007F92AF92BF92CF92DF92EF92FF920F93D3
:1014F0001F93CF93DF935C016A017B0120E030E012
:1015000040E85FE3CB01B6010E945518181604F1BC
:1015100020E030E040E85FEBC701B6010E945716BB
:1015200087FD1DC0F5010281023000F186E392E0E3
:10153000DF91CF911F910F91FF90EF90DF90CF90AF
:10154000BF90AF907F906F905F904F900C945F0A28
:10155000C12CD12C30E8E32E3FE3F32EE3CFC12C96
:10156000D12C20E8E22E2FEBF22EDCCF013021F43B
:10157000F7FAF094F7F8F09410E020E030E04FE74D
:1015800053E4C701B6010E945A182B013C0120E028
:1015900030E0A9010E94551818160CF041C0C30193
:1015A000B2010E94D316EB01F501A080B180F801D1
:1015B000EE0FFF1FEA0DFB1D738C20E030E0A90148
:1015C000C701B6010E94551860E018160CF061E0E2
:1015D000872D0E948202CF3FD10509F02CF5DD272F
:1015E000035F1F4F000F111F0A0D1B1DF801108113
:1015F00061E0812F0E944D032097C9F460E0812FA4
:10160000DF91CF911F910F91FF90EF90DF90CF90DE
:10161000BF90AF907F906F905F904F900C9482023C
:10162000C301B2019058BDCFCFEFD0E0D9CFCF3FAB
:10163000D10511F461E0E3CFE12FF0E0ED51FD4F72
:10164000E491E150E23108F0BEC0F0E08827E45DAB
:10165000F44F8F4F0C94C7153E0B510B560B600B7C
:101660006A0BE30B740B7C0B840B8E0B980BA20B99
:10167000B10BBB0BE30BC50BCF0BD90B84B580684B
:1016800084BDC7BDDF91CF911F910F91FF90EF9067
:10169000DF90CF90BF90AF907F906F905F904F9012
:1016A000089584B5806284BDC8BDECCF8091800070
:1016B000806880938000D0938900C0938800E2CF37
:1016C00080918000806280938000D0938B00C093D3
:1016D0008A00D8CF80918000886080938000D0936A
:1016E0008D00C0938C00CECF8091B0008068809335
:1016F000B000C093B300C6CF8091B00080628093E9
:10170000B000C093B400BECF8091900080688093F9
:101710009000D0939900C0939800B4CF809190002E
:10172000806280939000D0939B00C0939A00AACFD0
:1017300080919000886080939000D0939D00C0932A
:101740009C00A0CF8091A00080688093A000809131
:10175000A0008F7B8093A000D093A900C093A80025
:1017600091CF8091A00080628093A000D093AB00C5
:10177000C093AA0087CF8091A00088608093A000CA
:10178000D093AD00C093AC007DCF809120018068E4
:1017900080932001D0932901C093280173CF8091B9
:1017A0002001806280932001D0932B01C0932A01F5
:1017B00069CF80912001886080932001D0932D0112
:1017C000C0932C015FCFC038D1050CF033CF16CFBA
:1017D000CF92DF92EF92FF926B017C012DEC3CECFB
:1017E0004CEC5DEB0E945716B701A601705887FFBD
:1017F00004C04DEC5CEC6CEC7DE38091970490911F
:101800009804FF90EF90DF90CF900C946D0A4DEC10
:101810005CEC6CEC7DEB80919704909198040C94B7
:101820006D0AAB01BC018091990490919A040C94CB
:101830006D0A40E050E0BA018091990490919A04B9
:101840000E946D0A80919F049091A004FC01168A69
:101850002091EC023091ED022530310541F426E073
:1018600030E03093ED022093EC020C9419092630FD
:10187000310519F425E030E0F4CF0895623040F0EE
:1018800088E492E00E945F0A60E070E0CB01089576
:1018900061110BC04E960E94EC0990958095709551
:1018A00061957F4F8F4F9F4F089580960C94EC0960
:1018B000E0919904F0919A046281808191810E9463
:1018C0003E0C072E000C880B990B0E940B172DEA7B
:1018D0003BEB4EE15EE30E945A18089585ED80933C
:1018E000BC008091890390918A03A0918B03B091F1
:1018F0008C030796A11DB11D23E0B695A79597957A
:1019000087952A95D1F72091BC0024FD03C0109241
:10191000870308954091890350918A0360918B0356
:1019200070918C03452B462B472B69F30097A1053B
:10193000B10541F025E32A95F1F700000197A109CF
:10194000B109E1CF809188030C942C038F929F9270
:10195000AF92BF92CF92DF92EF92FF92E091970405
:10196000F09198046281808191810E943E0C072E43
:10197000000C880B990B0E940B172DEF3DEA40E8F5
:101980005AE30E945A189B01AC016BED7FE089E499
:1019900090E40E94CF156B017C010E945C1624E844
:1019A00033E745E357E40E945A189B01AC0164E811
:1019B00073E785E397E40E94CF150E94D5184B0189
:1019C0005C01C701B6010E94C71826E636E648E169
:1019D00053E40E945A18A50194010E9461160E94C6
:1019E0003C160E94C71826E636E648E153EC0E94F2
:1019F0005A186B017C0120E030E040EA52E40E947A
:101A00005518181654F44DEC5CEC6CEC7DE38091A9
:101A10009704909198040E946D0AC701B601FF9047
:101A2000EF90DF90CF90BF90AF909F908F900895F0
:101A30001F920F920FB60F9211240BB60F922F9395
:101A40003F934F935F936F937F938F939F93AF9346
:101A5000BF93EF93FF938091B900887F803609F49C
:101A60004DC008F040C0883209F4A9C028F5803183
:101A700009F49DC0C8F4882309F4FBC0883009F438
:101A800096C0FF91EF91BF91AF919F918F917F9100
:101A90006F915F914F913F912F910F900BBE0F90DF
:101AA0000FBE0F901F901895883109F488C08032BE
:101AB00041F78093850314C0803409F49DC040F43D
:101AC0008033B9F38833E9F68093850385ECB0C0A1
:101AD000803509F485C0883509F496C0883489F6C4
:101AE0000E946E0CCECF883909F48CC038F5883747
:101AF00029F050F4883611F0803719F683E080938E
:101B0000870310925A0357C0883809F47BC0803984
:101B100019F0803809F0B5CF80915A03803208F06F
:101B200071C0E0915A0381E08E0F80935A03809137
:101B3000BB00F0E0E65CFC4F80833DC0803B39F0A9
:101B4000E0F4803A09F479C0883A09F09ACF84E049
:101B5000809387031092390310923803E0915B035E
:101B6000F0915C0319958091380381110FC081E0D9
:101B7000809338031092180309C0803C09F4A6CF63
:101B8000883C09F4A3CF883B09F07BCFE09139036F
:101B900081E08E0F80933903F0E0E85EFC4F808196
:101BA0008093BB00909139038091380329C08091C4
:101BB00062038093BB0085EC8093BC0062CF909160
:101BC000840380918303981758F5E091840381E0A2
:101BD0008E0F80938403F0E0ED59FC4F8081E9CFB4
:101BE000E091840381E08E0F809384038091BB0099
:101BF000F0E0ED59FC4F8083909184038091830342
:101C00009817C8F285E8D8CFE091840381E08E0F61
:101C1000809384038091BB00F0E0ED59FC4F8083FA
:101C20008091860381115CCF81E08093610384EA17
:101C30008093BC001092870324CF85EC8093BC0076
:101C40001092870380915A03803230F4E0915A0356
:101C5000F0E0E65CFC4F108260915A0370E0E09186
:101C60005D03F0915E038AE393E0199510925A03A5
:101C700008CF1092850334CF1F920F920FB60F92A8
:101C800011242F933F938F939F93AF93BF93809192
:101C9000EF029091F002A091F102B091F202309126
:101CA000EE0223E0230F2D3758F50196A11DB11D3B
:101CB0002093EE028093EF029093F002A093F10242
:101CC000B093F2028091F3029091F402A091F50298
:101CD000B091F6020196A11DB11D8093F30290937D
:101CE000F402A093F502B093F602BF91AF919F91D9
:101CF0008F913F912F910F900FBE0F901F901895CD
:101D000026E8230F0296A11DB11DD2CF1F920F927C
:101D10000FB60F9211240BB60F922F933F934F9350
:101D20005F936F937F938F939F93AF93BF93EF9343
:101D3000FF938091E7029091E802A091E902B091AF
:101D4000EA02892B8A2B8B2BD1F19091E6028091AC
:101D500000008927809300008091E7029091E802BB
:101D6000A091E902B091EA02181619061A061B069C
:101D70009CF48091E7029091E802A091E902B09171
:101D8000EA020197A109B1098093E7029093E80262
:101D9000A093E902B093EA02FF91EF91BF91AF9156
:101DA0009F918F917F916F915F914F913F912F9173
:101DB0000F900BBE0F900FBE0F901F901895809143
:101DC0000002E2E2F2E0E4919FEF90930002E23041
:101DD000E9F040F4EE2389F0E13091F060E00E94F8
:101DE0008202DACFE43049F110F1E530B9F7909191
:101DF00073009D7F90937300F1CF10926E00EECF31
:101E000090916F009D7F90936F00E8CF909170004C
:101E10009D7F9093700091E09093B0009091B100FD
:101E2000987F94609093B1001092B300D7CF9091B7
:101E300071009D7F90937100D1CF909172009D7F32
:101E400090937200CBCF1F920F920FB60F92112476
:101E50000BB60F922F933F934F935F936F937F93A4
:101E60008F939F93AF93BF93EF93FF938DEB93E08B
:101E70000E945707FF91EF91BF91AF919F918F9172
:101E80007F916F915F914F913F912F910F900BBE7A
:101E90000F900FBE0F901F9018951F920F920FB6C4
:101EA0000F9211240BB60F922F938F939F93EF9362
:101EB000FF93E091CD03F091CE038081E091D303B5
:101EC000F091D40382FD1DC090818091D6038F5F75
:101ED0008F732091D703821741F0E091D603F0E091
:101EE000E354FC4F958F8093D603FF91EF919F9120
:101EF0008F912F910F900BBE0F900FBE0F901F90E0
:101F000018958081F2CF1F920F920FB60F92112475
:101F10000BB60F922F933F934F935F936F937F93E3
:101F20008F939F93AF93BF93CF93DF93EF93FF93E1
:101F30008091E502C0919604D0E087FF23C0109203
:101F40008500109284008091E5028F5F8093E50206
:101F50008091E502082E000C990B8C179D0724F444
:101F60008091E5028C3074F180918400909185001D
:101F700084349C4908F465C0809184009091850068
:101F8000049661C08091E502082E000C990B8C1715
:101F90009D07CCF63091E50225E03203F0011124D3
:101FA000E65AFB4F808186FFCECF3091E5023203A7
:101FB000F0011124E65AFB4F808160E08F730E948C
:101FC0008202C1CF80918400909185003091E5021A
:101FD00025E03203F0011124E65AFB4F4181528182
:101FE000840F951F90938900809388003091E502BB
:101FF0003203F0011124E65AFB4F808186FF0CC0AA
:102000003091E5023203F0011124E65AFB4F808142
:1020100061E08F730E948202FF91EF91DF91CF9177
:10202000BF91AF919F918F917F916F915F914F91F0
:102030003F912F910F900BBE0F900FBE0F901F90EE
:10204000189580E49CE990938900809388008FEF35
:102050008093E502E1CFFC0110821182128213828B
:1020600014821582168217821086118612861386B4
:102070001586148617861686118A108A128A138A84
:10208000148A158A168A178A14A215A216A217A2F4
:1020900010A611A612A613A680E090E0A0EAB0E474
:1020A00084A795A7A6A7B7A780E090E0A8ECB2E424
:1020B00080AB91ABA2ABB3AB14AA15AA16AA17AA10
:1020C00010AE11AE12AE13AE0895EF92FF920F93C1
:1020D0001F93CF93DF931092B4031092B30388EE53
:1020E00093E0A0E0B0E08093B5039093B603A09393
:1020F000B703B093B80323E132E03093B2032093E7
:10210000B1031092C0031092BF038093C103909358
:10211000C203A093C303B093C40385E292E09093FB
:10212000BE038093BD0385EC90E09093CA03809337
:10213000C90384EC90E09093CC038093CB0380ECB4
:1021400090E09093CE038093CD0381EC90E0909348
:10215000D0038093CF0382EC90E09093D2038093DE
:10216000D10386EC90E09093D4038093D303109234
:10217000D6031092D7031092D8031092D9038EE29F
:1021800090E00E942A19EC018CE0888384E2898324
:1021900015E01A8386E08B838EE18C838FE18D833B
:1021A00082E28E8383E28F8384E4888785E4898753
:1021B0001B861A8680E48D871A8A1B8A1C8A1D8AD0
:1021C0001E8A1F8A188E198E88E0E7E0F2E0DE0191
:1021D000929601900D928A95E1F780E090E0A0EA56
:1021E000B0E48AA79BA7ACA7BDA7D093A404C093D3
:1021F000A30481E090E00E942A197C01E0919604FA
:10220000EC3008F062C081E08E0F80939604D70115
:10221000EC931E9FF0011124E65AFB4F88EB9BE0E4
:1022200092838183F092A204E092A1048CE390E077
:102230000E942A198C010E942B101093A004009375
:102240009F048CE390E00E942A198C010E942B10BD
:1022500010939E0400939D048CE390E00E942A1941
:102260000E942B1086E090E00E942A19FC0188E56C
:1022700090E09383828315821482F182E082F0934E
:102280009C04E0939B0483E090E00E942A19DC0107
:1022900012961C921297CD93DC9390939A0480939C
:1022A000990483E090E00E942A1921E0FC01228336
:1022B000D183C0839093980480939704DF91CF914A
:1022C0001F910F91FF90EF9008958FEFF70180839A
:1022D000A9CFCF93DF93CDB7DEB7A6970FB6F8940B
:1022E000DEBF0FBECDBF789484B5826084BD84B557
:1022F000816084BD85B5826085BD85B5816085BD01
:1023000080916E00816080936E00109281008091B8
:102310008100826080938100809181008160809340
:102320008100809180008160809380008091B10065
:1023300084608093B1008091B00081608093B00090
:1023400080919100826080939100809191008160E2
:1023500080939100809190008160809390008091A3
:10236000A10082608093A1008091A1008160809390
:10237000A1008091A00081608093A0008091210144
:1023800082608093210180912101816080932101ED
:102390008091200181608093200180917A00846087
:1023A00080937A0080917A00826080937A00809195
:1023B0007A00816080937A0080917A0080688093AF
:1023C0007A001092C100E091CD03F091CE0382E03B
:1023D0008083E091C903F091CA031082E091CB039E
:1023E000F091CC0380E180831092D503E091D1037A
:1023F000F091D20386E08083E091CF03F091D00387
:10240000808180618083E091CF03F091D00380814F
:1024100088608083E091CF03F091D0038081806851
:102420008083E091CF03F091D00380818F7D808302
:102430000091A3041091A40461E0D80111968C913D
:102440000E944D0360E0F80181810E94820260E0F9
:10245000D8018C910E944D03F80182859385892BC8
:10246000B9F486E090E00E942A19FC01D8011D967B
:102470008C911D97808381EB93E0928381831382FB
:1024800080E290E0958384831B96FC93EE931A97E9
:10249000F801C284D3841092600310925F031092FB
:1024A0008E031092B0030E940E0383ED91E090938F
:1024B0005C0380935B0384ED91E090935E038093D3
:1024C0005D03FF24F394D6011396FC92C6010E948B
:1024D0007506882309F44FC080E090E1A0E0B0E0E9
:1024E000F80186879787A08BB18B8AE090E0A0E007
:1024F000B0E0828B938BA48BB58B80E090E0A0E062
:10250000B0E4868B978BA08FB18F828593851BA2B9
:102510001CA21DA21EA29D8B8C8B1F8A1E8AFD8E63
:1025200085E090E09B8F8A8FFE8EA2E0EA2EEC8EF3
:102530004685578560897189CE0144960E94CA05F7
:10254000D8011A968D919C91188A198A1A8A1B8A29
:102550009A8389831C821B82FA8618861F82FB86D7
:10256000E9864FE959E360E070E0CE0101960E94F0
:10257000CA05F80184877801F2E0EF0EF11C5801DA
:1025800084E0A80EB11C5CE8452E52E0552E62EDA9
:10259000662E62E0762E7BECC72E77E0D72ED70131
:1025A00012969C91F70181917F01D8015A968C93E4
:1025B0005A975B969C9361E00E944D0361E0F8019D
:1025C000838D0E944D034801FEE18F0E911CD701BF
:1025D00015969C91159713968C91F801868F978F7D
:1025E00061E00E944D0360E0D8015F968C910E94EB
:1025F0004D0361E0F801868D0E9482023FB6F89497
:102600008091EB02811125C0F2018491F301949134
:10261000E82FF0E0EE0FFF1FED5DFD4FA591B491A7
:102620008C91982321F461E085E30E94820261E0AD
:1026300085E30E944D038CB580618CBD8CB58064B0
:102640008CBD61E084E30E944D0361E083E30E945E
:102650004D038091EB028F5F8093EB023FBEC6017A
:102660000197F1F760E0D8015E968C910E9482029A
:1026700088E80E94BA0983E00E94BA0961E0F80183
:10268000868D0E948202C6010197F1F7C4010E9463
:10269000C1090E5F1F4FA016B10609F080CFE0916F
:1026A0009704F09198048281823008F403C188E491
:1026B00092E00E945F0AE0919904F0919A0482816D
:1026C000823008F402C188E492E00E945F0A00911F
:1026D000A1041091A204D8018C918C3008F049C05B
:1026E00061E088E00E944D03F801808195E0899FB8
:1026F000F0011124E65AFB4F9081907C9860908302
:1027000097EA93839BE494832CE0622F0E94BB158D
:10271000829FB001112430E020E095E0AB01420F30
:10272000531F949FF001959FF00D1124E65AFB4F23
:10273000408146FD13C02F5F3F4F2C30310571F7AC
:1027400081110CC01092800082E080938100109271
:1027500085001092840086BB80936F00D801EC91B5
:10276000B5E0EB9FF0011124E65AFB4F80818064B5
:10277000808300919D0410919E048DEC9CECACE450
:10278000BEE3F80180839183A283B3838DEC9CEC3C
:10279000ACE4BDE384839583A683B783108611865A
:1027A0001286138686EA9CE09587848788EE9BE0F4
:1027B0009787868787E09CE0918B808B8CEC9CEBE5
:1027C000ACE8BBE284A795A7A6A7B7A78AE090E0EC
:1027D000A0E0B0E0848F958FA68FB78F8AE097ED49
:1027E000A3E2BCE3808F918FA28FB38FE0919F040F
:1027F000F091A0048AE097EDA3EABBE38083918384
:10280000A283B383148215821682178210861186E2
:102810001286138688E59CE09587848781E19CE099
:102820009787868789E19CE0918B808B80E090E0A0
:10283000A0E0B1E484A795A7A6A7B7A784E690E097
:10284000A0E0B0E0848F958FA68FB78F8DEC9CECC5
:10285000ACECBDE3808F918FA28FB38FCF010E942C
:102860001909C8010E94190983E090E09093ED02D4
:102870008093EC02C12CD12C80E2E82E82E4F82E69
:10288000812C912C96E9A92E93E4B92E8091EC022B
:102890009091ED028330910509F4B7C00CF58130B9
:1028A0009105B9F1029709F46FC08CEB92E00E9498
:1028B000520A5BC090E00F96880F991F20813181EA
:1028C000820F931F0E94C109F6CE90E00F96880FE9
:1028D000991F20813181820F931F0E94C109F7CE79
:1028E0008530910509F4C9C00CF43FC00697E9F69C
:1028F000E0919D04F0919E04C28AD38AE48AF58A0D
:10290000E0919F04F091A004128A138A148A158A18
:102910002CC08CE592E00E94520A85E792E00E946A
:10292000520A00919B0410919C04D80114966D9159
:102930007C9115978D919C910E94450968EE73E0FA
:1029400080E090E00E94AE06F80162817381808190
:1029500091810E9445098CE792E00E94520A68EE3C
:1029600073E080E090E00E94AE0680919D0490911B
:102970009E040E94170880919F049091A0040E94D9
:1029800017080E94E60782CF82E892E00E94520A6E
:1029900040E050E0BA018091990490919A040E941D
:1029A0006D0A64EF71E080E090E00E94AE064DECAD
:1029B0005CEC6CEC7EE38091990490919A040E9407
:1029C0006D0A60ED77E080E090E00E94AE064DEC8D
:1029D0005CEC6CEC7EEB8091990490919A040E94DF
:1029E0006D0A60ED77E080E090E00E94AE0640E086
:1029F00050E0BA018091990490919A040E946D0A66
:102A000064EF71E080E090E0AECF80EA92E00E9457
:102A1000520AE0919B04F0919C046481758180814D
:102A200091810E94450940E050E060E87FEB809191
:102A30009704909198040E946D0A68EE73E080E01C
:102A400090E00E94AE064DEC5CEC6CEC7DE3809176
:102A50009704909198040E946D0A68EE73E080E0FC
:102A600090E00E94AE0640E050E0BA0180919704E9
:102A7000909198040E946D0A78CFE0919D04F091A6
:102A80009E04C28AD38AE48AF58AE0919F04F09179
:102A9000A004828A938AA48AB58AE0919B04F0916B
:102AA0009C0464817581808191810E9445095DCF7C
:102AB000052E97FB1EF400940E946F1557FD07D05A
:102AC0000E948A1507FC03D04EF40C946F155095A4
:102AD0004095309521953F4F4F4F5F4F089590950A
:102AE0008095709561957F4F8F4F9F4F08950E94FD
:102AF000AC15A59F900DB49F900DA49F800D911DC6
:102B000011240895B7FF0C9477150E947715821B46
:102B1000930B0895A1E21A2EAA1BBB1BFD010DC049
:102B2000AA1FBB1FEE1FFF1FA217B307E407F5077D
:102B300020F0A21BB30BE40BF50B661F771F881F59
:102B4000991F1A9469F760957095809590959B01EF
:102B5000AC01BD01CF010895A29FB001B39FC00198
:102B6000A39F700D811D1124911DB29F700D811DB9
:102B70001124911D0895991B79E004C0991F96179F
:102B800008F0961B881F7A95C9F780950895EE0F77
:102B9000FF1F881F8BBF0790F691E02D19945058A6
:102BA000BB27AA270E94E7150C9407180E94CE178E
:102BB00038F00E94D51720F039F49F3F19F426F41D
:102BC0000C9490170EF4E095E7FB0C948A17E92F0C
:102BD0000E942C1858F3BA176207730784079507E9
:102BE00020F079F4A6F50C944E180EF4E0950B2E17
:102BF000BA2FA02D0B01B90190010C01CA01A0014F
:102C00001124FF27591B99F0593F50F4503E68F1A9
:102C10001A16F040A22F232F342F4427585FF3CFEA
:102C2000469537952795A795F0405395C9F77EF4BB
:102C30001F16BA0B620B730B840BBAF09150A1F004
:102C4000FF0FBB1F661F771F881FC2F70EC0BA0F8A
:102C5000621F731F841F48F4879577956795B79512
:102C6000F7959E3F08F0B0CF9395880F08F099270D
:102C7000EE0F9795879508959F939F77EEE3893799
:102C80009E0728F4E4EEF0E00E94BA170CC00E9400
:102C900046179058A2EA2AED3FE049EC5FE30E9414
:102CA000E7150E9407180F9007FC905808950E949E
:102CB000661708F481E008950E94DE17E3950C94EE
:102CC00018180E9475160C9407180E94D51758F012
:102CD0000E94CE1740F029F45F3F29F00C948A1728
:102CE00051110C944F180C9490170E942C1868F3F3
:102CF0009923B1F3552391F3951B550BBB27AA27B5
:102D000062177307840738F09F5F5F4F220F331FEE
:102D1000441FAA1FA9F335D00E2E3AF0E0E832D0B6
:102D200091505040E695001CCAF72BD0FE2F29D0B9
:102D3000660F771F881FBB1F261737074807AB078B
:102D4000B0E809F0BB0B802DBF01FF2793585F4F00
:102D50003AF09E3F510578F00C948A170C944F1866
:102D60005F3FE4F3983ED4F3869577956795B795E2
:102D7000F7959F5FC9F7880F911D9695879597F9ED
:102D80000895E1E0660F771F881FBB1F6217730766
:102D90008407BA0720F0621B730B840BBA0BEE1F7B
:102DA00088F7E09508950E94DA166894B1110C94A2
:102DB0004F1808950E94341888F09F5798F0B92F43
:102DC0009927B751B0F0E1F0660F771F881F991F60
:102DD0001AF0BA95C9F714C0B13091F00E944E189C
:102DE000B1E008950C944E18672F782F8827B85FAC
:102DF00039F0B93FCCF3869577956795B395D9F7B8
:102E00003EF490958095709561957F4F8F4F9F4FC1
:102E10000895E89409C097FB3EF4909580957095CD
:102E200061957F4F8F4F9F4F9923A9F0F92F96E916
:102E3000BB279395F695879577956795B795F1118B
:102E4000F8CFFAF4BB0F11F460FF1BC06F5F7F4F28
:102E50008F4F9F4F16C0882311F096E911C077233A
:102E600021F09EE8872F762F05C0662371F096E843
:102E7000862F70E060E02AF09A95660F771F881F12
:102E8000DAF7880F9695879597F90895DF93CF9392
:102E90001F930F938B01EC01E8EFF0E00E94931772
:102EA0000E9407189801AE018B01EC0160E070E010
:102EB00080E89FE30E94CF150E94D5189801AE01CB
:102EC0000F911F91CF91DF910C946D18990F00080D
:102ED000550FAA0BE0E8FEEF16161706E807F907EC
:102EE000C0F012161306E407F50798F0621B730B87
:102EF000840B950B39F40A2661F0232B242B252B08
:102F000021F408950A2609F4A140A6958FEF811DAA
:102F1000811D089597F99F6780E870E060E008954B
:102F20009FEF80EC0895DF93CF931F930F93FF9251
:102F3000EF92DF927B018C01689406C0DA2EEF01DC
:102F40000E946D18FE01E894A59125913591459157
:102F50005591A6F3EF010E94E715FE019701A80124
:102F6000DA9469F7DF90EF90FF900F911F91CF9166
:102F7000DF9108959F938F937F936F93FF93EF93C8
:102F80009B01AC010E945A18EF91FF910E94931788
:102F90002F913F914F915F910C945A1800240A94FD
:102FA0001616170618060906089500240A94121624
:102FB00013061406050608950C9490170E94341801
:102FC000D8F3E894E0E0BB279F57F0F02AED3FE00C
:102FD00049EC06C0EE0FBB0F661F771F881F28F055
:102FE000B23A62077307840728F0B25A620B730B78
:102FF000840BE3959A9572F7803830F49A95BB0F5D
:10300000661F771F881FD2F790480C941719092E56
:103010000394000C11F4882352F0BB0F40F4BF2B33
:1030200011F460FF04C06F5F7F4F8F4F9F4F089573
:10303000EF93E0FF07C0A2EA2AED3FE049EC5FEB27
:103040000E94E7150E9407180F90039401FC905806
:10305000E0E2F1E00C94BA1757FD9058440F551F69
:1030600059F05F3F71F04795880F97FB991F61F00A
:103070009F3F79F087950895121613061406551F81
:10308000F2CF4695F1DF08C0161617061806991FED
:10309000F1CF86957105610508940895E894BB27E2
:1030A00066277727CB0197F908950E94661708F4E1
:1030B0008FEF08950E946D180C9407180E94CE1788
:1030C00038F00E94D51720F0952311F00C948A1740
:1030D0000C94901711240C944F180E942C1870F324
:1030E000959FC1F3950F50E0551F629FF001729FAD
:1030F000BB27F00DB11D639FAA27F00DB11DAA1FBC
:10310000649F6627B00DA11D661F829F2227B00D08
:10311000A11D621F739FB00DA11D621F839FA00D93
:10312000611D221F749F3327A00D611D231F849FE3
:10313000600D211D822F762F6A2F11249F5750403A
:103140009AF0F1F088234AF0EE0FFF1FBB1F661FB5
:10315000771F881F91505040A9F79E3F510580F07E
:103160000C948A170C944F185F3FE4F3983ED4F305
:10317000869577956795B795F795E7959F5FC1F722
:10318000FE2B880F911D9695879597F908959F932B
:103190000E94DE170F9007FCEE5F0C94181819F4CC
:1031A00016F40C9490170C9415190E943418B8F367
:1031B0009923C9F3B6F39F57550B87FF0E94231934
:1031C0000024A0E640EA900180585695979528F48F
:1031D000805C660F771F881F20F026173707480787
:1031E00030F4621B730B840B202931294A2BA695DE
:1031F00017940794202531254A2758F7660F771F23
:10320000881F20F026173707480730F4620B730B2E
:10321000840B200D311D411DA09581F7B901842F2C
:103220009158880F9695879508959F3F31F091505A
:1032300020F4879577956795B795880F911D96959A
:10324000879597F9089591505040660F771F881F12
:10325000D2F708950F931F93CF93DF938230910598
:1032600010F482E090E0E091A704F091A80430E02F
:1032700020E0B0E0A0E0309799F42115310509F481
:103280004AC0281B390B24303105D8F58A819B812F
:103290006115710589F1FB0193838283FE0111C0E1
:1032A000408151810281138148175907E0F0481786
:1032B000590799F4109761F012960C931297139690
:1032C0001C933296CF01DF91CF911F910F910895FA
:1032D0000093A7041093A804F4CF2115310551F0F1
:1032E0004217530738F0A901DB019A01BD01DF0144
:1032F000F801C1CFEF01F9CF9093A8048093A70400
:10330000CDCFFE01E20FF31F81939193225031093B
:1033100039832883D7CF2091A5043091A604232B8D
:1033200041F420910302309104023093A6042093CB
:10333000A50420910102309102022115310541F4CA
:103340002DB73EB74091050250910602241B350B64
:10335000E091A504F091A604E217F307A0F42E1B58
:103360003F0B2817390778F0AC014E5F5F4F2417E9
:10337000350748F04E0F5F1F5093A6044093A504F5
:10338000819391939FCFF0E0E0E09CCFCF93DF93C8
:103390000097E9F0FC01329713821282A091A704F2
:1033A000B091A804ED0130E020E01097A1F4208155
:1033B0003181820F931F2091A5043091A604281714
:1033C000390709F061C0F093A604E093A504DF91EA
:1033D000CF910895EA01CE17DF07E8F54A815B81B6
:1033E0009E0141155105B1F7E901FB83EA8349913B
:1033F0005991C40FD51FEC17FD0761F480819181AD
:103400000296840F951FE9019983888382819381B5
:103410009B838A83F0E0E0E012968D919C91139754
:103420000097B9F52D913C911197CD010296820F2D
:10343000931F2091A5043091A6042817390739F667
:10344000309751F51092A8041092A704B093A604E7
:10345000A093A504BCCFD383C28340815181840F44
:10346000951FC817D90761F44E5F5F4F8881998116
:10347000480F591F518340838A819B8193838283A4
:103480002115310509F0B0CFF093A804E093A7040B
:103490009ECFFD01DC01C0CF13821282D7CFF894FA
:0234A000FFCF5C
:1034A200FF0000A904800030003100320033000028
:1034B200000000530226020D07FC011F020C02FD50
:1034C20001000000007907E0061007C60741071F48
:1034D2000733070D0A00496E76616C6964206D6FCF
:1034E200746F722069642100496E76616C69642090
:1034F200656E636F64657220696421000A202D2D58
:103502002D2D20544553542050494E4345202D2DF6
:103512002D2D2D0A00636C6F73650A006F70656E46
:103522000A000A202D2D2D2D2054455354204445A8
:10353200504C4143454D454E542D2D2D2D2D0A0005
:103542000A202D2D2D2D205445535420454C4556EF
:103552004154494F4E2D2D2D2D2D0A0063686F6960
:0C3562007820696E76616C6964650A006F
:00000001FF
